:020000041000EA
:1000000000B5324B212058609868022188439860DF
:10001000D860186158612E4B002199600221596106
:100020000121F02299502B49196001219960352056
:1000300000F044F80222904214D00621196600F024
:1000400034F8196E01211966002018661A6600F04E
:100050002CF8196E196E196E052000F02FF8012189
:100060000842F9D1002199601B49196000215960AB
:100070001A491B48016001219960EB211966A021F2
:10008000196600F012F800219960164914480160C1
:100090000121996001BC002800D000471248134993
:1000A000086003C880F30888084703B5996A0420EC
:1000B0000142FBD001200142F8D103BD02B5186610
:1000C0001866FFF7F2FF186E186E02BD00000240BE
:1000D000000000180000070000035F00212200005C
:1000E000F4000018222000A00001001008ED00E03C
:1000F00000000000000000000000000074B24E7A12
:1001000000200420F7010010C3010010C5010010F9
:10011000C1010010C1010010C1010010C101001097
:10012000C1010010C1010010C1010010C701001081
:10013000C1010010C1010010C9010010CB01001065
:10014000CD010010CD010010CD010010CD01001037
:10015000CD010010CD010010CD010010CD01001027
:10016000CD010010CD010010CD010010CD01001017
:10017000CD010010CD010010CD010010CD01001007
:10018000CD010010CD010010CD010010CD010010F7
:10019000CD010010CD010010CD010010CD010010E7
:1001A000CD010010CD010010CD010010CD010010D7
:1001B000CD010010CD010010CD010010CD010010C7
:1001C00000BE00BE00BE00BE00BE00BEEFF3058054
:1001D000103800BEF2EB887170BC00109CBC00109F
:1001E0003802001090A31AE71E481F49086006C88D
:1001F00081F3088810471D480068002801D019487D
:10020000F3E70DA40ECC002902D000F012F8F9E7B4
:100210001749184A002000E001C19142FCD116495B
:100220008847164988471649884700BEFDE701C937
:1002300001C29A42FBD370479CBC0010D000002042
:10024000080C0020D4C70010000004200000042087
:10025000D4C700100010042000100420000000008B
:10026000704700000000000008ED00E0000000D032
:10027000080C002048130020C1420010850900101E
:1002800081420010F8B5C0460448054B10B58342C2
:1002900003D0044B002B00D0984710BD080C002061
:1002A000080C00200000000006480749091A8B10BE
:1002B000C90FC91810B5491003D0044B002B00D04A
:1002C000984710BD080C0020080C0020000000001A
:1002D00010B5074C2378002B09D1FFF7D5FF054B4C
:1002E000002B02D0044800E000BF0123237010BDA2
:1002F000381000200000000014AD0010054B10B5B0
:10030000002B03D00449054800E000BFFFF7CCFFF5
:1003100010BDC046000000003C10002014AD0010CD
:10032000A42304210D4AD1500D4B0E4A18681168C0
:10033000884211D0196811601A680B4B19688B003C
:100340005B180A499B00591809684A400849120479
:100350008C46120C63441A607047C046000005408A
:10036000C0100020E0100020341300200C000540D5
:100370000C10054070B5824C2568002D00D1AAE014
:10038000AF46804B2360804B9B699B0600D586E07F
:10039000D0231B061B68012B00D1C7E001227B4B39
:1003A0001A607B4B00229B5E7F2B00D1B6E020229F
:1003B000754910008B6918401A42FAD17F23754A9B
:1003C0000B601368013B00D5A6E01360632B00DCD3
:1003D00094E000230220236070BD6F4B23606A4BC2
:1003E0009B699B065BD4D0231B061B68012B00D1A5
:1003F000A7E00122654B1A60684B1D78644B002210
:100400009B5EAB4200D194E020225F4910008B69D3
:1004100018401A42FAD10D600D2D00D194E07F2DC5
:1004200076D05C490A68531C0B605D498D54CDE75A
:100430005C4B2360544B9B699B0630D4D0231B0636
:100440001B68012B61D00122504B1A60504B0022D7
:100450009B5E0A2B00D18AE020214B4A9369194206
:10046000FCD10A231360B4E74F4B2360464B9B69D2
:100470009B0614D4D0231B061B68012B74D00122C9
:10048000424B1A60424B00229B5E202B64D02021FD
:100490003D4A93691942FCD13A4B11602360012017
:1004A0009AE7424B2360384B9B69DB06F7D4D02395
:1004B0001B061B68012B25D00122344B1A6010212A
:1004C000314A93691942FCD11268344B01201A70E9
:1004D000314B236080E764220021314802F040FB69
:1004E0002C4B294A1D609369DB0607D410219369C0
:1004F0001942FCD1136893691942F8D02B4B0120A3
:10050000236069E72A4A1360D9E7294A13609DE707
:10051000254B012023605FE71060EFE720211A4A96
:1005200093691942FCD10D23136040E7204A136000
:1005300037E72021144A93691942FCD10D23136037
:1005400062E71B4A136057E7124A154B126898542A
:10055000144B012023603FE720210B4A9369194285
:10056000FCD10D23136092E7114A13608AE7202122
:10057000054A93691942FCD10D2313606CE7C0460C
:10058000D41100208203001000400340F810002026
:100590003C130020F4100020DA0300104413002064
:1005A0000C1100203004001068040010A204001098
:1005B000FC100020F0B5DE4657464E464546E0B5F5
:1005C000474B85B01B68002B00D087E0454B1B686C
:1005D000002B1AD1444B454E9A460027444C3368B1
:1005E0000FE00022554653009B189B0053442800FF
:1005F0009B68984722683368013222600C359A4222
:10060000F1DB2760002BECDCFEE7012B06D005B008
:10061000F0BCBB46B246A946A046F0BD324B344CB6
:100620009A46344B314E9846334B344F0293344BF9
:10063000344D0393002399463B6801333B604B469E
:1006400023603368002B00DCFEE72B00BB4625004F
:10065000370054461E004B46336000F06FFF4346A0
:100660002A681860596053009B189B0053449B688C
:10067000200098473368012B0BD02B683A68013370
:100680002B600C349342E6DB2C0035003E005F46C5
:10069000D2E72C00236802999B00CA58350001322A
:1006A000CA5000F04BFF039A23689446DB009C4439
:1006B0006346009001911868596843461A685B6860
:1006C000801A994102000B000098019912184B41C1
:1006D00061463E000A604B605F46ADE79F46C046FC
:1006E0000011002008110020E4110020DC1100207E
:1006F000D010002028100020DC120020D41200208E
:10070000880D0020F8100020F0B5DE4657464E4612
:100710004546E0B5474B85B01B68002B00D087E00D
:10072000454B1B68002B1AD1444B454E9A46002777
:10073000444C33680FE00022554653009B189B0041
:10074000534428009B68984722683368013222602E
:100750000C359A42F1DB2760002BECDCFEE7012B25
:1007600006D005B0F0BCBB46B246A946A046F0BDD7
:10077000324B344C9A46344B314E9846334B344FBF
:100780000293344B344D0393002399463B68013365
:100790003B604B4623603368002B00DCFEE72B00F8
:1007A000BB462500370054461E004B46336000F020
:1007B000C5FE43462A681860596053009B189B0089
:1007C00053449B68200098473368012B0BD02B685B
:1007D0003A6801332B600C349342E6DB2C00350081
:1007E0003E005F46D2E72C00236802999B00CA585E
:1007F00035000132CA5000F0A1FE039A23689446E6
:10080000DB009C4463460090019118685968434698
:100810001A685B68801A994102000B0000980199E0
:1008200012184B4161463E000A604B605F46ADE7DF
:100830009F46C04604110020081100205C120020D1
:10084000E0110020D41000203010002004130020FC
:10085000D8120020D80D0020FC10002003680122CF
:10086000F0B5002B29D01C4B0360002A23D01B4B72
:100870009B699B061FD4D0231B061B68012B20D02D
:100880000122174B1A60174E174D3468174B2F5D16
:1008900000229B5EBB4217D02021104A9369194267
:1008A000FCD1176001342B5D00223460002BDAD1BB
:1008B00003600220F0BD0120FCE70024094E0A4D30
:1008C000F1E70B4A1360DEE72021044A93691942DD
:1008D000FCD10D231360DFE76608001000400340E1
:1008E000F8100020DC100020701100203C130020C4
:1008F000FC100020036870B50400002B0DD01648D2
:100900009F46164D16492A00164804F095FC2B68A0
:10091000154A934201D8154A13601549154B0A0030
:1009200061CB61C223CB23C219680B4811609B883D
:10093000938000230360104B2360FFF78FFF012893
:1009400008DD00220D4B1A600D4B2360FFF712FDEE
:100950000128D6D8002070BDD811002038130020FF
:1009600038AD00100C11002088130000C0100020CA
:100970007011002018AD001036090010D4110020AD
:100980004809001070B503F0F1FD0421042000F0C7
:1009900079F80223A4222C4D2C4C2B600233A35057
:1009A0002B4A042013602B4900F0FEF8012104209B
:1009B00000F0E8F8296828488B005B189B001A199A
:1009C0001061C82040005060244A9A181068244AD8
:1009D0004240244812048446120C63441A600123E6
:1009E000A0228B40A350D0231B061B68012B16D0DE
:1009F0001D4A1368092B06DD00221C4B1A60FFF705
:100A0000D9FD002070BD0C2058431949194D0C1810
:100A10006360A5600024013344501360ECE7164A7C
:100A20001368092B0ADC0C2058431449114D0C188B
:100A30006360A56000240133445013600022104B12
:100A40001A60FFF761FEDCE7341300200000054068
:100A5000A820054021030010881300000C00054069
:100A6000350C00000C100540DC11002000110020A6
:100A7000E4110020F5080010E01100205C120020B5
:100A800004110020094A83009A1810B51468402206
:100A9000544080322240064CC000A44663441A6091
:100AA000044B9C466044416010BDC04604C00140F8
:100AB00004D00140004001400FB400B5084883B0A5
:100AC00003F0A6FD049B002B07D005A91800019197
:100AD00003F076FB034803F09BFD012003F088FB45
:100AE0003CAD00104CAD001070B5EFF3108C72B639
:100AF0000D4D2B68002BFCD0BFF35F8F0724CB0874
:100B0000C618C05C01230C40A3401C0004400342F3
:100B100007D118433070BFF35F8F2C608CF31088BF
:100B200070BD1000FFF7C8FF2C0100D0044A1078F8
:100B3000431CDBB2172B00D9102313707047C0463B
:100B4000A80100200021044B044ABFF35F8F02C3B9
:100B50009342FAD17047C046000100D0800100D016
:100B6000054B064A1360064A136053609360D360D6
:100B700013615361936170478080808000E400E0DE
:100B800004E400E01F2318401E3B8340002905D0E9
:100B9000C021044A49005350136070478022014924
:100BA0008B50FAE700E100E070B50D00EFF310861E
:100BB00072B60F4A1368002BFCD0BFF35F8F0D4B4A
:100BC00010309B6884001B590B4A934203D09D420E
:100BD00001D000F027FF074B9B681D51BFF35F8FCB
:100BE000BFF35F8F0022024B1A6086F3108870BD3E
:100BF000240100D000ED00E0CD010010F0B5DE468C
:100C000057464E464546E0B50C0083B0EFF31088DA
:100C100072B6634A1368002BFCD0BFF35F8F614B41
:100C200061499A68030010339F00D55900938D42A3
:100C300043D0A54254D05D4EAA1B2F2A3DD85C4B11
:100C40009C461B689A4601231A00994682405346E7
:100C500013401F2201934B46024093409A46802244
:100C6000634650469850BFF35F8FEFF305839B4672
:100C7000002B37D0009B5B4501D000F0D3FE2A004B
:100C80004B469A439068844208D177E04B005B184A
:100C90009B00F3189868844236D01A0006215156FA
:100CA0000029F3DA844255D0019B002B27D0C022C3
:100CB00051463F4B5200995019603A4B9B68DD51A9
:100CC000BFF35F8FBFF35F8F0022354B1A6088F34D
:100CD000108803B0F0BCBB46B246A946A046F0BDA2
:100CE0000D00EAE72A004B469A4390688442D5D12A
:100CF00006201056130000280ADA0D0032E0802387
:100D000051462B4AD150D8E706201856002822DB3E
:100D100042001118890074188946A1689960E17928
:100D2000D971062161569971002925DBA488F11A31
:100D3000640524154C440919E0240905490D2402D1
:100D40002143998013181B4A9B001178F31899715D
:100D50001070A9E713005946002914D1FF31917191
:100D60001549918013490A789A71144A9B1B5B417B
:100D70005A43120D0A7097E71149E2E70620105610
:100D800013000028C4DA0F4A0F49D21A083A500259
:100D9000400D014399800D4952080A43DA8083E7E8
:100DA000240100D000ED00E0CD010010AC010020D6
:100DB00000E100E04513002001BDFFFFAAAA0000EA
:100DC00001BD0000E601002000F0FFFF00F8FFFF7A
:100DD00070B501240443EFF30581EFF3108C72B674
:100DE000214A1368002BFCD0BFF35F8F1F4B050017
:100DF0001F4AED1A6D416A43120D1E4D8900AE68FF
:100E000052B27658A6421CD00621595691421CD0A7
:100E100012215956914222D01E215956914220D07A
:100E20002A2159560324914210D0134B19781A7075
:100E30008171BFF35F8F00220B4B1A608CF3108817
:100E400070BDAB680D4C5C50EFE7002461000919E0
:100E500089005B18FF21997109499980E5E7012410
:100E6000F4E70224F2E7C046240100D0AC010020E0
:100E7000AAAA000000ED00E045130020CD010010FB
:100E800001BDFFFF024B9C46614489000160704731
:100E900040000034F8B5134D134E2C00FF27B54227
:100EA0001ED22368002B0FD0FFF740FE0100280060
:100EB000FFF7E8FFA780BFF35F8F0834B4420FD27B
:100EC00023682500002BEFD1FFF730FE010028003A
:100ED000FFF7D8FF2771BFF35F8F0834B442EFD319
:100EE000F8BDC046F80B0020080C00200A4B19681A
:100EF000EFF3108072B60A68002AFCD0BFF35F8F50
:100F00001B68BFF35F8F00221A6080F3108840BF18
:100F1000002000217047C04630130020F0B5DE46A7
:100F200057464E464546E0B585B0EFF305820323AC
:100F30001340B64A9900575801229A408846934672
:100F4000B34B1A60B34B02935B46B3484363082329
:100F5000FE5E002E35DABB881BB2002B00DBA8E05A
:100F6000BB79002B00D0E9E00823F85E00281EDBE7
:100F700043007A691B18DB00D3189D68DC686B1C82
:100F800000D108E1A44801004144826A0B69AE1A0D
:100F90009B1A9E4213D35A46036A1A420FD09E48A8
:100FA00000F0C4FA8C4202DCCED18542CCD940BFDD
:100FB00005B0F0BCBB46B246A946A046F0BD0D61E7
:100FC000EDE77A69730091469B19DB0099444B4623
:100FD0009C68DD6800F0AAFA8D42BCDC00D1FEE01E
:100FE000002D00DAE3E04B46029A1B69934200D1E0
:100FF000D5E04A465288494694460822B85E624681
:101000000004496910439847009001910099019AA2
:101010000B001000134300D1C9E013000A000028A0
:1010200000DBE0E020002900801A99414B469860DF
:10103000D96000229A5E002A00DA8CE753009C18DF
:101040007D69E4002C190093A368E4689A468C42F9
:1010500000DD80E702D1834200D97CE708239C466B
:10106000BC443A8103976746009BB4463E000EE0BD
:101070008C4200D1C5E01E000023F25E002A0BDB8B
:1010800053009C18E4002C19A768E468BA469B1822
:10109000DB00EB188C42EBDD330066469C464B468A
:1010A0001A806346039F1E80BB881BB2002B00DAA8
:1010B00056E73A69EFF3108172B61368002BFCD043
:1010C000BFF35F8F0123BE885B42BB8036B23B69B2
:1010D000BFF35F8F00221A6081F31088002E00DAC0
:1010E0003EE73B0008333A0099467D6973009B193F
:1010F000DB00EB189968DC688C460820115E4846D6
:10110000002910DB009306E0A34240D00023F95EE3
:101110003800002906DB4F007F18FF00EF19FB683D
:10112000A342F1DD009B068000201E5E1980002E88
:10113000DCDA1700BB79002B00D115E70023BB7167
:101140003D000823F95E08354B1C00D12FE77C6970
:101150000800A44603E035004B1C00D106E74B0015
:101160005B180A006146DB00CE18C95E73881BB2AB
:10117000002BF0DA01235B42DC17B360F46082429B
:10118000EAD029803B89100033803A81E4E7BB68CC
:101190006345BBD9C6E7631C00D0F3E6FFE64B46C8
:1011A0005B699A461B6950469847002823D14B46F5
:1011B0001B883A693B81EFF3108372B611680029EE
:1011C000FCD0BFF35F8F49467A880A803A697E80F7
:1011D000BFF35F8F0021116083F31088BBE6844268
:1011E00000D8FDE6B7E60C4800F0A0F9009B019C92
:1011F000C01861411AE753461A685B680092019370
:1012000004E7824500D836E746E7C046E4100020F0
:101210003C7005401D0F00100040054070B52E4C7D
:101220002569002D04D00A212C48FFF72BFE70BD44
:101230002B4E0321300000F06FF9E660FFF776FCDB
:10124000284B03229C46D02322701B061B680121D9
:101250006370254B6044A3600F238000206102204F
:10126000638063694942A180198002311986473140
:101270001D83585218315A5275325C3999521832BE
:101280000131995218320131995218320131995273
:10129000083518329D5202311832995218320131F4
:1012A000995218320131995218320131995218323B
:1012B000013199521832013199520C4B0C49DC60C2
:1012C00001303562FFF770FC01210320FFF75AFC63
:1012D000084B1D60A7E7C046F40100203013002032
:1012E0000040054040000034FFFF1000E4100020E3
:1012F0001D0F00103860054070B501000469EFF360
:10130000108C72B620680028FCD0BFF35F8F0220DB
:101310000D5E4C6968004019C0002418002D37DBB1
:10132000208848800869BFF35F8F002606608CF331
:101330001088E36063880498013320615B0405989A
:101340005B0CA26060611A1C002B1FD093B22804B2
:10135000628018430A69EFF3108C72B61368002B91
:10136000FCD0BFF35F8F8B8823808D800B69BFF328
:101370005F8F00221A608CF310880B7801329A403C
:10138000CB6808498C4663441A6070BD0122DDE7D2
:101390000B69BFF35F8F00221A608CF31088012065
:1013A0004042F2E73C20000010B543890A14934202
:1013B0001ADD53009B184269DB00D3180469EFF370
:1013C000108C72B62268002AFCD0BFF35F8F5A8857
:1013D000090494B2090C8A4208D00369BFF35F8FF5
:1013E00000221A608CF31088002010BD80221202A7
:1013F00014435C80012302698371BFF35F8F002176
:1014000011608CF31088044902788C469340C268BE
:10141000012062441360E8E73C200000F0B5CE46AE
:10142000474680B504000D0083B0EFF30587002F19
:101430000DD0364A0020536A8B4203D3926A0130A2
:10144000A24250D303B0C0BCB946B046F0BD304B49
:101450009846DB689946434648461E7800F066F891
:101460000B00494602000436B600715820008E1A5F
:101470002900801A99418F4211DC0ED020BF234AE7
:101480000020536AAB42DDD3926A0130A242D9D226
:10149000EB1A5A1E9341D8B2D4E78642EED900F037
:1014A0004DF822002B00121A8B41002B20DB002369
:1014B0000193184B2200009340462B00FFF71CFFBE
:1014C000011E15DD114B2E005A6A95421CD89B6AED
:1014D000A34217D34046FFF767FF0C4A0020536A28
:1014E0009E42AFD8D0E75B1A5A1E9341D8B2A9E703
:1014F000064A0020536AAB42A4D3926A0120A2425A
:10150000A0D2C5E79542E5D120BFE3E70040054002
:10151000F4010020ED0E001010B5024A0248FFF75A
:10152000E3FA10BD58AD0010941000200300416A8A
:101530000A00986A596A8A42FAD17047034B596A7D
:101540000A00986A596A9142FAD1704700400540F2
:1015500070B504000D00174A536A1900966A536A61
:101560008B42FAD13000190024184D41AB4216D8F5
:1015700013D0104B2A005B6A9D4203D90D494B6A78
:101580009342FCD3934207D10A4A02E0516A99423E
:1015900002D1916AA142F9D370BDA642E9D9054BA7
:1015A0005B6A1C005A1CEFD0012201246442E5173B
:1015B0005242E3E700400540F8B5040006200D0064
:1015C00000F076F9002842D0364B3749E2185342F2
:1015D0005A418023DB039C469205344B62441A60D7
:1015E000334B1A6010000B689843FBD12D4B314AE6
:1015F000E31859424B4180215B0049000620995273
:1016000000F056F92900C00000F012FB0130C309B8
:101610001ED1402701226262A362266BF30722D407
:10162000E36A254B0620E51800232B60266300F0B3
:101630003FF93900800000F0FBFA7023E26A5A405B
:101640000E3313402B601D4B23630323A364F8BDAB
:101650001B4A93421ED900231A4A1B4F6262A3629F
:10166000266BF307DCD5194B144AE3181A60656A38
:10167000A36A0620AD01ED1800F01AF9144900F034
:10168000D7FAAD020100280000F0D2FA0021FFF7DE
:101690005FFFC5E74006800E9F011A003F18030058
:1016A000B9E7C0460080FCBF08C0004000E0004031
:1016B00000F000403C1300202C100000010300004B
:1016C000FEFF0000FFFF0000C0FF3F0030300000C1
:1016D0004E0E0000F8B5DE464E4657464546E0B58C
:1016E0008B4605000A991800160000F0A1FA0A9B23
:1016F0006C001F02324B64199C46A400644463686A
:1017000081469F4200D967602B1FDBB29846012BB0
:1017100030D9C02380229B01E31812011A60294BA3
:10172000AD0059599A4600291BD17301E026226861
:1017300053401E40802342465B01E3181E60012A8D
:1017400030D9802380229B01E31812011A6053468E
:101750004A4667605A51F0BCBB46B246A946A0460D
:10176000F8BD586900F064FA013043001B18033BD0
:10177000FDD2DAE75B46012BCBD1C02303229B01CC
:10178000E3181A60023AA3681A42FCD07301E026FB
:101790002268AD0053401E4080230A4A5B019246F6
:1017A000E3181E605A462168514003220A401A601D
:1017B00001225B469A40A3681A42FCD0C1E7C046AA
:1017C0000080004098100020F0B546464F46D646AF
:1017D000C0B51F00344B44009C462418A400644448
:1017E000636888461600FF2B02D880235B00636085
:1017F000031FDBB29A46012B30D9C02380229B0104
:10180000E31812011A60294B85005959994600299D
:101810001BD17301E026226853401E4080235246AC
:101820005B01E3181E60012A30D9802380229B01CE
:10183000E31812011A6080235B0063604B465F511E
:10184000E0BCBA46B146A846F0BD586900F0F0F9D0
:10185000013043001B18033BFDD2DAE74346012B5E
:10186000CBD1C02303229B01E3181A60023AA3687C
:101870001A42FCD07301E0262268850053401E40C6
:1018800080230A4A5B019146E3181E6042462168A4
:10189000514003220A401A60012342469340A26845
:1018A0001342FCD0C1E7C0460080004098100020E1
:1018B000014B8000C058704798100020F8B5040014
:1018C00020481D0017000E0000F0B2F9010038009A
:1018D00000F0AEF9069B29041B0319432368002B73
:1018E0001EDB194B194DE21853425A4180235B010C
:1018F0009C461203164B62441A60164B1A6017007E
:101900002B689F43FBD1144B2660E2182123A06073
:1019100013602368002BFCDA0823E1601360F8BD34
:101920003F2322681340B342DBD1A3681B051B0D84
:101930008342D6D1EE22E368D20213408B42D0D14B
:10194000EDE7C046001BB7000040FDBF08C00040E7
:1019500000E0004000F00040043000008023024A14
:101960009B000B43D362704700800540142310B5E1
:101970000100188804331B88984710BD162310B542
:101980000100188802331B88984710BDF8B54746F8
:10199000CE4680B50F1E19D0142399460433040097
:1019A0000025012698464B461888434621681B8827
:1019B000984701C4431E9841013540420640AF425A
:1019C000F1D13000C0BCB946B046F8BD0126F8E7F9
:1019D000142370B50400188804331B880D000549D2
:1019E000984703000020002C01DB0130A0402900B3
:1019F0009847C04655420000AA23064A1B011360BF
:101A00008D235B00D3600449044B19605368002B9D
:101A1000FCDA70470040024000B0FA00006002406B
:101A20007047C04610B50148FFF746F87CAD00107E
:101A300070B5074D074EB54209D20024013E761B12
:101A4000B60808CD984723000134B342F9D170BDE0
:101A5000D0AC00100CAD0010054B064A06491A60C8
:101A6000064A074B1A6010000B689843FBD1704779
:101A700000E00040BFCDFBFE08C00040FE7F3C0000
:101A800000F00040044BDB6C002B03D18022034BA1
:101A9000D2021A607047C046000011504C2011500D
:101AA000044A054B1A60054A1368DB018033FBD1F9
:101AB0007047C046FFFFFF0100F0004008C0004033
:101AC0004022034B9A675A671A67DA667047C04626
:101AD00000F0014010B5FFF735F810BD70B5044DAA
:101AE000044CA968C022200001F040F8AC6070BD31
:101AF00000ED00E000000020002310B5294C82B06A
:101B0000A367FFF779FF0122274B1A60636C012B53
:101B1000FCD10322254B1A60224A936B012BFCD186
:101B2000013300930121224A22480433FFF7C6FE05
:101B3000052301210093204A2048FFF7BFFE002221
:101B4000022104201E4BFFF73FFE00220121052049
:101B50001C4BFFF739FE0022002107201A4BFFF72C
:101B600033FE002200210820174BFFF72DFE8023B3
:101B7000DB000093002200210920134BFFF7AAFD90
:101B80000022104B00210620FFF71EFE0420FFF765
:101B90008FFE0E4900F04CF801000020FFF7DEFE3A
:101BA00002B010BD008000403CB0004030B00040AA
:101BB000002F685900800240008C864700C0024018
:101BC000001BB70040597307006CDC0240420F0055
:101BD00001480421014B1847100200208D19001004
:101BE000124A936F9B0815D29066D166002905D0E2
:101BF000FFE7FFE7FFE7516F106F704704B58021E3
:101C00000906C2175140002800D0C84309F050F817
:101C1000002104BDF0B5146E556E576F166FFFF7B7
:101C2000E3FF1466556657671667F0BD000000D0E5
:101C3000114A936F9B0813D210665166002905D094
:101C4000FFE7FFE7FFE7516F106F704704B500280B
:101C500001D00020C04309F02BF8002104BDC0468C
:101C6000F0B5146E556E576F166FFFF7E5FF1466EB
:101C7000556657671667F0BD000000D094464A4A83
:101C8000926F9208624601D228E0C046F0B5464EF7
:101C9000346E756E776F366F00F020F89446424AC6
:101CA00014665566576716676246F0BD94463E4A0D
:101CB000926F9208624601D254E0C046F0B53A4EA7
:101CC000346E756E776F366F00F04CF89446364A76
:101CD00014665566576716676246F0BD002B24DB15
:101CE00011D000293EDA00B5C943404200D101318C
:101CF00000F038F8C943404200D10131DB43524281
:101D000000D1013300BD002AEBD1002801D1002908
:101D100005D00020C90FC90701D1C043410800B553
:101D200008F0BEFF0022002300BD00B500290ADB39
:101D3000DB43524200D1013300F014F8C943404262
:101D400000D1013100BDC943404200D10131DB4324
:101D5000524200D1013300F005F8DB43524200D17A
:101D6000013300BD002923D1002B18D1002A0CD04B
:101D7000BC460D4F38667A6600210023FFE7FFE777
:101D8000FFE77A6F386F67467047002801D0074831
:101D9000010000B508F084FF0022002300BD02000E
:101DA0000B00002000217047000000D0FFFFFFFF64
:101DB000002B00D0BFE0130C28D1002AE7D080B45C
:101DC000114F39667A66FFE7FFE730B4040C7B6F8A
:101DD000396F1B0423433B667A66FFE7FFE7FFE7A3
:101DE000C04684B27B6F3D6F1B0423433B667A661B
:101DF000FFE7FFE7C04600232C042D0C7A6F386FF5
:101E000000196941B0BC7047000000D0F0B594469D
:101E10000025140E01D112020835140F01D1120150
:101E20000435940F01D192000235D40F01D1520034
:101E30000135D40B0134254F7C66254C3C660E0CD5
:101E400093B2FFE7FFE7FFE73C6F6643360C77038B
:101E5000BE467343DF0B5B04C01AB941130C7343D6
:101E6000DB18C91ACE086643360CB64493B27343E6
:101E70001F0F1B01C01AB941130C73431F0B1B0525
:101E8000C01AB941860D8F023E436643360C092DB8
:101E900024DB520A7243801A7703460A6643360CE3
:101EA00016235B1BDE40DF40BF1964466643821B7E
:101EB0007046043506330100D940A840C01900D34C
:101EC0000131A24206D20023F0BD0000000000D084
:101ED000FFFFFFFF121B0130F3D3F1E709277F1B40
:101EE000FE406446A2B27243801A00D20139220C2D
:101EF0007243130C1204821A99410B007046043588
:101F000013370100F940A840801900D30131002B9C
:101F100002D1A2420AD2F0BD013000D30131121B1E
:101F2000FAD2013BF8D1A24200D2F0BD013000D379
:101F30000131121BF7E7F0B51C0C00D080E00CB4A7
:101F400000251C0A04D11B02160E33431202083569
:101F50001C0B04D11B01160F3343120104359C0BDB
:101F600004D19B00960F334392000235DC0B02D163
:101F700092185B4101351C00971864410134464FAB
:101F80007C66464C3C660E0CFFE7FFE7FFE7C04669
:101F90003C6F6643360C7703BE4697B27743C01B4F
:101FA00000D20139C01B00D201399FB27743C91B4F
:101FB000C91B170C77437E04FF0B801BB941CE0869
:101FC0006643360C0C2D33DBB644120B1F053A4327
:101FD0001B0B97B27743C01B00D201399FB27743E6
:101FE000C91B170C77433E043F0C801BB941860D7B
:101FF0008F023E43664329277F1BFE400C3D7746F8
:10200000AF40BF1930BCA2B2ABB272437343801A67
:102010009941220C7243130C1204801A9941020058
:102020000B000137001BA941F9D2781E0021F0BD39
:102030000C277F1BFE4077467F0BAF40FF19E0E780
:1020400000245D1C07D0144F7D663966FFE7FFE76B
:10205000FFE7FFE73C6F95B29EB265436643401BC6
:10206000B141150C1E0C6543664336042F0C3E43EC
:102070002D04401BB141994204D202000B00200004
:102080000021F0BD01D19042F7D3801A994101346B
:102090009942F2D3F6E70000000000D0FFFFFFFFF7
:1020A00048404140484018B41B4B5B68FC460193D4
:1020B00008BD04DFE323001018B4174B1B68FC466F
:1020C000019308BD00DFED2300109446134A926F80
:1020D000920809D2624618B40F4BDB68FC460193A4
:1020E00008BD0CDFA52600100C4AF0B5146E556E25
:1020F000576F166F6246FFF7EEFF084A1466556683
:1021000057671667F0BD18B4034B9B68FC460193F4
:1021100008BD08DF49250010280E0020000000D06F
:10212000FFB550404240504059404B40594000E0BC
:10213000FFB5154F4C00640D03D0BC4204D10C0315
:1021400014D80020090D09055C00640D03D0BC42C1
:1021500004D11C030AD800221B0D1B0501264B408D
:1021600009D44B4003D58B4200D18242FFBD994236
:10217000FCD19042FFBD0B43DB1803431343F5D062
:10218000C9434918FFBD0000FF07000000B5FFF775
:10219000CFFF01D0002000BD012000BD00B5FFF73A
:1021A000C7FF804100BDC04600B5FFF7C1FF01D9A0
:1021B000002000BD012000BD00B5FFF7B1FF01D92F
:1021C000002000BD012000BD00B5FFF7A9FF804140
:1021D00000BD012040054A00121804D85A00121808
:1021E00001D800207047012070470000002100281E
:1021F00005D17047C1174840401AFAD0C90713B536
:10220000064B1B6898470CBC441CA2401005120BDF
:102210000349091B09051943114310BD2C13002064
:102220001F04000010B54C00620D8023D218DB00A3
:10223000D21A5B057E2A10DD9E3A13DACC17090309
:10224000490819435242D140640001341532202A12
:1022500005DAD0400843604310BD002010BD084699
:10226000604310BDC80FC018013810BD18B4044B2E
:102270005B6AFC46019308BD24DF5528001000006E
:10228000280E002018B4044BDB6DFC46019308BDFA
:102290005CDF612900100000280E0020C94211D324
:1022A00000B549004908002200F018F8002904D4BC
:1022B000002240428A41114600BD802109060020CB
:1022C00000BD000018B4044BDB6EFC46019308BD52
:1022D0006CDF632800100000280E002018B4044BA7
:1022E0009B6FFC46019308BD78DF7F28001000003B
:1022F000280E002018B4044BDB6FFC46019308BD88
:102300007CDFED2800100000280E0020132370B59C
:102310001D78012D19D014DD1F48FFF72FFB060093
:102320001E48FFF72BFB1E4C80223100200000F0DE
:102330001DFC022D2DD01B48FFF718FB1A4B18600F
:1023400070BD1A4B164CA364F5E7184B144C236070
:102350006360A360E36023616361A361E36123625F
:102360006362A362E36223636363A363E36323643F
:102370006364A364E36423656365A365E36523661F
:102380006366A366E36623676367A367E367A36483
:10239000D1E7064BA364CEE7534400005346000048
:1023A000280E00204C3300002C130020B123001015
:1023B00007B5604601880A0A0230DF2AFAD1C9B29D
:1023C000820804D3028840880004104300E00068BB
:1023D000014A5050039007BD280E00200FB403BCE3
:1023E0000CBCF0B50124E407634000E0F0B50C0D2F
:1023F000CF0F661E3605891B640503D3C9434042CF
:1024000000D30131640D03D0661CF60A07D0E41B2B
:1024100000207F00791C89078912803C24031D0D50
:10242000DF0F6E1E36059B1B6D0503D3DB43524247
:1024300000D301336D0D03D06E1CF60A07D0ED1BDF
:1024400000227F007B1C9B079B12803D2D032F1BCE
:10245000661B58D4A446202E46DA20371400BC4010
:102460001D00BD40F24033412A4380185941CB0F33
:1024700005D0C943C04300226442504151416246E5
:102480004D0D28D10D0D07D100281FD02419404132
:102490004941013A0D0DF9D0640006D3013000D353
:1024A0000131002C01D140084000013A0BD4941CAA
:1024B000E40A04D112051144DB071944F0BDD90721
:1024C000204B194300E0D9070020F0BD0029DDD1E1
:1024D000002CDBD1F0BD0132C6074008CD072843F0
:1024E0004908002EE1D0D9E73C2E29DA203E4037BA
:1024F0001400BC4000D00124F24014431A00BB4039
:102500001C43D317ACE7AC46202F08DA2036040072
:10251000B4400D00B540F84039412843A5E73C2FB1
:102520000CDA203F40360400B44000D00124F840CB
:1025300004430800B1400C43C117EAE7100019003A
:10254000002494E70000F07FF0B50C0D661E360500
:10255000891BE60A6405640D02D0651CED0A04D0EF
:10256000002001210905803C2403A4461C0D671EA0
:102570003F05DB1BE70A6405640D02D0651CED0A0C
:1025800004D0002201231B05803C240377406444CF
:1025900097B484B296B27443070C7E43150C6F4314
:1025A00080B26843361802D3012000043F1830047B
:1025B000350C00197D41844688B29AB250430C0C08
:1025C00062431F0C7C438EB27E43921902D30126D4
:1025D0003604A4191604170C3618674101BC81B2E1
:1025E0009AB25143040C62431B0C5C4380B25843C3
:1025F000121802D30120000424181004130C4018F0
:1026000063412D185E410020474106BC88B293B259
:1026100058430C0C6343120C544389B251435B186A
:1026200002D301210904641819041A0C0918624123
:102630006D1856410020474118BCF902720D114334
:10264000F0026A0D1043ED020A0D03D16D194041ED
:102650004941013B124E9B1B7600B3420ED26D00E6
:1026600007D30130002671416646354301D1400849
:1026700040001B05C918E4072144F0BD0BDA013303
:1026800006D1013004D101314F0D01D04908F2E7E4
:10269000E1070020F0BD013631050020EBE7000026
:1026A000FF030000F0B51C0D671E3F05DB1BE70AAA
:1026B0006405640D02D0661CF60A04D000220123D2
:1026C0001B05803C2403D0252D060026F6432E66EC
:1026D0001E096E66CE0FF619B44649004F0D02D0A2
:1026E0007E1CF60A03D000200021403F3F033E1B22
:1026F000B600B444013F7F05C91B49082E6F01365F
:1027000076089C02950D25437543ED137543AD1373
:1027100001356D10F603761B0CB4CC02450D2C432D
:10272000A2B2B3B25A43270C7B43350C6F43A4B219
:102730006C431B1902D3012424043F191C041D0CF3
:10274000A4187D4124196D41009A91B2ACB2614345
:10275000170C7C432B0C5F4392B25A43A41802D34C
:1027600001221204BF182204230C52187B41019C41
:102770006C431B19520ED9010A434401A01A81B2BD
:10278000B2B2514303145A43360C734387B27743B2
:10279000D617D21900277E4136049B191704160C50
:1027A0007F185E417316ED18F301002680337541E2
:1027B000A90F06D16400690AE8055B0A184309D22B
:1027C0002FE00422944480337541A90AA8059B0A8E
:1027D000184326D3404149412404009A019B0D002F
:1027E0005543641B4343E41A95B286B27543170CF4
:1027F0007E43030C5F4392B25A43B61802D30122C0
:102800001204BF183204330C52197B4152429C41CE
:10281000002C02D40022013051414008CA07104365
:10282000490802B06246D7079210084BD218084BED
:102830009A4203D212058918C919F0BD0020002A56
:1028400001DC3900F0BD01331905F5E7FD03000097
:10285000FE070000002200B5203200F010F808004A
:1028600000BD002200B500F00CF8CA179A4200D152
:1028700000BDD8430121C907414000BD00220B150E
:102880000AD410B5944600F0A7F81414013400DA05
:102890000021CB17144C20470020002170476244D0
:1028A000343A0CD40C2A07DA04009140904052428A
:1028B0002032D440214310BDD843D94310BD20322B
:1028C00007D40C469440524220321141D04020435C
:1028D00010BD0800C917203203D4524220321041E3
:1028E00010BD1800190010BD9F2800104A00520D9D
:1028F000144BD21A13DDFF2A1EDAD205CB0FDB07E9
:102900001A43C300400F0903490A084310435B0000
:1029100001D301D0013070474308FBD2704702D089
:10292000C80FC00770470A0312130132F8D1420FD3
:10293000072AF5D1012200E0FF22C80F000280180B
:10294000C00570478003000000210A00002104E058
:1029500000210A00C11704E00022002306E0C0465F
:102960000022CB1758405940C01A994130B5184C35
:10297000A21A002903D1010010D00020203A4C15E2
:1029800012D104D2013A001849414C0DFAD3114C2E
:10299000A24204D212058918DB07C91830BDD24300
:1029A000520D00200021F5E703D4013A00184941F7
:1029B000FBD50B324405C00A4D052843C90A640003
:1029C00003D0002460416141E1E7E0D34408F8E727
:1029D00032040000FE0700000A0DCC0F531E1B0539
:1029E000C91A520503D3C943404200D30131520DE5
:1029F00003D0531CDB0A07D0121B00206400611CAB
:102A000089078912803A1203014BD21A70470000DD
:102A1000FF03000051434343C9188C46110C83B295
:102A20004B4310B4040C614392B280B250436243F2
:102A30001C041B0C001910BC59411304120CC018C3
:102A4000514161447047000007B54840414048404B
:102A500001E0C04607B54200120E03D0FF2A03D1A1
:102A6000420218D8C00DC0054A00120E03D0FF2A3A
:102A700003D14A020FD8C90DC9050122414005D42E
:102A8000414001D5814207BD884207BD0143491835
:102A900001D0C043001807BD00B5FFF7DBFF01D927
:102AA000002000BD012000BD01231B064200D218FA
:102AB00004D84A00D21801D800207047012070477E
:102AC000132310B512481C78FEF758FF0100012CA3
:102AD0000AD003DD80220F4800F048F80E48FEF7C8
:102AE00045FF0E4B186010BD0A4C5422200000F028
:102AF0003DF80B4B6365A365E36523666366A366D8
:102B0000E36623676367A367E3672362E361E5E73F
:102B100053460000280F00204C3300002C130020E7
:102B2000252B001007B5604601880A0A0230DF2A0B
:102B3000FAD1C9B2820804D3028840880004104345
:102B400000E00068014A5050039007BD280F0020A4
:102B500001480421014B1847200200208D19001064
:102B6000014B1B681847000020020020014B5B68E6
:102B700018470000200200209A4200D28854704773
:102B80007047C046F8B557464546DE464E46E0B566
:102B900098460A9B06009A460D9B0F009346150027
:102BA0009B0710D10B9B0C9A93420CD213005C46EE
:102BB0000B9A9D1A5D4422004346013439002020BF
:102BC000B047A542F7D10B9C6319002C09D01D001A
:102BD00053462A1B013C185D39004346B047002C80
:102BE000F6D10D9B9B070ED55B46EC1A0C9BA342BE
:102BF00009D999462A004346390020200134B047BC
:102C00000135A145F6D82800F0BCBB46B246A9461E
:102C1000A046F8BDF0B54F464646D646C0B584B08E
:102C200098460EAB1B7894469946129B0D9C109FBC
:102C3000119E9A0724D4002E6AD1BC4220D20122D0
:102C40001A409246202C00D1CBE00C9A551E30221F
:102C500001E0202C30D001342A55A742F9D8524641
:102C6000002A0DD0B4420BD20C9A551E3022202CD3
:102C700002D126E0202C61D001342A55B442F9D18A
:102C8000DA0634D55A0562D4002C5CD10F9A102A8A
:102C900000D191E0022A00D1A1E030220C9C2270E8
:102CA00001244A46002A5CD15A0700D47DE02B2239
:102CB0000C9D2A5501341CE05246002A02D0202ED9
:102CC0003CD92024DA0614D55A0512D4202F00D17D
:102CD00097E0202E3BD120261F2234000F9D102D7F
:102CE00000D181E0022D4CD030250C9FBD54202C0A
:102CF000D7D103930C9B62460093029643460194FE
:102D0000FFF740FF04B0E0BCBA46B146A846F0BDAC
:102D1000012215001D40AA461A4227D04A46002A21
:102D200033D10C321A4230D1BC429BD2202C00D07D
:102D30008BE7202EC5D8DA06A4D4DAE72024DA06F9
:102D4000D7D55A0503D4A74221D0B4421FD00F9A39
:102D5000102A21D0022A10D0202CCAD022000134FF
:102D6000C2E72D220C9D2A550134C2E7BC4200D394
:102D700086E7202C00D068E7E1E7202CB9D02200BC
:102D8000013462250C9FBD54E6E7013ECCE7621E8C
:102D9000012C00D17AE7A1E79A0616D4202CA8D0FE
:102DA00078220C9D2A550134D6E71A07A1D5202296
:102DB0000C9D2A5501349CE79A060ED478220C9C6F
:102DC00022703022627002246BE7202C91D05825AB
:102DD0000C9A121915700134BEE75822EFE76222EF
:102DE000EDE7002AA7D1AAE7023C9D0604D4782586
:102DF0000C9F3D551400B1E758250C9F3D5514001C
:102E0000ACE71F226AE7C04610B5002800D110BD0C
:102E100001F0B2FBFBE7C046F0B557464E464546CB
:102E2000DE46E0B599B08246894690460993229ADB
:102E3000239B10001900FFF7CCF9002800D0C8E050
:102E4000229823990122D54B5242FFF7BDF9002861
:102E500000D0BEE0229823990122D14B5242FFF7C5
:102E60009DF9002800D0B4E0229823990022002385
:102E7000FFF794F9002800D0E9E1229E239F8023E8
:102E8000269ADB001A400D92269A1A4201D1062397
:102E900024933B00334300D0B4E0269B1B0500D5B0
:102EA000BFE1002300240A930B94002304250C9314
:102EB000259B0024AB4200D95C1B0223269A1A40B2
:102EC0000D92269A134203D06B426B415B421C4029
:102ED0000C9B002B07D00A9A0B9B30003900FFF7A0
:102EE000F4F806000F002298239900220023FFF730
:102EF00055F9002803D0802109067B181F00269A67
:102F0000A84B009601971340099E0493249B0394B9
:102F10000293424633004946504600F0A7F90400A8
:102F2000002D67D02020269A4946024013005A42BD
:102F300053415B42621C18400A9233002200453024
:102F4000D0470C9A6F1ED317D4185C40D30F9B4602
:102F5000002501E0202D13D008AA94461F2320004D
:102F600063440A2101355E19FEF762FE303131708B
:102F700020000A21FEF75CFE26000400092EE9D895
:102F800005230693002304930A3303935B46099EAB
:102F9000029310AB0A9A00934946330050460597B6
:102FA0000195FFF737FE0D9A0400002A22D0424611
:102FB000851A259AAA421DD9B04657461600220006
:102FC0004346494620200135B8470134AE42F6D881
:102FD00010E0269B42460493259B49460393249B7D
:102FE00050460293229B239C00930194099B00F07E
:102FF0003DF90400200019B0F0BCBB46B246A9461A
:10300000A046F0BD684B78009C46400D6044FFF739
:10301000F1F8664A664BFFF776F8664A664BFFF7AB
:103020004BF8664A3B031B0B1A4304000D00644B2C
:10303000110030000022FFF736F8624A624BFFF7BA
:1030400062F802000B0020002900FFF735F8FFF7B7
:10305000E9F80C90FFF7CEF85C4A5D4B04000D00D8
:10306000FFF751F800225B4BFFF726F8FFF7DAF87D
:10307000594A8346594B20002900FFF744F80400C1
:1030800058460D00FFF7B6F8554A564BFFF73BF888
:1030900002000B0020002900FFF705F802000B00DA
:1030A0000A900B91FFF72FF804000D000A980B9976
:1030B00002000B00FFF700F800220E900F914A4B20
:1030C00020002900FFF701F80022484BFEF7F4FF2B
:1030D00002000B0020002900FEF7F7FF0022444BFE
:1030E000FEF7EAFF02000B0020002900FEF7EDFFCB
:1030F0000A9A0B9B0D0080210400C9050020FEF7F1
:10310000D2FF02000B0020002900FEF7D5FF394C4A
:1031100002000B000E980F99FEF7D7FF5C440022C7
:10312000264BFEF7C9FF23050022FEF7ECFF040043
:103130000D0002000B00300039000A940B95FFF7D8
:103140002DF800285ED123002A00C6250C99633192
:103150008D42AD4126996D420435090500D4A7E69C
:10316000134364D030003900234A244BFFF724F87E
:10317000002807D0002230003900214BFFF70EF85D
:10318000002854D1249B002B00D191E60D9B5A1EA0
:103190009341249AD31A24938AE6C046FFFFEF7F17
:1031A000FFFFEFFFFFF7FFFF01FCFFFFFB799F50E1
:1031B0001344D33FB3C8608B288AC63F0000F03F5A
:1031C0000000F83F61436F63A787D23F71A379097D
:1031D0004F930A400000E03F1655B5BBB16B02406B
:1031E000EF39FAFE422EE63F00002C40000024405A
:1031F00000001840FF0300002D431CEBE2361A3F8D
:1032000080842E410C9B0022013B0C932000164B26
:103210002900FEF75AFF0A00010003000A910B92F1
:1032200093E7002300240A930B9400230C93249A21
:103230000C9B9A4214DDD31A013B24938023269AD7
:10324000DB001A430023002526920C9330E68022EF
:1032500012069446229B1E00239B63441F000EE629
:1032600000232493EAE7C04600002440F0B5454619
:10327000DE464E465746E0B595B08B469046994699
:103280001E9A1F9B0A9019001000209DFEF7A1FFB7
:10329000002800D0B0E11E981F990122C74B52426E
:1032A000FEF77CFF002800D037E11E981F9901220D
:1032B000C34B5242FEF788FF002800D0A7E01E98BB
:1032C0001F990022BF4BFEF77FFF002800D088E047
:1032D0001E981F990022BC4BFEF760FF002800D00B
:1032E0007FE01E981F9900220023FEF757FF002859
:1032F00000D0FAE000230B938023229C229ADB006B
:103300001C401A4200D102E1092D00D87EE106A935
:103310008C462C00172200233021093C62440133E3
:10332000D154EF1A202B00D132E1A342F7D1002271
:10333000A44B069207931E981F99FEF773FF050092
:10334000FEF758FF02000B001E981F99FEF7ABFE18
:10335000069A079BFEF7D7FE08900991FEF786FFB5
:103360000600FEF743FF02000B0008980999FEF7DC
:103370009AFE0022954B08900991FEF725FF002840
:1033800000D1D2E001363000FEF730FF069A079BED
:10339000FEF712FF002801D000260135AA46002FB3
:1033A00000D098E02800FEF725FF02000B001E98D1
:1033B0001F99FEF778FE854B002206000F00FEF7EE
:1033C000EDFE0CAB9A46002845D1002230003900B2
:1033D0007E4BFEF7F9FE00283DD1EB073BD50135CA
:1033E00039E0229B42460493219B594603930A9855
:1033F0001E9B1F9C0295009301944B46FFF70CFD0A
:1034000015B0F0BCBB46B246A946A046F0BD229B13
:103410005B0767D403226E4B229901920391219995
:103420000291009342464B4659460A98FFF7AAFB81
:10343000E6E706AA94461723280063440A210134CC
:103440001E19FEF7CDFB3031280031700A21FEF73E
:10345000C7FB051E76D0202CEBD10323229A134004
:10346000012B1DD1219B002B1AD00B9B002B00D0D0
:10347000BBE0229A0C33134200D0B6E0219BA3425A
:1034800000D887E006AB9C4617223023624404E054
:103490002199013413558C4259D0202CF8D1202485
:1034A000229B01940393219B02935346B9E706AAFA
:1034B000944617230A216344300001341D19FEF796
:1034C000B7FB3031297030000A21013FFEF7B0FB15
:1034D000092E46D90600202CE9D155460CAB2024F4
:1034E0009A46B8E704223B4B96E71E9A1F9B0020A2
:1034F0000021FEF7D8FD01230B938023229C229A02
:10350000DB001E901F911C401A4200D0FCE60022F6
:10351000314B0627069207930DE7229B0393219BCD
:103520000293042301932D4B7BE70022089809990D
:10353000264BFEF733FE002800D02FE7002E4FD198
:1035400001362BE70323229A1340012B68D0202C4D
:10355000A6D00B9B002B1FD02D23524613550134B0
:103560009EE75546202CB9D030223B19002F4BD076
:10357000172006A9013409180A55202CAED09C4208
:10358000F6D10CAA92462E2251465C1CCA5462E720
:103590002024CCE6202C83D0229B5B0708D4229BDE
:1035A0001B0700D47CE7202352461355013477E7EC
:1035B0002B2352461355013472E7C046FFFFEFFF3D
:1035C000FFFFEF7F65CDCD4165CDCDC10000E03F70
:1035D00024AE00101CAE001080842E412CAE0010D2
:1035E000F30700D4DAE60136D8E6219B013B2193AC
:1035F000A34200D946E7AAE7229B0393219B0293AB
:1036000003230193084B0CE72300BAE7074BEA00BA
:103610009B185C681B682F000693079400248AE6B9
:10362000219B002B93D020E728AE0010D0AF0010D4
:10363000F0B5DE4657464E464546E0B59FB01C0005
:10364000289B93460A93CC4ACC4B8A4609901A6031
:10365000002900D14DE1002320789946002800D1AF
:103660004FE1C74B4D460893C64B0D930AE02A0025
:103670006E1C5B46099D5146A847350001342078F1
:10368000002872D02528F2D110239946083B98468D
:10369000043B00219C4602270134207826000300C9
:1036A000203BDBB2102B03D8089A9B00D3589F46CF
:1036B0000300303B092B6ED900272A2800D18AE06D
:1036C00000230B932E2800D176E00300683BDBB289
:1036D000122B1BD8AC4C9B00E3589F4601230134AE
:1036E0001943DAE739430134D7E763460134194314
:1036F000D3E74B4601341943CFE74346013419431E
:10370000CBE780235B0070781943013667280AD81D
:1037100024281FD90300253BDBB2422B1AD80D9A6F
:103720009B00D3589F460300693BDBB20F2B11D897
:1037300001249C40954AA446904614400C9462464D
:103740004446224200D025E20A2B00D101E1072B9A
:1037500000D1D8E0099C2A005B465146A04770780A
:103760006F1C741C3D0000288CD1A9462C00CB4551
:1037700003D801235B425B4499465B464A46514667
:103780000020099DA84720001FB0F0BCBB46B246F0
:10379000A946A046F0BD0027BB00DF1901367F0017
:1037A0003F183078303F0300303B092BF4D9002319
:1037B0000B932E2800D088E780237078DB00194314
:1037C0000300303B741C092B00D82CE12A2800D1BF
:1037D00038E1260079E70A9B80CB002F03DB607875
:1037E0000A93661C6CE70222607811437F420A93B9
:1037F000661C65E7672800D1C8E1472800D104E2CC
:10380000452800D104E207200A9B04910733834333
:1038100019000B9A039702920CC909980092019320
:103820000A912A005B465146FFF7F6FA741C050020
:1038300025E770786C2800D10DE280235B001943E6
:10384000013663E780239B007078194301365DE7FA
:103850007078682800D1F9E180230136194355E7D3
:10386000462800D18FE107200A9B04910733834348
:1038700019000B9A039702920CC9099800920193C0
:103880000A912A005B465146FFF7F0FC741C0500C4
:10389000F5E62A00099C5B46514625206F1CA0478F
:1038A0003D00741CEBE6890700D4DEE10A9B2A0088
:1038B00098466B1C9946434601CB51469846099C55
:1038C0005B46C0B2A047ED19012F00D893E24C46E9
:1038D000B1465646099F22005B4601343100202044
:1038E000B847AC42F7D1B24643464E460A93741CE1
:1038F000C5E6274B2078099300239946002800D07D
:10390000AFE6002433E70A9B1A0008CA9046002B52
:1039100000D1A7E0212008430EA98C461F22624453
:103920000F27AC46814615000C9C02E0202C0CD0E1
:1039300013003800184001003731092800D8073932
:10394000013429551A090F2BF0D8654648460C94C6
:1039500094E00A9B1A0008CA12920B9A002A7BD1A3
:1039600002241A786442002A1DD0013418199C469A
:103970001C00030010E0C04631360010D8100020B3
:1039800034AE0010C4AE001078AE001041900000BC
:10399000812B00109C4203D0607801340028F9D1BB
:1039A0006346E01A0C908020C000844608408046A0
:1039B0006046014204D00B980C9C844200D90C90C4
:1039C0000220844608400A906046084200D189E1FE
:1039D000101E00D170E14246002A00D11BE10B9A73
:1039E0005B1B9046A84444462A00B8469946574671
:1039F000B246099E09E05B463900551CB0474B466C
:103A0000585D002800D12CE12A009442F3D156469B
:103A10002500BA4647460A9B002B00D04CE1129B7A
:103A2000741C0A932BE6002293009B185B00013460
:103A30001A182078303A0300303B092BF4D92600BD
:103A40000B9242E60A9B023604CBD043C0170240D9
:103A50000B9230780A9338E61A78002AA3D00B9894
:103A6000441E82E71023080080279843113318432F
:103A70000B00FF003B40394200D14DE7082305937E
:103A80000B9B2A00049310230393002302930C9BA7
:103A90000690019316AB009351465B460998FFF7D9
:103AA000B9F843460500741C0A93E8E5622800D182
:103AB000A6E1582800D1B1E180230A00DB001A40BA
:103AC0009046194200D189E1112399438C46802305
:103AD00062469B001A40100062461A4200D023E161
:103AE000802364465B001C401A4200D032E26346E9
:103AF0005B0600D56BE163460A991B0600D4DBE246
:103B000008C91BB2DA179818504080B20A91DA0F30
:103B10000C92002B00D118E280460EAA91461F237A
:103B20004B441395E14645461297B0461E0001E00E
:103B3000202C0FD028000A21FEF77AF8013437191B
:103B40003031397028000A21FEF772F82F00050085
:103B5000092FEDD84646CC46129F139D6346069327
:103B60000B9B059704930A2303930C9B029316ABBC
:103B70002A000194009351465B460998FFF74AF8E2
:103B8000741C05007BE5202319436CE680231B0190
:103B9000194338E6782800D07CE180230A00DB0056
:103BA0001A409146194200D1A5E20D23994308001D
:103BB00003330C93802302009B001A409046184266
:103BC00000D078E1802304005B001C40184200D044
:103BD00007E2430600D453E2FF210A9B04CB0A40CC
:103BE00090460A934346002B00D026E110339843B9
:103BF0004B46002B00D120E100240B9B0690049340
:103C00000C9B059703930023B0E780231B01194306
:103C100020231943F7E55B1B99460C9B099C9846AA
:103C20005B46B3465646BA461F002A003B003100A9
:103C3000A0474B460135585D0028F6D143460C930A
:103C40003B005746B2465E469B46E4E6C023B0784A
:103C5000194302365AE5C0239B00B0781943023657
:103C600054E55646BA464746D5E6012F00D832E21B
:103C70006B1E9846B8442C00A9464546B8465746A0
:103C8000B246099E22005B46013439002020B0472D
:103C9000AC42F7D10A9B564601CBBA4647469846F6
:103CA00022005B46099C5146C0B2A0474D464346A0
:103CB000ED190A93741CE2E40C9BA8469F4200D8BD
:103CC000ADE64446B04656467D19099FED1A2200DE
:103CD0005B46013431002020B847AC42F7D1B246F0
:103CE00046469CE60C98874200D8F0E1424698464A
:103CF0007919B9465746B246099E0C1A0C922A0009
:103D00005B46013539002020B047A542F7D1564621
:103D1000BA464F4643460C9A90467A1C0C921A7843
:103D2000101E00D057E67AE60822072191460A9B2A
:103D300007338B4399444A460ACB0C000A921C4332
:103D4000DA0F002C4ED0D817040010904C40119080
:103D50000E94109811990C005C400F940E9B0F9CD0
:103D60001B1A8C410E930F940EA988461F23002422
:103D700043441297B046270013951E000E9C0F9DDA
:103D8000E1460C9201E0202F10D0200029000A22E9
:103D90000023FDF78BFF013730322B00F2550D0069
:103DA00022000400002BEED1092AECD84646CC466E
:103DB0000E940F950C9A3C00139D129F6346069338
:103DC0000B9B059704930A2302920393CFE6FF23EC
:103DD0000A9904C9134018000A9198E610239943E0
:103DE0008C4674E643460024002BE7D100230024D0
:103DF0000E930F94B8E743464D460A93741C3EE475
:103E000080230A00DB001A409146194200D140E1AC
:103E10000D2399430B3B08000C93CBE680230A004B
:103E2000DB001A409146194200D162E10D232020A7
:103E30009943033308430C93BCE66123810600D504
:103E400041230EA91F228C46DBB262440A3B139722
:103E50001495814645460C9FB0461293160008E023
:103E60003033DBB201343355BD420ED3202C0CD09D
:103E7000050039002800FDF7DBFECBB20929EFD998
:103E8000129A94466344DBB2ECE746464846139FD9
:103E9000149DB2E66F2800D03CE10C230800984343
:103EA00080230A00DB001A409146194200D02AE123
:103EB00008230C937EE60A99FA3BFF3B07319943AE
:103EC00001339C468C4463464A680A930B689046CB
:103ED0009C461343191E06D14B46103100248843DB
:103EE000002B00D089E66121830600D541210EAA6E
:103EF00091461F234B449946C9B20C9B0A3913972C
:103F00001495159645464E460024674698468146C8
:103F100012910CE03032D2B2002301343255AB4260
:103F200000D1BCE0202C00D1BCE007000D004246CF
:103F3000002338002900FDF7B9FED2B2092AE9D9D9
:103F4000129B9C466244D2B2E6E74346002B00D067
:103F500004E6E2E50A9C08CCDA0F1392002B00D1AC
:103F6000A5E0D9175B184B4098460EAA91461F232F
:103F70004B440C95A14645461296E04606001C00AF
:103F80000A9701E0202E0FD028000A21FDF750FEED
:103F90000136A7193031397028000A21FDF748FE93
:103FA0002F000500092FEDD8C4464C4630000A9F6B
:103FB0000C9D129E634606930B9B2A0004930A23D2
:103FC0000393139B0190029316AB009351465B46FB
:103FD00009980597FEF71EFE0A940500741CFFF76A
:103FE0004EFB0A9B10CB1493002C04D11023984352
:103FF0004B46002B2CD16123810600D541230EA90D
:104000001F228C46DBB262440A3B1297139581460D
:1040100045460C9FB0460A93160008E03033DBB2E9
:1040200001357355BC420ED3202D0CD0040039004D
:104030002000FDF7FDFDCBB20929EFD90A9A94467D
:104040006344DBB2ECE748464646129FA846139D00
:104050000B9B2A0004930C9B06900393002302936E
:104060004346019316AB009351465B46099805976A
:10407000FEF7D0FD149B05000A93741CFFF7FFFAAE
:1040800003061FD50A9B02CB09040A0C90460A932B
:10409000A8E50C2399430A3B08000C938AE5B84530
:1040A00000D83FE74846139F149D159EA5E543465B
:1040B000002B00D07EE758E708C9DA17981850405F
:1040C0000A9124E50A9B04CB90460A938AE50100F5
:1040D00001310C9124E60A9F6C1C01CF2A005B463B
:1040E000099D5146C0B2A84725000A97741CFFF7E6
:1040F000C6FA202319430C23994300239946103311
:1041000008000C9356E508238C460C930D2360465B
:1041100098434FE510230A009A439446692808D132
:1041200080230A00DB001A409046194200D1CEE4F9
:10413000CAE41C230800984380230A00DB001A40CD
:104140009146194202D10A230C9333E50A230C93BA
:10415000DCE7C0460EB4012230B584B007AC08CC11
:10416000064D01000094280052420394FFF760FAC4
:1041700004B030BC08BC03B01847C046792B00100F
:104180000FB430B50C4985B008AA08CA0D6803926F
:10419000002D0CD000920122084C5242200002A9AE
:1041A000A847012005B030BC08BC04B0184718006F
:1041B00000F02EFA0020F5E7D8100020092E00109C
:1041C00010B5094A0300146884B0002C08D00122FD
:1041D00000910648524203A9A047012004B010BD37
:1041E00000F016FA0020F9E7D8100020092E001080
:1041F00000BEFDE7094A03001068002805D0084901
:10420000C3188B4207D81360704706480449C31887
:1042100010608B42F7D901204042F5E7CC10002016
:104220000000042048130020030010B5080011000E
:10423000002B05D1044B1A685B6800F03DF910BDF6
:1042400001204042FBE7C04650AD00100300013B97
:1042500010B508001400012B06D80123002221000C
:1042600000F0AAF8200010BD01204042FBE7C04644
:10427000012040427047C046012040427047C0467E
:1042800010B5FFF7B5FFC04630B50D0083B019007B
:10429000002A0BD0074B084C0192009302002B0020
:1042A0002000FFF76DFF0120FFF7A2FF034B1A006C
:1042B000F1E7C04620B0001030B000102CB0001064
:1042C00070B5FDF7B5FB074D074EB54209D2002486
:1042D000013E761BB60808CD984723000134B3424F
:1042E000F9D170BD0CAD001014AD0010030010B575
:1042F000080011001B68984710BDC046F0B546463F
:104300004F46D646C0B5437D80460E001700002BB1
:104310004BD0002A32DD274B01259A464B1E002444
:104320000020994607E0335D0A2B2CD02B00013486
:104330000135BB4213DA002CF5D133780A2BF5D1C5
:1043400043461B7D002BF1D14346504602211B689A
:10435000984728002B0001340135BB42EBDB874234
:1043600004DD4346391A1B6830189847F619013E98
:1043700033780D3B5A42534142461375E0BCBA466E
:10438000B146A846F0BD4B461B5D0D2BCED0A042DA
:10439000DADA4346211A1B683018984743465046DC
:1043A00002211B6898472800D4E7036811003000F9
:1043B0009847E3E760B00010F0B5DE4657464E463A
:1043C0004546E0B585B017001C0006000D00FDF75E
:1043D000B5F80023314A12184B41802109068B425F
:1043E00002D301222E4B52422E4908008A4606F083
:1043F00067FC01906B1C03D1300000F0C1FF050089
:10440000002C26D0284B9846284B1C68002C15D031
:10441000002F21D1264F02E02469002C0ED0236802
:10442000002BF9D03B68002B01D0A342F4D120002F
:104430002A003100C0472469002CF0D1019B002BD9
:1044400028D1280005B0F0BCBB46B246A946A0461C
:10445000F0BD184B9846D7E7154B994602ABDF1DC8
:104460000A239B4602E02469002CE7D02368002B36
:10447000F9D04B461B68002B01D0A342F3D12A0090
:1044800031002000C0475B460122390020003B700C
:10449000C047E8E7504606F0FBFBD2E740420F007A
:1044A000FFFFFF7F000C0020FD420010C410002021
:1044B000C8100020ED420010F8B557464E4645465C
:1044C000DE4698461A4BE0B59B461A4B07000E0095
:1044D00091469A46184D5B461C68002C03D115E0A6
:1044E0002469002C12D02B68002B01D0A342F7D1F5
:1044F000A368002BF4D03100380098470028EFDD86
:10450000F0BCBB46B246A946A046F8BD53465B6A1E
:10451000984508D85246926A4A4502D30220404242
:10452000EEE79845FAD101200021FDF711F8D2E716
:10453000C410002000400540C81000200A4A13683B
:10454000002B05D10CE01A001B691032002B07D09C
:104550009842F8D1002902D10369136001617047C4
:104560000029FCD01060FAE7C410002010B500F05C
:1045700041F9012010BDC046F0B5CE46474680B592
:1045800083B06B460600DD1D2870FCF7D7FF0023C3
:104590001A4A12184B41802109068B4202D301228C
:1045A000174B524217490800884606F089FB164B04
:1045B00081461C68002C14D0144F02E02469002CA2
:1045C0000FD02368002BF9D03B68002B01D0A34209
:1045D000F4D1200001222900FFF790FE2469002C6D
:1045E000EFD14B46002B05D1300003B0C0BCB9461B
:1045F000B046F0BD404606F04BFBF5E740420F00E9
:10460000FFFFFF7F000C0020C4100020C810002016
:1046100070B5040000F0B4FE012301000500012282
:104620002000FFF7C9FE084B1C68002C06D0636809
:10463000002B05D098472469002CF8D1280070BDC4
:104640002469002CF3D1F9E7C4100020F0B500294B
:1046500015DD0E4B0D271A680D4B0E4CD3185D421D
:104660006B41451820215B001E5F0478A64207D0ED
:1046700093691942FCD101301460A842F5D1F0BD14
:1046800093691942FCD11760F2E7C046401300203D
:104690000080FCBF3C13002030B504000D1E2EDD51
:1046A000002010211F4B013C1A689369194216D152
:1046B000013093691942FCD1136823548542F4D127
:1046C000194B1B68002B08D050239363516B183B88
:1046D0000B4016498C466244136028000EE0124BD2
:1046E0001B68002B08D050239363516B183B0B4081
:1046F0000E498C466244136000280FD030BD0A4B2F
:104700001B68002B0AD05022064B1B689A63596B1A
:10471000183A0A4005498C4663441A600320404217
:10472000ECE7C046401300208C100020341000003D
:10473000064B10B51B68002B06D00021044A1268F6
:104740009163044A1068984710BDC0468C10002041
:1047500040130020901000200822034B19688B6939
:104760001A42FCD17047C0464013002070B51B4E62
:104770001B4B32680500D3185842434114331C00C8
:10478000002D04D0174B1A68002A11D070BD154EA9
:104790003368002BFAD0002120009563FCF7F2F972
:1047A00020001149FCF72AFA104B35601D60EDE737
:1047B0001D600E4B200019600B49FCF7F5F9012133
:1047C0002000FCF7DFF9502233689A63596B183ADE
:1047D0000A4007498C4663441A60D7E7401300201B
:1047E0000080FCBF8C10002031470010901000208A
:1047F000341000000D4B10B51B780D4B0D4C1B7881
:104800000D4B02211B780D4B00202360FCF73AF979
:1048100002210120FCF736F9E12120684902FCF76A
:10482000CBFE01210648FFF789FE10BD98BC0010A1
:1048300094BC00104013002090BC001000400340C6
:104840003002002010B5114C114B22689A420FD152
:10485000104B62689A420BD10F4BA2689A4207D163
:10486000012000230022002140422360FDF7B0F820
:10487000074B00212360074B08486360064BA36089
:10488000FCF766FE0023236010BDC046C000002078
:10489000DE8116F0299B72BD7ABE59D3400D03000C
:1048A00010B5514300F02AF8041E0ED00300083B57
:1048B0005A6803239A43043A242A15D80300132A7A
:1048C00005D800221A605A609A60200010BD0021AD
:1048D0000833016041601B2AF3D98160C160242A3A
:1048E00006D003001033ECE70021FEF739F9ECE7BE
:1048F0000300016118334161E3E7C046F0B54E465D
:104900004546DE465746E0B50D000B35060083B040
:10491000162D27D8102900D9B6E000F093FA1025FB
:1049200018230220C84FFB181A005C68083A94420A
:1049300000D112E1032263689343E268A168CA6070
:1049400091600121E3185A6830000A435A6000F070
:104950007BFA2000083003B0F0BCBB46B246A94643
:10496000A046F0BD07239D4300D58DE0A94200D9A4
:104970008AE000F067FAFC235B009D4200D25FE111
:10498000680A00D184E0042800D914E1382398464D
:10499000A80980443930C100AB4F79184C680839F8
:1049A000A1420ED003239C4604E0002AC5DAE46845
:1049B000A14206D06246636893435A1B0F2AF4DD76
:1049C00040463A003C690832944200D1B5E00321E8
:1049D00063688B439946591B0F2900DD3CE13A611E
:1049E0007A610029ADDA80229200934200D3BAE0C6
:1049F0005909DA0801238B40D2007968D2190B4398
:104A000091687B60E260A1609460CC6001218210BB
:104A10009140994242D80B4205D10322904349006C
:104A200004300B42FBD003239846C3009946B94497
:104A3000CC4682466346DC68A44507D1C7E0002A1D
:104A400000DBEEE0E468A44500D1C0E042466368C4
:104A500093435A1B0F2AF2DD01208046611905435A
:104A60006560A068E5680837C560A86040461043E7
:104A7000B960F9604860CF6030008F60E25000F0AC
:104A8000E3F92000083066E70C230020336062E77A
:104A900080213F234020984689007DE70322BC689F
:104AA000636893439946AB4202D35A1B0F2A46DCF4
:104AB00023004B44654A0193654B93469A4612681E
:104AC0001B68EB18013200D147E1624A9446634407
:104AD0001B0B1B0300933000009900F09BFB0300AD
:104AE0008046013300D1D2E0019B834200D9CCE063
:104AF000534600985A68844662445A60019B1100EC
:104B0000434500D0DFE043461B0500D0DBE0BB6837
:104B10000121984603004B440B4341464B605146EC
:104B2000C96A914201D25146CA625146096B91420B
:104B300001D251460A634446ABE07B6866E7012335
:104B400029001A431943651961603000BD606A602D
:104B500000F07AF920000830FDE6DC680230A3425C
:104B600000D12EE7E6E65A0A042A00D887E0142A84
:104B700000D90BE111005C325B31D20008235B42AB
:104B80009C46BA18944463469A6803239846944511
:104B900003D1E5E09268944504D0434651689943B7
:104BA0004945F7D8D3689C467B686146A260E160BE
:104BB0008C60D4602AE7142878D9542800D9EDE015
:104BC0006E239846280B80446F30C100E4E608232A
:104BD0009B46073BDC449B46DA4453469B0700D088
:104BE00028E7032209E008235B429C46E1444B4648
:104BF0009B6801384B4500D01EE10242F3D17B682F
:104C00008B437B604900994200D947E7002904D1D2
:104C100044E7042294464900E2440B42F9D050464E
:104C200003E70121E3185A6830000A435A60E36839
:104C3000A268D3609A6000F007F9200008308AE685
:104C40002B00E80808336DE6800600207806002077
:104C5000541000200F100000012360191D436560EF
:104C600038617861C26082601A004B460A43426034
:104C70003000E15000F0E8F8200008306BE69A09B7
:104C8000110039323831D20078E7BC4214D0BC6808
:104C90006368032293435A1BAB4202D30F2A00DD01
:104CA0004DE7300000F0D0F8002054E65B23984632
:104CB00080445C30C1006FE653465968009B9C46B7
:104CC0005346614459605B461B68013371D04346CB
:104CD000019A9B1A52465B1853600723424641468D
:104CE0001A400192194242D08B1A08218846009935
:104CF0009844524B41449B1A5B1A1B051B0D0091B3
:104D0000300019009B4600F085FA431C6BD04346E7
:104D1000C01A03005B44009353465A6801205A446A
:104D20005A6043464146BB60009B03434B60BC4214
:104D300000D1F4E64B460F2B3FD907210C3B8B43A8
:104D400061680140052019436160E118486088608E
:104D50000F2B53D843465B68E1E610330093BAE665
:104D60008910023B8B4079680B437B601DE7009BF9
:104D7000300043445B421B051B0D19009B4600F0AD
:104D800049FA431CC3D100239B46C5E7542A16D8D1
:104D90001A0B11006F326E31D200EFE6AA235B00CE
:104DA000984216D8DD3B9846E80B80447830C10025
:104DB000F2E55B4642461A608FE7486071E7AA2138
:104DC00049008A4225D8DA0B110078327731D200B7
:104DD000D4E61B4B984225D87C239846A80C8044E7
:104DE0007D30C100D8E5009A019B94464246083BBD
:104DF00063449B1A009300239B468DE721003000FB
:104E0000083101F035FB53465A68BB6898465B6829
:104E100085E60B498A420BD89A0C11007D327C3111
:104E2000D200ABE6FE217E237F2098468900B3E5C1
:104E3000FE227E219200A1E67B68E3E608100000D6
:104E4000540500007047C0467047C046F0B545465F
:104E50005746DE464E46E0B5904607000D0083B04B
:104E6000002900D1ACE0FFF7EDFF08235B42994633
:104E7000A9444B465B68464603221C000B36CA46D3
:104E80009443162E69D81026B04569D8B44272DA18
:104E90004A46D2491219019189680092914200D183
:104EA000A6E001208446009A5168624608009043BB
:104EB000009A9346624658444068104200D074E01D
:104EC000032081436218934696424EDD62461A42A1
:104ED00011D14B464A461B68D31A9B465B688343F5
:104EE000C9180A190192964200DCFBE0E31800930E
:104EF0009E4200DCCFE041463800FFF7FFFC8046D1
:104F0000002800D146E14B4601225B689343020032
:104F10004B44083A934200D1B8E0043C242C00D919
:104F2000DBE003002A00132C09D92B6803606B68AF
:104F300043601B2C00D9FCE00300083208331168E1
:104F400019605168596092689A603800290001F030
:104F50008FFA3800FFF778FF1FE00432964393D5AD
:104F60000C233B600023984617E05C46009AD36808
:104F70009268D3609A60A31B0F2B26D85346012258
:104F800051465B68134023434B60544463681343AA
:104F900063603800FFF758FFA846404603B0F0BCF6
:104FA000BB46B246A946A046F0BD1A42A3D14B4625
:104FB0004A461B68D31A03229B465B68934395E7D6
:104FC0001100FFF79BFC8046E7E75246012091194C
:104FD00052680343024032435646544472604B6069
:104FE0006368083103436360380001F041FAD0E799
:104FF0004A68032130008A438C46103011198142DF
:1050000000DBA5E0DB0700D575E74B4649461B688A
:10501000CB1A61469B465B688B43D21812190092EB
:10502000904200DD62E75B465A46DB689268D360D7
:105030009A600823221F5B449846242A00D9BFE0C7
:10504000132A0AD959462B688B606B68CB601B2AE0
:1050500000D9C5E05B46083510332A681A606A68D3
:105060005A60AA689A605B4601229919019B380030
:105070009960009B9B1B13434B605B465B6813402E
:105080005A4633435360FFF7DFFE86E703225B682F
:105090009343E4186FE75B465A46DB689268D36037
:1050A0009A600823221F5B449846242A4BD8132A6F
:1050B00009D959462B688B606B68CB601B2A5FD877
:1050C0005B46083510332A681A606A685A60AA6815
:1050D0009A604546DA46009C4DE72200290001F01F
:1050E00095FB32E7009AD3689268D3609A605B467A
:1050F0005A46DB689268D3609A600823221F5B449B
:105100009846242A37D8132A09D959462B688B6028
:105110006B68CB601B2A49D85B46083510332A6878
:105120001A606A685A60AA689A604546DA46019C25
:1051300021E7AB688360EB68C360242C2ED00300AA
:1051400010321033FBE62900180001F05FFBC0E7C6
:105150004B46019A9B1993600122891B11435960A8
:105160004B465B68380013404A4633435360FFF7B1
:105170006BFEA84611E72900180001F047FBD4E7B1
:10518000AB680B61EB684B61242A1ED05B4610357F
:10519000183398E73800FFF757FEE3E62B6918321B
:1051A00003610300696918334161C8E6AB680B61AC
:1051B000EB684B61242A1DD05B4610351833AEE7EF
:1051C0002900180001F022FB4DE72B698B615B463B
:1051D0006A692033CA61183575E7C0468006002029
:1051E000AB680B61EB684B61242A0BD05B46103532
:1051F000183332E72B698B615B466A692033CA61D9
:1052000018358CE72B698B615B466A692033CA616C
:10521000183522E7002370B5064C0500080023600E
:10522000FEF7E8FF431C00D070BD2368002BFBD0C5
:105230002B60F9E7881000200EB430B581239CB0B4
:105240006A461FAC9B0020CC93820290069000F02F
:1052500097F80B4B6A460A9300230E931393013B76
:10526000D382084B039007902A00186802A92300F4
:10527000019400F0B3F81CB030BC08BC03B0184770
:1052800001530010480200200CB470B581239CB07B
:105290006A4620AC05009B00080040CC9382029136
:1052A000069100F06DF80B4B6A460A9300230E93AB
:1052B0001393013B03900790D38228002300320010
:1052C00002A9019400F08AF81CB070BC08BC02B0BE
:1052D0001847C0460153001070B50C000E25495FF9
:1052E00001F0ECFA002803DB236D1B18236570BD69
:1052F000A389024A1340A381F9E7C046FFEFFFFFED
:1053000000207047F8B50C001F000C23C95E050093
:105310001600CB050AD40A4B320019402800A1819F
:105320000E23E15E3B0001F029F8F8BD0E23E15E9B
:105330000022022301F0E4F90C23E15EEBE7C04612
:10534000FFEFFFFF70B50C000E25495F01F0D8F9A3
:10535000431C07D08023A2895B0113431BB2206545
:10536000A38170BDA389024A13401BB2F8E7C0466F
:10537000FFEFFFFF10B50E23C95E01F013F810BD5B
:1053800010B583070AD00300032102E001330B426A
:1053900005D01A78002AF9D1181A10BD030019682F
:1053A0000C4A0D4C8A188A4322420FD15968094A87
:1053B00004338A188A43224208D15968054A0433C3
:1053C0008A188A432242F1D000E001331A78002A79
:1053D000FBD1E1E7FFFEFEFE80808080F0B55746FE
:1053E0004546DE464E46E0B5CA4C1700A5440A9332
:1053F00002900C23CA5E80239B010D001A4205D146
:1054000013438B81C44A4B6E13404B663B78013784
:105410001393002B01D100F019FF002293460B9249
:10542000069207920592BD4A9146CA46BC4A099225
:1054300052460821D25C114223D1252B0ED10023E4
:10544000002418003A781300253BDBB2791C532B5B
:105450000DD8099E9B00F3589F460F006B68002BE8
:105460003DDD2A687B1E11781B7899422DD0059866
:10547000B1239B009D44F0BCBB46B246A946A04662
:10548000F0BDB84608245E4657466B680AE02A68B5
:105490001378FB5C1C420DD06B680132013B013676
:1054A0006B602A60002BF2DC2900029802F0E2FE19
:1054B0000028ECD0BA464746B3460397039A1378C0
:1054C000571C1393002BB3D1D1E76B680132013B1A
:1054D0006B6001239C462A60E3440397EEE72900B2
:1054E000029802F0C7FE0028BBD0059B002B02D01B
:1054F000AB895B06BBD501235B420593B7E78F23DE
:105500002342B4D183001B185B00981830387A7896
:105510000F0098E78146042603916B68002B54DD49
:10552000402323425AD0032E00D183E0042E00D121
:10553000FCE1012E00D1C6E1022E00D023E14B4652
:10554000002B01D1013B9946E30700D564E3E40653
:1055500001D400F034FC51462A681378CB5C1B0759
:10556000ACD401322A604A466B680124013B08260C
:1055700057466B60012A10D100F0D8FE2A681378D4
:10558000FB5C1E4211D16B680132013B01346B6040
:105590002A60A14501D100F029FE002BEEDC290094
:1055A000029802F067FE0028E8D0BA46A34485E7D7
:1055B0008146802303919B001C435A4B03260B9387
:1055C000102307936B68002BAADC2900029802F0D5
:1055D00051FE002889D140232342A4D151462A6894
:1055E0001378CB5C1B079ED5A046B24608275C46C5
:1055F0000E0005E001322A601378F35C1F4211D0DF
:105600006B680134013B6B60002BF3DC29000298CE
:1056100002F030FE002800D067E72A681378F35CB8
:105620001F42EDD133005646A3469A464446032E08
:1056300000D07BE74B46AE22013B5200934200D89C
:10564000DCE25D3BFF3B0493D8231B011C435E233C
:10565000FF3399460023344F984658AB1E000C93F5
:105660003B004F4699462A6811780B002B3BDBB272
:105670004D2B00D9B4E048469B00C3589F462307F2
:1056800000D0F4E602237A781C430F00DBE6012306
:10569000814603911C43234B03260B930823079356
:1056A0003BE70391E30600D508E7630701D500F067
:1056B00043FDE30701D500F0CDFDA40701D400F0C0
:1056C000C9FD59460A9B04CB1160C91751600A9362
:1056D000F4E640238146002603911C431DE78146E2
:1056E00018A801F0FFF84023012603901C4314E79B
:1056F0000123814603911C430C4B03260B930A2381
:1057000007930AE781468823039154E781460226DE
:10571000039102E73CFDFFFFFFDFFFFFC5B4001070
:10572000DCB00010C17F00102CB200106D7C0010A6
:10573000C64B81460B930A23032603910793ECE69D
:10574000230700D093E604237A781C430F007AE6FF
:10575000BF4B81460B930023032603910793DCE69E
:10576000230700D083E67A786C2A01D100F029FD66
:1057700001230F001C4366E6204300D077E67A78C9
:1057800010240F005FE64E46002E00D10136E307DD
:1057900000D563E3E40600D5F6E20A9C330002CCB0
:1057A00001220298009502F085FD002800D19CE6B8
:1057B000059B8344013305930A947FE6079B0A2BDC
:1057C0000EDDA44B1C40317001366B68013B6B60F1
:1057D000002B71DD01322A60013F002F00D042E72B
:1057E000E30508D50C9B9E4201D900F0D1FC0C9B2F
:1057F0009E4200D13BE610231A002240234200D0F3
:10580000E8E1079B32700C99002202980B9FB84781
:10581000A30600D5D7E1630701D500F083FCE307B9
:1058200000D5D0E1A40700D4CDE1884B0B9A9A4271
:1058300001D100F084FD0022079B0C99029802F030
:1058400001FB0A9B04CB03C20A93C0E10798824B79
:105850004000C35E07937F4B1C40B4E7C023802009
:10586000DB00234080008342BAD17C4B2340A0243C
:10587000E4001C4310230793A5E780232342AFD005
:105880009C43A0E70798744B4000C35E0793082B26
:1058900097DCA5E7230596D5079B002B05D1802330
:1058A0009B001C43F93BFF3B0793630501D400F0C9
:1058B00000FC6B4B1C4086E72900029802F0DAFCE2
:1058C000002889D08CE74B46002B01D1013B99463B
:1058D000E30700D53AE3E40600D400E22A6818ACF6
:1058E0001378E35C002B00D1C1E501322A604A46FF
:1058F0006B684F46013B6B60012A0DD114E02A68AA
:105900001378E35C002B0FD06B680132013B01364A
:105910006B602A60B74207D0002BF0DC29000298A8
:1059200002F0A8FC0028EAD0B344C7E5029800F0D2
:10593000DFFE0368AE220E934B46013B52009342BA
:1059400000D81BE25D3BFF3B1093F023DB001C43C0
:105950005E23FF33994600230027984611930F9347
:1059600008930D9358AB1E000C933E4B22000493FA
:105970003B005C46370093464E4699462A681178AC
:105980000B002B3BDBB24E2B03D804989B00C35873
:105990009F460E9B1B788B4217D180205B46800070
:1059A000034212D0304803409B46089B0D93397048
:1059B000013E01376B680134013B6B60002B00DC5A
:1059C000F9E001322A60002ED8D15B46A3461C00C4
:1059D000089B3E004F46002B62D0244B1C405FE0EA
:1059E00043464B44002BF0D15846214B184000232E
:1059F000834699469846DAE74346012BE5D10223D0
:105A00009846D4E74B46072BDFD108239946CEE7CB
:105A10004B46062BD9D107239946C8E74346002BAE
:105A200000D0DCE0089B002B06D1E0235846DB00C9
:105A30001840984200D1EFE34B46012B01D0042BD4
:105A4000C3D14B460133DBB29946B0E7C17F0010AA
:105A50006D7C00107FF4FFFFA0B40010FFFDFFFF7E
:105A60007FFAFFFF64B300107FFDFFFFFFFEFFFF23
:105A70007FFEFFFF4B46002B00D0B6E0089B002BBB
:105A800000D0C1E0E0235846DB001840984200D126
:105A9000BAE35B46A3461C0000233E004F46089332
:105AA0004346013B012B01D800F01EFC7B1E062B58
:105AB00000D8E1E2E30514D5630501D500F025FC2B
:105AC0000123771E5B4239785B449846652902D0F2
:105AD000452900D012E32A00029802F08BFBC3464E
