:020000041000EA
:1000000000B5324B212058609868022188439860DF
:10001000D860186158612E4B002199600221596106
:100020000121F02299502B49196001219960352056
:1000300000F044F80222904214D00621196600F024
:1000400034F8196E01211966002018661A6600F04E
:100050002CF8196E196E196E052000F02FF8012189
:100060000842F9D1002199601B49196000215960AB
:100070001A491B48016001219960EB211966A021F2
:10008000196600F012F800219960164914480160C1
:100090000121996001BC002800D000471248134993
:1000A000086003C880F30888084703B5996A0420EC
:1000B0000142FBD001200142F8D103BD02B5186610
:1000C0001866FFF7F2FF186E186E02BD00000240BE
:1000D000000000180000070000035F00212200005C
:1000E000F4000018222000A00001001008ED00E03C
:1000F00000000000000000000000000074B24E7A12
:1001000000200420F7010010C3010010C5010010F9
:10011000C1010010C1010010C1010010C101001097
:10012000C1010010C1010010C1010010C701001081
:10013000C1010010C1010010C9010010CB01001065
:10014000CD010010CD010010CD010010CD01001037
:10015000CD010010CD010010CD010010CD01001027
:10016000CD010010CD010010CD010010CD01001017
:10017000CD010010CD010010CD010010CD01001007
:10018000CD010010CD010010CD010010CD010010F7
:10019000CD010010CD010010CD010010CD010010E7
:1001A000CD010010CD010010CD010010CD010010D7
:1001B000CD010010CD010010CD010010CD010010C7
:1001C00000BE00BE00BE00BE00BE00BEEFF3058054
:1001D000103800BEF2EB887118CC001044CC00102F
:1001E0003802001090A31AE71E481F49086006C88D
:1001F00081F3088810471D480068002801D019487D
:10020000F3E70DA40ECC002902D000F012F8F9E7B4
:100210001749184A002000E001C19142FCD116495B
:100220008847164988471649884700BEFDE701C937
:1002300001C29A42FBD3704744CC0010D00000208A
:10024000080C00207CD700100000042000000420CF
:100250007CD70010001004200010042000000000D3
:10026000704700000000000008ED00E0000000D032
:10027000080C0020941300207D4E00108D120010F9
:100280003D4E0010F8B5C0460448054B10B58342FA
:1002900003D0044B002B00D0984710BD080C002061
:1002A000080C00200000000006480749091A8B10BE
:1002B000C90FC91810B5491003D0044B002B00D04A
:1002C000984710BD080C0020080C0020000000001A
:1002D00010B5074C2378002B09D1FFF7D5FF054B4C
:1002E000002B02D0044800E000BF0123237010BDA2
:1002F00058100020000000009CBB0010054B10B5FA
:10030000002B03D00449054800E000BFFFF7CCFFF5
:1003100010BDC046000000005C1000209CBB001017
:10032000036810B50400002B46D09F46254B0122E0
:100330000360D0231B06196D0A420AD01B68012BEB
:1003400034D0214B1A6005F043F9204B1860204B44
:100350002360012010BD1E4B01220360D0231B0629
:10036000196D0A42F5D01B68012B22D0164B1A607A
:1003700005F02EF9174B1860174B2360E9E7D022E0
:10038000154B12060360136D9B07E2D51368012B12
:1003900015D001220C4B1A600C4A0E4B10681B68DA
:1003A000C01805F00BF9074B2360D2E70B4A136026
:1003B000C9E70A4A1360DBE7024B0360C9E7074A53
:1003C0001360E9E72C03001030110020FC1000201E
:1003D00056030010001100207E030010341100208D
:1003E000036870B501220400002B2BD01F4D25603F
:1003F000002A01D1012070BD01F042FE1C4E73683D
:100400008B42F7D802D133688342F3D8D0231B063E
:100410001B68012B27D00122164B1A6001F030FE19
:100420001422002380185941306071600121124A62
:1004300013784B40137010D0D02310221B065A6142
:100440000022D4E7042001F021F8D02310221B065B
:100450005A625A61054B2360CCE7D02310221B0659
:100460009A610022C3E7054A1360D7E75A040010D7
:10047000900D0020301100208C130020341100203A
:10048000036870B50400002B00D196E09F465A4BDC
:100490005A49036001200600594B0A681D68594BF0
:1004A000D3189B109E40354200D084E0D0231B0619
:1004B0001B68012B00D195E0534B18601368002B8B
:1004C000FCD0BFF35F8F514B1B68BFF35F8F0022DF
:1004D0004F481A600368013B03600B68BFF35F8FEE
:1004E0001A604C4B19680A68002AFCD0BFF35F8F72
:1004F00049490A6801320A601A68BFF35F8F002118
:10050000116019680A68002AFCD0BFF35F8F434A64
:1005100022601B68BFF35F8F00221A60012070BD4C
:100520003F4B036001F0ACFD3E4D6B688B42F5D84C
:100530004DD0D0231B061B68012B56D00122324B15
:100540001A6001F09DFD00233222801859412F4B83
:100550002860696019680A68002AFCD0BFF35F8FC1
:10056000254A22601B68BFF35F8F00221A60D5E71F
:100570002A4B2D4A03601368002B2CD0D02109068A
:100580000968012934D001201F490860013B13602C
:10059000204B1B68BFF35F8F002201211A60234AA2
:1005A00013784B40137018D0D02308221B065A61D1
:1005B0001B4B2360B2E7154BD4E7032000F066FF26
:1005C000D02308221B065A629A61124B99E72B68C6
:1005D0008342AED9A2E70F4BC4E7D02308221B0603
:1005E0009A61E5E71248036068E7114A1360A8E7DB
:1005F0000F480160CAE7C0468E04001008110020B1
:100600005C0000D000FFFF2F3011002010110020EF
:10061000E010002064130020781300207005001003
:1006200020050010980D00207C1300208D13002061
:1006300034110020036870B50400002B00D19AE04B
:100640009F465C4B5C490360012006005B4B0A68D7
:100650001D685B4BD3189B109E40354200D088E04C
:10066000D0231B061B68012B00D199E0554B186065
:100670001368002BFCD0BFF35F8F534B1B68BFF395
:100680005F8F002251481A600368013303600B68D2
:10069000BFF35F8F1A604E4A1368013313604D4BEE
:1006A00019680A68002AFCD0BFF35F8F4A490A68BC
:1006B00001320A601A68BFF35F8F00211160196868
:1006C0000A68002AFCD0BFF35F8F444A22601B688F
:1006D000BFF35F8F00221A60012070BD404B0360A2
:1006E00001F0CEFC3F4D6B688B42F5D84DD0D02346
:1006F0001B061B68012B56D00122324B1A6001F0F9
:10070000BFFC0023384A801859412F4B286069608C
:1007100019680A68002AFCD0BFF35F8F254A22605F
:100720001B68BFF35F8F00221A60D5E72B4B2F4A5F
:1007300003601368002B2CD0D02109060968012919
:1007400034D001201F490860013B1360214B1B6816
:10075000BFF35F8F002201211A60254A13784B40B6
:10076000137018D0D02304221B065A611C4B23603F
:10077000B2E7154BD4E7022000F088FED023042214
:100780001B065A625A61134B99E72B688342AED914
:10079000A2E7104BC4E7D02304221B069A61E5E7C9
:1007A0001448036064E7134A1360A8E71148016026
:1007B000CAE7C04642060010081100205C0000D0C5
:1007C00000FFFF2F3011002010110020E01000204A
:1007D00080130020641300207C1300202C070010DD
:1007E000DC060010880D002050C3000078130020A4
:1007F0008E13002034110020026870B5012304001C
:10080000002A25D0154D2560002B01D1012070BD97
:1008100001F036FC124E73688B42F7D802D1336870
:100820008342F3D8D0231B061B68012B13D001226F
:100830000C4B1A603220002101F07EFB01F020FCFD
:100840000023642280185941002330607160DAE788
:10085000034E024DF2E7044A1360EBE7060800106E
:1008600050100020301100203411002070B5824C4F
:100870002568002D00D1AAE0AF46804B2360804B55
:100880009B699B0600D586E0D0231B061B68012BC5
:1008900000D1C7E001227B4B1A607B4B00229B5E9C
:1008A0007F2B00D1B6E02022754910008B691840DB
:1008B0001A42FAD17F23754A0B601368013B00D5B9
:1008C000A6E01360632B00DC94E000230220236089
:1008D00070BD6F4B23606A4B9B699B065BD4D02332
:1008E0001B061B68012B00D1A7E00122654B1A6093
:1008F000684B1D78644B00229B5EAB4200D194E0B4
:1009000020225F4910008B6918401A42FAD10D600D
:100910000D2D00D194E07F2D76D05C490A68531CE0
:100920000B605D498D54CDE75C4B2360544B9B6954
:100930009B0630D4D0231B061B68012B61D00122FB
:10094000504B1A60504B00229B5E0A2B00D18AE06C
:1009500020214B4A93691942FCD10A231360B4E762
:100960004F4B2360464B9B699B0614D4D0231B0638
:100970001B68012B74D00122424B1A60424B0022AB
:100980009B5E202B64D020213D4A93691942FCD103
:100990003A4B1160236001209AE7424B2360384BA9
:1009A0009B69DB06F7D4D0231B061B68012B25D0DF
:1009B0000122344B1A601021314A93691942FCD14B
:1009C0001268344B01201A70314B236080E7642297
:1009D0000021314802F08AFE2C4B294A1D609369A0
:1009E000DB0607D4102193691942FCD1136893697F
:1009F0001942F8D02B4B0120236069E72A4A136083
:100A0000D9E7294A13609DE7254B012023605FE762
:100A10001060EFE720211A4A93691942FCD10D2397
:100A2000136040E7204A136037E72021144A936996
:100A30001942FCD10D23136062E71B4A136057E78C
:100A4000124A154B12689854144B012023603FE75B
:100A500020210B4A93691942FCD10D23136092E7C0
:100A6000114A13608AE72021054A93691942FCD193
:100A70000D2313606CE7C0460C1200207A080010AA
:100A80000040034030110020841300202C1100206E
:100A9000D20800108F1300204411002028090010F4
:100AA000600900109A09001034110020F0B5DE46EC
:100AB00057464E464546E0B5474B85B01B68002B70
:100AC00000D087E0454B1B68002B1AD1444B454EA4
:100AD0009A460027444C33680FE0002255465300E5
:100AE0009B189B00534428009B68984722683368F2
:100AF000013222600C359A42F1DB2760002BECDCDE
:100B0000FEE7012B06D005B0F0BCBB46B246A946B5
:100B1000A046F0BD324B344C9A46344B314E984689
:100B2000334B344F0293344B344D03930023994697
:100B30003B6801333B604B4623603368002B00DC8D
:100B4000FEE72B00BB462500370054461E004B46EF
:100B5000336001F095FA43462A68186059605300E3
:100B60009B189B0053449B68200098473368012BD7
:100B70000BD02B683A6801332B600C349342E6DBD0
:100B80002C0035003E005F46D2E72C002368029916
:100B90009B00CA5835000132CA5001F071FA039A1D
:100BA00023689446DB009C446346009001911868DA
:100BB000596843461A685B68801A994102000B0025
:100BC0000098019912184B4161463E000A604B6043
:100BD0005F46ADE79F46C046381100204011002017
:100BE0001C12002014120020F410002040100020DD
:100BF000141300200C130020A00D00203011002041
:100C0000F0B5DE4657464E464546E0B5474B85B003
:100C10001B68002B00D087E0454B1B68002B1AD1C6
:100C2000444B454E9A460027444C33680FE000225F
:100C3000554653009B189B00534428009B689847D7
:100C400022683368013222600C359A42F1DB27605A
:100C5000002BECDCFEE7012B06D005B0F0BCBB4658
:100C6000B246A946A046F0BD324B344C9A46344BAE
:100C7000314E9846334B344F0293344B344D0393EB
:100C8000002399463B6801333B604B462360336841
:100C9000002B00DCFEE72B00BB4625003700544646
:100CA0001E004B46336001F0EBF943462A6818609A
:100CB000596053009B189B0053449B682000984741
:100CC0003368012B0BD02B683A6801332B600C344E
:100CD0009342E6DB2C0035003E005F46D2E72C0055
:100CE000236802999B00CA5835000132CA5001F0AE
:100CF000C7F9039A23689446DB009C44634600903E
:100D000001911868596843461A685B68801A9941CE
:100D100002000B000098019912184B4161463E00F9
:100D20000A604B605F46ADE79F46C0463C1100201D
:100D3000401100209412002018120020F81000200A
:100D4000481000203C13002010130020F00D00205C
:100D500034110020D0231B061A6D70B5D20704D5BC
:100D600001219A6D1A6D1142FBD1D0231B061B681D
:100D7000012B31D0314A1368092B08DD0122304B99
:100D80001A6000222F4B1A60FFF790FE70BD5900C9
:100D90002D48C9182D4D89004418A56000256360B1
:100DA0005C1C455014600A2CE8D0610009198900C8
:100DB00046187460264C4550B4609C1C14600A2C84
:100DC000DCD061000919890046187460214C033396
:100DD000B46045501360D1E71F4A1368092B08DD42
:100DE0000122174B1A6000221C4B1A60FFF708FF04
:100DF000CCE759001A48C918144D89004418A56059
:100E0000002563605C1C455014600A2CE8D061002A
:100E100009198900461874600D4C4550B4609C1C3B
:100E200014600A2CDCD0610009198900461874602E
:100E3000084C0333B46045501360D1E7141200200E
:100E400040110020381100201C120020E103001086
:100E50008104001021030010181200203C11002012
:100E60009412002003680122F0B5002B29D01C4BFE
:100E70000360002A23D01B4B9B699B061FD4D02301
:100E80001B061B68012B20D00122174B1A60174E3E
:100E9000174D3468174B2F5D00229B5EBB4217D065
:100EA0002021104A93691942FCD1176001342B5D4F
:100EB00000223460002BDAD103600220F0BD012053
:100EC000FCE70024094E0A4DF1E70B4A1360DEE708
:100ED0002021044A93691942FCD10D231360DFE7F6
:100EE0006E0E001000400340301100201811002049
:100EF000A81100208413002034110020F0B54646CC
:100F0000D6464F46C0B503680400B54E84B0002BEA
:100F100000D1F4E09F46B34B01220360D0231B06AF
:100F2000196D0A4200D11EE11B68012B00D153E16B
:100F3000AD4B1A6004F04CFBAC4B0200AC491800FE
:100F400003F0D6FE0023A64E3360AA4B3000236088
:100F5000FFF788FF012800DC07E1A74B1B689846D4
:100F6000A64B1B689946A64B1B689A4601F088F869
:100F70000023A44A01F060FC5346A34F9B4D02900E
:100F80000391009342464B463900280003F0B0FE1F
:100F9000002333609D4B30002360FFF763FF01287F
:100FA00000DCE2E09A4804F0CBF99049994B0A0042
:100FB000A1CBA1C223CB23C203CB03C20023336046
:100FC000954B30002360FFF74DFF012800DCCCE09B
:100FD000924F3B68002B0FDD914B00259846914BBB
:100FE0009946434604CB29004846984604F0A8F9A0
:100FF0003B680135AB42F4DC854804F0A1F97B4A3B
:10100000894BA1CBA1C2110025CB25C125CB25C180
:101010001B780B7000233360844B30002360FFF794
:1010200021FF012800DCA0E07C4F3B68002B0FDD96
:101030007F4B002598467F4B9946414648460CC950
:101040008846290004F07CF93B680135AB42F4DCAA
:10105000794804F075F96549784B0A00A1CBA1C223
:1010600023CB23C203CB03C200233360744B300075
:101070002360FFF7F7FE012877DD724F3B68002BF6
:101080000FDD714B00259846664B9946434604CBCD
:1010900029004846984604F053F93B680135AB42B5
:1010A000F4DC5B4804F04CF9504A684BA1CBA1C278
:1010B000110025CB25C125CB25C11B780B70002342
:1010C0003360634B30002360FFF7CCFE01284CDD1A
:1010D0005C4F3B68002B0FDD5E4B00259846554B5F
:1010E0009946414648460CC98846290004F028F92B
:1010F0003B680135AB42F4DC454804F021F93B4A3A
:10110000554BA1CBA1C2110005CB05C10023336013
:10111000524B30002360FFF7A5FE012825DD002299
:101120004F4B1A604F4B2360FFF7A0FB01281CD9DF
:101130004D4E4E4D32002B004D494E4804F0C0FF3D
:1011400032682B684C49D218284803F0D1FD00239F
:10115000234E3360494B30002360FFF783FE0128A4
:1011600003DD474B2360012000E0002004B0E0BC19
:10117000BA46B146A846F0BDD022414B12060360E4
:10118000136D9B07EFD51368012B1FD00122164B5F
:101190001A60354B186804F011FA3A4B01202360AD
:1011A000E4E7D022374B12060360136D9B07DAD5B4
:1011B0001368012B0DD001220B4B1A602B4B1868C2
:1011C00004F0FCF9074B01202360CFE72E4A13609F
:1011D000DFE72D4A1360F1E72B4A1360AAE6C04609
:1011E00010120020160F001030110020A81100204E
:1011F000C8BB00104A0F0010E0100020E8100020CB
:101200008013002040420F00DCBB0010940F001040
:1012100004BC001008BC0010C00F00101412002005
:101220001413002028BC001030BC0010181000104F
:10123000A00D002058BC001064BC00106CBC001055
:101240006C100010181200203C1300208CBC001001
:10125000C2100010F00D0020A0BB001010110010F3
:101260000C120020241100107013002074130020B1
:10127000B4BB001044110020BCBB0010541100107E
:1012800078110010A211001034110020F8B503F0FD
:101290007DFF5F4804F054F8182000F06BF95D4CB6
:1012A00020600368002BFCD0BFF35F8F1F2000F08D
:1012B00061F9594B18602368BFF35F8F0022182033
:1012C0001A6000F057F920600368002BFCD0BFF3D0
:1012D0005F8F1E2000F04EF9504B18602368BFF35B
:1012E0005F8F002219201A6000F044F94C4C2060F6
:1012F0000368002BFCD0BFF35F8F0122494B1A60BB
:101300002368BFF35F8F002219201A6000F032F9C2
:1013100020600368002BFCD0BFF35F8F0022424B9C
:101320001A602368BFF35F8F1A60D0231B061A6D03
:10133000D20704D501219A6D1A6D1142FBD104F038
:1013400055F93A4804F0C4F9D0231B061B68012B59
:101350002FD0374A1368092B09DD0122354B1A605B
:101360000022354B1A60FFF7A1FB0020F8BD0C20CE
:1013700004005C433149324E0D196B60AE600025AC
:1013800065505C1C14600A2CE7D0060066438F1978
:101390007C602C4C7550BC609C1C14600A2CDCD00A
:1013A00060430E187460284C0333B46045501360DA
:1013B000D3E7264A1368092B08DD01221D4B1A606A
:1013C0000022234B1A60FFF71BFCCEE70C20040021
:1013D0005C4320491A4E0D196B60AE6000256550C4
:1013E0005C1C14600A2CE8D0060066438F197C60F0
:1013F000144C7550BC609C1C14600A2CDDD06043FA
:101400000E187460104C0333B46045501360D4E779
:10141000B4BC0010101100200C1100200811002095
:1014200064130020781300207C130020550D001059
:101430001412002040110020381100201C1200203E
:10144000F907001035060010FD0E001018120020DC
:101450003C11002094120020094A83009A1810B50C
:1014600014684022544080322240064CC000A446FA
:1014700063441A60044B9C466044416010BDC04602
:1014800004C0014004D00140004001400123D022AB
:101490008340120693629361094A83009A18116887
:1014A0004022514080320A400649C0008C466344C5
:1014B0001A60054B9C460523604443607047C04654
:1014C00004C0014004D00140004001400FB400B509
:1014D000084883B003F0ACFE049B002B07D005A99D
:1014E0001800019103F04AFC034803F0A1FE01201B
:1014F00003F05CFCDCBC0010ECBC001070B5EFF33A
:10150000108C72B60D4D2B68002BFCD0BFF35F8F93
:101510000724CB08C618C05C01230C40A3401C0064
:101520000440034207D118433070BFF35F8F2C6033
:101530008CF3108870BD1000FFF7C8FF2C0100D09D
:10154000044A1078431CDBB2172B00D91023137008
:101550007047C046A80100200021044B044ABFF395
:101560005F8F02C39342FAD17047C046000100D09A
:10157000800100D0044B9C4660448000BFF35F8F25
:10158000002303607047C04640000034054B064A04
:101590001360064A136053609360D3601361536114
:1015A000936170478080808000E400E004E400E004
:1015B0001F2318401E3B8340002905D0C021044A48
:1015C0004900535013607047802201498B50FAE75D
:1015D00000E100E001228240034B1B6813405A1EC9
:1015E0009341D8B27047C04600E100E070B50D00ED
:1015F000EFF3108672B60F4A1368002BFCD0BFF3CE
:101600005F8F0D4B10309B6884001B590B4A93422F
:1016100003D09D4201D000F0B7FF074B9B681D51DE
:10162000BFF35F8FBFF35F8F0022024B1A6086F318
:10163000108870BD240100D000ED00E0CD01001045
:10164000F0B5DE4657464E464546E0B50C0083B041
:10165000EFF3108872B6634A1368002BFCD0BFF317
:101660005F8F614B61499A68030010339F00D55921
:1016700000938D4243D0A54254D05D4EAA1B2F2A21
:101680003DD85C4B9C461B689A4601231A0099463C
:101690008240534613401F2201934B460240934021
:1016A0009A468022634650469850BFF35F8FEFF30F
:1016B00005839B46002B37D0009B5B4501D000F093
:1016C00063FF2A004B469A439068844208D177E032
:1016D0004B005B189B00F3189868844236D01A00C0
:1016E000062151560029F3DA844255D0019B002B84
:1016F00027D0C02251463F4B5200995019603A4BB7
:101700009B68DD51BFF35F8FBFF35F8F0022354BC6
:101710001A6088F3108803B0F0BCBB46B246A946F5
:10172000A046F0BD0D00EAE72A004B469A439068B8
:101730008442D5D106201056130000280ADA0D0085
:1017400032E0802351462B4AD150D8E70620185664
:10175000002822DB42001118890074188946A1680C
:101760009960E179D971062161569971002925DBCB
:10177000A488F11A640524154C440919E0240905CC
:10178000490D24022143998013181B4A9B001178AC
:10179000F31899711070A9E713005946002914D164
:1017A000FF3191711549918013490A789A71144A51
:1017B0009B1B5B415A43120D0A7097E71149E2E700
:1017C0000620105613000028C4DA0F4A0F49D21A17
:1017D000083A5002400D014399800D4952080A43CE
:1017E000DA8083E7240100D000ED00E0CD01001095
:1017F000AC01002000E100E09013002001BDFFFFDC
:10180000AAAA000001BD0000E601002000F0FFFFD1
:1018100000F8FFFF70B501240443EFF30581EFF3F7
:10182000108C72B6214A1368002BFCD0BFF35F8F77
:101830001F4B05001F4AED1A6D416A43120D1E4DE4
:101840008900AE6852B27658A6421CD0062159567D
:1018500091421CD012215956914222D01E21595634
:10186000914220D02A2159560324914210D0134B83
:1018700019781A708171BFF35F8F00220B4B1A60C9
:101880008CF3108870BDAB680D4C5C50EFE7002402
:101890006100091989005B18FF2199710949998034
:1018A000E5E70124F4E70224F2E7C046240100D072
:1018B000AC010020AAAA000000ED00E09013002077
:1018C000CD01001001BDFFFF024B9C466144890021
:1018D0000160704740000034F8B5134D134E2C00E2
:1018E000FF27B5421ED22368002B0FD0FFF728FE3A
:1018F00001002800FFF7E8FFA780BFF35F8F0834DF
:10190000B4420FD223682500002BEFD1FFF718FE59
:1019100001002800FFF7D8FF2771BFF35F8F08345D
:10192000B442EFD3F8BDC046F80B0020080C0020ED
:101930000A4B1968EFF3108072B60A68002AFCD0CF
:10194000BFF35F8F1B68BFF35F8F00221A6080F3C5
:10195000108840BF002000217047C0466C13002053
:10196000F0B5DE4657464E464546E0B585B0EFF346
:10197000058203231340B64A9900575801229A4022
:1019800088469346B34B1A60B34B02935B46B34809
:1019900043630823FE5E002E35DABB881BB2002BA2
:1019A00000DBA8E0BB79002B00D0E9E00823F85E5B
:1019B00000281EDB43007A691B18DB00D3189D68E2
:1019C000DC686B1C00D108E1A44801004144826A34
:1019D0000B69AE1A9B1A9E4213D35A46036A1A42E7
:1019E0000FD09E4800F044FB8C4202DCCED18542F1
:1019F000CCD940BF05B0F0BCBB46B246A946A04614
:101A0000F0BD0D61EDE77A69730091469B19DB002B
:101A100099444B469C68DD6800F02AFB8D42BCDC93
:101A200000D1FEE0002D00DAE3E04B46029A1B698C
:101A3000934200D1D5E04A4652884946944608224E
:101A4000B85E6246000449691043984700900191CE
:101A50000099019A0B001000134300D1C9E0130054
:101A60000A00002800DBE0E020002900801A9941EC
:101A70004B469860D96000229A5E002A00DA8CE713
:101A800053009C187D69E4002C190093A368E46856
:101A90009A468C4200DD80E702D1834200D97CE780
:101AA00008239C46BC443A8103976746009BB44692
:101AB0003E000EE08C4200D1C5E01E000023F25E25
:101AC000002A0BDB53009C18E4002C19A768E4687B
:101AD000BA469B18DB00EB188C42EBDD3300664600
:101AE0009C464B461A806346039F1E80BB881BB2F0
:101AF000002B00DA56E73A69EFF3108172B61368EB
:101B0000002BFCD0BFF35F8F0123BE885B42BB80FC
:101B100036B23B69BFF35F8F00221A6081F31088F1
:101B2000002E00DA3EE73B0008333A0099467D6913
:101B300073009B19DB00EB189968DC688C46082061
:101B4000115E4846002910DB009306E0A34240D016
:101B50000023F95E3800002906DB4F007F18FF00E4
:101B6000EF19FB68A342F1DD009B068000201E5E9A
:101B70001980002EDCDA1700BB79002B00D115E7A5
:101B80000023BB713D000823F95E08354B1C00D1D2
:101B90002FE77C690800A44603E035004B1C00D108
:101BA00006E74B005B180A006146DB00CE18C95EF1
:101BB00073881BB2002BF0DA01235B42DC17B360A1
:101BC000F4608242EAD029803B89100033803A8158
:101BD000E4E7BB686345BBD9C6E7631C00D0F3E606
:101BE000FFE64B465B699A461B69504698470028BA
:101BF00023D14B461B883A693B81EFF3108372B6C1
:101C000011680029FCD0BFF35F8F49467A880A80AB
:101C10003A697E80BFF35F8F0021116083F31088E3
:101C2000BBE6844200D8FDE6B7E60C4800F020FA97
:101C3000009B019CC01861411AE753461A685B6813
:101C40000092019304E7824500D836E746E7C04694
:101C50001C1100203C700540611900100040054037
:101C600070B52E4C2569002D04D00A212C48FFF7B1
:101C70002BFE70BD2B4E0321300000F0EFF9E66023
:101C8000FFF75EFC284B03229C46D02322701B06E4
:101C90001B6801216370254B6044A3600F23800003
:101CA00020610220638063694942A180198002316A
:101CB000198647311D83585218315A5275325C3992
:101CC0009952183201319952183201319952183211
:101CD00001319952083518329D5202311832995209
:101CE00018320131995218320131995218320131AA
:101CF00099521832013199521832013199520C4BD4
:101D00000C49DC6001303562FFF770FC01210320D3
:101D1000FFF74EFC084B1D60A7E7C046F40100200A
:101D20006C1300200040054040000034FFFF10000D
:101D30001C110020611900103860054070B50100C9
:101D40000469EFF3108C72B620680028FCD0BFF352
:101D50005F8F02200D5E4C6968004019C000241896
:101D6000002D37DB208848800869BFF35F8F00268D
:101D700006608CF31088E360638804980133206167
:101D80005B0405985B0CA26060611A1C002B1FD0DD
:101D900093B22804628018430A69EFF3108C72B67C
:101DA0001368002BFCD0BFF35F8F8B8823808D805E
:101DB0000B69BFF35F8F00221A608CF310880B78D9
:101DC00001329A40CB6808498C4663441A6070BD62
:101DD0000122DDE70B69BFF35F8F00221A608CF3ED
:101DE000108801204042F2E73C20000010B54389F2
:101DF0000A1493421ADD53009B184269DB00D31882
:101E00000469EFF3108C72B62268002AFCD0BFF38D
:101E10005F8F5A88090494B2090C8A4208D003697A
:101E2000BFF35F8F00221A608CF31088002010BD72
:101E30008022120214435C80012302698371BFF384
:101E40005F8F002111608CF31088044902788C4662
:101E50009340C268012062441360E8E73C20000020
:101E6000F0B504000D0006267642F717C64636196F
:101E70006F4100B582B08F4214D811D000F000F944
:101E800032003B00121A8B41002B17DC002B47D08D
:101E90002000290000F032F902B080BCB846F0BD45
:101EA0008642EBD90022002316001F0000F0E8F85C
:101EB00032003B00121A8B41002BE7DD00F0E0F806
:101EC00032003B00121A8B41002B0ADB00230193E6
:101ED000154B3200009315483B00FFF72FFF0028F9
:101EE000D6DB00239C46B046114A124E736A9F42CD
:101EF00004D8B16A4145CBD29F42C9D11168EFF3F2
:101F0000108072B60B68002BFCD0BFF35F8F136894
:101F1000BFF35F8F6146196080F3108820BFE5E74B
:101F2000002AB5D0CAE7C04631190010F4010020DC
:101F30006C1300200040054070B504000D0000F057
:101F40009FF88023001969411B06994202D30120A2
:101F500002494042FFF784FF70BDC046FFFFFF7F8C
:101F6000F0B5CE46474680B504000D0083B0EFF3D0
:101F70000587002F0DD0364A0020536A8B4203D3C9
:101F8000926A0130A24250D303B0C0BCB946B046F9
:101F9000F0BD304B9846DB689946434648461E786C
:101FA00000F066F80B00494602000436B60071588E
:101FB00020008E1A2900801A99418F4211DC0ED020
:101FC00020BF234A0020536AAB42DDD3926A01301E
:101FD000A242D9D2EB1A5A1E9341D8B2D4E7864214
:101FE000EED900F04DF822002B00121A8B41002B85
:101FF00020DB00230193184B2200009340462B0066
:10200000FFF79CFE011E15DD114B2E005A6A95420A
:102010001CD89B6AA34217D34046FFF7E7FE0C4A41
:102020000020536A9E42AFD8D0E75B1A5A1E9341F4
:10203000D8B2A9E7064A0020536AAB42A4D3926AF9
:102040000120A242A0D2C5E79542E5D120BFE3E737
:1020500000400540F40100203119001010B5024A7B
:102060000248FFF74BFA10BDF8BC0010B410002076
:102070000300416A0A00986A596A8A42FAD1704795
:10208000034B596A0A00986A596A9142FAD170471B
:102090000040054070B504000D00174A536A19004E
:1020A000966A536A8B42FAD13000190024184D41C8
:1020B000AB4216D813D0104B2A005B6A9D4203D95D
:1020C0000D494B6A9342FCD3934207D10A4A02E07E
:1020D000516A994202D1916AA142F9D370BDA642D8
:1020E000E9D9054B5B6A1C005A1CEFD00122012480
:1020F0006442E5175242E3E700400540064A536A4E
:102100009942FCD807D1044B02E05A6A914202D1AD
:102110009A6A8242F9D3704700400540F8B504003E
:1021200006200D0000F076F9002842D0364B3749E2
:10213000E21853425A418023DB039C469205344BFC
:1021400062441A60334B1A6010000B689843FBD14D
:102150002D4B314AE31859424B4180215B00490025
:102160000620995200F056F92900C00000F026FB25
:102170000130C3091ED1402701226262A362266B8F
:10218000F30722D4E36A254B0620E51800232B60D1
:10219000266300F03FF93900800000F00FFB702348
:1021A000E26A5A400E3313402B601D4B2363032316
:1021B000A364F8BD1B4A93421ED900231A4A1B4F41
:1021C0006262A362266BF307DCD5194B144AE3184D
:1021D0001A60656AA36A0620AD01ED1800F01AF9CD
:1021E000144900F0EBFAAD020100280000F0E6FA15
:1021F0000021FFF74FFFC5E74006800E9F011A0040
:102200003F180300B9E7C0460080FCBF08C000408B
:1022100000E0004000F00040841300202C1000007B
:1022200001030000FEFF0000FFFF0000C0FF3F00B1
:10223000303000004E0E0000F8B5DE464E465746E0
:102240004546E0B58B4605000A991800160000F0D7
:10225000B5FA0A9B6C001F02324B64199C46A4001D
:102260006444636881469F4200D967602B1FDBB2DC
:102270009846012B30D9C02380229B01E31812011C
:102280001A60294BAD0059599A4600291BD1730198
:10229000E026226853401E40802342465B01E3183B
:1022A0001E60012A30D9802380229B01E31812018D
:1022B0001A6053464A4667605A51F0BCBB46B24664
:1022C000A946A046F8BD586900F078FA01304300ED
:1022D0001B18033BFDD2DAE75B46012BCBD1C023B1
:1022E00003229B01E3181A60023AA3681A42FCD049
:1022F0007301E0262268AD0053401E4080230A4A45
:102300005B019246E3181E605A4621685140032241
:102310000A401A6001225B469A40A3681A42FCD028
:10232000C1E7C04600800040B8100020F0B5464626
:102330004F46D646C0B51F00344B44009C46241877
:10234000A4006444636888461600FF2B02D88023EB
:102350005B006360031FDBB29A46012B30D9C023B8
:1023600080229B01E31812011A60294B85005959FC
:10237000994600291BD17301E026226853401E4074
:10238000802352465B01E3181E60012A30D9802366
:1023900080229B01E31812011A6080235B006360B6
:1023A0004B465F51E0BCBA46B146A846F0BD5869FD
:1023B00000F004FA013043001B18033BFDD2DAE7BA
:1023C0004346012BCBD1C02303229B01E3181A60A3
:1023D000023AA3681A42FCD07301E0262268850005
:1023E00053401E4080230A4A5B019146E3181E6059
:1023F00042462168514003220A401A6001234246A6
:102400009340A2681342FCD0C1E7C0460080004060
:10241000B8100020014B8000C0587047B810002051
:10242000F8B5040020481D0017000E0000F0C6F9A2
:102430000100380000F0C2F9069B29041B03194370
:102440002368002B1EDB194B194DE21853425A41E9
:1024500080235B019C461203164B62441A60164BA4
:102460001A6017002B689F43FBD1144B2660E218BB
:102470002123A06013602368002BFCDA0823E160AD
:102480001360F8BD3F2322681340B342DBD1A36839
:102490001B051B0D8342D6D1EE22E368D202134006
:1024A0008B42D0D1EDE7C046001BB7000040FDBF16
:1024B00008C0004000E0004000F000400430000090
:1024C0008023024A9B000B43D36270470080054083
:1024D000142310B50100188804331B88984710BDD9
:1024E000162310B50100188802331B88984710BDC9
:1024F000F8B54746CE4680B50F1E19D0142399462D
:10250000043304000025012698464B4618884346AC
:1025100021681B88984701C4431E984101354042F9
:102520000640AF42F1D13000C0BCB946B046F8BD5C
:102530000126F8E7142370B50400188804331B88BB
:102540000D000549984703000020002C01DB0130F5
:10255000A04029009847C04655420000AA23064AD9
:102560001B0113608D235B00D3600449044B196089
:102570005368002BFCDA70470040024000B0FA00BC
:10258000006002407047C04610B50148FEF79EFF4C
:102590001CBD001070B5074D074EB54209D200248E
:1025A000013E761BB60808CD984723000134B3429C
:1025B000F9D170BD58BB001094BB001070B5074D29
:1025C000074EB54209D20024013E761BB60808CD5D
:1025D000984723000134B342F9D170BD8CBB001081
:1025E00094BB0010054B064A06491A60064A074B81
:1025F0001A6010000B689843FBD1704700E0004060
:10260000BFCDFBFE08C00040FE7F3C0000F0004054
:10261000044BDB6C002B03D18022034BD2021A60E7
:102620007047C046000011504C201150044A054B21
:102630001A60054A1368DB018033FBD17047C0463E
:10264000FFFFFF0100F0004008C000404022034BA4
:102650009A675A671A67DA667047C04600F0014009
:1026600010B5FEF779FF10BD70B5044D044CA96894
:10267000C022200001F040F8AC6070BD00ED00E029
:1026800000000020002310B5294C82B0A367FFF79B
:1026900065FF0122274B1A60636C012BFCD10322DA
:1026A000254B1A60224A936B012BFCD10133009316
:1026B0000121224A22480433FFF7B2FE05230121FB
:1026C0000093204A2048FFF7ABFE0022022104209D
:1026D0001E4BFFF72BFE0022012105201C4BFFF7AC
:1026E00025FE0022002107201A4BFFF71FFE0022C3
:1026F00000210820174BFFF719FE8023DB00009311
:10270000002200210920134BFFF796FD0022104BF9
:1027100000210620FFF70AFE0420FFF77BFE0E498A
:1027200000F04CF801000020FFF7CAFE02B010BD17
:10273000008000403CB0004030B00040002F68599D
:1027400000800240008C864700C00240001BB7009A
:1027500040597307006CDC0240420F00014804211D
:10276000014B184710020020F1240010124A936F09
:102770009B0815D29066D166002905D0FFE7FFE7D8
:10278000FFE7516F106F704704B580210906C2172B
:102790005140002800D0C84309F0CEF9002104BD03
:1027A000F0B5146E556E576F166FFFF7E3FF1466A2
:1027B000556657671667F0BD000000D0114A936F49
:1027C0009B0813D210665166002905D0FFE7FFE78A
:1027D000FFE7516F106F704704B5002801D000204B
:1027E000C04309F0A9F9002104BDC046F0B5146E3C
:1027F000556E576F166FFFF7E5FF146655665767FE
:102800001667F0BD000000D094464A4A926F9208C5
:10281000624601D228E0C046F0B5464E346E756E71
:10282000776F366F00F020F89446424A146655667A
:10283000576716676246F0BD94463E4A926F92080B
:10284000624601D254E0C046F0B53A4E346E756E21
:10285000776F366F00F04CF89446364A146655662A
:10286000576716676246F0BD002B24DB11D00029A4
:102870003EDA00B5C943404200D1013100F038F8DA
:10288000C943404200D10131DB43524200D1013300
:1028900000BD002AEBD1002801D1002905D000207D
:1028A000C90FC90701D1C043410800B509F03CF97F
:1028B0000022002300BD00B500290ADBDB435242A1
:1028C00000D1013300F014F8C943404200D1013176
:1028D00000BDC943404200D10131DB43524200D127
:1028E000013300F005F8DB43524200D1013300BD53
:1028F000002923D1002B18D1002A0CD0BC460D4F43
:1029000038667A6600210023FFE7FFE7FFE77A6F6A
:10291000386F67467047002801D00748010000B5AE
:1029200009F002F90022002300BD02000B00002084
:1029300000217047000000D0FFFFFFFF002B00D0F8
:10294000BFE0130C28D1002AE7D080B4114F3966BC
:102950007A66FFE7FFE730B4040C7B6F396F1B0426
:1029600023433B667A66FFE7FFE7FFE7C04684B292
:102970007B6F3D6F1B0423433B667A66FFE7FFE7EF
:10298000C04600232C042D0C7A6F386F0019694162
:10299000B0BC7047000000D0F0B594460025140E7E
:1029A00001D112020835140F01D112010435940F20
:1029B00001D192000235D40F01D152000135D40B60
:1029C0000134254F7C66254C3C660E0C93B2FFE724
:1029D000FFE7FFE73C6F6643360C7703BE46734361
:1029E000DF0B5B04C01AB941130C7343DB18C91A1F
:1029F000CE086643360CB64493B273431F0F1B01D7
:102A0000C01AB941130C73431F0B1B05C01AB941FF
:102A1000860D8F023E436643360C092D24DB520A95
:102A20007243801A7703460A6643360C16235B1BF3
:102A3000DE40DF40BF1964466643821B70460435A2
:102A400006330100D940A840C01900D30131A24289
:102A500006D20023F0BD0000000000D0FFFFFFFF02
:102A6000121B0130F3D3F1E709277F1BFE406446B8
:102A7000A2B27243801A00D20139220C7243130CA5
:102A80001204821A99410B00704604351337010075
:102A9000F940A840801900D30131002B02D1A24295
:102AA0000AD2F0BD013000D30131121BFAD2013B32
:102AB000F8D1A24200D2F0BD013000D30131121B87
:102AC000F7E7F0B51C0C00D080E00CB400251C0A20
:102AD00004D11B02160E3343120208351C0B04D11D
:102AE0001B01160F3343120104359C0B04D19B00CC
:102AF000960F334392000235DC0B02D192185B41F2
:102B000001351C00971864410134464F7C66464CE1
:102B10003C660E0CFFE7FFE7FFE7C0463C6F6643ED
:102B2000360C7703BE4697B27743C01B00D20139FB
:102B3000C01B00D201399FB27743C91BC91B170CB8
:102B400077437E04FF0B801BB941CE086643360CE9
:102B50000C2D33DBB644120B1F053A431B0B97B207
:102B60007743C01B00D201399FB27743C91B170CB2
:102B700077433E043F0C801BB941860D8F023E43D4
:102B8000664329277F1BFE400C3D7746AF40BF19A7
:102B900030BCA2B2ABB272437343801A9941220C8B
:102BA0007243130C1204801A994102000B00013782
:102BB000001BA941F9D2781E0021F0BD0C277F1B14
:102BC000FE4077467F0BAF40FF19E0E700245D1C15
:102BD00007D0144F7D663966FFE7FFE7FFE7FFE7A1
:102BE0003C6F95B29EB265436643401BB141150CE4
:102BF0001E0C6543664336042F0C3E432D04401BD8
:102C0000B141994204D202000B0020000021F0BD26
:102C100001D19042F7D3801A994101349942F2D3FD
:102C2000F6E70000000000D0FFFFFFFF48404140F2
:102C3000484018B41B4B5B68FC46019308BD04DF99
:102C40006F2F001018B4174B1B68FC46019308BD8A
:102C500000DF792F00109446134A926F920809D230
:102C6000624618B40F4BDB68FC46019308BD0CDFCD
:102C7000313200100C4AF0B5146E556E576F166F56
:102C80006246FFF7EEFF084A1466556657671667F7
:102C9000F0BD18B4034B9B68FC46019308BD08DFE8
:102CA000D5300010400E0020000000D0FFB550408D
:102CB0004240504059404B40594000E0FFB5154F4D
:102CC0004C00640D03D0BC4204D10C0314D8002086
:102CD000090D09055C00640D03D0BC4204D11C033E
:102CE0000AD800221B0D1B0501264B4009D44B407E
:102CF00003D58B4200D18242FFBD9942FCD1904264
:102D0000FFBD0B43DB1803431343F5D0C9434918F8
:102D1000FFBD0000FF07000000B5FFF7CFFF01D0A7
:102D2000002000BD012000BD00B5FFF7C7FF8041B6
:102D300000BDC04600B5FFF7C1FF01D9002000BDAE
:102D4000012000BD00B5FFF7B1FF01D9002000BD93
:102D5000012000BD00B5FFF7A9FF804100BD0120A3
:102D600040054A00121804D85A00121801D8002051
:102D700070470120704700000021002805D17047EE
:102D8000C1174840401AFAD0C90713B5064B1B6853
:102D900098470CBC441CA2401005120B0349091BA8
:102DA00009051943114310BD681300201F040000DA
:102DB00010B54C00620D8023D218DB00D21A5B05DF
:102DC0007E2A10DD9E3A13DACC170903490819430D
:102DD0005242D140640001341532202A05DAD04035
:102DE0000843604310BD002010BD0846604310BD7D
:102DF000C80FC018013810BD18B4044B5B6AFC46FC
:102E0000019308BD24DFE13300100000400E0020D4
:102E100018B4044BDB6DFC46019308BD5CDFED3458
:102E200000100000400E0020C94211D300B5490037
:102E30004908002200F018F8002904D4002240427A
:102E40008A41114600BD80210906002000BD000016
:102E500018B4044BDB6EFC46019308BD6CDFEF3306
:102E600000100000400E002018B4044B9B6FFC467D
:102E7000019308BD78DF0B3400100000400E0020E5
:102E800018B4044BDB6FFC46019308BD7CDF79343A
:102E900000100000400E0020132370B51D78012D96
:102EA00019D014DD1F48FFF71BFB06001E48FFF773
:102EB00017FB1E4C80223100200000F01DFC022D6B
:102EC0002DD01B48FFF704FB1A4B186070BD1A4B3E
:102ED000164CA364F5E7184B144C23606360A360A1
:102EE000E36023616361A361E36123626362A362C0
:102EF000E36223636363A363E36323646364A364A0
:102F0000E36423656365A365E36523666366A3667F
:102F1000E36623676367A367E367A364D1E7064BB0
:102F2000A364CEE75344000053460000400E002047
:102F30004C330000681300203D2F001007B5604699
:102F400001880A0A0230DF2AFAD1C9B2820804D302
:102F5000028840880004104300E00068014A505095
:102F6000039007BD400E00200FB403BC0CBCF0B5AD
:102F70000124E407634000E0F0B50C0DCF0F661E9E
:102F80003605891B640503D3C943404200D3013190
:102F9000640D03D0661CF60A07D0E41B00207F00F6
:102FA000791C89078912803C24031D0DDF0F6E1EDA
:102FB00036059B1B6D0503D3DB43524200D301331F
:102FC0006D0D03D06E1CF60A07D0ED1B00227F00AA
:102FD0007B1C9B079B12803D2D032F1B661B58D427
:102FE000A446202E46DA20371400BC401D00BD4008
:102FF000F24033412A4380185941CB0F05D0C943D1
:10300000C043002264425041514162464D0D28D1D7
:103010000D0D07D100281FD0241940414941013A24
:103020000D0DF9D0640006D3013000D30131002C1E
:1030300001D140084000013A0BD4941CE40A04D1A9
:1030400012051144DB071944F0BDD907204B194381
:1030500000E0D9070020F0BD0029DDD1002CDBD134
:10306000F0BD0132C6074008CD0728434908002EAD
:10307000E1D0D9E73C2E29DA203E40371400BC408D
:1030800000D00124F24014431A00BB401C43D31764
:10309000ACE7AC46202F08DA20360400B4400D001F
:1030A000B540F84039412843A5E73C2F0CDA203FD2
:1030B00040360400B44000D00124F8400443080026
:1030C000B1400C43C117EAE710001900002494E74F
:1030D0000000F07FF0B50C0D661E3605891BE60A70
:1030E0006405640D02D0651CED0A04D000200121A6
:1030F0000905803C2403A4461C0D671E3F05DB1B0D
:10310000E70A6405640D02D0651CED0A04D00022B4
:1031100001231B05803C24037740644497B484B2A8
:1031200096B27443070C7E43150C6F4380B268431C
:10313000361802D3012000043F183004350C001962
:103140007D41844688B29AB250430C0C62431F0CF6
:103150007C438EB27E43921902D301263604A41911
:103160001604170C3618674101BC81B29AB251435C
:10317000040C62431B0C5C4380B25843121802D308
:103180000120000424181004130C401863412D186A
:103190005E410020474106BC88B293B258430C0CF4
:1031A0006343120C544389B251435B1802D301218B
:1031B0000904641819041A0C091862416D18564163
:1031C0000020474118BCF902720D1143F0026A0D4C
:1031D0001043ED020A0D03D16D1940414941013BF5
:1031E000124E9B1B7600B3420ED26D0007D3013006
:1031F000002671416646354301D1400840001B0559
:10320000C918E4072144F0BD0BDA013306D10130BF
:1032100004D101314F0D01D04908F2E7E107002048
:10322000F0BD013631050020EBE70000FF03000090
:10323000F0B51C0D671E3F05DB1BE70A6405640D36
:1032400002D0661CF60A04D0002201231B05803C34
:103250002403D0252D060026F6432E661E096E6631
:10326000CE0FF619B44649004F0D02D07E1CF60A67
:1032700003D000200021403F3F033E1BB600B44472
:10328000013F7F05C91B49082E6F013676089C0255
:10329000950D25437543ED137543AD1301356D1041
:1032A000F603761B0CB4CC02450D2C43A2B2B3B28C
:1032B0005A43270C7B43350C6F43A4B26C431B1954
:1032C00002D3012424043F191C041D0CA4187D41C1
:1032D00024196D41009A91B2ACB26143170C7C4342
:1032E0002B0C5F4392B25A43A41802D3012212045A
:1032F000BF182204230C52187B41019C6C431B19FC
:10330000520ED9010A434401A01A81B2B2B251430C
:1033100003145A43360C734387B27743D617D21936
:1033200000277E4136049B191704160C7F185E4156
:103330007316ED18F301002680337541A90F06D1ED
:103340006400690AE8055B0A184309D22FE00422E9
:10335000944480337541A90AA8059B0A184326D3D3
:10336000404149412404009A019B0D005543641BD0
:103370004343E41A95B286B27543170C7E43030C9F
:103380005F4392B25A43B61802D301221204BF1807
:103390003204330C52197B4152429C41002C02D41E
:1033A0000022013051414008CA071043490802B0C9
:1033B0006246D7079210084BD218084B9A4203D2A4
:1033C00012058918C919F0BD0020002A01DC390056
:1033D000F0BD01331905F5E7FD030000FE0700000D
:1033E000002200B5203200F010F8080000BD0022D5
:1033F00000B500F00CF8CA179A4200D100BDD843BE
:103400000121C907414000BD00220B150AD410B5A7
:10341000944600F0A7F81414013400DA0021CB1709
:10342000144C20470020002170476244343A0CD4E9
:103430000C2A07DA04009140904052422032D440D6
:10344000214310BDD843D94310BD203207D40C46C8
:103450009440524220321141D040204310BD080018
:10346000C917203203D452422032104110BD180037
:10347000190010BD2B3400104A00520D144BD21A03
:1034800013DDFF2A1EDAD205CB0FDB071A43C30078
:10349000400F0903490A084310435B0001D301D0E0
:1034A000013070474308FBD2704702D0C80FC007F5
:1034B00070470A0312130132F8D1420F072AF5D1DF
:1034C000012200E0FF22C80F00028018C0057047EB
:1034D0008003000000210A00002104E000210A000E
:1034E000C11704E00022002306E0C0460022CB17EB
:1034F00058405940C01A994130B5184CA21A0029B9
:1035000003D1010010D00020203A4C1512D104D272
:10351000013A001849414C0DFAD3114CA24204D291
:1035200012058918DB07C91830BDD243520D00209F
:103530000021F5E703D4013A00184941FBD50B32CD
:103540004405C00A4D052843C90A640003D000247D
:1035500060416141E1E7E0D34408F8E7320400004C
:10356000FE0700000A0DCC0F531E1B05C91A520599
:1035700003D3C943404200D30131520D03D0531C41
:10358000DB0A07D0121B00206400611C8907891226
:10359000803A1203014BD21A70470000FF0300006B
:1035A00051434343C9188C46110C83B24B4310B4AA
:1035B000040C614392B280B2504362431C041B0C62
:1035C000001910BC59411304120CC0185141614438
:1035D0007047000007B548404140484001E0C04600
:1035E00007B54200120E03D0FF2A03D1420218D8B9
:1035F000C00DC0054A00120E03D0FF2A03D14A02B3
:103600000FD8C90DC9050122414005D4414001D55B
:10361000814207BD884207BD0143491801D0C0431C
:10362000001807BD00B5FFF7DBFF01D9002000BD82
:10363000012000BD01231B064200D21804D84A0015
:10364000D21801D80020704701207047132310B50D
:1036500012481C78FEF744FF0100012C0AD003DD5C
:1036600080220F4800F048F80E48FEF731FF0E4B5D
:10367000186010BD0A4C5422200000F03DF80B4B9E
:103680006365A365E36523666366A366E3662367F4
:103690006367A367E3672362E361E5E753460000DE
:1036A000400F00204C33000068130020B13600109A
:1036B00007B5604601880A0A0230DF2AFAD1C9B28A
:1036C000820804D3028840880004104300E00068A8
:1036D000014A5050039007BD400F002001480421CB
:1036E000014B184720020020F1240010014B1B68F9
:1036F0001847000020020020014B5B6818470000BB
:10370000200200209A4200D2885470477047C04679
:10371000F8B557464546DE464E46E0B598460A9B04
:1037200006009A460D9B0F00934615009B0710D18B
:103730000B9B0C9A93420CD213005C460B9A9D1A79
:103740005D4422004346013439002020B047A542A1
:10375000F7D10B9C6319002C09D01D0053462A1B7E
:10376000013C185D39004346B047002CF6D10D9B53
:103770009B070ED55B46EC1A0C9BA34209D99946D0
:103780002A004346390020200134B0470135A145C5
:10379000F6D82800F0BCBB46B246A946A046F8BD04
:1037A000F0B54F464646D646C0B584B098460EABF7
:1037B0001B7894469946129B0D9C109F119E9A0768
:1037C00024D4002E6AD1BC4220D201221A40924653
:1037D000202C00D1CBE00C9A551E302201E0202C89
:1037E00030D001342A55A742F9D85246002A0DD0CC
:1037F000B4420BD20C9A551E3022202C02D126E066
:10380000202C61D001342A55B442F9D1DA0634D5DE
:103810005A0562D4002C5CD10F9A102A00D191E095
:10382000022A00D1A1E030220C9C227001244A46D9
:10383000002A5CD15A0700D47DE02B220C9D2A552A
:1038400001341CE05246002A02D0202E3CD920240C
:10385000DA0614D55A0512D4202F00D197E0202E75
:103860003BD120261F2234000F9D102D00D181E076
:10387000022D4CD030250C9FBD54202CD7D1039362
:103880000C9B62460093029643460194FFF740FF6B
:1038900004B0E0BCBA46B146A846F0BD012215000E
:1038A0001D40AA461A4227D04A46002A33D10C327C
:1038B0001A4230D1BC429BD2202C00D08BE7202E64
:1038C000C5D8DA06A4D4DAE72024DA06D7D55A0513
:1038D00003D4A74221D0B4421FD00F9A102A21D07E
:1038E000022A10D0202CCAD022000134C2E72D2297
:1038F0000C9D2A550134C2E7BC4200D386E7202C38
:1039000000D068E7E1E7202CB9D02200013462251D
:103910000C9FBD54E6E7013ECCE7621E012C00D1AE
:103920007AE7A1E79A0616D4202CA8D078220C9D1D
:103930002A550134D6E71A07A1D520220C9D2A5515
:1039400001349CE79A060ED478220C9C2270302217
:10395000627002246BE7202C91D058250C9A121922
:1039600015700134BEE75822EFE76222EDE7002A26
:10397000A7D1AAE7023C9D0604D478250C9F3D55AB
:103980001400B1E758250C9F3D551400ACE71F22E9
:103990006AE7C04610B5002800D110BD01F0FCFB5D
:1039A000FBE7C0460B0010B5002802D049681B6831
:1039B000984710BDF0B557464E464546DE46E0B541
:1039C00099B08246894690460993229A239B10001B
:1039D0001900FFF7C4F9002800D0C8E02298239905
:1039E0000122D54B5242FFF7B5F9002800D0BEE0C6
:1039F000229823990122D14B5242FFF795F90028D2
:103A000000D0B4E02298239900220023FFF78CF91C
:103A1000002800D0E9E1229E239F8023269ADB0024
:103A20001A400D92269A1A4201D1062324933B0094
:103A3000334300D0B4E0269B1B0500D5BFE1002333
:103A400000240A930B94002304250C93259B002447
:103A5000AB4200D95C1B0223269A1A400D92269A8B
:103A6000134203D06B426B415B421C400C9B002B0A
:103A700007D00A9A0B9B30003900FFF7ECF80600DC
:103A80000F002298239900220023FFF74DF9002808
:103A900003D0802109067B181F00269AA84B0096A8
:103AA00001971340099E0493249B0394029342467A
:103AB00033004946504600F0A7F90400002D67D0B6
:103AC0002020269A4946024013005A4253415B4245
:103AD000621C18400A92330022004530D0470C9AED
:103AE0006F1ED317D4185C40D30F9B46002501E00E
:103AF000202D13D008AA94461F23200063440A21D6
:103B000001355E19FEF75AFE3031317020000A216E
:103B1000FEF754FE26000400092EE9D8052306937B
:103B2000002304930A3303935B46099E029310AB70
:103B30000A9A009349463300504605970195FFF7CE
:103B40002FFE0D9A0400002A22D04246851A259A9B
:103B5000AA421DD9B04657461600220043464946A0
:103B600020200135B8470134AE42F6D810E0269B3C
:103B700042460493259B49460393249B5046029357
:103B8000229B239C00930194099B00F03DF90400C3
:103B9000200019B0F0BCBB46B246A946A046F0BD15
:103BA000684B78009C46400D6044FFF7E9F8664A90
:103BB000664BFFF76EF8664A664BFFF743F8664AB6
:103BC0003B031B0B1A4304000D00644B1100300033
:103BD0000022FFF72EF8624A624BFFF75AF8020004
:103BE0000B0020002900FFF72DF8FFF7E1F80C90FB
:103BF000FFF7C6F85C4A5D4B04000D00FFF749F87B
:103C000000225B4BFFF71EF8FFF7D2F8594A8346B4
:103C1000594B20002900FFF73CF8040058460D00DE
:103C2000FFF7AEF8554A564BFFF733F802000B008A
:103C300020002900FEF7FDFF02000B000A900B9107
:103C4000FFF727F804000D000A980B9902000B00FB
:103C5000FEF7F8FF00220E900F914A4B200029003A
:103C6000FEF7F9FF0022484BFEF7ECFF02000B00C5
:103C700020002900FEF7EFFF0022444BFEF7E2FF91
:103C800002000B0020002900FEF7E5FF0A9A0B9BBB
:103C90000D0080210400C9050020FEF7CAFF0200C4
:103CA0000B0020002900FEF7CDFF394C02000B006D
:103CB0000E980F99FEF7CFFF5C440022264BFEF7CB
:103CC000C1FF23050022FEF7E4FF04000D000200FF
:103CD0000B00300039000A940B95FFF725F80028F7
:103CE0005ED123002A00C6250C9963318D42AD4177
:103CF00026996D420435090500D4A7E6134364D024
:103D000030003900234A244BFFF71CF8002807D065
:103D1000002230003900214BFFF706F8002854D16B
:103D2000249B002B00D191E60D9B5A1E9341249AAF
:103D3000D31A24938AE6C046FFFFEF7FFFFFEFFF11
:103D4000FFF7FFFF01FCFFFFFB799F501344D33FB8
:103D5000B3C8608B288AC63F0000F03F0000F83FE0
:103D600061436F63A787D23F71A379094F930A40DC
:103D70000000E03F1655B5BBB16B0240EF39FAFECB
:103D8000422EE63F00002C40000024400000184076
:103D9000FF0300002D431CEBE2361A3F80842E41C6
:103DA0000C9B0022013B0C932000164B2900FEF7D0
:103DB00052FF0A00010003000A910B9293E70023CF
:103DC00000240A930B9400230C93249A0C9B9A4290
:103DD00014DDD31A013B24938023269ADB001A4377
:103DE0000023002526920C9330E68022120694468A
:103DF000229B1E00239B63441F000EE60023249396
:103E0000EAE7C04600002440F0B54546DE464E468F
:103E10005746E0B595B08B46904699461E9A1F9B33
:103E20000A9019001000209DFEF799FF002800D08D
:103E3000B0E11E981F990122C74B5242FEF774FF52
:103E4000002800D037E11E981F990122C34B52422F
:103E5000FEF780FF002800D0A7E01E981F990022DF
:103E6000BF4BFEF777FF002800D088E01E981F990F
:103E70000022BC4BFEF758FF002800D07FE01E98C0
:103E80001F9900220023FEF74FFF002800D0FAE020
:103E900000230B938023229C229ADB001C401A42B1
:103EA00000D102E1092D00D87EE106A98C462C0044
:103EB000172200233021093C62440133D154EF1A08
:103EC000202B00D132E1A342F7D10022A44B06926D
:103ED00007931E981F99FEF76BFF0500FEF750FF32
:103EE00002000B001E981F99FEF7A3FE069A079B7F
:103EF000FEF7CFFE08900991FEF77EFF0600FEF761
:103F00003BFF02000B0008980999FEF792FE002281
:103F1000954B08900991FEF71DFF002800D1D2E0D3
:103F200001363000FEF728FF069A079BFEF70AFFCE
:103F3000002801D000260135AA46002F00D098E0C5
:103F40002800FEF71DFF02000B001E981F99FEF7C8
:103F500070FE854B002206000F00FEF7E5FE0CAB5D
:103F60009A46002845D10022300039007E4BFEF7EA
:103F7000F1FE00283DD1EB073BD5013539E0229B0E
:103F800042460493219B594603930A981E9B1F9C0B
:103F90000295009301944B46FFF70CFD15B0F0BC61
:103FA000BB46B246A946A046F0BD229B5B0767D43C
:103FB00003226E4B22990192039121990291009361
:103FC00042464B4659460A98FFF7A2FBE6E706AA87
:103FD00094461723280063440A2101341E19FEF772
:103FE000C5FB3031280031700A21FEF7BFFB051EEA
:103FF00076D0202CEBD10323229A1340012B1DD124
:10400000219B002B1AD00B9B002B00D0BBE0229AE7
:104010000C33134200D0B6E0219BA34200D887E0C6
:1040200006AB9C4617223023624404E021990134F8
:1040300013558C4259D0202CF8D12024229B019476
:104040000393219B02935346B9E706AA944617238C
:104050000A216344300001341D19FEF7AFFB3031F3
:10406000297030000A21013FFEF7A8FB092E46D92E
:104070000600202CE9D155460CAB20249A46B8E71F
:1040800004223B4B96E71E9A1F9B00200021FEF75F
:10409000D0FD01230B938023229C229ADB001E90EB
:1040A0001F911C401A4200D0FCE60022314B06272B
:1040B000069207930DE7229B0393219B029304230F
:1040C00001932D4B7BE7002208980999264BFEF7B8
:1040D0002BFE002800D02FE7002E4FD101362BE712
:1040E0000323229A1340012B68D0202CA6D00B9BCF
:1040F000002B1FD02D235246135501349EE7554601
:10410000202CB9D030223B19002F4BD0172006A904
:10411000013409180A55202CAED09C42F6D10CAAC5
:1041200092462E2251465C1CCA5462E72024CCE6FB
:10413000202C83D0229B5B0708D4229B1B0700D432
:104140007CE7202352461355013477E72B23524650
:104150001355013472E7C046FFFFEFFFFFFFEF7F0B
:1041600065CDCD4165CDCDC10000E03FCCBD001097
:10417000C4BD001080842E41D4BD0010F30700D4CC
:10418000DAE60136D8E6219B013B2193A34200D910
:1041900046E7AAE7229B0393219B02930323019303
:1041A000084B0CE72300BAE7074BEA009B185C6852
:1041B0001B682F000693079400248AE6219B002B9E
:1041C00093D020E7D0BD001078BF0010F0B5DE46D8
:1041D00057464E464546E0B59FB01C00289B934687
:1041E0000A93CC4ACC4B8A4609901A60002900D128
:1041F0004DE1002320789946002800D14FE1C74BBC
:104200004D460893C64B0D930AE02A006E1C5B4690
:10421000099D5146A847350001342078002872D006
:104220002528F2D110239946083B9846043B0021EB
:104230009C4602270134207826000300203BDBB295
:10424000102B03D8089A9B00D3589F460300303B9D
:10425000092B6ED900272A2800D18AE000230B936E
:104260002E2800D176E00300683BDBB2122B1BD86E
:10427000AC4C9B00E3589F46012301341943DAE715
:1042800039430134D7E7634601341943D3E74B463A
:1042900001341943CFE7434601341943CBE7802368
:1042A0005B0070781943013667280AD824281FD983
:1042B0000300253BDBB2422B1AD80D9A9B00D35842
:1042C0009F460300693BDBB20F2B11D801249C40B1
:1042D000954AA446904614400C94624644462242B5
:1042E00000D025E20A2B00D101E1072B00D1D8E054
:1042F000099C2A005B465146A04770786F1C741CCD
:104300003D0000288CD1A9462C00CB4503D80123C1
:104310005B425B4499465B464A4651460020099DF4
:10432000A84720001FB0F0BCBB46B246A946A04635
:10433000F0BD0027BB00DF1901367F003F18307841
:10434000303F0300303B092BF4D900230B932E2878
:1043500000D088E780237078DB0019430300303BEE
:10436000741C092B00D82CE12A2800D138E1260042
:1043700079E70A9B80CB002F03DB60780A93661CE9
:104380006CE70222607811437F420A93661C65E75E
:10439000672800D1C8E1472800D104E2452800D1B0
:1043A00004E207200A9B04910733834319000B9A08
:1043B000039702920CC90998009201930A912A006E
:1043C0005B465146FFF7F6FA741C050025E7707846
:1043D0006C2800D10DE280235B001943013663E7AE
:1043E00080239B007078194301365DE77078682858
:1043F00000D1F9E180230136194355E7462800D161
:104400008FE107200A9B04910733834319000B9A1D
:10441000039702920CC90998009201930A912A000D
:104420005B465146FFF7F0FC741C0500F5E62A00D8
:10443000099C5B46514625206F1CA0473D00741C1B
:10444000EBE6890700D4DEE10A9B2A0098466B1C44
:104450009946434601CB51469846099C5B46C0B2FB
:10446000A047ED19012F00D893E24C46B1465646BD
:10447000099F22005B46013431002020B847AC423E
:10448000F7D1B24643464E460A93741CC5E6274B05
:104490002078099300239946002800D0AFE6002435
:1044A00033E70A9B1A0008CA9046002B00D1A7E008
:1044B000212008430EA98C461F2262440F27AC46D8
:1044C000814615000C9C02E0202C0CD01300380013
:1044D000184001003731092800D80739013429551F
:1044E0001A090F2BF0D8654648460C9494E00A9BB5
:1044F0001A0008CA12920B9A002A7BD102241A7859
:104500006442002A1DD0013418199C461C00030087
:1045100010E0C046CD41001004110020DCBD0010A9
:104520006CBE001020BE0010419000000D3700103E
:104530009C4203D0607801340028F9D16346E01A28
:104540000C908020C00084460840804660460142AE
:1045500004D00B980C9C844200D90C900220844615
:1045600008400A906046084200D189E1101E00D13F
:1045700070E14246002A00D11BE10B9A5B1B90467A
:10458000A84444462A00B84699465746B246099E72
:1045900009E05B463900551CB0474B46585D002882
:1045A00000D12CE12A009442F3D156462500BA46A8
:1045B00047460A9B002B00D04CE1129B741C0A93C7
:1045C0002BE6002293009B185B0001341A18207818
:1045D000303A0300303B092BF4D926000B9242E617
:1045E0000A9B023604CBD043C01702400B923078AE
:1045F0000A9338E61A78002AA3D00B98441E82E763
:104600001023080080279843113318430B00FF0044
:104610003B40394200D14DE7082305930B9B2A000C
:10462000049310230393002302930C9B06900193A1
:1046300016AB009351465B460998FFF7B1F8434625
:104640000500741C0A93E8E5622800D1A6E1582809
:1046500000D1B1E180230A00DB001A4090461942E4
:1046600000D189E1112399438C46802362469B0047
:104670001A40100062461A4200D023E180236446AB
:104680005B001C401A4200D032E263465B0600D554
:104690006BE163460A991B0600D4DBE208C91BB232
:1046A000DA179818504080B20A91DA0F0C92002B5A
:1046B00000D118E280460EAA91461F234B44139561
:1046C000E14645461297B0461E0001E0202C0FD06F
:1046D00028000A21FEF772F8013437193031397099
:1046E00028000A21FEF76AF82F000500092FEDD8EF
:1046F0004646CC46129F139D634606930B9B059737
:1047000004930A2303930C9B029316AB2A00019493
:10471000009351465B460998FFF742F8741C050068
:104720007BE5202319436CE680231B01194338E6FF
:10473000782800D07CE180230A00DB001A409146F3
:10474000194200D1A5E20D239943080003330C93CD
:10475000802302009B001A409046184200D078E166
:10476000802304005B001C40184200D007E243068F
:1047700000D453E2FF210A9B04CB0A4090460A93DF
:104780004346002B00D026E1103398434B46002BC4
:1047900000D120E100240B9B069004930C9B05970D
:1047A00003930023B0E780231B01194320231943FF
:1047B000F7E55B1B99460C9B099C98465B46B34604
:1047C0005646BA461F002A003B003100A0474B4620
:1047D0000135585D0028F6D143460C933B005746FF
:1047E000B2465E469B46E4E6C023B07819430236E3
:1047F0005AE5C0239B00B0781943023654E556466B
:10480000BA464746D5E6012F00D832E26B1E9846DD
:10481000B8442C00A9464546B8465746B246099EBC
:1048200022005B46013439002020B047AC42F7D16A
:104830000A9B564601CBBA464746984622005B463D
:10484000099C5146C0B2A0474D464346ED190A9314
:10485000741CE2E40C9BA8469F4200D8ADE6444697
:10486000B04656467D19099FED1A22005B46013479
:1048700031002020B847AC42F7D1B24646469CE60C
:104880000C98874200D8F0E1424698467919B9461B
:104890005746B246099E0C1A0C922A005B46013517
:1048A00039002020B047A542F7D15646BA464F46B8
:1048B00043460C9A90467A1C0C921A78101E00D02F
:1048C00057E67AE60822072191460A9B07338B4375
:1048D00099444A460ACB0C000A921C43DA0F002C7A
:1048E0004ED0D817040010904C4011900E941098A0
:1048F00011990C005C400F940E9B0F9C1B1A8C416D
:104900000E930F940EA988461F2300244344129748
:10491000B046270013951E000E9C0F9DE1460C9299
:1049200001E0202F10D0200029000A220023FDF7EB
:1049300083FF013730322B00F2550D0022000400B6
:10494000002BEED1092AECD84646CC460E940F95A2
:104950000C9A3C00139D129F634606930B9B059790
:1049600004930A2302920393CFE6FF230A9904C912
:10497000134018000A9198E6102399438C4674E678
:1049800043460024002BE7D1002300240E930F940C
:10499000B8E743464D460A93741C3EE480230A0060
:1049A000DB001A409146194200D140E10D239943A2
:1049B0000B3B08000C93CBE680230A00DB001A4077
:1049C0009146194200D162E10D232020994303331F
:1049D00008430C93BCE66123810600D541230EA950
:1049E0001F228C46DBB262440A3B13971495814622
:1049F00045460C9FB0461293160008E03033DBB2F8
:104A000001343355BD420ED3202C0CD005003900A3
:104A10002800FDF7D3FECBB20929EFD9129A9446AC
:104A20006344DBB2ECE746464846139F149DB2E66A
:104A30006F2800D03CE10C230800984380230A0033
:104A4000DB001A409146194200D02AE108230C935A
:104A50007EE60A99FA3BFF3B0731994301339C46B6
:104A60008C4463464A680A930B6890469C461343FD
:104A7000191E06D14B46103100248843002B00D06C
:104A800089E66121830600D541210EAA91461F23A4
:104A90004B449946C9B20C9B0A3913971495159645
:104AA00045464E46002467469846814612910CE0E2
:104AB0003032D2B2002301343255AB4200D1BCE0D7
:104AC000202C00D1BCE007000D0042460023380036
:104AD0002900FDF7B1FED2B2092AE9D9129B9C4602
:104AE0006244D2B2E6E74346002B00D004E6E2E59A
:104AF0000A9C08CCDA0F1392002B00D1A5E0D9173D
:104B00005B184B4098460EAA91461F234B440C95C8
:104B1000A14645461296E04606001C000A9701E0B1
:104B2000202E0FD028000A21FDF748FE0136A719D4
:104B30003031397028000A21FDF740FE2F000500B2
:104B4000092FEDD8C4464C4630000A9F0C9D129E9A
:104B5000634606930B9B2A0004930A230393139B3B
:104B60000190029316AB009351465B460998059756
:104B7000FEF716FE0A940500741CFFF74EFB0A9B15
:104B800010CB1493002C04D1102398434B46002BD8
:104B90002CD16123810600D541230EA91F228C460A
:104BA000DBB262440A3B12971395814645460C9F3F
:104BB000B0460A93160008E03033DBB20135735576
:104BC000BC420ED3202D0CD0040039002000FDF78C
:104BD000F5FDCBB20929EFD90A9A94466344DBB2BA
:104BE000ECE748464646129FA846139D0B9B2A00B9
:104BF00004930C9B06900393002302934346019376
:104C000016AB009351465B4609980597FEF7C8FD21
:104C1000149B05000A93741CFFF7FFFA03061FD5C7
:104C20000A9B02CB09040A0C90460A93A8E50C23C0
:104C300099430A3B08000C938AE5B84500D83FE742
:104C40004846139F149D159EA5E54346002B00D0B2
:104C50007EE758E708C9DA17981850400A9124E50A
:104C60000A9B04CB90460A938AE5010001310C911E
:104C700024E60A9F6C1C01CF2A005B46099D514621
:104C8000C0B2A84725000A97741CFFF7C6FA202374
:104C900019430C23994300239946103308000C93C1
:104CA00056E508238C460C930D23604698434FE548
:104CB00010230A009A439446692808D180230A00E9
:104CC000DB001A409046194200D1CEE4CAE41C230E
:104CD0000800984380230A00DB001A4091461942DD
:104CE00002D10A230C9333E50A230C93DCE7C04678
:104CF0000EB4012230B584B007AC08CC064D0100DB
:104D00000094280052420394FFF760FA04B030BCCC
:104D100008BC03B01847C0460537001000B585B081
:104D20000391012102900093034813004A4202A913
:104D3000FFF74CFA05B000BDA53900100FB430B52F
:104D40000C4985B008AA08CA0D680392002D0CD042
:104D500000920122084C5242200002A9A8470120DB
:104D600005B030BC08BC04B01847180000F060FA69
:104D70000020F5E7041100209539001010B5094A0C
:104D80000300146884B0002C08D00122009106486A
:104D9000524203A9A047012004B010BD00F048FA18
:104DA0000020F9E7041100209539001000BEFDE74E
:104DB000094A03001068002805D00849C3188B422F
:104DC00007D81360704706480449C31810608B4227
:104DD000F7D901204042F5E7F01000200000042040
:104DE00094130020030010B508001100002B05D11A
:104DF000044B1A685B6800F06FF910BD0120404257
:104E0000FBE7C046F0BC00100300013B10B50800F2
:104E10001400012B06D801230022210000F0DCF849
:104E2000200010BD01204042FBE7C0460120404267
:104E30007047C046012040427047C04610B5FFF79A
:104E4000B5FFC04630B50D0083B01900002A0BD065
:104E5000074B084C0192009302002B002000FFF743
:104E60006DFF0120FFF7A2FF034B1A00F1E7C046D8
:104E7000C8BF0010D8BF0010D8BB001070B5FDF738
:104E800089FB074D074EB54209D20024013E761B2F
:104E9000B60808CD984723000134B342F9D170BD5C
:104EA00094BB00109CBB0010030010B5080011005B
:104EB0001B68984710BDC046F0B546464F46D646DB
:104EC000C0B5437D80460E001700002B4BD0002A52
:104ED00032DD274B01259A464B1E002400209946BF
:104EE00007E0335D0A2B2CD02B0001340135BB4287
:104EF00013DA002CF5D133780A2BF5D143461B7D0C
:104F0000002BF1D14346504602211B6898472800E8
:104F10002B0001340135BB42EBDB874204DD434605
:104F2000391A1B6830189847F619013E33780D3B43
:104F30005A42534142461375E0BCBA46B146A846B0
:104F4000F0BD4B461B5D0D2BCED0A042DADA4346B6
:104F5000211A1B68301898474346504602211B68A7
:104F600098472800D4E70368110030009847E3E72A
:104F700008C00010F0B5C6460B6806000C0000B56E
:104F8000802B06D05A1C2260E418267180BCB846DB
:104F9000F0BD0F4B1D68002D16D00B1D98460D4F10
:104FA00002E02D69002D0FD02B68002BF9D03B6853
:104FB000002B01D0AB42F4D1280041462268FFF714
:104FC0007BFF2D69002DEFD101220023DBE7C046D6
:104FD000E4100020EC100020F0B5DE4657464E46A7
:104FE0004546E0B585B017001C0006000D00FDF732
:104FF00047F80023314A12184B41802109068B42A1
:1050000002D301222E4B52422E4908008A4606F056
:105010009BFD01906B1C03D1300001F0F5F80500F9
:10502000002C26D0284B9846284B1C68002C15D005
:10503000002F21D1264F02E02469002C0ED02368D6
:10504000002BF9D03B68002B01D0A342F4D1200003
:105050002A003100C0472469002CF0D1019B002BAD
:1050600028D1280005B0F0BCBB46B246A946A046F0
:10507000F0BD184B9846D7E7154B994602ABDF1D9C
:105080000A239B4602E02469002CE7D02368002B0A
:10509000F9D04B461B68002B01D0A342F3D12A0064
:1050A00031002000C0475B460122390020003B70E0
:1050B000C047E8E7504606F02FFDD2E740420F0018
:1050C000FFFFFF7F000C0020B94E0010E41000200D
:1050D000EC100020A94E0010F8B557464E46454644
:1050E000DE4698461A4BE0B59B461A4B07000E0069
:1050F00091469A46184D5B461C68002C03D115E07A
:105100002469002C12D02B68002B01D0A342F7D1C8
:10511000A368002BF4D03100380098470028EFDD59
:10512000F0BCBB46B246A946A046F8BD53465B6AF2
:10513000984508D85246926A4A4502D30220404216
:10514000EEE79845FAD101200021FCF7A3FFD2E752
:10515000E410002000400540EC1000200A4A1368CB
:10516000002B05D10CE01A001B691032002B07D070
:105170009842F8D1002902D1036913600161704798
:105180000029FCD01060FAE7E410002010B500F010
:10519000B7F9012010BDC046F0B5CE46474680B5F0
:1051A00083B06B460600DD1D2870FCF769FF002305
:1051B0001A4A12184B41802109068B4202D3012260
:1051C000174B524217490800884606F0BDFC164BA3
:1051D00081461C68002C14D0144F02E02469002C76
:1051E0000FD02368002BF9D03B68002B01D0A342DD
:1051F000F4D1200001222900FFF75EFE2469002C73
:10520000EFD14B46002B05D1300003B0C0BCB946EE
:10521000B046F0BD404606F07FFCF5E740420F0087
:10522000FFFFFF7F000C0020E4100020EC100020A6
:1052300070B5040000F0E8FF012301000500012221
:105240002000FFF7C9FE084B1C68002C06D06368DD
:10525000002B05D098472469002CF8D1280070BD98
:105260002469002CF3D1F9E7E4100020F0B5CE4614
:10527000474680B5A3B004000D00FCF701FF0023F2
:10528000294A12184B41802109068B4202D3012280
:10529000264B5242264F380006F056FC00230600EB
:1052A000019322002B00234801A9FFF737FD019B42
:1052B0008046002B14D1204B1C68002C06D063685C
:1052C000002B0BD098472469002CF8D1002E25D153
:1052D000404623B0C0BCB946B046F0BD2469ECE7F7
:1052E000154B1D689946002D1CD0144C02E02D6909
:1052F000002D0FD02B68002BF9D02368002B01D094
:10530000AB42F4D12800019A02A9FFF7D5FD2D691F
:10531000002DEFD14B4601951C68CEE7380006F012
:10532000FBFBD5E70195D1E740420F00FFFFFF7F70
:10533000000C0020754F0010E4100020EC1000203D
:105340000FB400B583B004A901C90191FFF78EFF26
:1053500003B008BC04B01847F0B5002915DD0E4BAA
:105360000D271A680D4B0E4CD3185D426B41451842
:1053700020215B001E5F0478A64207D09369194282
:10538000FCD101301460A842F5D1F0BD93691942F7
:10539000FCD11760F2E7C046881300200080FCBFF4
:1053A0008413002030B504000D1E2EDD00201021D6
:1053B0001F4B013C1A689369194216D10130936959
:1053C0001942FCD1136823548542F4D1194B1B6850
:1053D000002B08D050239363516B183B0B401649A8
:1053E0008C466244136028000EE0124B1B68002BB1
:1053F00008D050239363516B183B0B400E498C46E9
:105400006244136000280FD030BD0A4B1B68002B8C
:105410000AD05022064B1B689A63596B183A0A400F
:1054200005498C4663441A6003204042ECE7C046BD
:1054300088130020AC10002034100000064B10B57B
:105440001B68002B06D00021044A12689163044AAD
:105450001068984710BDC046AC100020881300208B
:10546000B01000200822034B19688B691A42FCD146
:105470007047C0468813002070B51B4E1B4B326826
:105480000500D3185842434114331C00002D04D0AA
:10549000174B1A68002A11D070BD154E3368002BC7
:1054A000FAD0002120009563FCF782F82000114912
:1054B000FCF7C6F8104B35601D60EDE71D600E4B24
:1054C000200019600B49FCF791F801212000FCF73E
:1054D0006FF8502233689A63596B183A0A400749AB
:1054E0008C4663441A60D7E7881300200080FCBF15
:1054F000AC1000203D540010B0100020341000000B
:105500000D4B10B51B780D4B0D4C1B780D4B02212C
:105510001B780D4B00202360FBF79EFF022101202A
:10552000FBF79AFFE12120684902FCF7F7FD012112
:105530000648FFF713FE10BD40CC00103CCC001015
:105540008813002038CC00100040034030020020B7
:1055500010B5114C114B22689A420FD1104B626862
:105560009A420BD10F4BA2689A4207D10120002327
:105570000022002140422360FCF7DCFF074B0021A2
:105580002360074B08486360064BA360FCF782FD6D
:105590000023236010BDC046C0000020DE8116F04D
:1055A000299B72BD7ABE59D3400D030003BDC0468E
:1055B00010B50400FDF702F8A04710BDD02202216B
:1055C0001206136D1942FCD0506540BF7047C046AB
:1055D000D0221206136DDB0704D4012120BF136D06
:1055E0001942FBD0D0231B06986D704770B58024FC
:1055F000124B6402124A1C6013682342FCD00F2035
:10560000FBF7E8FF002105000F20FBF7D1FF002288
:105610000C4B5A70D0220C4B12061C60136DDB072A
:1056200004D4012420BF136D1C42FBD0D0232900D9
:105630000F201B069B6DFBF7BBFF70BD04200140D4
:10564000040001401411002004300140F0B50400B2
:1056500087B00F200E001700FBF7BCFF00210500EC
:105660000F20FBF7A5FF00230022009201930123E6
:105670000293D023049605940026002401210220E1
:1056800003971B06002C14D01A6D1042FCD05C65E9
:1056900040BF1A6D114203D120BF1A6D1142FBD0D9
:1056A0009A6DA2420AD000266C46B200A458E9E7DF
:1056B0009A6D1A6D1142FBD140BFE5E70136062E07
:1056C000F2D129000F20FBF773FF07B0F0BDC046F1
:1056D0000D4B0E4A70B5934210D31C000C4A99181A
:1056E0000B4D0C4A92686051FF20C00023500A4BBA
:1056F0000A4823500A48FFF7A9FF70BD01235B4207
:105700001C000849ECE7C046000804200000042003
:10571000F407000000ED00E0B1550010FC070000A8
:10572000AD550010F307000010B5514300F02AF802
:10573000041E0ED00300083B5A6803239A43043A20
:10574000242A15D80300132A05D800221A605A60AB
:105750009A60200010BD00210833016041601B2ABF
:10576000F3D98160C160242A06D003001033ECE72E
:105770000021FDF7BBFFECE7030001611833416135
:10578000E3E7C046F0B54E464546DE465746E0B52F
:105790000D000B35060083B0162D27D8102900D92F
:1057A000B6E000F093FA102518230220C84FFB182A
:1057B0001A005C68083A944200D112E1032263683F
:1057C0009343E268A168CA6091600121E3185A68B6
:1057D00030000A435A6000F07BFA2000083003B022
:1057E000F0BCBB46B246A946A046F0BD07239D4388
:1057F00000D58DE0A94200D98AE000F067FAFC23C9
:105800005B009D4200D25FE1680A00D184E0042879
:1058100000D914E138239846A80980443930C100E2
:10582000AB4F79184C680839A1420ED003239C462F
:1058300004E0002AC5DAE468A14206D06246636843
:1058400093435A1B0F2AF4DD40463A003C69083264
:10585000944200D1B5E0032163688B439946591BFC
:105860000F2900DD3CE13A617A610029ADDA80223E
:105870009200934200D3BAE05909DA0801238B4021
:10588000D2007968D2190B4391687B60E260A16015
:105890009460CC60012182109140994242D80B4221
:1058A00005D103229043490004300B42FBD003236F
:1058B0009846C3009946B944CC4682466346DC68A4
:1058C000A44507D1C7E0002A00DBEEE0E468A44568
:1058D00000D1C0E04246636893435A1B0F2AF2DDB1
:1058E00001208046611905436560A068E5680837B6
:1058F000C560A86040461043B960F9604860CF6059
:1059000030008F60E25000F0E3F92000083066E7D5
:105910000C230020336062E780213F23402098461B
:1059200089007DE70322BC68636893439946AB42D4
:1059300002D35A1B0F2A46DC23004B44654A0193CD
:10594000654B93469A4612681B68EB18013200D1EA
:1059500047E1624A944663441B0B1B0300933000EB
:10596000009900F09BFB03008046013300D1D2E098
:10597000019B834200D9CCE0534600985A68844684
:1059800062445A60019B1100434500D0DFE043466A
:105990001B0500D0DBE0BB680121984603004B44A7
:1059A0000B4341464B605146C96A914201D2514670
:1059B000CA625146096B914201D251460A6344467C
:1059C000ABE07B6866E7012329001A431943651998
:1059D00061603000BD606A6000F07AF92000083034
:1059E000FDE6DC680230A34200D12EE7E6E65A0A63
:1059F000042A00D887E0142A00D90BE111005C3298
:105A00005B31D20008235B429C46BA18944463463B
:105A10009A6803239846944503D1E5E0926894453B
:105A200004D04346516899434945F7D8D3689C460A
:105A30007B686146A260E1608C60D4602AE714282C
:105A400078D9542800D9EDE06E239846280B80447D
:105A50006F30C100E4E608239B46073BDC449B46CD
:105A6000DA4453469B0700D028E7032209E00823C5
:105A70005B429C46E1444B469B6801384B4500D055
:105A80001EE10242F3D17B688B437B60490099425F
:105A900000D947E7002904D144E70422944649008D
:105AA000E2440B42F9D0504603E70121E3185A685B
:105AB00030000A435A60E368A268D3609A6000F03D
:105AC00007F9200008308AE62B00E80808336DE665
:105AD0008006002078060020741000200F100000BF
