:020000041000EA
:1000000000B5324B212058609868022188439860DF
:10001000D860186158612E4B002199600221596106
:100020000121F02299502B49196001219960352056
:1000300000F044F80222904214D00621196600F024
:1000400034F8196E01211966002018661A6600F04E
:100050002CF8196E196E196E052000F02FF8012189
:100060000842F9D1002199601B49196000215960AB
:100070001A491B48016001219960EB211966A021F2
:10008000196600F012F800219960164914480160C1
:100090000121996001BC002800D000471248134993
:1000A000086003C880F30888084703B5996A0420EC
:1000B0000142FBD001200142F8D103BD02B5186610
:1000C0001866FFF7F2FF186E186E02BD00000240BE
:1000D000000000180000070000035F00212200005C
:1000E000F4000018222000A00001001008ED00E03C
:1000F00000000000000000000000000074B24E7A12
:1001000000200420F7010010C3010010C5010010F9
:10011000C1010010C1010010C1010010C101001097
:10012000C1010010C1010010C1010010C701001081
:10013000C1010010C1010010C9010010CB01001065
:10014000CD010010CD010010CD010010CD01001037
:10015000CD010010CD010010CD010010CD01001027
:10016000CD010010CD010010CD010010CD01001017
:10017000CD010010CD010010CD010010CD01001007
:10018000CD010010CD010010CD010010CD010010F7
:10019000CD010010CD010010CD010010CD010010E7
:1001A000CD010010CD010010CD010010CD010010D7
:1001B000CD010010CD010010CD010010CD010010C7
:1001C00000BE00BE00BE00BE00BE00BEEFF3058054
:1001D000103800BEF2EB8871602B0010882B0010E5
:1001E0003802001090A31AE71E481F49086006C88D
:1001F00081F3088810471D480068002801D019487D
:10020000F3E70DA40ECC002902D000F012F8F9E7B4
:100210001749184A002000E001C19142FCD116495B
:100220008847164988471649884700BEFDE701C937
:1002300001C29A42FBD37047882B0010C0000020F7
:10024000C0020020882D00100000042000000420BF
:10025000882D001000100420001004200000000071
:10026000704700000000000008ED00E0000000D032
:10027000C0020020E8060020C92100100D0E001069
:10028000C1210010F8B5C0460448054B10B58342A3
:1002900003D0044B002B00D0984710BDC0020020B3
:1002A000C00200200000000006480749091A8B1010
:1002B000C90FC91810B5491003D0044B002B00D04A
:1002C000984710BDC0020020C002002000000000BE
:1002D00010B5074C2378002B09D1FFF7D5FF054B4C
:1002E000002B02D0044800E000BF0123237010BDA2
:1002F0004006002000000000F0290010054B10B55A
:10030000002B03D00449054800E000BFFFF7CCFFF5
:1003100010BDC0460000000044060020F029001077
:100320000222144B1B681A63134B1968002912D15F
:10033000124A1349116001221A608022114BD20027
:100340001A60114BA0211A68012393408622C90527
:10035000D2008B5070471968012905D0074A0B4914
:10036000116000221A60E8E7044909481A60086031
:10037000E3E7C046D4010020CC060020F4010020B1
:100380001002002004020020BC010020B80600205A
:10039000080200200122144B1B681A63134B1968D2
:1003A000002911D1124913481A6008608022124BAB
:1003B00052011A60114BA0211A6801239340862232
:1003C000C905D2008B5070471A68012A05D0084A27
:1003D0000B49116000221A60E8E7054A09491160DB
:1003E00002221A60E2E7C046D4010020D4060020B1
:1003F000E401002010020020FC010020A4010020E4
:10040000B8060020080200200222144B1B681A6361
:10041000134B1968002912D1124A134911600122A5
:100420001A608022114B12011A60114BA0211A6828
:10043000012393408622C905D2008B50704719686A
:10044000012905D0074A0B49116000221A60E8E72C
:10045000044909481A600860E3E7C046D00100205B
:10046000D0060020EC010020100200200002002035
:10047000B0010020B8060020080200200122144B21
:100480001B681A63134B1968002911D112491348CC
:100490001A6008608022124B92011A60114BA02151
:1004A0001A68012393408622C905D2008B507047F9
:1004B0001A68012A05D0084A0B49116000221A6007
:1004C000E8E7054A0949116002221A60E2E7C046DE
:1004D000D0010020D8060020DC01002010020020FE
:1004E000F801002098010020B80600200802002032
:1004F000F0B5DE4657464E464546E0B57B4E8DB0DC
:100500000500039130687A4902F0DEF879498046A7
:10051000306802F0D9F83368F8249A46764B6402C2
:1005200099461B6807009B460023079380235B02C4
:1005300004930594C02404A91022240308A8069457
:1005400001F016FE4246531C1B03D201134308A9B7
:10055000102204A8099301F00BFE1F228023674C90
:100560002A40DB03134354440793240D644B0634A1
:10057000E4B20493634B21002800069300F06AFC68
:100580002100681C00F066FC2100A81C00F062FC41
:1005900021000124E81C00F05DFC2A00594600946B
:1005A00004AD0423504602F011F92B00424659468F
:1005B000504602F065F93568F823A846524D5B02B3
:1005C0002A68002092468022520204920593C0239A
:1005D0001B03069304AB19000790102208A801F032
:1005E000C7FD7B1DFA011B031343099308AB1900D8
:1005F000102204A801F0BCFD3A00514604AB40466D
:1006000002F03EF94A46200012683368904002002A
:10061000200019680A431A602A681968904002008D
:100620000A431A6002221A63384A039994468022C8
:10063000634492001A60072000F0B4FC01210720F7
:1006400000F09EFC324B334819682D68CB02984667
:10065000474638401127304B04351B68AD00DA029D
:1006600010433843844630684E46A0273668FF055D
:100670000436B6008346BA46B146284F8E01386824
:100680005644D9443060484670600820B0606046E7
:10069000306123489B010240404602432148844682
:1006A0000243A020C0058046604643441F605E6050
:1006B0009C601A611C4B1D4E1B68DA0232400243DB
:1006C00028001B4D9B012D68434458441D60586011
:1006D0009C601A6186238C404246DB00D4500DB0EA
:1006E000F0BCBB46B246A946A046F0BDD4010020EE
:1006F000242A0010102A0010C00600200000E0AFDD
:100700000000E8FD00000E08CC0100202C210000B4
:1007100098060020FD0700FFC0010020F401002022
:10072000FD871FFF09801F00BC010020FDFF1FFF88
:10073000F0010020F0B5DE4657464E464546E0B58E
:100740007B4E8DB00500039130687A4901F0BCFF03
:1007500079498046306801F0B7FF3368F8249A463B
:10076000764B640299461B6807009B46002307935B
:1007700080235B0204930594C02404A9102224035F
:1007800008A8069401F0F4FC4246531C1B03D20156
:10079000134308A9102204A8099301F0E9FC1F22C1
:1007A0008023674C2A40DB03134354440793240DF2
:1007B000644B0634E4B20493634B21002800069393
:1007C00000F048FB2100681C00F044FB2100A81C3D
:1007D00000F040FB21000124E81C00F03BFB2A0054
:1007E0005946009404AD0423504601F0EFFF2B005E
:1007F00042465946504602F043F83568F823A84669
:10080000524D5B022A6800209246802252020492D6
:100810000593C0231B03069304AB19000790102215
:1008200008A801F0A5FC7B1DFA011B0313430993E3
:1008300008AB1900102204A801F09AFC3A005146B6
:1008400004AB404602F01CF84A46200012683368A8
:1008500090400200200019680A431A602A6819684B
:10086000904002000A431A60394A1C639446802271
:10087000634452001A600399082000F093FB0121A1
:10088000082000F07DFB334B334819682D68CB02FC
:1008900098464746314B38401B68314FDA021043C7
:1008A000074330684E46BA46A0273668FF0504362F
:1008B000B6008346B946B4462A4F8E0138684E4486
:1008C000DC443060604670600820B06050463061A3
:1008D00025489B0102404046024324480435844693
:1008E0000243A020C0058046604643441F605E600E
:1008F0009C601A611E4B1F4E1B68AD00DA0232402D
:10090000024328001C4D9B012D68434458441D6040
:1009100058609C601A6186238C404246DB00D450AC
:100920000DB0F0BCBB46B246A946A046F0BDC046DD
:10093000D4010020042A0010F0290010C801002072
:100940000000E0AF0000E8FD00000E08C401002038
:1009500038210000AC010020FD0700FFA8010020A5
:1009600011000100E4010020FD871FFF09801F0026
:10097000A4010020FDFF1FFFE0010020F0B5DE46CE
:1009800057464E464546E0B57B4E8DB00500039177
:1009900030687A4901F098FE79498046306801F064
:1009A00093FE3368F8249A46764B640299461B6896
:1009B00007009B460023079380235B020493059462
:1009C000C02404A91022240308A8069401F0D0FB37
:1009D0004246531C1B03D201134308A9102204A84A
:1009E000099301F0C5FB1F228023674C2A40DB03DB
:1009F000134354440793240D644B0634E4B2049328
:100A0000634B21002800069300F024FA2100681CA3
:100A100000F020FA2100A81C00F01CFA210001249B
:100A2000E81C00F017FA2A005946009404AD04238C
:100A3000504601F0CBFE2B0042465946504601F08D
:100A40001FFF3568F823A846524D5B022A68002034
:100A500092468022520204920593C0231B03069300
:100A600004AB19000790102208A801F081FB7B1D40
:100A7000FA011B031343099308AB1900102204A8C1
:100A800001F076FB3A00514604AB404601F0F8FE17
:100A90004A4620001268336890400200200019681E
:100AA0000A431A602A681968904002000A431A60D3
:100AB00002221A63384A03999446802263449200C2
:100AC0001A60092000F06EFA0121092000F058FA9E
:100AD000324B334819682D68CB0298464746314B54
:100AE00038401B68304FDA021043074330684E46E7
:100AF000BA46A0273668FF050436B6008346B946D5
:100B0000B4462A4F8E0138684E44DC44306060465B
:100B100070600820B0605046306125489B0102405B
:100B2000404602432348043584460243A020C005C2
:100B30008046604643441F605E609C601A611E4BA5
:100B40001E4E1B68AD00DA023240024328001C4DE5
:100B50009B012D68434458441D6058609C601A6195
:100B600086238C404246DB00D4500DB0F0BCBB461F
:100B7000B246A946A046F0BDD0010020242A0010AC
:100B8000102A0010C00600200000E0AF0000E8FDC1
:100B900000000E08CC0100202C210000B80100202C
:100BA000FD0700FFB401002011000400EC0100204B
:100BB000FD871FFF09801F00B0010020FDFF1FFF00
:100BC000E8010020F0B5DE4657464E464546E0B502
:100BD0007B4E8DB00500039130687A4901F074FDB9
:100BE00079498046306801F06FFD3368F8249A46F1
:100BF000764B640299461B6807009B4600230793C7
:100C000080235B0204930594C02404A910222403CA
:100C100008A8069401F0ACFA4246531C1B03D2010B
:100C2000134308A9102204A8099301F0A1FA1F2276
:100C30008023674C2A40DB03134354440793240D5D
:100C4000644B0634E4B20493634B210028000693FE
:100C500000F000F92100681C00F0FCF82100A81C3D
:100C600000F0F8F821000124E81C00F0F3F82A0055
:100C70005946009404AD0423504601F0A7FD2B0013
:100C800042465946504601F0FBFD3568F823A84618
:100C9000524D5B022A680020924680225202049242
:100CA0000593C0231B03069304AB19000790102281
:100CB00008A801F05DFA7B1DFA011B031343099399
:100CC00008AB1900102204A801F052FA3A0051466C
:100CD00004AB404601F0D4FD4A4620001268336858
:100CE00090400200200019680A431A602A681968B7
:100CF000904002000A431A60394A1C6394468022DD
:100D0000634452001A6003990A2000F04BF9012154
:100D10000A2000F035F9334B334819682D68CB02AF
:100D200098464746314B38401B68314FDA02104332
:100D3000074330684E46BA46A0273668FF0504369A
:100D4000B6008346B946B4462A4F8E0138684E44F1
:100D5000DC443060604670600820B060504630610E
:100D600025489B01024040460243244804358446FE
:100D70000243A020C0058046604643441F605E6079
:100D80009C601A611E4B1F4E1B68AD00DA02324098
:100D9000024328001C4D9B012D68434458441D60AC
:100DA00058609C601A6186238C404246DB00D45018
:100DB0000DB0F0BCBB46B246A946A046F0BDC04649
:100DC000D0010020042A0010F0290010C8010020E2
:100DD0000000E0AF0000E8FD00000E08C4010020A4
:100DE00038210000A0010020FD0700FF9C01002029
:100DF00011000500DC010020FD871FFF09801F0096
:100E000098010020FDFF1FFFD801002010B501F060
:100E1000EFFA02200B49FFF76BFB06200A49FFF7A8
:100E2000ADFD0A200949FFF785FC0E200849FFF7B0
:100E3000C9FEFFF7E9FAFFF773FAFFF7ABFAFFF71E
:100E40001DFBFEE7210300100904001095030010AC
:100E50007D040010094A83009A1810B514684022D6
:100E6000544080322240064CC000A44663441A60BD
:100E7000044B9C466044416010BDC04604C0014024
:100E800004D00140004001400FB400B5084883B0D1
:100E900001F000FB049B002B07D005A9180001916D
:100EA00001F074F9034801F0F5FA012001F086F928
:100EB000302A0010402A0010EFF3108072B6034A67
:100EC0001368002BFCD0BFF35F8F70472C0100D05C
:100ED000BFF35F8F0022024B1A6080F310887047C7
:100EE0002C0100D070B5EFF3108C72B60D4D2B684D
:100EF000002BFCD0BFF35F8F0724CB08C618C05C63
:100F000001230C40A3401C000440034207D11843B6
:100F10003070BFF35F8F2C608CF3108870BD1000B1
:100F2000FFF7B2FF2C0100D0044A1078431CDBB25B
:100F3000172B00D9102313707047C04618020020E9
:100F40000021044B044ABFF35F8F02C39342FAD1DE
:100F50007047C046000100D0800100D0054B064A12
:100F60001360064A136053609360D360136153614A
:100F7000936170478080808000E400E004E400E03A
:100F80001F2318401E3B8340002905D0C021044A7E
:100F90004900535013607047802201498B50FAE793
:100FA00000E100E070B50D00EFF3108672B60F4A55
:100FB0001368002BFCD0BFF35F8F0D4B10309B6884
:100FC00084001B590B4A934203D09D4201D000F08C
:100FD00013FF074B9B681D51BFF35F8FBFF35F8FFC
:100FE0000022024B1A6086F3108870BD240100D0E5
:100FF00000ED00E0CD010010F0B5DE4657464E464C
:101000004546E0B50C0083B0EFF3108872B6634A32
:101010001368002BFCD0BFF35F8F614B61499A6866
:10102000030010339F00D55900938D4243D0A54251
:1010300054D05D4EAA1B2F2A3DD85C4B9C461B68A2
:101040009A4601231A0099468240534613401F22B4
:1010500001934B46024093409A4680226346504695
:101060009850BFF35F8FEFF305839B46002B37D07B
:10107000009B5B4501D000F0BFFE2A004B469A431F
:101080009068844208D177E04B005B189B00F3180E
:101090009868844236D01A00062151560029F3DAA6
:1010A000844255D0019B002B27D0C02251463F4B94
:1010B0005200995019603A4B9B68DD51BFF35F8F26
:1010C000BFF35F8F0022354B1A6088F3108803B09E
:1010D000F0BCBB46B246A946A046F0BD0D00EAE70B
:1010E0002A004B469A4390688442D5D10620105678
:1010F000130000280ADA0D0032E0802351462B4A03
:10110000D150D8E706201856002822DB42001118DB
:10111000890074188946A1689960E179D97106211E
:1011200061569971002925DBA488F11A64052415FC
:101130004C440919E0240905490D240221439980F2
:1011400013181B4A9B001178F31899711070A9E7C6
:1011500013005946002914D1FF319171154991802E
:1011600013490A789A71144A9B1B5B415A43120D2A
:101170000A7097E71149E2E706201056130000288D
:10118000C4DA0F4A0F49D21A083A5002400D0143FF
:1011900099800D4952080A43DA8083E7240100D080
:1011A00000ED00E0CD0100101C02002000E100E095
:1011B000E406002001BDFFFFAAAA000001BD000057
:1011C0005602002000F0FFFF00F8FFFF70B5012479
:1011D0000443EFF30581EFF3108C72B6214A1368D4
:1011E000002BFCD0BFF35F8F1F4B05001F4AED1A89
:1011F0006D416A43120D1E4D8900AE6852B2765899
:10120000A6421CD00621595691421CD01221595693
:10121000914222D01E215956914220D02A2159565E
:101220000324914210D0134B19781A708171BFF3C7
:101230005F8F00220B4B1A608CF3108870BDAB6877
:101240000D4C5C50EFE700246100091989005B1820
:10125000FF21997109499980E5E70124F4E7022407
:10126000F2E7C046240100D01C020020AAAA000018
:1012700000ED00E0E4060020CD01001001BDFFFFFD
:10128000024B9C4661448900016070474000003475
:10129000F8B5134D134E2C00FF27B5421ED223681C
:1012A000002B0FD0FFF740FE01002800FFF7E8FFFA
:1012B000A780BFF35F8F0834B4420FD223682500A4
:1012C000002BEFD1FFF730FE01002800FFF7D8FF19
:1012D0002771BFF35F8F0834B442EFD3F8BDC04627
:1012E000B8020020C00200200A4B1968EFF31080FA
:1012F00072B60A68002AFCD0BFF35F8F1B68BFF389
:101300005F8F00221A6080F3108840BF0020002108
:101310007047C046C8060020F0B5DE4657464E4628
:101320004546E0B585B0EFF3058203231340B64A86
:101330009900575801229A4088469346B34B1A6049
:10134000B34B02935B46B34843630823FE5E002E13
:1013500035DABB881BB2002B00DBA8E0BB79002B81
:1013600000D0E9E00823F85E00281EDB43007A691C
:101370001B18DB00D3189D68DC686B1C00D108E1EA
:10138000A44801004144826A0B69AE1A9B1A9E422E
:1013900013D35A46036A1A420FD09E4800F0C4FA8B
:1013A0008C4202DCCED18542CCD940BF05B0F0BC26
:1013B000BB46B246A946A046F0BD0D61EDE77A698D
:1013C000730091469B19DB0099444B469C68DD688D
:1013D00000F0AAFA8D42BCDC00D1FEE0002D00DA5C
:1013E000E3E04B46029A1B69934200D1D5E04A469E
:1013F0005288494694460822B85E6246000449690C
:1014000010439847009001910099019A0B00100039
:10141000134300D1C9E013000A00002800DBE0E01C
:1014200020002900801A99414B469860D96000221B
:101430009A5E002A00DA8CE753009C187D69E4006C
:101440002C190093A368E4689A468C4200DD80E77B
:1014500002D1834200D97CE708239C46BC443A81F0
:1014600003976746009BB4463E000EE08C4200D1D5
:10147000C5E01E000023F25E002A0BDB53009C181F
:10148000E4002C19A768E468BA469B18DB00EB1847
:101490008C42EBDD330066469C464B461A80634621
:1014A000039F1E80BB881BB2002B00DA56E73A6907
:1014B000EFF3108172B61368002BFCD0BFF35F8F7F
:1014C0000123BE885B42BB8036B23B69BFF35F8FAE
:1014D00000221A6081F31088002E00DA3EE73B00FC
:1014E00008333A0099467D6973009B19DB00EB18BD
:1014F0009968DC688C460820115E4846002910DB9C
:10150000009306E0A34240D00023F95E3800002992
:1015100006DB4F007F18FF00EF19FB68A342F1DDE7
:10152000009B068000201E5E1980002EDCDA17006A
:10153000BB79002B00D115E70023BB713D000823C8
:10154000F95E08354B1C00D12FE77C690800A446E2
:1015500003E035004B1C00D106E74B005B180A0086
:101560006146DB00CE18C95E73881BB2002BF0DA2F
:1015700001235B42DC17B360F4608242EAD0298029
:101580003B89100033803A81E4E7BB686345BBD9EF
:10159000C6E7631C00D0F3E6FFE64B465B699A465C
:1015A0001B6950469847002823D14B461B883A694F
:1015B0003B81EFF3108372B611680029FCD0BFF3B2
:1015C0005F8F49467A880A803A697E80BFF35F8FD1
:1015D0000021116083F31088BBE6844200D8FDE649
:1015E000B7E60C4800F0A0F9009B019CC0186141CF
:1015F0001AE753461A685B680092019304E7824534
:1016000000D836E746E7C046A80600203C700540F3
:10161000191300100040054070B52E4C2569002DAF
:1016200004D00A212C48FFF72BFE70BD2B4E03215E
:10163000300000F06FF9E660FFF776FC284B0322DC
:101640009C46D02322701B061B6801216370254B2A
:101650006044A3600F2380002061022063806369DF
:101660004942A18019800231198647311D835852A1
:1016700018315A5275325C399952183201319952E7
:101680001832013199521832013199520835183205
:101690009D52023118329952183201319952183242
:1016A000013199521832013199521832013199524F
:1016B0001832013199520C4B0C49DC600130356213
:1016C000FFF770FC01210320FFF75AFC084B1D6057
:1016D000A7E7C04664020020C8060020004005407D
:1016E00040000034FFFF1000A8060020191300106E
:1016F0003860054070B501000469EFF3108C72B6D4
:1017000020680028FCD0BFF35F8F02200D5E4C697B
:1017100068004019C0002418002D37DB208848805D
:101720000869BFF35F8F002606608CF31088E360C2
:1017300063880498013320615B0405985B0CA26008
:1017400060611A1C002B1FD093B2280462801843DA
:101750000A69EFF3108C72B61368002BFCD0BFF34C
:101760005F8F8B8823808D800B69BFF35F8F002292
:101770001A608CF310880B7801329A40CB680849C4
:101780008C4663441A6070BD0122DDE70B69BFF32C
:101790005F8F00221A608CF3108801204042F2E72C
:1017A0003C20000010B543890A1493421ADD53000F
:1017B0009B184269DB00D3180469EFF3108C72B6F2
:1017C0002268002AFCD0BFF35F8F5A88090494B2C4
:1017D000090C8A4208D00369BFF35F8F00221A60A8
:1017E0008CF31088002010BD8022120214435C800C
:1017F000012302698371BFF35F8F002111608CF3B5
:101800001088044902788C469340C26801206244E3
:101810001360E8E73C200000F0B5CE46474680B5AF
:1018200004000D0083B0EFF30587002F0DD0364A7A
:101830000020536A8B4203D3926A0130A24250D3F4
:1018400003B0C0BCB946B046F0BD304B9846DB682B
:101850009946434648461E7800F066F80B00494614
:1018600002000436B600715820008E1A2900801A32
:1018700099418F4211DC0ED020BF234A0020536AC9
:10188000AB42DDD3926A0130A242D9D2EB1A5A1E82
:101890009341D8B2D4E78642EED900F04DF8220049
:1018A0002B00121A8B41002B20DB00230193184BD5
:1018B0002200009340462B00FFF71CFF011E15DDA0
:1018C000114B2E005A6A95421CD89B6AA34217D32B
:1018D0004046FFF767FF0C4A0020536A9E42AFD88C
:1018E000D0E75B1A5A1E9341D8B2A9E7064A0020F6
:1018F000536AAB42A4D3926A0120A242A0D2C5E7A8
:101900009542E5D120BFE3E7004005406402002096
:10191000E912001010B5024A0248FFF7E3FA10BDC1
:10192000442A00106C0600200300416A0A00986AED
:10193000596A8A42FAD17047034B596A0A00986A79
:10194000596A9142FAD170470040054070B50400D1
:101950000D00174A536A1900966A536A8B42FAD1EE
:101960003000190024184D41AB4216D813D0104B4B
:101970002A005B6A9D4203D90D494B6A9342FCD30E
:10198000934207D10A4A02E0516A994202D1916A10
:10199000A142F9D370BDA642E9D9054B5B6A1C0090
:1019A0005A1CEFD0012201246442E5175242E3E7BA
:1019B00000400540F8B5040006200D0000F076F95F
:1019C000002842D0364B3749E21853425A4180230F
:1019D000DB039C469205344B62441A60334B1A6019
:1019E00010000B689843FBD12D4B314AE318594244
:1019F0004B4180215B0049000620995200F056F9C6
:101A00002900C00000F0D6FA0130C3091ED14027DA
:101A100001226262A362266BF30722D4E36A254B9C
:101A20000620E51800232B60266300F03FF93900FB
:101A3000800000F0BFFA7023E26A5A400E33134070
:101A40002B601D4B23630323A364F8BD1B4A934201
:101A50001ED900231A4A1B4F6262A362266BF3074A
:101A6000DCD5194B144AE3181A60656AA36A06208C
:101A7000AD01ED1800F01AF9144900F09BFAAD021F
:101A80000100280000F096FA0021FFF75FFFC5E78C
:101A90004006800E9F011A003F180300B9E7C046B8
:101AA0000080FCBF08C0004000E0004000F00040A3
:101AB000DC0600202C10000001030000FEFF0000E7
:101AC000FFFF0000C0FF3F00303000004E0E00005E
:101AD000F8B5DE464E4657464546E0B58B4605000E
:101AE0000A991800160000F065FA0A9B6C001F02A4
:101AF000324B64199C46A4006444636881469F424B
:101B000000D967602B1FDBB29846012B30D9C02368
:101B100080229B01E31812011A60294BAD0059592C
:101B20009A4600291BD17301E026226853401E40CB
:101B3000802342465B01E3181E60012A30D98023CE
:101B400080229B01E31812011A6053464A466760DF
:101B50005A51F0BCBB46B246A946A046F8BD5869EA
:101B600000F028FA013043001B18033BFDD2DAE7EE
:101B70005B46012BCBD1C02303229B01E3181A60E3
:101B8000023AA3681A42FCD07301E0262268AD0035
:101B900053401E4080230A4A5B019246E3181E60B0
:101BA0005A462168514003220A401A6001225B46CE
:101BB0009A40A3681A42FCD0C1E7C04600800040AA
:101BC00070060020F0B546464F46D646C0B51F0009
:101BD000344B44009C462418A4006444636888463F
:101BE0001600FF2B02D880235B006360031FDBB26B
:101BF0009A46012B30D9C02380229B01E3181201A1
:101C00001A60294B85005959994600291BD1730147
:101C1000E026226853401E40802352465B01E318B1
:101C20001E60012A30D9802380229B01E318120113
:101C30001A6080235B0063604B465F51E0BCBA468C
:101C4000B146A846F0BD586900F0B4F90130430030
:101C50001B18033BFDD2DAE74346012BCBD1C0234F
:101C600003229B01E3181A60023AA3681A42FCD0CF
:101C70007301E0262268850053401E4080230A4AF3
:101C80005B019146E3181E604246216851400322E1
:101C90000A401A60012342469340A2681342FCD0D6
:101CA000C1E7C0460080004070060020014B800064
:101CB000C058704770060020F8B5040020481D0089
:101CC00017000E0000F076F90100380000F072F9FC
:101CD000069B29041B0319432368002B1EDB194BA9
:101CE000194DE21853425A4180235B019C4612036E
:101CF000164B62441A60164B1A6017002B689F43FC
:101D0000FBD1144B2660E2182123A06013602368E6
:101D1000002BFCDA0823E1601360F8BD3F23226842
:101D20001340B342DBD1A3681B051B0D8342D6D100
:101D3000EE22E368D20213408B42D0D1EDE7C046D9
:101D4000001BB7000040FDBF08C0004000E000409D
:101D500000F00040043000008023024A9B000B4347
:101D6000D362704700800540142310B50100188825
:101D700004331B88984710BD162310B5010018883E
:101D800002331B88984710BDF8B54746CE4680B54C
:101D90000F1E19D014239946043304000025012690
:101DA00098464B461888434621681B88984701C4CB
:101DB000431E9841013540420640AF42F1D1300008
:101DC000C0BCB946B046F8BD0126F8E7AA23064ACA
:101DD0001B0113608D235B00D3600449044B196021
:101DE0005368002BFCDA70470040024000B0FA0054
:101DF000006002407047C04610B50148FFF744F844
:101E0000682A001070B5074D074EB54209D200246C
:101E1000013E761BB60808CD984723000134B34233
:101E2000F9D170BDB0290010EC290010054B064A0D
:101E300006491A60064A074B1A6010000B6898435F
:101E4000FBD1704700E00040BFCDFBFE08C0004062
:101E5000FE7F3C0000F00040044BDB6C002B03D104
:101E60008022034BD2021A607047C0460000115016
:101E70004C201150044A054B1A60054A1368DB01D7
:101E80008033FBD17047C046FFFFFF0100F00040E8
:101E900008C000404022034B9A675A671A67DA6607
:101EA0007047C04600F0014010B5FFF749F810BD7B
:101EB00070B5044D044CA968C022200000F058F908
:101EC000AC6070BD00ED00E000000020002310B504
:101ED000294C82B0A367FFF779FF0122274B1A60D4
:101EE000636C012BFCD10322254B1A60224A936BB1
:101EF000012BFCD1013300930121224A22480433F3
:101F0000FFF7DAFE052301210093204A2048FFF75E
:101F1000D3FE0022022104201E4BFFF753FE0022B5
:101F2000012105201C4BFFF74DFE00220021072058
:101F30001A4BFFF747FE002200210820174BFFF73E
:101F400041FE8023DB000093002200210920134B77
:101F5000FFF7BEFD0022104B00210620FFF732FEE6
:101F60000420FFF7A3FE0E4900F024F80100002032
:101F7000FFF7F2FE02B010BD008000403CB0004010
:101F800030B00040002F685900800240008C864726
:101F900000C00240001BB70040597307006CDC0210
:101FA00040420F0001480421014B184780020020E5
:101FB000891D0010114A936F9B0813D21066516659
:101FC000002905D0FFE7FFE7FFE7516F106F70476B
:101FD00004B5002801D00020C04300F0D9FC002146
:101FE00004BDC046F0B5146E556E576F166FFFF7FF
:101FF000E5FF1466556657671667F0BD000000D010
:10200000132370B51D78012D19D014DD1F48FFF77B
:10201000B3FE06001E48FFF7AFFE1E4C80223100C3
:10202000200000F0A5F8022D2DD01B48FFF79CFEE4
:102030001A4B186070BD1A4B164CA364F5E7184B89
:10204000144C23606360A360E36023616361A36158
:10205000E36123626362A362E36223636363A36356
:10206000E36323646364A364E36423656365A36536
:10207000E36523666366A366E36623676367A36716
:10208000E367A364D1E7064BA364CEE753440000A3
:1020900053460000400400204C330000C4060020DA
:1020A000A520001007B5604601880A0A0230DF2A21
:1020B000FAD1C9B2820804D30288408800041043D0
:1020C00000E00068014A5050039007BD4004002022
:1020D000132310B512481C78FFF74EFE0100012CA7
:1020E0000AD003DD80220F4800F042F80E48FFF7C7
:1020F0003BFE0E4B186010BD0A4C5422200000F02D
:1021000037F80B4B6365A365E36523666366A366D7
:10211000E36623676367A367E3672362E361E5E739
:1021200053460000400500204C330000C406002048
:102130003521001007B5604601880A0A0230DF2AFF
:10214000FAD1C9B2820804D302884088000410433F
:1021500000E00068014A5050039007BD4005002090
:1021600001480421014B184790020020891D0010EE
:10217000014B5B68184700009002002010B5002852
:1021800000D110BD00F03AF9FBE7C04610B5094A8E
:102190000300146884B0002C08D001220091064886
:1021A000524203A9A047012004B010BD00F072F90B
:1021B0000020F9E7A40600207D21001000BEFDE705
:1021C00010B5FFF7FBFFC04670B5FFF71BFE074DCC
:1021D000074EB54209D20024013E761BB60808CD51
:1021E000984723000134B342F9D170BDEC290010A7
:1021F000F0290010030010B5080011001B68984773
:1022000010BDC046F0B546464F46D646C0B5437DE4
:1022100080460E001700002B4BD0002A32DD274BE2
:1022200001259A464B1E00240020994607E0335DA5
:102230000A2B2CD02B0001340135BB4213DA002CC1
:10224000F5D133780A2BF5D143461B7D002BF1D114
:102250004346504602211B68984728002B00013452
:102260000135BB42EBDB874204DD4346391A1B686C
:1022700030189847F619013E33780D3B5A425341C6
:1022800042461375E0BCBA46B146A846F0BD4B467F
:102290001B5D0D2BCED0A042DADA4346211A1B6813
:1022A000301898474346504602211B68984728003B
:1022B000D4E70368110030009847E3E7142B0010BF
:1022C000F0B5DE4657464E464546E0B585B01700A8
:1022D0001C0006000D00FFF72FFB0023314A1218E7
:1022E0004B41802109068B4202D301222E4B5242E0
:1022F0002E4908008A4600F053FB01906B1C03D165
:10230000300000F00BFB0500002C26D0284B98462F
:10231000284B1C68002C15D0002F21D1264F02E03D
:102320002469002C0ED02368002BF9D03B68002BC9
:1023300001D0A342F4D120002A003100C047246913
:10234000002CF0D1019B002B28D1280005B0F0BC57
:10235000BB46B246A946A046F0BD184B9846D7E703
:10236000154B994602ABDF1D0A239B4602E0246908
:10237000002CE7D02368002BF9D04B461B68002BBC
:1023800001D0A342F3D12A0031002000C0475B46B0
:102390000122390020003B70C047E8E7504600F0BA
:1023A000EFFAD2E740420F00FFFFFF7FB8020020A4
:1023B000052200109C060020A0060020F521001038
:1023C0000A4A1368002B05D10CE01A001B69103271
:1023D000002B07D09842F8D1002902D1036913607D
:1023E000016170470029FCD01060FAE79C060020CC
:1023F00010B500F041F9012010BDC046F0B5CE4641
:10240000474680B583B06B460600DD1D2870FFF798
:1024100093FA00231A4A12184B41802109068B4275
:1024200002D30122174B524217490800884600F098
:10243000B7FA164B81461C68002C14D0144F02E0EA
:102440002469002C0FD02368002BF9D03B68002BA7
:1024500001D0A342F4D1200001222900FFF7D2FECF
:102460002469002CEFD14B46002B05D1300003B07E
:10247000C0BCB946B046F0BD404600F081FAF5E771
:1024800040420F00FFFFFF7FB80200209C060020A3
:10249000A006002070B5040000F040FA01230100FE
:1024A000050001222000FFF70BFF084B1C68002CE1
:1024B00006D06368002B05D098472469002CF8D11A
:1024C000280070BD2469002CF3D1F9E79C06002098
:1024D000F0B5002915DD0E4B0D271A680D4B0E4C7B
:1024E000D3185D426B41451820215B001E5F0478C4
:1024F000A64207D093691942FCD101301460A8426A
:10250000F5D1F0BD93691942FCD11760F2E7C046DE
:10251000E00600200080FCBFDC06002030B504008F
:102520000D1E2EDD002010211F4B013C1A689369FF
:10253000194216D1013093691942FCD11368235412
:102540008542F4D1194B1B68002B08D050239363AC
:10255000516B183B0B4016498C46624413602800AF
:102560000EE0124B1B68002B08D050239363516B75
:10257000183B0B400E498C466244136000280FD074
:1025800030BD0A4B1B68002B0AD05022064B1B683B
:102590009A63596B183A0A4005498C4663441A609D
:1025A00003204042ECE7C046E0060020640600201D
:1025B00034100000064B10B51B68002B06D000211C
:1025C000044A12689163044A1068984710BDC046D7
:1025D00064060020E0060020680600200822034B65
:1025E00019688B691A42FCD17047C046E00600208A
:1025F00070B51B4E1B4B32680500D318584243413F
:1026000014331C00002D04D0174B1A68002A11D077
:1026100070BD154E3368002BFAD000212000956361
:10262000FEF7AEFC20001149FEF7E6FC104B3560CA
:102630001D60EDE71D600E4B200019600B49FEF791
:10264000B1FC01212000FEF79BFC502233689A6305
:10265000596B183A0A4007498C4663441A60D7E719
:10266000E00600200080FCBF64060020B5250010B5
:1026700068060020341000000D4B10B51B780D4B80
:102680000D4C1B780D4B02211B780D4B0020236055
:10269000FEF7E0FB02210120FEF7DCFBE1212068D0
:1026A0004902FFF787F901210648FFF789FE10BDAF
:1026B000842B0010802B0010E00600207C2B0010E3
:1026C00000400340A0020020F0B55746DE464E46CB
:1026D00045468846E0B583B006000524FEF7ECFBCE
:1026E000434684461C571879364B374AF3181B0D5E
:1026F0009B009246D75801228240013A002C42DBCF
:102700002021091A8C423BDC1100A14025000F4218
:1027100036D14146096889464146897900294DD11B
:10272000AA4093463A423FD180218901002288463F
:10273000002816D06146A44634004E469946030050
:1027400001915100705A404500D24019A918123128
:102750008900013208519A42F3D3019B64469C469A
:102760004B465A4617435246D7506046FEF7B0FBD9
:10277000200003B0F0BCBB46B246A946A046F0BD5F
:1027800001246442F1E72024241A0DD41100A14051
:1027900025008B46394205D109E01100A1402500F2
:1027A0000F42B6D0013CF8D209246442DDE742462C
:1027B0001268914642469279002AB5D014246442A8
:1027C000D3E7C0460000E0AF5C060020F0B54E46FF
:1027D0004546DE465746E0B583B089460CA9844697
:1027E0000D781F2A45D84946490088464944C90002
:1027F000461837003400DC373868CC34834620680C
:10280000310001901C4880248246A40251440C608F
:1028100069424D411E216D428D4318498A465544F7
:10282000052B0CD9A0201F214005D83654010443A4
:102830000532053B3C600A403560052BF6D8520155
:102840009B06134342464A44D20062441000DC32E5
:1028500013600300D8331D605B461360019BCC30CE
:102860000360002003B0F0BCBB46B246A946A046B8
:10287000F0BD05204042F5E7CC3000009FE00000AD
:10288000F0B501258D400468AC430460002B2ED0C8
:102890004D006C18E400041926001F68C836376024
:1028A0009F68043677605F68DB68DC3437602360DC
:1028B0006B18184DDB00AC468025C41864442D0607
:1028C00025602560144C0D1D8C4084600124260079
:1028D000AE40802508318C401F21AD014519C0183C
:1028E0000A40D8302E602C6002600020F0BD4D0000
:1028F0006C18E400041926008027C8367F02376070
:10290000C0273F03B760F82704367F02DC34376006
:102910002360CDE7D01000000101010110B583074D
:102920000AD00300032102E001330B4205D01A78DC
:10293000002AF9D1181A10BD030019680C4A0D4C71
:102940008A188A4322420FD15968094A04338A18E7
:102950008A43224208D15968054A04338A188A43B7
:102960002242F1D000E001331A78002AFBD1E1E7DE
:10297000FFFEFEFE80808080F8B5C04600000000AB
:1029800001B40248844601BC604700BF5D010020DD
:1029900001B40248844601BC604700BF85010020A5
:1029A00001B40248844601BC604700BFC10000205A
:1029B0002D1E0010591E0010A51F001061210010CF
:1029C00001200010D1200010CD1E0010751E001037
:1029D000951E0010A91E001091120010B11E0010CB
:1029E00019160010F51D00105D0F0010FD020010FB
:1029F000F829001006FF0000A08027A0250022C0B3
:102A0000420020C00C2A001002FF0000C220046017
:102A1000182A001006FF0000A08027A0250023C070
:102A2000420021C02C2A001002FF0000C3200460D5
:102A30000A2A2A2A2050414E4943202A2A2A0A00DB
:102A40000A000000486172647761726520616C6100
:102A5000726D20256420616C726561647920636CFD
:102A600061696D6564000000486172642061737380
:102A70006572740052656C6561736500626F6F7496
:102A8000325F77323571303830000000322E312E0F
:102A9000310000007069636F0000000053746570BE
:102AA0007065725F4D6F746F72735F706F7369746E
:102AB000696F6E004D617220313620323032350040
:102AC00006005250D3F07542742A0010060052508E
:102AD000E182887F7C2A001006005250ABB360531D
:102AE0008C2A001006005250BBFF3CB6942A0010FE
:102AF00006005250861C03029C2A00100600525009
:102B00005422A29DB42A001005005250DE65F468DC
:102B1000882D00100D0A0000554152542073746432
:102B2000696E000055415254207374646F757400CF
:102B30005541525420737464696E202F207374645D
:102B40006F7574000600525053B4F4A1302B00107E
:102B5000080052501200000008005250921000006D
:102B6000C02A0010CC2A0010D82A0010E42A001035
:102B7000F02A0010FC2A0010082B0010582B00101F
:082B8000502B0010442B001043
:102B8800F0B5C646150000B504001E000268EFF354
:102B9800108172B61368002BFCD0BFF35F8F04233B
:102BA800E356002B2DDB2268BFF35F8F00201060F7
:102BB80081F31088D0221206127852B290469A42B7
:102BC80003D1002080BCB846F0BD00270BE0236885
:102BD800BFF35F8F1F6081F310882800310000F079
:102BE80033F80028EDD12268EFF3108172B613682C
:102BF800002BFCD0BFF35F8F23797F2BE7D94346A7
:102C080002E0D0231B061B6823712368BFF35F8F84
:102C180000221A6081F310880120D3E70268EFF3DD
:102C2800108172B61368002BFCD0BFF35F8FFF23AF
:102C380003710368BFF35F8F00221A6081F3108865
:102C480040BF70477047C04601B40248844601BC83
:102C5800604700BF191800100B0000000A000000B0
:102C6800090000000800000007000000060000003E
:102C7800050000000400000003000000020000003E
:102C88000100000003000000020000000100000035
:102C98000000305000002050F801002010020020F1
:102CA800FC01002010020020000200201002002079
:102CB80004020020100200200004000000040000AC
:102CC800000400000004000001030206040C0809C7
:102CD80009080C04060203011000000000000000AF
:102CE80000000100000000000000000000000200D9
:102CF80000000000000000000000030000000000C9
:102D0800000000000000FF000000000001B5486856
:102D180001318E460047704609380149884701BD90
:102D2800CD110010000000000000000000000000AD
:102D38000000000000000000C002002000000000A9
:102D4800503300004C33000054330000523300006D
:102D58004D5300004D43000053340000433400003D
:102D6800D1240010DD2500101D250010F1250010CC
:102D7800000000000001000000000000000000004A
:04000005100001E9FD
:00000001FF
