:020000041000EA
:1000000000B5324B212058609868022188439860DF
:10001000D860186158612E4B002199600221596106
:100020000121F02299502B49196001219960352056
:1000300000F044F80222904214D00621196600F024
:1000400034F8196E01211966002018661A6600F04E
:100050002CF8196E196E196E052000F02FF8012189
:100060000842F9D1002199601B49196000215960AB
:100070001A491B48016001219960EB211966A021F2
:10008000196600F012F800219960164914480160C1
:100090000121996001BC002800D000471248134993
:1000A000086003C880F30888084703B5996A0420EC
:1000B0000142FBD001200142F8D103BD02B5186610
:1000C0001866FFF7F2FF186E186E02BD00000240BE
:1000D000000000180000070000035F00212200005C
:1000E000F4000018222000A00001001008ED00E03C
:1000F00000000000000000000000000074B24E7A12
:1001000000200420F7010010C3010010C5010010F9
:10011000C1010010C1010010C1010010C101001097
:10012000C1010010C1010010C1010010C701001081
:10013000C1010010C1010010C9010010CB01001065
:10014000CD010010CD010010CD010010CD01001037
:10015000CD010010CD010010CD010010CD01001027
:10016000CD010010CD010010CD010010CD01001017
:10017000CD010010CD010010CD010010CD01001007
:10018000CD010010CD010010CD010010CD010010F7
:10019000CD010010CD010010CD010010CD010010E7
:1001A000CD010010CD010010CD010010CD010010D7
:1001B000CD010010CD010010CD010010CD010010C7
:1001C00000BE00BE00BE00BE00BE00BEEFF3058054
:1001D000103800BEF2EB8871102300103823001095
:1001E0003802001090A31AE71E481F49086006C88D
:1001F00081F3088810471D480068002801D019487D
:10020000F3E70DA40ECC002902D000F012F8F9E7B4
:100210001749184A002000E001C19142FCD116495B
:100220008847164988471649884700BEFDE701C937
:1002300001C29A42FBD3704738230010C00000204F
:1002400048020020C0240010000004200000042008
:10025000C024001000100420001004200000000042
:10026000704700000000000008ED00E0000000D032
:100270004802002054060020E11B0010DD0300109E
:10028000D91B0010F8B5C0460448054B10B5834291
:1002900003D0044B002B00D0984710BD480200202B
:1002A000480200200000000006480749091A8B1088
:1002B000C90FC91810B5491003D0044B002B00D04A
:1002C000984710BD480200204802002000000000AE
:1002D00010B5074C2378002B09D1FFF7D5FF054B4C
:1002E000002B02D0044800E000BF0123237010BDA2
:1002F000C805002000000000B0210010054B10B51B
:10030000002B03D00449054800E000BFFFF7CCFFF5
:1003100010BDC04600000000CC050020B021001038
:10032000FA20012180008446254B264A70B51960C9
:10033000936A63441361244A1368834218D2234C9E
:10034000206800282BD0032521490868810009185E
:10035000204889000818006868401F4D0004AC461A
:10036000000C6144086000212160591C116070BDBF
:10037000FA200121C0008342F8D2032414490868FE
:100380008100091813488900081800686040124C61
:100390000004A446000C61440860591CE6E70E4EB8
:1003A0000B48B4460568A80040190A4D800045195D
:1003B0002D6860442D042D0C05602160591CD5E783
:1003C0003470054000400540180600204406002017
:1003D000400600200C0005400C10054010B584B00C
:1003E000214803AB02AA01A901F06AF8002803D151
:1003F0001E481D4900F086F8039A0299019800F002
:1004000083FF01F001FD0421080000F03FF8032103
:10041000042000F065F80121042000F051F80222C8
:10042000134B01241A600523124A002093630B33F7
:10043000D362114B196803234B4010499BB20B60E8
:10044000A0230421D1500E4B0E491C6000F0D2F8BD
:100450002100002000F0BCF8FA2189008C460A4AED
:10046000936A63441361FEE790D00300B02100104B
:1004700040060020000005403400054034100540CF
:10048000386005402103001000400540094A830000
:100490009A1810B514684022544080322240064C0D
:1004A000C000A44663441A60044B9C46604441600B
:1004B00010BDC04604C0014004D0014000400140CE
:1004C000054B8000C3181B684B4001211940034BAA
:1004D0009C4660440160704704C0014004D0014064
:1004E000064B8000C3181B68054A09015940944611
:1004F000302360440B4003607047C04604C0014095
:1005000004D001400FB400B5084883B001F0CEFC20
:10051000049B002B07D005A91800019101F042FBB4
:10052000034801F0C3FC012001F054FBE42100105A
:10053000F421001070B5EFF3108C72B60D4D2B68DE
:10054000002BFCD0BFF35F8F0724CB08C618C05C1C
:1005500001230C40A3401C000440034207D1184370
:100560003070BFF35F8F2C608CF3108870BD10006B
:10057000FFF7C8FF2C0100D0044A1078431CDBB2FF
:10058000172B00D9102313707047C0469801002024
:100590000021044B044ABFF35F8F02C39342FAD198
:1005A0007047C046000100D0800100D0054B064ACC
:1005B0001360064A136053609360D3601361536104
:1005C000936170478080808000E400E004E400E0F4
:1005D0001F2318401E3B8340002905D0C021044A38
:1005E0004900535013607047802201498B50FAE74D
:1005F00000E100E070B50D00EFF3108672B60F4A0F
:100600001368002BFCD0BFF35F8F0D4B10309B683D
:1006100084001B590B4A934203D09D4201D001F044
:10062000F7F8074B9B681D51BFF35F8FBFF35F8FD8
:100630000022024B1A6086F3108870BD240100D09E
:1006400000ED00E0CD010010F0B5DE4657464E4605
:100650004546E0B50C0083B0EFF3108872B6634AEC
:100660001368002BFCD0BFF35F8F614B61499A6820
:10067000030010339F00D55900938D4243D0A5420B
:1006800054D05D4EAA1B2F2A3DD85C4B9C461B685C
:100690009A4601231A0099468240534613401F226E
:1006A00001934B46024093409A468022634650464F
:1006B0009850BFF35F8FEFF305839B46002B37D035
:1006C000009B5B4501D001F0A3F82A004B469A43FA
:1006D0009068844208D177E04B005B189B00F318C8
:1006E0009868844236D01A00062151560029F3DA60
:1006F000844255D0019B002B27D0C02251463F4B4E
:100700005200995019603A4B9B68DD51BFF35F8FDF
:10071000BFF35F8F0022354B1A6088F3108803B057
:10072000F0BCBB46B246A946A046F0BD0D00EAE7C4
:100730002A004B469A4390688442D5D10620105631
:10074000130000280ADA0D0032E0802351462B4ABC
:10075000D150D8E706201856002822DB4200111895
:10076000890074188946A1689960E179D9710621D8
:1007700061569971002925DBA488F11A64052415B6
:100780004C440919E0240905490D240221439980AC
:1007900013181B4A9B001178F31899711070A9E780
:1007A00013005946002914D1FF31917115499180E8
:1007B00013490A789A71144A9B1B5B415A43120DE4
:1007C0000A7097E71149E2E7062010561300002847
:1007D000C4DA0F4A0F49D21A083A5002400D0143B9
:1007E00099800D4952080A43DA8083E7240100D03A
:1007F00000ED00E0CD0100109C01002000E100E0D0
:100800005006002001BDFFFFAAAA000001BD0000A4
:10081000D601002000F0FFFF00F8FFFF70B50124B3
:100820000443EFF30581EFF3108C72B6214A13688D
:10083000002BFCD0BFF35F8F1F4B05001F4AED1A42
:100840006D416A43120D1E4D8900AE6852B2765852
:10085000A6421CD00621595691421CD0122159564D
:10086000914222D01E215956914220D02A21595618
:100870000324914210D0134B19781A708171BFF381
:100880005F8F00220B4B1A608CF3108870BDAB6831
:100890000D4C5C50EFE700246100091989005B18DA
:1008A000FF21997109499980E5E70124F4E70224C1
:1008B000F2E7C046240100D09C010020AAAA000053
:1008C00000ED00E050060020CD01001001BDFFFF4B
:1008D000024B9C466144890001607047400000342F
:1008E000F8B5134D134E2C00FF27B5421ED22368D6
:1008F000002B0FD0FFF740FE01002800FFF7E8FFB4
:10090000A780BFF35F8F0834B4420FD2236825005D
:10091000002BEFD1FFF730FE01002800FFF7D8FFD2
:100920002771BFF35F8F0834B442EFD3F8BDC046E0
:1009300038020020480200200A4B1968EFF31080AB
:1009400072B60A68002AFCD0BFF35F8F1B68BFF342
:100950005F8F00221A6080F3108840BF00200021C2
:100960007047C0463C060020F0B5DE4657464E466E
:100970004546E0B585B0EFF3058203231340B64A40
:100980009900575801229A4088469346B34B1A6003
:10099000B34B02935B46B34843630823FE5E002ECD
:1009A00035DABB881BB2002B00DBA8E0BB79002B3B
:1009B00000D0E9E00823F85E00281EDB43007A69D6
:1009C0001B18DB00D3189D68DC686B1C00D108E1A4
:1009D000A44801004144826A0B69AE1A9B1A9E42E8
:1009E00013D35A46036A1A420FD09E4800F0C4FA45
:1009F0008C4202DCCED18542CCD940BF05B0F0BCE0
:100A0000BB46B246A946A046F0BD0D61EDE77A6946
:100A1000730091469B19DB0099444B469C68DD6846
:100A200000F0AAFA8D42BCDC00D1FEE0002D00DA15
:100A3000E3E04B46029A1B69934200D1D5E04A4657
:100A40005288494694460822B85E624600044969C5
:100A500010439847009001910099019A0B001000F3
:100A6000134300D1C9E013000A00002800DBE0E0D6
:100A700020002900801A99414B469860D9600022D5
:100A80009A5E002A00DA8CE753009C187D69E40026
:100A90002C190093A368E4689A468C4200DD80E735
:100AA00002D1834200D97CE708239C46BC443A81AA
:100AB00003976746009BB4463E000EE08C4200D18F
:100AC000C5E01E000023F25E002A0BDB53009C18D9
:100AD000E4002C19A768E468BA469B18DB00EB1801
:100AE0008C42EBDD330066469C464B461A806346DB
:100AF000039F1E80BB881BB2002B00DA56E73A69C1
:100B0000EFF3108172B61368002BFCD0BFF35F8F38
:100B10000123BE885B42BB8036B23B69BFF35F8F67
:100B200000221A6081F31088002E00DA3EE73B00B5
:100B300008333A0099467D6973009B19DB00EB1876
:100B40009968DC688C460820115E4846002910DB55
:100B5000009306E0A34240D00023F95E380000294C
:100B600006DB4F007F18FF00EF19FB68A342F1DDA1
:100B7000009B068000201E5E1980002EDCDA170024
:100B8000BB79002B00D115E70023BB713D00082382
:100B9000F95E08354B1C00D12FE77C690800A4469C
:100BA00003E035004B1C00D106E74B005B180A0040
:100BB0006146DB00CE18C95E73881BB2002BF0DAE9
:100BC00001235B42DC17B360F4608242EAD02980E3
:100BD0003B89100033803A81E4E7BB686345BBD9A9
:100BE000C6E7631C00D0F3E6FFE64B465B699A4616
:100BF0001B6950469847002823D14B461B883A6909
:100C00003B81EFF3108372B611680029FCD0BFF36B
:100C10005F8F49467A880A803A697E80BFF35F8F8A
:100C20000021116083F31088BBE6844200D8FDE602
:100C3000B7E60C4800F0A0F9009B019CC018614188
:100C40001AE753461A685B680092019304E78245ED
:100C500000D836E746E7C046280600203C7005402D
:100C6000690900100040054070B52E4C2569002D23
:100C700004D00A212C48FFF72BFE70BD2B4E032118
:100C8000300000F06FF9E660FFF776FC284B032296
:100C90009C46D02322701B061B6801216370254BE4
:100CA0006044A3600F238000206102206380636999
:100CB0004942A18019800231198647311D8358525B
:100CC00018315A5275325C399952183201319952A1
:100CD00018320131995218320131995208351832BF
:100CE0009D520231183299521832013199521832FC
:100CF0000131995218320131995218320131995209
:100D00001832013199520C4B0C49DC6001303562CC
:100D1000FFF770FC01210320FFF75AFC084B1D6010
:100D2000A7E7C046E40100203C0600200040054043
:100D300040000034FFFF1000280600206909001061
:100D40003860054070B501000469EFF3108C72B68D
:100D500020680028FCD0BFF35F8F02200D5E4C6935
:100D600068004019C0002418002D37DB2088488017
:100D70000869BFF35F8F002606608CF31088E3607C
:100D800063880498013320615B0405985B0CA260C2
:100D900060611A1C002B1FD093B228046280184394
:100DA0000A69EFF3108C72B61368002BFCD0BFF306
:100DB0005F8F8B8823808D800B69BFF35F8F00224C
:100DC0001A608CF310880B7801329A40CB6808497E
:100DD0008C4663441A6070BD0122DDE70B69BFF3E6
:100DE0005F8F00221A608CF3108801204042F2E7E6
:100DF0003C20000010B543890A1493421ADD5300C9
:100E00009B184269DB00D3180469EFF3108C72B6AB
:100E10002268002AFCD0BFF35F8F5A88090494B27D
:100E2000090C8A4208D00369BFF35F8F00221A6061
:100E30008CF31088002010BD8022120214435C80C5
:100E4000012302698371BFF35F8F002111608CF36E
:100E50001088044902788C469340C268012062449D
:100E60001360E8E73C200000F0B5CE46474680B569
:100E700004000D0083B0EFF30587002F0DD0364A34
:100E80000020536A8B4203D3926A0130A24250D3AE
:100E900003B0C0BCB946B046F0BD304B9846DB68E5
:100EA0009946434648461E7800F066F80B004946CE
:100EB00002000436B600715820008E1A2900801AEC
:100EC00099418F4211DC0ED020BF234A0020536A83
:100ED000AB42DDD3926A0130A242D9D2EB1A5A1E3C
:100EE0009341D8B2D4E78642EED900F04DF8220003
:100EF0002B00121A8B41002B20DB00230193184B8F
:100F00002200009340462B00FFF71CFF011E15DD59
:100F1000114B2E005A6A95421CD89B6AA34217D3E4
:100F20004046FFF767FF0C4A0020536A9E42AFD845
:100F3000D0E75B1A5A1E9341D8B2A9E7064A0020AF
:100F4000536AAB42A4D3926A0120A242A0D2C5E761
:100F50009542E5D120BFE3E700400540E4010020D1
:100F60003909001010B5024A0248FFF7E3FA10BD34
:100F7000F8210010EC0500200300416A0A00986A7D
:100F8000596A8A42FAD17047034B596A0A00986A33
:100F9000596A9142FAD170470040054070B504008B
:100FA0000D00174A536A1900966A536A8B42FAD1A8
:100FB0003000190024184D41AB4216D813D0104B05
:100FC0002A005B6A9D4203D90D494B6A9342FCD3C8
:100FD000934207D10A4A02E0516A994202D1916ACA
:100FE000A142F9D370BDA642E9D9054B5B6A1C004A
:100FF0005A1CEFD0012201246442E5175242E3E774
:1010000000400540F8B5040006200D0000F076F918
:10101000002842D0364B3749E21853425A418023C8
:10102000DB039C469205344B62441A60334B1A60D2
:1010300010000B689843FBD12D4B314AE3185942FD
:101040004B4180215B0049000620995200F056F97F
:101050002900C00000F0BAFC0130C3091ED14027AE
:1010600001226262A362266BF30722D4E36A254B56
:101070000620E51800232B60266300F03FF93900B5
:10108000800000F0A3FC7023E26A5A400E33134044
:101090002B601D4B23630323A364F8BD1B4A9342BB
:1010A0001ED900231A4A1B4F6262A362266BF30704
:1010B000DCD5194B144AE3181A60656AA36A062046
:1010C000AD01ED1800F01AF9144900F07FFCAD02F3
:1010D0000100280000F07AFC0021FFF75FFFC5E760
:1010E0004006800E9F011A003F180300B9E7C04672
:1010F0000080FCBF08C0004000E0004000F000405D
:10110000480600202C10000001030000FEFF000034
:10111000FFFF0000C0FF3F00303000004E0E000017
:10112000F8B5DE464E4657464546E0B58B460500C7
:101130000A991800160000F049FC0A9B6C001F0277
:10114000324B64199C46A4006444636881469F4204
:1011500000D967602B1FDBB29846012B30D9C02322
:1011600080229B01E31812011A60294BAD005959E6
:101170009A4600291BD17301E026226853401E4085
:10118000802342465B01E3181E60012A30D9802388
:1011900080229B01E31812011A6053464A46676099
:1011A0005A51F0BCBB46B246A946A046F8BD5869A4
:1011B00000F00CFC013043001B18033BFDD2DAE7C2
:1011C0005B46012BCBD1C02303229B01E3181A609D
:1011D000023AA3681A42FCD07301E0262268AD00EF
:1011E00053401E4080230A4A5B019246E3181E606A
:1011F0005A462168514003220A401A6001225B4688
:101200009A40A3681A42FCD0C1E7C0460080004063
:10121000F0050020F0B546464F46D646C0B51F0043
:10122000344B44009C462418A400644463688846F8
:101230001600FF2B02D880235B006360031FDBB224
:101240009A46012B30D9C02380229B01E31812015A
:101250001A60294B85005959994600291BD1730101
:10126000E026226853401E40802352465B01E3186B
:101270001E60012A30D9802380229B01E3181201CD
:101280001A6080235B0063604B465F51E0BCBA4646
:10129000B146A846F0BD586900F098FB0130430004
:1012A0001B18033BFDD2DAE74346012BCBD1C02309
:1012B00003229B01E3181A60023AA3681A42FCD089
:1012C0007301E0262268850053401E4080230A4AAD
:1012D0005B019146E3181E6042462168514003229B
:1012E0000A401A60012342469340A2681342FCD090
:1012F000C1E7C04600800040F0050020014B80009F
:10130000C0587047F0050020F0B54746CE4680B57E
:101310005B4B15005A680700884683B0FF2A02D845
:10132000802252005A600322564B554E1A60012308
:10133000B4682342FCD0202231685140C0320A40B8
:1013400051490A6032684E4E5A40032313400B60E5
:101350000223B4682342FCD080224C4B12011A6055
:1013600080235B0073604A4C99464A4B3A006361A4
:10137000012143464848009500F0AAF9414638004B
:10138000694300F023FB454B05005A68FF2A01D84A
:101390004A465A608022424B12011A602169002994
:1013A00007D0606900F012FB013043001B18033BBB
:1013B000FDD2E022394B3B4819680A400260022204
:1013C0001968514001320A40042102609A681142B2
:1013D000FCD08021344A09011160802252005A60F9
:1013E000324B2361264B5968FF2900D85A600322EB
:1013F0000121244B1A60224A93681942FCD0E02351
:101400001068034020480360126803234A40022109
:1014100013401B4A036093681942FCD080211B4B88
:10142000090119608021224B4900516065615A68A9
:10143000FF2A00D8596080221E4B12011A60A16950
:10144000002907D0606900F0C1FA013043001B1881
:10145000033BFDD2402316490A685A40A03313408B
:10146000154A13608022154B12011A6080235B001D
:101470004B60084BA36103B0C0BCB946B046F0BD99
:101480003C8000403CB000403C9000403CA000400C
:10149000F0050020006CDC0200800240308000403B
:1014A00030B000403090004030A00040001BB7003A
:1014B0004880004048B000404890004048A00040AC
:1014C000F0B54E4691467D4A45469046A022574685
:1014D000DE465200E0B51700424606008A4683B059
:1014E00000920193009B764A934209D9754A009B6A
:1014F0009446013F634400930F2FF3D100206EE028
:101500001D00714B31219C466544280000F05EFAB5
:10151000864200D1BCE00724631EB8469B463700D4
:101520002E005D4665433000290000F04FFA8742E7
:1015300046D0A31E9B46022C00D1ADE02D1B2900F6
:10154000300000F043FA874250D0E31E9B46032C44
:1015500052D02D1B2900300000F038FA874253D0BA
:10156000231F9B46042C55D02D1B2900300000F072
:101570002DFA874259D0631F9B46052C5BD02D1B4B
:101580002900300000F022FA87425CD0062C5ED0A1
:101590003000E91F00F01AFAB84263D0242130006D
:1015A0000624242500F012FA874261D005239B46C9
:1015B0005D4665433000290000F008FA8742B8D143
:1015C0000029B6D15D46D346C246019B52463F49EB
:1015D000012051435A4611604A4614601D6003B011
:1015E000F0BCBB46B246A946A046F0BD0029E9D0F2
:1015F000E31E9B46032CACD102240425B3089F4272
:1016000036D001239B468CE70029DBD0231F9B4665
:10161000042CA9D1092130000324092500F0D6F9B2
:10162000874225D002239B467BE70029CAD0631F4F
:101630009B46052CA3D10424102533099F4217D0C3
:1016400003239B466DE70029BCD0062CA0D11921AD
:1016500030000524192500F0B9F9874208D0042389
:101660009B465EE7002923D0052306249B4658E7C6
:10167000AB4635003E0047465946280000F0A6F923
:10168000002900D048E7D3462500BA46019B9DE7D4
:10169000312307249B46EFE735003E004746B5421D
:1016A00000D023E7D3460124C2460125019B8DE7E4
:1016B000D3460724C2460125019B87E750262F0009
:1016C00050F80C0020D1FFFFB0710B00001BB700D9
:1016D000F8B5040020481D0017000E0000F076F950
:1016E0000100380000F072F9069B29041B0319431E
:1016F0002368002B1EDB194B194DE21853425A4147
:1017000080235B019C461203164B62441A60164B01
:101710001A6017002B689F43FBD1144B2660E21818
:101720002123A06013602368002BFCDA0823E1600A
:101730001360F8BD3F2322681340B342DBD1A36896
:101740001B051B0D8342D6D1EE22E368D202134063
:101750008B42D0D1EDE7C046001BB7000040FDBF73
:1017600008C0004000E0004000F0004004300000ED
:101770008023024A9B000B43D362704700800540E0
:10178000142310B50100188804331B88984710BD36
:10179000162310B50100188802331B88984710BD26
:1017A000F8B54746CE4680B50F1E19D0142399468A
:1017B000043304000025012698464B46188843460A
:1017C00021681B88984701C4431E98410135404257
:1017D0000640AF42F1D13000C0BCB946B046F8BDBA
:1017E0000126F8E7AA23064A1B0113608D235B003C
:1017F000D3600449044B19605368002BFCDA70472E
:101800000040024000B0FA00006002407047C0464D
:1018100010B50148FEF776FE1C22001070B5074D8A
:10182000074EB54209D20024013E761BB60808CD0A
:10183000984723000134B342F9D170BD70210010E4
:10184000AC210010054B064A06491A60064A074BB0
:101850001A6010000B689843FBD1704700E000400D
:10186000BFCDFBFE08C00040FE7F3C0000F0004002
:10187000044BDB6C002B03D18022034BD2021A6095
:101880007047C046000011504C201150044A054BCF
:101890001A60054A1368DB018033FBD17047C046EC
:1018A000FFFFFF0100F0004008C000404022034B52
:1018B0009A675A671A67DA667047C04600F00140B7
:1018C00010B5FEF765FE10BD70B5044D044CA96857
:1018D000C022200000F058F9AC6070BD00ED00E0BF
:1018E00000000020002310B5294C82B0A367FFF749
:1018F00079FF0122274B1A60636C012BFCD1032274
:10190000254B1A60224A936B012BFCD101330093C3
:101910000121224A22480433FFF7DAFE0523012180
:101920000093204A2048FFF7D3FE00220221042022
:101930001E4BFFF76FFC0022012105201C4BFFF717
:1019400069FC0022002107201A4BFFF763FC0022EC
:1019500000210820174BFFF75DFC8023DB0000937C
:10196000002200210920134BFFF7DAFB0022104B65
:1019700000210620FFF74EFC0420FFF7BFFC0E49B4
:1019800000F024F801000020FFF7F2FE02B010BDC5
:10199000008000403CB0004030B00040002F68594B
:1019A00000800240008C864700C00240001BB70048
:1019B00040597307006CDC0240420F0001480421CB
:1019C000014B184700020020A1170010114A936F25
:1019D0009B0813D210665166002905D0FFE7FFE788
:1019E000FFE7516F106F704704B5002801D0002049
:1019F000C04300F0ADFB002104BDC046F0B5146E3D
:101A0000556E576F166FFFF7E5FF146655665767FB
:101A10001667F0BD000000D0132370B51D78012DAE
:101A200019D014DD1F48FFF7B3FE06001E48FFF76C
:101A3000AFFE1E4C80223100200000F0A5F8022DE0
:101A40002DD01B48FFF79CFE1A4B186070BD1A4B37
:101A5000164CA364F5E7184B144C23606360A36035
:101A6000E36023616361A361E36123626362A36254
:101A7000E36223636363A363E36323646364A36434
:101A8000E36423656365A365E36523666366A36614
:101A9000E36623676367A367E367A364D1E7064B45
:101AA000A364CEE75344000053460000C80300205F
:101AB0004C33000038060020BD1A001007B5604600
:101AC00001880A0A0230DF2AFAD1C9B2820804D397
:101AD000028840880004104300E00068014A50502A
:101AE000039007BDC8030020132310B512481C78CB
:101AF000FFF74EFE0100012C0AD003DD80220F48C3
:101B000000F042F80E48FFF73BFE0E4B186010BD88
:101B10000A4C5422200000F037F80B4B6365A36594
:101B2000E36523666366A366E36623676367A3676B
:101B3000E3672362E361E5E753460000C804002041
:101B40004C330000380600204D1B001007B56046DE
:101B500001880A0A0230DF2AFAD1C9B2820804D306
:101B6000028840880004104300E00068014A505099
:101B7000039007BDC804002001480421014B184709
:101B800010020020A1170010014B5B6818470000ED
:101B90001002002010B5002800D110BD00F03AF965
:101BA000FBE7C04610B5094A0300146884B0002C56
:101BB00008D0012200910648524203A9A047012003
:101BC00004B010BD00F072F90020F9E724060020EF
:101BD000951B001000BEFDE710B5FFF7FBFFC046E8
:101BE00070B5FFF71BFE074D074EB54209D2002422
:101BF000013E761BB60808CD984723000134B34256
:101C0000F9D170BDAC210010B0210010030010B557
:101C1000080011001B68984710BDC046F0B5464645
:101C20004F46D646C0B5437D80460E001700002BB8
:101C30004BD0002A32DD274B01259A464B1E00244B
:101C40000020994607E0335D0A2B2CD02B0001348D
:101C50000135BB4213DA002CF5D133780A2BF5D1CC
:101C600043461B7D002BF1D14346504602211B68A1
:101C7000984728002B0001340135BB42EBDB87423B
:101C800004DD4346391A1B6830189847F619013E9F
:101C900033780D3B5A42534142461375E0BCBA4675
:101CA000B146A846F0BD4B461B5D0D2BCED0A042E1
:101CB000DADA4346211A1B683018984743465046E3
:101CC00002211B6898472800D4E703681100300000
:101CD0009847E3E7C4220010F0B5DE4657464E466B
:101CE0004546E0B585B017001C0006000D00FFF763
:101CF0004BF90023314A12184B41802109068B42CF
:101D000002D301222E4B52422E4908008A4600F08F
:101D100027FA01906B1C03D1300000F0E1F90500B7
:101D2000002C26D0284B9846284B1C68002C15D038
:101D3000002F21D1264F02E02469002C0ED0236809
:101D4000002BF9D03B68002B01D0A342F4D1200036
:101D50002A003100C0472469002CF0D1019B002BE0
:101D600028D1280005B0F0BCBB46B246A946A04623
:101D7000F0BD184B9846D7E7154B994602ABDF1DCF
:101D80000A239B4602E02469002CE7D02368002B3D
:101D9000F9D04B461B68002B01D0A342F3D12A0097
:101DA00031002000C0475B460122390020003B7013
:101DB000C047E8E7504600F0C3F9D2E740420F00C1
:101DC000FFFFFF7F400200201D1C00101C060020AA
:101DD000200600200D1C00100A4A1368002B05D1B4
:101DE0000CE01A001B691032002B07D09842F8D182
:101DF000002902D103691360016170470029FCD0FA
:101E00001060FAE71C06002010B500F041F901202F
:101E100010BDC046F0B5CE46474680B583B06B4690
:101E20000600DD1D2870FFF7AFF800231A4A1218CC
:101E30004B41802109068B4202D30122174B5242AB
:101E400017490800884600F08BF9164B81461C683C
:101E5000002C14D0144F02E02469002C0FD023680A
:101E6000002BF9D03B68002B01D0A342F4D1200015
:101E700001222900FFF7D2FE2469002CEFD14B4646
:101E8000002B05D1300003B0C0BCB946B046F0BD50
:101E9000404600F055F9F5E740420F00FFFFFF7F95
:101EA000400200201C0600202006002070B504001F
:101EB00000F016F901230100050001222000FFF7C0
:101EC0000BFF084B1C68002C06D06368002B05D064
:101ED00098472469002CF8D1280070BD2469002C93
:101EE000F3D1F9E71C060020F0B5002915DD0E4BF3
:101EF0000D271A680D4B0E4CD3185D426B414518E7
:101F000020215B001E5F0478A64207D09369194226
:101F1000FCD101301460A842F5D1F0BD936919429B
:101F2000FCD11760F2E7C0464C0600200080FCBFE1
:101F30004806002030B504000D1E2EDD00201021C3
:101F40001F4B013C1A689369194216D101309369FD
:101F50001942FCD1136823548542F4D1194B1B68F4
:101F6000002B08D050239363516B183B0B4016494C
:101F70008C466244136028000EE0124B1B68002B55
:101F800008D050239363516B183B0B400E498C468D
:101F90006244136000280FD030BD0A4B1B68002B31
:101FA0000AD05022064B1B689A63596B183A0A40B4
:101FB00005498C4663441A6003204042ECE7C04662
:101FC0004C060020E405002034100000064B10B53C
:101FD0001B68002B06D00021044A12689163044A52
:101FE0001068984710BDC046E40500204C0600204C
:101FF000E80500200822034B19688B691A42FCD1BE
:102000007047C0464C06002070B51B4E1B4B326813
:102010000500D3185842434114331C00002D04D04E
:10202000174B1A68002A11D070BD154E3368002B6B
:10203000FAD0002120009563FEF7CAFA200011496A
:10204000FEF702FB104B35601D60EDE71D600E4B87
:10205000200019600B49FEF7CDFA01212000FEF7A0
:10206000B7FA502233689A63596B183A0A40074905
:102070008C4663441A60D7E74C0600200080FCBF02
:10208000E4050020CD1F0010E805002034100000FA
:102090000D4B10B51B780D4B0D4C1B780D4B0221D1
:1020A0001B780D4B00202360FEF7F0F90221012080
:1020B000FEF7ECF9E12120684902FEF7A3FF0121B8
:1020C0000648FFF789FE10BD3423001030230010AE
:1020D0004C0600202C23001000400340200200206A
:1020E00010B583070AD00300032102E001330B423D
:1020F00005D01A78002AF9D1181A10BD0300196802
:102100000C4A0D4C8A188A4322420FD15968094A59
:1021100004338A188A43224208D15968054A043395
:102120008A188A432242F1D000E001331A78002A4B
:10213000FBD1E1E7FFFEFEFE80808080F8B5C0465F
:1021400001B40248844601BC604700BF5D01002025
:1021500001B40248844601BC604700BF85010020ED
:1021600001B40248844601BC604700BFC1000020A2
:102170004518001071180010BD190010791B0010CF
:10218000191A0010E91A0010E51800108D18001037
:10219000AD180010C1180010E1080010C918001097
:1021A000690C00100D180010AD050010FD020010A4
:1021B00053797374656D20636C6F636B206F662059
:1021C0002575206B487A2063616E6E6F742062659E
:1021D0002065786163746C792061636869657665F0
:1021E000640000000A2A2A2A2050414E4943202A2E
:1021F0002A2A0A000A000000486172647761726549
:1022000020616C61726D20256420616C726561646F
:102210007920636C61696D656400000048617264D7
:10222000206173736572740052656C65617365003B
:10223000626F6F74325F7732357130383000000072
:10224000322E312E310000007069636F00000000F3
:1022500050574D5F526164696F5F426561636F6E95
:10226000000000004D6172203136203230323500DE
:1022700006005250D3F0754228220010060052503A
:10228000E182887F3022001006005250ABB36053C9
:102290004022001006005250BBFF3CB648220010FE
:1022A00006005250861C03025022001006005250B5
:1022B0005422A29D6422001005005250DE65F4688D
:1022C000C02400100D0A000055415254207374645C
:1022D000696E000055415254207374646F75740028
:1022E0005541525420737464696E202F20737464B6
:1022F0006F7574000600525053B4F4A1E022001030
:1023000008005250120000000800525092100000C5
:10231000702200107C2200108822001094220010ED
:10232000A0220010AC220010B822001008230010D8
:0823300000230010F42200104C
:10233800F0B5C646150000B504001E000268EFF3AC
:10234800108172B61368002BFCD0BFF35F8F042393
:10235800E356002B2DDB2268BFF35F8F002010604F
:1023680081F31088D0221206127852B290469A420F
:1023780003D1002080BCB846F0BD00270BE02368DD
:10238800BFF35F8F1F6081F310882800310000F0D1
:1023980033F80028EDD12268EFF3108172B6136884
:1023A800002BFCD0BFF35F8F23797F2BE7D94346FF
:1023B80002E0D0231B061B6823712368BFF35F8FDD
:1023C80000221A6081F310880120D3E70268EFF336
:1023D800108172B61368002BFCD0BFF35F8FFF2308
:1023E80003710368BFF35F8F00221A6081F31088BE
:1023F80040BF70477047C04601B40248844601BCDC
:10240800604700BF690E00101000000000000000C7
:1024180000000100000000000000000000000200B1
:1024280000000000000000000000030000000000A1
:10243800000000000000FF000000000001B548682F
:1024480001318E460047704609380149884701BD69
:102458001D0800100000000000000000000000003F
:1024680000000000000000004802002000000000FA
:10247800503300004C330000543300005233000046
:102488004D5300004D430000533400004334000016
:10249800E91E0010F51F0010351F0010092000105C
:1024A8000000000000010000000000000000000023
:0824B80000000000000000001C
:04000005100001E9FD
:00000001FF
