:020000041000EA
:1000000000B5324B212058609868022188439860DF
:10001000D860186158612E4B002199600221596106
:100020000121F02299502B49196001219960352056
:1000300000F044F80222904214D00621196600F024
:1000400034F8196E01211966002018661A6600F04E
:100050002CF8196E196E196E052000F02FF8012189
:100060000842F9D1002199601B49196000215960AB
:100070001A491B48016001219960EB211966A021F2
:10008000196600F012F800219960164914480160C1
:100090000121996001BC002800D000471248134993
:1000A000086003C880F30888084703B5996A0420EC
:1000B0000142FBD001200142F8D103BD02B5186610
:1000C0001866FFF7F2FF186E186E02BD00000240BE
:1000D000000000180000070000035F00212200005C
:1000E000F4000018222000A00001001008ED00E03C
:1000F00000000000000000000000000074B24E7A12
:1001000000200420F7010010C3010010C5010010F9
:10011000C1010010C1010010C1010010C101001097
:10012000C1010010C1010010C1010010C701001081
:10013000C1010010C1010010C9010010CB01001065
:10014000CD010010CD010010CD010010CD01001037
:10015000CD010010CD010010CD010010CD01001027
:10016000CD010010CD010010CD010010CD01001017
:10017000CD010010CD010010CD010010CD01001007
:10018000CD010010CD010010CD010010CD010010F7
:10019000CD010010CD010010CD010010CD010010E7
:1001A000CD010010CD010010CD010010CD010010D7
:1001B000CD010010CD010010CD010010CD010010C7
:1001C00000BE00BE00BE00BE00BE00BEEFF3058054
:1001D000103800BEF2EB8871342B00105C2B00103D
:1001E0003802001090A31AE71E481F49086006C88D
:1001F00081F3088810471D480068002801D019487D
:10020000F3E70DA40ECC002902D000F012F8F9E7B4
:100210001749184A002000E001C19142FCD116495B
:100220008847164988471649884700BEFDE701C937
:1002300001C29A42FBD370475C2B0010C000002023
:1002400040020020DC2C00100000042000000420EC
:10025000DC2C00100010042000100420000000001E
:10026000704700000000000008ED00E0000000D032
:1002700040020020E85E0220092100105107001012
:1002800001210010F8B5C0460448054B10B5834263
:1002900003D0044B002B00D0984710BD4002002033
:1002A000400200200000000006480749091A8B1090
:1002B000C90FC91810B5491003D0044B002B00D04A
:1002C000984710BD400200204002002000000000BE
:1002D00010B5074C2378002B09D1FFF7D5FF054B4C
:1002E000002B02D0044800E000BF0123237010BDA2
:1002F000C00500200000000088290010054B10B543
:10030000002B03D00449054800E000BFFFF7CCFFF5
:1003100010BDC04600000000C40500208829001060
:10032000F8B54E46DE4657464546E0B5EB4E3368D7
:10033000012B00D1E5E0D0238021402280201B0644
:1003400049005A62596298628130FF3098629A611E
:1003500059618023E24A5B0110684340E020C001FC
:100360000340E04803600420DF4B186013680B4231
:10037000FCD05368DD4A1B041B0C1360DC4B126875
:100380001F7898460F23DB4D3B409B005A510023BA
:10039000D94CDA4A23600023136028682368914609
:1003A0009A4601F007FE514601F0E6FD20606868BC
:1003B000236801379A4601F0FDFD514601F0DCFD4E
:1003C0002060A86823689A4601F0F4FD514601F0C8
:1003D000D3FD2060E86823689A4601F0EBFD5146A2
:1003E00001F0CAFD2060286923689A4601F0E2FD09
:1003F000514601F0C1FD2060686923689A4601F00A
:10040000D9FD514601F0B8FD2060A86923689A46DD
:1004100001F0D0FD514601F0AFFD2060E86923688E
:100420009A4601F0C7FD514601F0A6FD2060286AFA
:1004300023689A4601F0BEFD514601F09DFD206003
:10044000686A23689A4601F0B5FD514601F094FDB3
:100450002060A86A23689A4601F0ACFD514601F07D
:100460008BFD2060E86A23689A4601F0A3FD51469F
:1004700001F082FD2060286B23689A4601F09AFD06
:10048000514601F079FD2060686B23689A4601F0BF
:1004900091FD514601F070FD2060A86B23689A46DB
:1004A00001F088FD514601F067FD2060E86B25688A
:1004B00001F080FD291C01F05FFD2060206801F043
:1004C000A1FD4B460009186043461F7001238C4F65
:1004D00033603A688B4B9A420DDC3A688A4B9A42F9
:1004E00009DD864B894A1968914204DC1968884AFB
:1004F000914200DDD2E0F0BCBB46B246A946A04620
:10050000F8BDD0234022802180201B069A62800003
:100510004032490099625A6258629861E0205A61FB
:100520006F4AC001136803406E48036004206E4B9D
:10053000186013680B42FCD05368764A1B041B0CEE
:100540001360754B126899461B78744D98460F23BB
:1005500041460B409B005A510023714C684F236069
:1005600000233B6028689A4623689B4601F022FDE1
:10057000594601F001FD2060686823689B4601F040
:1005800019FD594601F0F8FC2060A86823689B46D5
:1005900001F010FD594601F0EFFC2060E868236887
:1005A0009B4601F007FD594601F0E6FC20602869F2
:1005B00023689B4601F0FEFC594601F0DDFC2060FB
:1005C000686923689B4601F0F5FC594601F0D4FCAC
:1005D0002060A86923689B4601F0ECFC594601F0B5
:1005E000CBFC2060E86923689B4601F0E3FC594698
:1005F00001F0C2FC2060286A23689B4601F0DAFC07
:10060000594601F0B9FC2060686A23689B4601F0F6
:10061000D1FC594601F0B0FC2060A86A23689B46D3
:1006200001F0C8FC594601F0A7FC2060E86A236885
:100630009B4601F0BFFC594601F09EFC2060286BF0
:1006400023689B4601F0B6FC594601F095FC2060FA
:10065000686B23689B4601F0ADFC594601F08CFCA9
:100660002060A86B23689B4601F0A4FC594601F06A
:1006700083FC2060E86B256801F09CFC291C01F0DC
:100680007BFC2060206801F0BDFC43464A460133F4
:10069000137053460009386033601AE7214AE1219C
:1006A00094463D681B68890063441801C01A4001E4
:1006B00001F0A6FB1C4B04B29C466544A8004019FF
:1006C0001A49C00101F09CFBA0239B009C4660449A
:1006D0000F22210000B200F085F90CE7F40500209C
:1006E00000C0044000D0044000E00440E8050020C1
:1006F000E45E0220985E0220D85E0220DC5E0220CA
:10070000945E0220AB0D0000DC050000270A00000B
:10071000A4060000E4050020E35E0220505E0220F3
:10072000905E02205CF9FFFF24FAFFFF30F8FFFF24
:1007300010B504001F2100F085F9002220000021DF
:1007400000F09AF90021200000F0AAF910BDC0467F
:1007500000B58BB001F0ECFD02F092F81A20FFF723
:10076000E7FF1B20FFF7E4FF00F01EF8062000F073
:10077000ABF9072000F0A8F9082000F0A5F909203E
:1007800000F0A2F900F044FE04AB029300230193B1
:10079000034B044A009301235B4200F04DFFFEE748
:1007A000210300100CFEFFFFF0B5D6464F4646462B
:1007B000C0B57A498AB07A4801F026FF7949060027
:1007C000774801F021FF78490500754801F01CFFCA
:1007D0000023802299460593F82352025B0202927D
:1007E0000393C02304001B03102202A906A8984605
:1007F000049301F05DFC3100731C08310A03DB0136
:10080000134306A9102202A8079301F051FC674B7D
:1008100001270593A0230621DB0210209A460293AC
:1008200000F010F90123102200215D48009701F02B
:100830006DFF3200002102AB594801F0C1FF2900D1
:100840006B1C0D310A03DB011343594A0621134087
:100850008022D2051343079343460893554B11203A
:1008600009935346069300F0EDF80123112201216C
:100870004B48009701F04AFF2A00012106AB484887
:1008800001F09EFF4B4680220593F82352025B0243
:10089000029203934346102202A906A8049301F092
:1008A00007FC2200A31C08321203DB01134306A934
:1008B000102202A8079301F0FBFB3F4B06211220F8
:1008C000059300F0BFF80621132000F0BBF80621C5
:1008D000142000F0B7F80621152000F0B3F8042327
:1008E000122202212E48009701F010FF220002215F
:1008F00002AB2B4801F064FF012001F0AFFFA026FE
:100900000400012001F0AAFFF605B4462B4BE502D6
:10091000C2022B492B40134319432A4EA3016344BF
:100920001E60294E80015E609626B6029E601961A7
:10093000264960440A4026492A430A432549016062
:100940008021436087600261154A490253680B4267
:10095000FCD18021204B89021361114A53680B425C
:10096000FCD1E0238021FF3353610D4AC902536853
:100970000B42FCD14023FF339361184B184AA0214E
:100980001A6001238622A340C905D2008B500AB009
:10099000E0BCBA46B146A846F0BDC046C829001022
:1009A00000002050A4290010882900100002000433
:1009B000FFFFFF9F2046004452024010FD0700FF4A
:1009C000110001005006002018002050FD871FFF75
:1009D00009801F00980100208F0200000020205095
:1009E0000707000010B50400F0200B1C40008142F6
:1009F00001DBE023FF3319B2CB43DB1719408B0037
:100A0000E0435B18A021C017DB0189002040884229
:100A100000DB0A481B18D90708D50F2108485B10CE
:100A2000C45C120121400A43C25410BD0F24044883
:100A30005B10C15CA1430A43C254F6E77F02000089
:100A400050060020094A83009A1810B51468402205
:100A5000544080322240064CC000A44663441A60D1
:100A6000044B9C466044416010BDC04604C0014038
:100A700004D0014000400140074B8000C3181B68B0
:100A8000C90092000A435A400C231340034A94467B
:100A9000604403607047C04604C0014004D0014078
:100AA0008000002905D0064B9C464023604403602B
:100AB0007047044B9C46402360440360F8E7C046FF
:100AC00004E0014004F001400123D02283401206DB
:100AD00093629361094A83009A1811684022514039
:100AE00080320A400649C0008C4663441A60054BB8
:100AF0009C460523604443607047C04604C00140E3
:100B000004D00140004001400FB400B5084883B054
:100B100001F060FC049B002B07D005A9180001918F
:100B200001F0D4FA034801F055FC012001F0E6FA87
:100B3000E4290010F4290010EFF3108072B6034A84
:100B40001368002BFCD0BFF35F8F70472C0100D0DF
:100B5000BFF35F8F0022024B1A6080F3108870474A
:100B60002C0100D070B5EFF3108C72B60D4D2B68D0
:100B7000002BFCD0BFF35F8F0724CB08C618C05CE6
:100B800001230C40A3401C000440034207D118433A
:100B90003070BFF35F8F2C608CF3108870BD100035
:100BA000FFF7B2FF2C0100D0F8B54746CE46884685
:100BB00080B5EFF3108C72B6214D2C68002CFCD060
:100BC000BFF35F8F9A422CD8D4080727055D06191A
:100BD00001241740BC402C421FD007210127894621
:100BE00009E0D408055D06194C4639001440A140BF
:100BF0000C00294211D001329342F2D2012040422E
:100C0000BFF35F8F00220E4B1A608CF31088002810
:100C10000FDBC0BCB946B046F8BD254310003570A7
:100C2000EEE7BFF35F8F00232B608CF31088012069
:100C300040424346002BECD00898FFF765FFC046C2
:100C40002C0100D0044A1078431CDBB2172B00D9CA
:100C5000102313707047C0469C0100200021044BF4
:100C6000044ABFF35F8F02C39342FAD17047C04674
:100C7000000100D0800100D0054B064A1360064AEF
:100C8000136053609360D360136153619361704745
:100C90008080808000E400E004E400E01F2318402E
:100CA0001E3B8340002905D0C021044A490053500F
:100CB00013607047802201498B50FAE700E100E0A1
:100CC00070B50D00EFF3108672B60F4A1368002B53
:100CD000FCD0BFF35F8F0D4B10309B6884001B5915
:100CE0000B4A934203D09D4201D000F0ABFF074B6B
:100CF0009B681D51BFF35F8FBFF35F8F0022024BD4
:100D00001A6086F3108870BD240100D000ED00E069
:100D1000CD010010F0B5DE4657464E464546E0B5DB
:100D20000C0083B0EFF3108872B6634A1368002B8F
:100D3000FCD0BFF35F8F614B61499A6803001033A9
:100D40009F00D55900938D4243D0A54254D05D4EAB
:100D5000AA1B2F2A3DD85C4B9C461B689A46012350
:100D60001A0099468240534613401F2201934B4676
:100D7000024093409A468022634650469850BFF303
:100D80005F8FEFF305839B46002B37D0009B5B45BD
:100D900001D000F057FF2A004B469A4390688442E6
:100DA00008D177E04B005B189B00F31898688442E9
:100DB00036D01A00062151560029F3DA844255D064
:100DC000019B002B27D0C02251463F4B5200995027
:100DD00019603A4B9B68DD51BFF35F8FBFF35F8FA4
:100DE0000022354B1A6088F3108803B0F0BCBB4674
:100DF000B246A946A046F0BD0D00EAE72A004B46E0
:100E00009A4390688442D5D10620105613000028DA
:100E10000ADA0D0032E0802351462B4AD150D8E740
:100E200006201856002822DB420011188900741889
:100E30008946A1689960E179D97106216156997155
:100E4000002925DBA488F11A640524154C440919EE
:100E5000E0240905490D24022143998013181B4AF7
:100E60009B001178F31899711070A9E71300594687
:100E7000002914D1FF3191711549918013490A78E5
:100E80009A71144A9B1B5B415A43120D0A7097E7F3
:100E90001149E2E70620105613000028C4DA0F4A71
:100EA0000F49D21A083A5002400D014399800D496A
:100EB00052080A43DA8083E7240100D000ED00E005
:100EC000CD010010A001002000E100E0E25E022060
:100ED00001BDFFFFAAAA000001BD0000DA01002049
:100EE00000F0FFFF00F8FFFF70B501240443EFF3AB
:100EF0000581EFF3108C72B6214A1368002BFCD0E9
:100F0000BFF35F8F1F4B05001F4AED1A6D416A4307
:100F1000120D1E4D8900AE6852B27658A6421CD002
:100F20000621595691421CD012215956914222D085
:100F30001E215956914220D02A215956032491420C
:100F400010D0134B19781A708171BFF35F8F002294
:100F50000B4B1A608CF3108870BDAB680D4C5C5065
:100F6000EFE700246100091989005B18FF219971DE
:100F700009499980E5E70124F4E70224F2E7C04635
:100F8000240100D0A0010020AAAA000000ED00E08A
:100F9000E25E0220CD01001001BDFFFF024B9C4626
:100FA000614489000160704740000034F8B5134D7A
:100FB000134E2C00FF27B5421ED22368002B0FD002
:100FC000FFF740FE01002800FFF7E8FFA780BFF30E
:100FD0005F8F0834B4420FD223682500002BEFD175
:100FE000FFF730FE01002800FFF7D8FF2771BFF39D
:100FF0005F8F0834B442EFD3F8BDC04638020020FA
:10100000400200200A4B1968EFF3108072B60A689C
:10101000002AFCD0BFF35F8F1B68BFF35F8F0022F5
:101020001A6080F3108840BF002000217047C0463E
:1010300044060020F0B5DE4657464E464546E0B52C
:1010400085B0EFF3058203231340B64A9900575841
:1010500001229A4088469346B34B1A60B34B0293E1
:101060005B46B34843630823FE5E002E35DABB8837
:101070001BB2002B00DBA8E0BB79002B00D0E9E01D
:101080000823F85E00281EDB43007A691B18DB008A
:10109000D3189D68DC686B1C00D108E1A4480100EE
:1010A0004144826A0B69AE1A9B1A9E4213D35A4678
:1010B000036A1A420FD09E4800F05CFB8C4202DCAF
:1010C000CED18542CCD940BF05B0F0BCBB46B246BC
:1010D000A946A046F0BD0D61EDE77A69730091461F
:1010E0009B19DB0099444B469C68DD6800F042FB8D
:1010F0008D42BCDC00D1FEE0002D00DAE3E04B467F
:10110000029A1B69934200D1D5E04A46528849466B
:1011100094460822B85E6246000449691043984725
:10112000009001910099019A0B001000134300D127
:10113000C9E013000A00002800DBE0E020002900DD
:10114000801A99414B469860D96000229A5E002A25
:1011500000DA8CE753009C187D69E4002C19009399
:10116000A368E4689A468C4200DD80E702D183429E
:1011700000D97CE708239C46BC443A810397674624
:10118000009BB4463E000EE08C4200D1C5E01E003C
:101190000023F25E002A0BDB53009C18E4002C199C
:1011A000A768E468BA469B18DB00EB188C42EBDDBD
:1011B000330066469C464B461A806346039F1E805A
:1011C000BB881BB2002B00DA56E73A69EFF31081B7
:1011D00072B61368002BFCD0BFF35F8F0123BE886B
:1011E0005B42BB8036B23B69BFF35F8F00221A605F
:1011F00081F31088002E00DA3EE73B0008333A0006
:1012000099467D6973009B19DB00EB189968DC68CF
:101210008C460820115E4846002910DB009306E04A
:10122000A34240D00023F95E3800002906DB4F00BE
:101230007F18FF00EF19FB68A342F1DD009B0680D9
:1012400000201E5E1980002EDCDA1700BB79002B0F
:1012500000D115E70023BB713D000823F95E083576
:101260004B1C00D12FE77C690800A44603E0350041
:101270004B1C00D106E74B005B180A006146DB00FF
:10128000CE18C95E73881BB2002BF0DA01235B42D3
:10129000DC17B360F4608242EAD029803B891000F9
:1012A00033803A81E4E7BB686345BBD9C6E7631C7A
:1012B00000D0F3E6FFE64B465B699A461B69504651
:1012C0009847002823D14B461B883A693B81EFF3AE
:1012D000108372B611680029FCD0BFF35F8F4946B6
:1012E0007A880A803A697E80BFF35F8F002111609F
:1012F00083F31088BBE6844200D8FDE6B7E60C48CD
:1013000000F038FA009B019CC01861411AE753466F
:101310001A685B680092019304E7824500D836E7BB
:1013200046E7C046300600203C70054035100010EE
:101330000040054070B52E4C2569002D04D00A21CF
:101340002C48FFF72BFE70BD2B4E0321300000F020
:1013500007FAE660FFF776FC284B03229C46D02371
:1013600022701B061B6801216370254B6044A3603B
:101370000F23800020610220638063694942A180BD
:1013800019800231198647311D83585218315A523B
:1013900075325C3999521832013199521832013143
:1013A0009952183201319952083518329D52023142
:1013B000183299521832013199521832013199522A
:1013C00018320131995218320131995218320131D3
:1013D00099520C4B0C49DC6001303562FFF770FC10
:1013E00001210320FFF75AFC084B1D60A7E7C04608
:1013F000E801002044060020004005404000003481
:10140000FFFF100030060020351000103860054046
:1014100000487047E801002070B501000469EFF34F
:10142000108C72B620680028FCD0BFF35F8F0220BA
:101430000D5E4C6968004019C0002418002D37DB90
:10144000208848800869BFF35F8F002606608CF310
:101450001088E36063880498013320615B04059879
:101460005B0CA26060611A1C002B1FD093B2280491
:10147000628018430A69EFF3108C72B61368002B70
:10148000FCD0BFF35F8F8B8823808D800B69BFF307
:101490005F8F00221A608CF310880B7801329A401B
:1014A000CB6808498C4663441A6070BD0122DDE7B1
:1014B0000B69BFF35F8F00221A608CF31088012044
:1014C0004042F2E73C20000010B543890A149342E1
:1014D0001ADD53009B184269DB00D3180469EFF34F
:1014E000108C72B62268002AFCD0BFF35F8F5A8836
:1014F000090494B2090C8A4208D00369BFF35F8FD4
:1015000000221A608CF31088002010BD8022120285
:1015100014435C80012302698371BFF35F8F002154
:1015200011608CF31088044902788C469340C2689D
:10153000012062441360E8E73C200000F0B5CE468D
:10154000474680B504000D0083B0EFF30587002FF8
:101550000DD0364A0020536A8B4203D3926A013081
:10156000A24250D303B0C0BCB946B046F0BD304B28
:101570009846DB689946434648461E7800F0FAF8DC
:101580000B00494602000436B600715820008E1A3E
:101590002900801A99418F4211DC0ED020BF234AC6
:1015A0000020536AAB42DDD3926A0130A242D9D205
:1015B000EB1A5A1E9341D8B2D4E78642EED900F016
:1015C000E1F822002B00121A8B41002B20DB0023B4
:1015D0000193184B2200009340462B00FFF71CFF9D
:1015E000011E15DD114B2E005A6A95421CD89B6ACC
:1015F000A34217D34046FFF767FF0C4A0020536A07
:101600009E42AFD8D0E75B1A5A1E9341D8B2A9E7E1
:10161000064A0020536AAB42A4D3926A0120A24238
:10162000A0D2C5E79542E5D120BFE3E700400540E1
:10163000E801002005100010F0B5CE464746110025
:1016400080B583B004009C460C9D194300D16EE028
:101650006146DB170193009353401E00019B4B40F2
:101660001F0000980199361A8F4163460A996B60F2
:101670000B9BAC606B6129612A6000F083F88023CA
:10168000801979411B06994202D301203149404219
:101690002269EFF3108972B61368002BFCD0BFF3F8
:1016A0005F8F0223E65E636972009219D2009B1875
:1016B000002E44DB1A88628022699046BFF35F8F58
:1016C000002247463A6089F31088234A9860D9601F
:1016D0001A615A885D6101325204520C111C002AB1
:1016E0002BD088B23204024359802069EFF310876F
:1016F00072B601680029FCD0BFF35F8FA188198002
:10170000A6802369BFF35F8F0021196087F31088DB
:10171000124823788446013199400120E3686344EC
:101720001960EA6003B0C0BCB946B046F0BD002302
:101730000126002701229C4697E70121D1E7236972
:10174000BFF35F8F00221A6089F310880020013AEE
:10175000E7E7C046FFFFFF7F351000103C20000088
:1017600010B5024A0248FFF7FDF910BDF829001034
:10177000F80500200300416A0A00986A596A8A4203
:10178000FAD17047034B596A0A00986A596A914224
:10179000FAD170470040054070B504000D00174AAB
:1017A000536A1900966A536A8B42FAD130001900C5
:1017B00024184D41AB4216D813D0104B2A005B6A57
:1017C0009D4203D90D494B6A9342FCD3934207D102
:1017D0000A4A02E0516A994202D1916AA142F9D3C0
:1017E00070BDA642E9D9054B5B6A1C005A1CEFD0BC
:1017F000012201246442E5175242E3E7004005401C
:10180000F8B5040006200D0000F076F9002842D05B
:10181000364B3749E21853425A418023DB039C463A
:101820009205344B62441A60334B1A6010000B6807
:101830009843FBD12D4B314AE31859424B4180214B
:101840005B0049000620995200F056F92900C000BB
:1018500000F0FEFA0130C3091ED140270122626266
:10186000A362266BF30722D4E36A254B0620E51812
:1018700000232B60266300F03FF93900800000F060
:10188000E7FA7023E26A5A400E3313402B601D4B77
:1018900023630323A364F8BD1B4A93421ED900238C
:1018A0001A4A1B4F6262A362266BF307DCD5194B01
:1018B000144AE3181A60656AA36A0620AD01ED18A0
:1018C00000F01AF9144900F0C3FAAD020100280033
:1018D00000F0BEFA0021FFF75FFFC5E74006800E6B
:1018E0009F011A003F180300B9E7C0460080FCBF03
:1018F00008C0004000E0004000F000404806002022
:101900002C10000001030000FEFF0000FFFF00009C
:10191000C0FF3F00303000004E0E0000F8B5DE463C
:101920004E4657464546E0B58B4605000A991800D5
:10193000160000F08DFA0A9B6C001F02324B6419EE
:101940009C46A4006444636881469F4200D9676056
:101950002B1FDBB29846012B30D9C02380229B017C
:10196000E31812011A60294BAD0059599A46002913
:101970001BD17301E026226853401E40802342465B
:101980005B01E3181E60012A30D9802380229B016D
:10199000E31812011A6053464A4667605A51F0BC78
:1019A000BB46B246A946A046F8BD586900F050FAB9
:1019B000013043001B18033BFDD2DAE75B46012BE5
:1019C000CBD1C02303229B01E3181A60023AA3681B
:1019D0001A42FCD07301E0262268AD0053401E403D
:1019E00080230A4A5B019246E3181E605A4621682A
:1019F000514003220A401A6001225B469A40A368C4
:101A00001A42FCD0C1E7C04600800040FC0500201F
:101A1000F0B546464F46D646C0B51F00344B44008D
:101A20009C462418A4006444636888461600FF2B73
:101A300002D880235B006360031FDBB29A46012B50
:101A400030D9C02380229B01E31812011A60294B70
:101A500085005959994600291BD17301E026226857
:101A600053401E40802352465B01E3181E60012A4A
:101A700030D9802380229B01E31812011A60802351
:101A80005B0063604B465F51E0BCBA46B146A84676
:101A9000F0BD586900F0DCF9013043001B18033B2E
:101AA000FDD2DAE74346012BCBD1C02303229B01B1
:101AB000E3181A60023AA3681A42FCD07301E026C8
:101AC0002268850053401E4080230A4A5B019146EC
:101AD000E3181E6042462168514003220A401A6002
:101AE000012342469340A2681342FCD0C1E7C0469E
:101AF00000800040FC050020014B8000C05870476A
:101B0000FC050020F8B5040020481D0017000E0059
:101B100000F09EF90100380000F09AF9069B2904B4
:101B20001B0319432368002B1EDB194B194DE218C8
:101B300053425A4180235B019C461203164B624478
:101B40001A60164B1A6017002B689F43FBD1144B89
:101B50002660E2182123A06013602368002BFCDAC2
:101B60000823E1601360F8BD3F2322681340B342AD
:101B7000DBD1A3681B051B0D8342D6D1EE22E3689F
:101B8000D20213408B42D0D1EDE7C046001BB70014
:101B90000040FDBF08C0004000E0004000F00040F1
:101BA000043000008023024A9B000B43D36270473D
:101BB00000800540142310B50100188804331B88E9
:101BC000984710BD162310B50100188802331B88F2
:101BD000984710BDF8B54746CE4680B50F1E19D0C0
:101BE00014239946043304000025012698464B46E9
:101BF0001888434621681B88984701C4431E9841B2
:101C0000013540420640AF42F1D13000C0BCB94678
:101C1000B046F8BD0126F8E7AA23064A1B01136067
:101C20008D235B00D3600449044B19605368002B7B
:101C3000FCDA70470040024000B0FA000060024049
:101C40007047C04610B50148FEF75EFF1C2A001021
:101C500070B5074D074EB54209D20024013E761BF0
:101C6000B60808CD984723000134B342F9D170BDBE
:101C70004829001084290010054B064A06491A60BD
:101C8000064A074B1A6010000B689843FBD1704757
:101C900000E00040BFCDFBFE08C00040FE7F3C00DE
:101CA00000F00040044BDB6C002B03D18022034B7F
:101CB000D2021A607047C046000011504C201150EB
:101CC000044A054B1A60054A1368DB018033FBD1D7
:101CD0007047C046FFFFFF0100F0004008C0004011
:101CE0004022034B9A675A671A67DA667047C04604
:101CF00000F0014010B5FEF7B1FF10BD70B5044D06
:101D0000044CA968C022200000F0D2F9AC6070BD7C
:101D100000ED00E000000020002310B5294C82B047
:101D2000A367FFF779FF0122274B1A60636C012B31
:101D3000FCD10322254B1A60224A936B012BFCD164
:101D4000013300930121224A22480433FFF7DAFECF
:101D5000052301210093204A2048FFF7D3FE0022EB
:101D6000022104201E4BFFF753FE00220121052013
:101D70001C4BFFF74DFE0022002107201A4BFFF7F6
:101D800047FE002200210820174BFFF741FE802369
:101D9000DB000093002200210920134BFFF7BEFD5A
:101DA0000022104B00210620FFF732FE0420FFF72F
:101DB000A3FE0E4900F04CF801000020FFF7F2FEF0
:101DC00002B010BD008000403CB0004030B0004088
:101DD000002F685900800240008C864700C00240F6
:101DE000001BB70040597307006CDC0240420F0033
:101DF00001480421014B184700020020D51B0010A8
:101E0000124A936F9B0815D29066D166002905D0BF
:101E1000FFE7FFE7FFE7516F106F704704B58021C0
:101E20000906C2175140002800D0C84300F07CFDCD
:101E3000002104BDF0B5146E556E576F166FFFF795
:101E4000E3FF1466556657671667F0BD000000D0C3
:101E5000114A936F9B0813D210665166002905D072
:101E6000FFE7FFE7FFE7516F106F704704B50028E9
:101E700001D00020C04300F057FD002104BDC04642
:101E8000F0B5146E556E576F166FFFF7E5FF1466C9
:101E9000556657671667F0BD000000D0132370B574
:101EA0001D78012D19D014DD1F48FFF78BFE0600A9
:101EB0001E48FFF787FE1E4C80223100200000F0F4
:101EC000F7F8022D2DD01B48FFF774FE1A4B18604F
:101ED00070BD1A4B164CA364F5E7184B144C2360E5
:101EE0006360A360E36023616361A361E3612362D4
:101EF0006362A362E36223636363A363E3632364B4
:101F00006364A364E36423656365A365E365236693
:101F10006366A366E36623676367A367E367A364F7
:101F2000D1E7064BA364CEE75344000053460000BC
:101F3000C00300204C33000040060020411F001069
:101F400007B5604601880A0A0230DF2AFAD1C9B211
:101F5000820804D3028840880004104300E000682F
:101F6000014A5050039007BDC00300204840414043
:101F700048400E4B5B6818470C4B1B6818470C4ACF
:101F8000936F9B0802D2094BDB681847F0B5146EBB
:101F9000556E576F166FFFF7F6FF054A14665566C4
:101FA00057671667F0BD014B9B681847C0040020B7
:101FB000000000D0491A002808D1084670470000E8
:101FC000C10FC90700D54042002817D0F44603B41A
:101FD0000B4B1B68984706BC81409E3840428031BD
:101FE00007D20B0607D04900490AC0051043084331
:101FF00060470130F8E7490A8902F5E770470000B9
:1020000040060020014B5B6A18470000C004002016
:10201000132310B512481C78FFF7D4FD0100012CE2
:102020000AD003DD80220F4800F042F80E48FFF787
:10203000C1FD0E4B186010BD0A4C5422200000F068
:1020400037F80B4B6365A365E36523666366A36698
:10205000E36623676367A367E3672362E361E5E7FA
:1020600053460000C00400204C330000400600200E
:102070007520001007B5604601880A0A0230DF2A81
:10208000FAD1C9B2820804D3028840880004104300
:1020900000E00068014A5050039007BDC0040020D2
:1020A00001480421014B184710020020D51B0010E5
:1020B000014B5B68184700001002002010B5002893
:1020C00000D110BD00F03AF9FBE7C04610B5094A4F
:1020D0000300146884B0002C08D001220091064847
:1020E000524203A9A047012004B010BD00F072F9CC
:1020F0000020F9E72C060020BD20001000BEFDE7FF
:1021000010B5FFF7FBFFC04670B5FFF7A1FD074D07
:10211000074EB54209D20024013E761BB60808CD11
:10212000984723000134B342F9D170BD84290010CF
:1021300088290010030010B5080011001B6898479B
:1021400010BDC046F0B546464F46D646C0B5437DA5
:1021500080460E001700002B4BD0002A32DD274BA3
:1021600001259A464B1E00240020994607E0335D66
:102170000A2B2CD02B0001340135BB4213DA002C82
:10218000F5D133780A2BF5D143461B7D002BF1D1D5
:102190004346504602211B68984728002B00013413
:1021A0000135BB42EBDB874204DD4346391A1B682D
:1021B00030189847F619013E33780D3B5A42534187
:1021C00042461375E0BCBA46B146A846F0BD4B4640
:1021D0001B5D0D2BCED0A042DADA4346211A1B68D4
:1021E000301898474346504602211B6898472800FC
:1021F000D4E70368110030009847E3E7C82A0010CD
:10220000F0B5DE4657464E464546E0B585B0170068
:102210001C0006000D00FFF7B5FA0023314A121822
:102220004B41802109068B4202D301222E4B5242A0
:102230002E4908008A4600F07FFB01906B1C03D1F9
:10224000300000F039FB0500002C26D0284B9846C2
:10225000284B1C68002C15D0002F21D1264F02E0FE
:102260002469002C0ED02368002BF9D03B68002B8A
:1022700001D0A342F4D120002A003100C0472469D4
:10228000002CF0D1019B002B28D1280005B0F0BC18
:10229000BB46B246A946A046F0BD184B9846D7E7C4
:1022A000154B994602ABDF1D0A239B4602E02469C9
:1022B000002CE7D02368002BF9D04B461B68002B7D
:1022C00001D0A342F3D12A0031002000C0475B4671
:1022D0000122390020003B70C047E8E7504600F07B
:1022E0001BFBD2E740420F00FFFFFF7F38020020B8
:1022F000452100102406002028060020352100106A
:102300000A4A1368002B05D10CE01A001B69103231
:10231000002B07D09842F8D1002902D1036913603D
:10232000016170470029FCD01060FAE72406002004
:1023300010B500F041F9012010BDC046F0B5CE4601
:10234000474680B583B06B460600DD1D2870FFF759
:1023500019FA00231A4A12184B41802109068B42B0
:1023600002D30122174B524217490800884600F059
:10237000E3FA164B81461C68002C14D0144F02E07F
:102380002469002C0FD02368002BF9D03B68002B68
:1023900001D0A342F4D1200001222900FFF7D2FE90
:1023A0002469002CEFD14B46002B05D1300003B03F
:1023B000C0BCB946B046F0BD404600F0ADFAF5E706
:1023C00040420F00FFFFFF7F38020020240600205C
:1023D0002806002070B5040000F06EFA0123010009
:1023E000050001222000FFF70BFF084B1C68002CA2
:1023F00006D06368002B05D098472469002CF8D1DB
:10240000280070BD2469002CF3D1F9E724060020D0
:10241000F0B5002915DD0E4B0D271A680D4B0E4C3B
:10242000D3185D426B41451820215B001E5F047884
:10243000A64207D093691942FCD101301460A8422A
:10244000F5D1F0BD93691942FCD11760F2E7C0469F
:102450004C0600200080FCBF4806002030B5040078
:102460000D1E2EDD002010211F4B013C1A689369C0
:10247000194216D1013093691942FCD113682354D3
:102480008542F4D1194B1B68002B08D0502393636D
:10249000516B183B0B4016498C4662441360280070
:1024A0000EE0124B1B68002B08D050239363516B36
:1024B000183B0B400E498C466244136000280FD035
:1024C00030BD0A4B1B68002B0AD05022064B1B68FC
:1024D0009A63596B183A0A4005498C4663441A605E
:1024E00003204042ECE7C0464C060020EC050020EB
:1024F00034100000064B10B51B68002B06D00021DD
:10250000044A12689163044A1068984710BDC04697
:10251000EC0500204C060020F00500200822034BAB
:1025200019688B691A42FCD17047C0464C060020DE
:1025300070B51B4E1B4B32680500D31858424341FF
:1025400014331C00002D04D0174B1A68002A11D038
:1025500070BD154E3368002BFAD000212000956322
:10256000FEF79CFB20001149FEF7D4FB104B3560B1
:102570001D60EDE71D600E4B200019600B49FEF752
:102580009FFB01212000FEF789FB502233689A63EC
:10259000596B183A0A4007498C4663441A60D7E7DA
:1025A0004C0600200080FCBFEC050020F524001044
:1025B000F0050020341000000D4B10B51B780D4BBA
:1025C0000D4C1B780D4B02211B780D4B0020236016
:1025D000FEF738FA02210120FEF734FAE1212068E3
:1025E0004902FFF70DF901210648FFF789FE10BDEA
:1025F000582B0010542B00104C060020502B0010BC
:102600000040034020020020F0B55746DE464E460B
:1026100045468846E0B583B006000524FEF78CFAEF
:10262000434684461C571879364B374AF3181B0D1E
:102630009B009246D75801228240013A002C42DB8F
:102640002021091A8C423BDC1100A14025000F42D9
:1026500036D14146096889464146897900294DD1DC
:10266000AA4093463A423FD1802189010022884600
:10267000002816D06146A44634004E469946030011
:1026800001915100705A404500D24019A9181231E9
:102690008900013208519A42F3D3019B64469C465B
:1026A0004B465A4617435246D7506046FEF750FAFB
:1026B000200003B0F0BCBB46B246A946A046F0BD20
:1026C00001246442F1E72024241A0DD41100A14012
:1026D00025008B46394205D109E01100A1402500B3
:1026E0000F42B6D0013CF8D209246442DDE74246ED
:1026F0001268914642469279002AB5D01424644269
:10270000D3E7C0460000E0AFDC050020F0B54E4640
:102710004546DE465746E0B583B089460CA9844657
:102720000D781F2A45D84946490088464944C900C2
:10273000461837003400DC373868CC3483462068CC
:10274000310001901C4880248246A40251440C6050
:1027500069424D411E216D428D4318498A465544B8
:10276000052B0CD9A0201F214005D8365401044365
:102770000532053B3C600A403560052BF6D8520116
:102780009B06134342464A44D20062441000DC32A6
:1027900013600300D8331D605B461360019BCC308F
:1027A0000360002003B0F0BCBB46B246A946A04679
:1027B000F0BD05204042F5E7CC3000009FE000006E
:1027C000F0B501258D400468AC430460002B2ED089
:1027D0004D006C18E400041926001F68C8363760E5
:1027E0009F68043677605F68DB68DC34376023609D
:1027F0006B18184DDB00AC468025C41864442D06C8
:1028000025602560144C0D1D8C4084600124260039
:10281000AE40802508318C401F21AD014519C018FC
:102820000A40D8302E602C6002600020F0BD4D00C0
:102830006C18E400041926008027C8367F02376030
:10284000C0273F03B760F82704367F02DC343760C7
:102850002360CDE7D01000000101010110B5064B47
:10286000064C82B00100009300220B232000FEF7EB
:102870009BF902B010BDC046142B0010E05E022090
:1028800001230121084A1360084A1360084A08001E
:1028900013689843FBD1074A1160802149001368EF
:1028A0000B42FCD07047C04600E0004000F0004002
:1028B00008C0004000C0044010B583070AD00300E0
:1028C000032102E001330B4205D01A78002AF9D126
:1028D000181A10BD030019680C4A0D4C8A188A4357
:1028E00022420FD15968094A04338A188A43224286
:1028F00008D15968054A04338A188A432242F1D024
:1029000000E001331A78002AFBD1E1E7FFFEFEFE6A
:1029100080808080F8B5C04601B40248844601BC7E
:10292000604700BF5D01002001B40248844601BC3D
:10293000604700BF8501002001B40248844601BC05
:10294000604700BFC1000020791C0010A51C0010CA
:10295000F11D0010A12000109D1E0010112000107C
:10296000191D0010C11C0010E11C0010F51C001006
:10297000AD0F0010FD1C001035130010411C00109D
:08298000790C0010FD020010AB
:102988009029001009FF0000A08047A000E022A0C5
:10299800C123A0800464046245000000AC29001033
:1029A8000EFF0000A08027A0C02001C0420049E01F
:1029B800C020860000E0C020C0205FE0C0388C0046
:1029C800D029001009FF0000A08027A0420000FFC6
:1029D80000FF00FF01FF01EC00C100000A2A2A2ABB
:1029E8002050414E4943202A2A2A0A000A000000A2
:1029F800486172647761726520616C61726D20252F
:102A08006420616C726561647920636C61696D65CD
:102A18006400000048617264206173736572740019
:102A280052656C6561736500626F6F74325F7732EF
:102A38003571303830000000322E312E3100000060
:102A48007069636F0000000052657369737469767A
:102A5800655F546F75636873637265656E00000027
:102A68004D61722031362032303235000600525026
:102A7800D3F07542282A001006005250E182887F60
:102A8800302A001006005250ABB36053402A0010A1
:102A980006005250BBFF3CB6482A001006005250B0
:102AA800861C0302502A0010060052505422A29D90
:102AB800682A001005005250DE65F468DC2C00100E
:102AC8000D0A00005541525420737464696E000069
:102AD80055415254207374646F75740055415254B3
:102AE80020737464696E202F207374646F7574008A
:102AF8000600525053B4F4A1E42A001008005250C2
:102B08001200000008005250921000004E6F20443E
:102B18004D41206368616E6E656C7320617265203B
:0C2B2800617661696C61626C6500000000
:102B3400742A0010802A00108C2A0010982A001091
:102B4400A42A0010B02A0010BC2A00100C2B00107C
:082B5400042B0010F82A001008
:102B5C00F0B5C646150000B504001E000268EFF380
:102B6C00108172B61368002BFCD0BFF35F8F042367
:102B7C00E356002B2DDB2268BFF35F8F0020106023
:102B8C0081F31088D0221206127852B290469A42E3
:102B9C0003D1002080BCB846F0BD00270BE02368B1
:102BAC00BFF35F8F1F6081F310882800310000F0A5
:102BBC0033F80028EDD12268EFF3108172B6136858
:102BCC00002BFCD0BFF35F8F23797F2BE7D94346D3
:102BDC0002E0D0231B061B6823712368BFF35F8FB1
:102BEC0000221A6081F310880120D3E70268EFF30A
:102BFC00108172B61368002BFCD0BFF35F8FFF23DC
:102C0C0003710368BFF35F8F00221A6081F3108891
:102C1C0040BF70477047C04601B40248844601BCAF
:102C2C00604700BF3D15001050060020100000004A
:102C3C000000000000000100000000000000000087
:102C4C000000020000000000000000000000030073
:102C5C0000000000000000000000FF000000000069
:102C6C0001B5486801318E46004770460938014964
:102C7C00884701BDE90E00100000000000000000B4
:102C8C0000000000000000000000000040020020D6
:102C9C00503300004C33000054330000523300001A
:102CAC004D5300004D4300005334000043340000EA
:102CBC00112400101D2500105D240010312500107A
:102CCC0000000000000100000000000000000000F7
:04000005100001E9FD
:00000001FF
