:020000041000EA
:1000000000B5324B212058609868022188439860DF
:10001000D860186158612E4B002199600221596106
:100020000121F02299502B49196001219960352056
:1000300000F044F80222904214D00621196600F024
:1000400034F8196E01211966002018661A6600F04E
:100050002CF8196E196E196E052000F02FF8012189
:100060000842F9D1002199601B49196000215960AB
:100070001A491B48016001219960EB211966A021F2
:10008000196600F012F800219960164914480160C1
:100090000121996001BC002800D000471248134993
:1000A000086003C880F30888084703B5996A0420EC
:1000B0000142FBD001200142F8D103BD02B5186610
:1000C0001866FFF7F2FF186E186E02BD00000240BE
:1000D000000000180000070000035F00212200005C
:1000E000F4000018222000A00001001008ED00E03C
:1000F00000000000000000000000000074B24E7A12
:1001000000200420F7010010C3010010C5010010F9
:10011000C1010010C1010010C1010010C101001097
:10012000C1010010C1010010C1010010C701001081
:10013000C1010010C1010010C9010010CB01001065
:10014000CD010010CD010010CD010010CD01001037
:10015000CD010010CD010010CD010010CD01001027
:10016000CD010010CD010010CD010010CD01001017
:10017000CD010010CD010010CD010010CD01001007
:10018000CD010010CD010010CD010010CD010010F7
:10019000CD010010CD010010CD010010CD010010E7
:1001A000CD010010CD010010CD010010CD010010D7
:1001B000CD010010CD010010CD010010CD010010C7
:1001C00000BE00BE00BE00BE00BE00BEEFF3058054
:1001D000103800BEF2EB8871C4680010EC680010A3
:1001E0003802001090A31AE71E481F49086006C88D
:1001F00081F3088810471D480068002801D019487D
:10020000F3E70DA40ECC002902D000F012F8F9E7B4
:100210001749184A002000E001C19142FCD116495B
:100220008847164988471649884700BEFDE701C937
:1002300001C29A42FBD37047EC680010C000002056
:10024000C8060020F46E0010000004200000042006
:10025000F46E0010001004200010042000000000C4
:10026000704700000000000008ED00E0000000D032
:10027000C8060020A00C002055560010011A0010DE
:100280004D560010F8B5C0460448054B10B58342E2
:1002900003D0044B002B00D0984710BDC8060020A7
:1002A000C80600200000000006480749091A8B1004
:1002B000C90FC91810B5491003D0044B002B00D04A
:1002C000984710BDC8060020C806002000000000A6
:1002D00010B5074C2378002B09D1FFF7D5FF054B4C
:1002E000002B02D0044800E000BF0123237010BDA2
:1002F000480A00200000000058620010054B10B5AD
:10030000002B03D00449054800E000BFFFF7CCFFF5
:1003100010BDC046000000004C0A002058620010CA
:100320000122A020064BC0051B6884469A4005495F
:100330009B014250044A63441268DA627047C04627
:10034000A80100200C040000B8010020012370B5B2
:100350001B4CA02022681B499340C00543501A4BF8
:1003600080219C4692016244490413680B42FCD1EF
:10037000164B174D1968286805F0B4FE01222B684A
:1003800000211A63A022D20594462368114A9B01DA
:10039000126863441A600A2002F02CF9D0238022EC
:1003A0001B0659689204114208D15A610A4A13681F
:1003B000013313600022094B1A6070BD9A61F5E7A2
:1003C000A80A0020440400000C000050700A00201D
:1003D000B4010020BC010020D80A00209C010020AC
:1003E000036810B5002B0AD1FA200121800002F029
:1003F000CFFD642002F012F902F0C0FDF9E79F463C
:10040000F0B5C646134B00B51B68002B21D1124B2B
:100410001B68002B1AD19846104D114E114F0FE05A
:1004200000223C0053009B189B00FB1820009B6897
:1004300098472A68336801322A600C349A42F1DB0B
:1004400043462B603368002BEADCFEE780BCB846ED
:10045000F0BD9F46EC0A0020F40A0020BC0A0020F0
:10046000F80A0020000B0020F0B5C646134B00B57B
:100470001B68002B21D1124B1B68002B1AD1984608
:10048000104D114E114F0FE000223C0053009B18FD
:100490009B00FB1820009B6898472A68336801324C
:1004A0002A600C349A42F1DB43462B603368002B00
:1004B000EADCFEE780BCB846F0BD9F46F00A0020AB
:1004C000F40A0020C00A0020FC0A0020780B00205B
:1004D00010B50F2900D977E03D4B89005B589F4646
:1004E00002235200134002881343038010BD0123EE
:1004F0001A40038813430380F8E70388D2031343A9
:100500000380F3E780239203DB011A4003881A4338
:100510000280EBE7802352039B011A4003881A43B1
:100520000280E3E7802312035B011A4003881A4329
:100530000280DBE78023D2021B011A4003881A43A2
:100540000280D3E780239202DB001A4003881A431B
:100550000280CBE7802352029B001A4003881A4393
:100560000280C3E7802312025B001A4003881A430B
:100570000280BBE7FF23D2011340028813430380AC
:10058000B4E7402392011340028813430380ADE790
:10059000202352011340028813430380A6E710234F
:1005A000120113400288134303809FE70823D200FF
:1005B000134002881343038098E7042392001340FA
:1005C00002881343038091E7024805F0DBF98DE7C9
:1005D0008062001058620010F0B5DE4657464E4665
:1005E00045468346E0B587B0080024220291C749FA
:1005F00003F00AFD5B46C64A1B88934200D1E7E13F
:1006000001218946002102260025002400278A4670
:100610000192C04A0492C04A0392EDB20F2D0FD846
:10062000BE4AAD0052599746002459465A460137F2
:100630007B00D218CB5A01998B4226D0182F24D098
:100640000025B046DE0B464500D1B3E001239946B4
:1006500053465A00029B9C46E3B262440F2B00D9DA
:1006600012E103999B00CB589F46118873000B43FE
:10067000138001340F2DD8D0013559465A467B00DE
:10068000D218CB5A01998B42C7D116005546013575
:100690006D00E3B20F2B00D9F1E00134102CF8D13A
:1006A0003388029A535307B0F0BCBB46B246A94602
:1006B000A046F0BD1188B3000B4313800134D9E785
:1006C0001388F1000B4313800134D3E71388F10240
:1006D0000B4313800134CDE7118833030B431380A0
:1006E0000134C7E7118873030B4313800134C1E75A
:1006F0001188B3030B4313800134BBE713883343E2
:1007000013800F2CDAD101239C46E2440F2D00D137
:100710008AE759465A467B00D218CB5A01990135CF
:100720008B4200D1B8E0EDB20F2D00D914E1049A4C
:10073000AD00525997461188F3010B4313800134E1
:1007400098E7138871010B431380013492E71388F3
:10075000B1010B43138001348CE7138831010B4343
:100760001380013486E7138871020B431380013430
:1007700080E71388B1020B43138001347AE71388B2
:1007800031020B431380013474E71E0001230299E8
:1007900052468C469946520062441388F1030B433B
:1007A0001380013466E7012200240F251340B34271
:1007B000EBD1B04601239C46E1444B464646052B0F
:1007C00000D045E753465B00994602983200484402
:1007D000E1B20590FFF77CFE0F2C2CD0631C1A00B1
:1007E000631C28D0012373409BB21600D1B2059838
:1007F0001A009846FFF76CFE0F2E00D0F1E001239F
:100800009C46E2440F2D00D1C8E059465A467B0071
:10081000D218CB5A3E498B423ED0013DEDB20D2D50
:1008200000D926E13E4AAD0052599746B04601260E
:100830000F251E4007E7012301269C4643467340CF
:100840009EB2029B4846E2449C46023032000021A0
:100850006044FFF73DFE01240F2D03D00123013535
:1008600099460AE759465A4601377B00D218CB5AB7
:1008700027498B4200D108E701218946DEE6294855
:1008800005F080F8013404E72648013405F07AF8D1
:10089000002C00D137E7EDE616000024F6E6B0465E
:1008A00000249B070E25DE0FCDE6B04600245B0733
:1008B0000D25DE0FC7E6B04600241B070C25DE0F12
:1008C000C1E6B0460024DB060B25DE0FBBE6B046D2
:1008D00000249B060A25DE0FB5E6B04600245B0621
:1008E0000925DE0FAFE6B04600241B060825DE0F03
:1008F000A9E6B0460024DB050725DE0FA3E6B046D7
:1009000000249B050625DE0F9DE6C046780C0020DE
:10091000FFFF00004063001000630010C062001081
:100920008063001058620010B04600245B05052566
:10093000DE0F88E6B04600241B050425DE0F82E6A4
:10094000B0460024DB040325DE0F7CE6B04600241D
:100950009B040225DE0F76E6B04600245B040125E9
:10096000DE0F70E6B046F9E7B046F1E7B046E9E7DA
:10097000B046E1E7B046D9E7B046C2E7B046BAE7CD
:10098000B046B2E7B046AAE7B046A2E7B0469AE75B
:10099000B04692E7B0468AE7B04682E75A465946E3
:1009A00001377B00CE5AD218344B9E4200D173E7F8
:1009B000182F00D170E70025F60BB0450DD0534637
:1009C0005A00029B2C009C46012362449946E4E6AF
:1009D0005B4602251E0000245BE6022300249946A4
:1009E00036E60234002C00D109E7464634E70122FE
:1009F000002491465BE70122002491465DE7012235
:100A0000002491465FE701220024914661E701221C
:100A10000024914663E701220024914665E7012204
:100A20000024914667E701220024914669E70122EC
:100A3000002491467AE70122002491467CE70122B6
:100A4000002491467EE701220024914680E701229E
:100A50000024914625E701210B401E000F25434548
:100A6000BBD053465A00029B00249C4689466244F0
:100A700093E601220024914670E7C046FFFF000084
:100A80009E4BF0B545469846DE4657464E46424692
:100A90009B4BE0B51B889B4913809B4B83B01F7811
:100AA0009A4B101D1C783A0024023C437F0803F047
:100AB000ABFA7B1C9946964B80229C464B46954947
:100AC00000936346002694485C4043464546B3463F
:100AD0000700A4B25C8001943C0028887F00444059
:100AE000240A030A224200D105E14F40BFB25C0054
:100AF000E4B2A1463C12A2464C46564674407F00E2
:100B0000224200D1F5E04F40BFB29C00E4B2A146C2
:100B10003C12A2464C46564674407F00224200D109
:100B2000E5E04F40BFB2DC00E4B2A1463C12A24671
:100B30004C46564674407F00224200D1D5E04F40DB
:100B4000BFB21C01E4B2A1463C12A2464C46564636
:100B500074407F00224200D1C5E04F40BFB25C012B
:100B6000E4B2A1463C12A2464C46564674407F0071
:100B7000224200D1B5E04F40BFB29C01E4B2A14691
:100B80003C12A2464C46564674407F00224200D199
:100B9000A4E04F40BCB2A1464C46DB01DBB22712B9
:100BA0005F4063003A4200D196E04B409BB21F1277
:100BB000C0B247405B003A4200D18BE04B409BB251
:100BC00044001F12E4B267405B003A4200D17FE06C
:100BD0004B409BB284001F12E4B267405B003A4274
:100BE00000D173E04B409BB2C4001F12E4B26740D7
:100BF0005B003A4268D04B409BB204011F12E4B242
:100C000067405B003A425DD04B409BB244011F12EB
:100C1000E4B267405B003A4252D04B409BB2840141
:100C20001F12E4B267405B003A4247D04B409BB290
:100C3000C0011F12C0B247405B003A4215D00120EC
:100C40000F0081461BB200985F40CB44BFB2023513
:100C5000584500DB40E7314D3800019CAB4200D1E4
:100C60002FE7009B994601330BE09FB20123994681
:100C7000009BCB4402355B4500DB2DE738009946ED
:100C8000013342464F465B00D052012302375B429C
:100C9000404623497F00D353FFF79EFC214BA02100
:100CA0001A68012393408622C905D2008B5003B0F5
:100CB000F0BCBB46B246A946A046F0BD9BB2B7E722
:100CC0009BB2ACE79BB2A1E79BB296E79BB28BE7E6
:100CD0009BB27FE79BB273E79BB268E7BCB2A146C9
:100CE0005AE7BFB249E7BFB239E7BFB229E7BFB29F
:100CF00019E7BFB209E7BFB2F9E6C046580C0020B9
:100D0000E2010020C0010020E0010020E1010020FC
:100D10000080FFFF0580FFFFFFFF0000FA7F00005B
:100D2000340C0020A80A0020F0B5DE4657464E4697
:100D30004546E0B5036887B0002B6DD1FA20012746
:100D4000C00001F06BFC354B354D9A46354B364EA5
:100D50000593364B364C9946364B0393364B9846A3
:100D6000364B0493364B9B46364B0193364B0293DE
:100D70002B68002B2CD03760FFF782FE2B68013BDD
:100D80002B6005F0DDF94004400C208005F0D8F917
:100D90004004400C608005F0D3F94004400CA08072
:100DA00005F0CEF94004400CE08005F0C9F9FA21C5
:100DB0004004400C208128688900013002F076FA56
:100DC000002919D03368002BFCD12B68002BD2D11D
:100DD000FA20400001F022FC53465846196804F0FE
:100DE00059FE4B460198196804F054FE4346029898
:100DF000196804F04FFEBBE753460598196804F0E4
:100E000049FE4B460398196804F044FE4346049893
:100E1000196804F03FFED5E79F46C046D80A002077
:100E200098010020B86300109C010020D40A002023
:100E3000C0010020C4630010D00A0020D463001059
:100E4000E4630010F86300101064001010B5072967
:100E500038D81E4B89005B589F460223520013402E
:100E600002781343037010BD01231A400378134323
:100E70000370F8E70378D20113430370F3E74023CC
:100E800092011340027813430370ECE720235201D0
:100E90001340027813430370E5E710231201134057
:100EA000027813430370DEE70823D2001340027870
:100EB00013430370D7E704239200134002781343CF
:100EC0000370D0E7024804F05DFDCCE72864001011
:100ED00058620010F0B5DE4657464E4645468346FA
:100EE000E0B585B0080001912422B34903F08CF8E5
:100EF0005B461B78FF2B60D00022022700250024D0
:100F0000002692469146AD4A0392AD4A0292E4B25F
:100F1000072C33D8AB4AA40012599746019A9B0676
:100F20004A44002502249046DB0FBB4200D08DE0EE
:100F300001239C46E2445346052B29D13A00404602
:100F4000E9B2FFF783FF072D02D00135002D03D151
:100F500001239C460025E144072C00D182E0062CA9
:100F600000D021E101235F405B4601369B5DFFB26B
:100F7000FF2B22D001229246242E1ED0019A4A44F1
:100F800090460024DB09BB42D2D01F0001239A46C1
:100F9000EBB2072B5FD8029A9B00D3589F467B0089
:100FA000424612780135134342461370072C16D07F
:100FB00001345B469B5DFF2BA9D105B0F0BCBB465D
:100FC000B246A946A046F0BDBB00E9E7BA014346D8
:100FD0001B781343424613700135072CE8D15B465A
:100FE00001369B5DFF2BE8D0242ECAD1E5E74346AE
:100FF00042461B783B431370072DEDD101239C46DD
:10100000E144072C12D05B469B5D0134FF2BD4D00A
:10101000E4B2072C00D98CE0039AA4001259974639
:101020003A01D4E7FB00BBE77A01D0E75B46013623
:101030009B5DFF2BC1D0242EBFD0019A00254A44CE
:1010400000249046DB09BB4200D171E71F00012359
:101050009A46FB01A4E75C48013504F093FC002D9F
:10106000CCD0A3E75B4601369B5DFF2BA5D0242E99
:10107000A3D0012292465740FFB2019A5B064A4430
:1010800001249046DB0F7EE7019A9B074A44002526
:1010900006249046DB0FBB42D8D101239C46E24494
:1010A0005346052B00D073E748E7019A5B074A4493
:1010B000002505249046DB0FBB42C7D101239C4687
:1010C000E2445346052B00D062E737E7019A1B073D
:1010D0004A44002504249046DB0FBB42B6D10123CD
:1010E0009C46E2445346052B00D051E726E7019A7F
:1010F000DB064A44002503249046DB0FBB42A5D102
:1011000001239C46E2445346052B00D040E715E7F7
:1011100001221340019A00254A4407249046BB420D
:1011200094D101239C46E2445346052B00D02FE77F
:1011300004E7019A5B064A44002501249046DB0F30
:10114000BB4283D101239C46E2445346052B00D089
:101150001EE7F3E601221340019A07244A44904611
:1011600011E7019A9B064A4402249046DB0F0AE7E6
:10117000019A9B074A4406249046DB0F03E7019A35
:101180005B074A4405249046DB0FFCE6019A1B07E7
:101190004A4404249046DB0FF5E6019ADB064A44F4
:1011A00003249046DB0FEEE601235F400123023467
:1011B0009A46FFB2FDE6C046780C00208864001015
:1011C000686400104864001058620010F8B5C14B04
:1011D000DE4657464E4645469B461900E0B5BE489A
:1011E000FFF778FE5B461A78322A08D00020552A8D
:1011F00005D0F0BCBB46B246A946A046F8BD5B464A
:101200005F78342F02D00020552FF2D15B46DB7877
:10121000102B00D92FE10333DBB29C465B46002143
:101220009D1CAE4B8A46803118125040014200D0BE
:101230001CE1580080B254000312E4B26340400045
:10124000194201D0A64B584080B294000312E4B278
:101250006340194200D038E1400080B2D40003124C
:10126000E4B26340194200D02AE1400080B2140188
:101270000312E4B26340194200D01CE1400080B286
:1012800054010312E4B26340194200D00EE1400061
:1012900080B294010312E4B26340194200D000E12D
:1012A000400080B2D2010312D2B253404000194232
:1012B00000D0F2E083B2181278402A785B00014235
:1012C00000D1E8E0864843409BB278001C12C0B2CF
:1012D00060405B00014200D1DBE0814843409BB2AB
:1012E000B8001C12C0B260405B00014200D1CEE0E9
:1012F0007B4843409BB2FC001812E4B260405B00A4
:10130000014200D1C1E0764843409BB23C01181233
:10131000E4B260405B00014200D1B4E07048434059
:101320009BB27C011812E4B260405B00014200D124
:10133000A7E06B4843409BB2BC011812E4B2604086
:101340005B00014200D19AE0654843409BB2FF0137
:101350001812FFB278405B00014200D18DE0604876
:1013600043409BB202245046A04603306F78C244EB
:101370000235844500DD57E75D46802158485544D5
:1013800000E06F782A781C1254405B00214200D0A4
:10139000434054009BB2E4B2A0461C12A14644460E
:1013A0004E4674405B00214200D0434094009BB203
:1013B000E4B2A0461C12A14644464E4674405B006F
:1013C000214200D04340D4009BB2E4B2A0461C129C
:1013D000A14644464E4674405B00214200D0434043
:1013E00014019BB2E4B2A0461C12A14644464E46EC
:1013F00074405B00214200D0434054019BB2E4B2F0
:10140000A0461C12A14644464E4674405B00214251
:1014100000D0434094019BB2E4B2A0461C12A14606
:1014200044464E4674405B00214200D043409BB28C
:10143000D2011C12D2B262405B00114200D0434084
:1014400001229046C2449BB20135E24599DD00205D
:101450001A0A974200D0CCE65C46FF226444A0788A
:101460001340C01A43425841C0B2C2E61C485B0058
:10147000584080B2DFE60020BBE69BB272E79BB229
:1014800065E79BB258E79BB24BE79BB23EE79BB246
:1014900031E79BB224E79BB217E7114B43409BB265
:1014A00009E743000E48584080B2FBE643000C4871
:1014B000584080B2EDE643000948584080B2DFE66C
:1014C00043000748584080B2D1E6430004485840E2
:1014D00080B2C3E6140C0020F00B0020FFFF0000D8
:1014E0000580FFFF0120164B70B51A68A0249040BC
:1014F000144BE4051860144B8021E050134B92010B
:101500009C4615194904624413680B42FCD1104BE8
:10151000E050104B1860104B1B68EB62FFF756FE53
:10152000002808D00D4A13680133136001220C4BC8
:101530001B681A6370BD0B4A136801331360F5E72B
:10154000A801002004340050440400000C000050A6
:101550000C04000004240050B8010020D40A00202C
:10156000B0010020D00A0020F0B5D6464F464646CE
:10157000C0B5454F8AB04549386804F039FC444B42
:10158000802299461B685202984600239A4605938A
:10159000F8235B02060002920393C02302A91B03F7
:1015A000102206A8741D3D680493240302F02CFD4C
:1015B000F3011C43102206A902A8079402F024FD9F
:1015C000344B07201C40E023DB0423430393E02338
:1015D0001B030493A023DB0202932F4BE918090D90
:1015E0000631C9B200F08CFA5346414600930722F7
:1015F0002800013304F0CEFC3200414602AB280043
:1016000004F022FD0120414602008A402B683C681C
:1016100093432B60022323634B461D680300AB40BA
:1016200022681E4F134323601D4B04351A681D4B5F
:10163000D6021B6837409846D9021B4B0F431F4305
:10164000A023DB059C46AD00184B9201624464194F
:101650001360546090601761154A43461140154A63
:1016600031430A43A021C9058C469B0112496344BA
:101670001960124959609860DA600AB0E0BCBA4655
:10168000B146A846F0BDC046B40100208C650010EC
:10169000AC010020FFFFFFE00000E0AFFD0700FF0E
:1016A000A4010020A001002009800000E401002026
:1016B000FD871FFF09801F00B40A0020B00A002028
:1016C000F0B5DE4657464E464546E0B589B0039034
:1016D000162000F02FFAD0231B0699468023DB0347
:1016E0009A464B4652465A629A61FFF73DFF434B7A
:1016F00043499846186804F07BFB43461D68414BFC
:10170000C2011E689B46404B070007930300193334
:101710001B0313433D4A06201340E022D204134327
:1017200005933B4B0693A023DB020493394BEC1843
:10173000240D0634E4B2210000F0E2F92100012476
:10174000072000F0DDF93100009401230622280073
:1017500004F020FC0023310000930722013328000D
:1017600004F018FC31002800402204F0C3FB3A00CA
:10177000310004AB280004F067FC2200B2402B6863
:10178000039993432B60244A4346944680221B6866
:1017900052001C6363441A60072000F085FA01219F
:1017A000072000F063FA1D4B1D491B68DA020A404E
:1017B00015210A434146086859460D68A021C9050C
:1017C0008C4618499B01096863441960291D8900EA
:1017D000411859601221AC4099601A6103681C439A
:1017E0000460012000F01AFF4B4652465A6109B0CE
:1017F000F0BCBB46B246A946A046F0BDB4010020ED
:1018000050650010700A002006001000FFFFFFE086
:10181000000004200000E0AF2C210000A80A0020F6
:10182000FD7F00FFBC01002070B51A48FFF748FF9C
:10183000D0231B061B68012B16D017490B68092BF8
:1018400005DD0022154B1A60FEF7DAFD70BD5A0067
:101850001348D2189200134D84186360A5600024C9
:10186000013384500B60ECE70F490B68092B0BDC4C
:101870005A000E48D21892000A4D84186360A56081
:101880000024013384500B600022094B1A60FEF7DC
:10189000EBFDDBE74D030010F80A0020EC0A002006
:1018A000000B0020290D0010FC0A0020780B0020FE
:1018B000F00A0020F0B5CE46474680B5444D87B0CB
:1018C00080464449286804F093FA434FC2013B68BC
:1018D0002E689946E0239B020593030019331B03EE
:1018E00013433E4A04001340E022D20413430393FF
:1018F00089231B040493A023DB020293384B0720A7
:10190000F118090D0631C9B200F0FAF80023494672
:10191000009307223000013304F03CFB2200012435
:10192000494602AB300004F08FFB494622008A4052
:101930003368414693432B4A3360944680222B6898
:1019400052001C6363441A60092000F0ADF90121C4
:10195000092000F08BF9244E244A31682448CB0238
:101960001340A022D20594463A68184308329200E8
:101970009146204B2A681B6898468B016344944625
:101980004A4662441A6042465A6024229A60220003
:101990008A401861184B0B201A60184900F084F92E
:1019A00001210B2000F062F920003B682A68984072
:1019B000030011680B4313603368A0229C40862308
:1019C000D205DB00D45007B0C0BCB946B046F0BD6C
:1019D000B0010020146500106C0A0020FFFFFFE03A
:1019E0000000E0AF2C210000A8010020FD7F00FFD7
:1019F00021000600B801002004240050210300103B
:101A000030B585B0304803AB02AA01A901F05EF9F8
:101A1000002803D12D482C4900F0ACF8039A029914
:101A2000019801F077F803F05BFF01F0F5FA002868
:101A300030D1274803F0A6FF264803F0A3FF192062
:101A400000F078F8D024802324069B046362A3610D
:101A500004F030F9204804F09FF92048FFF72AFFEE
:101A60002368012B1AD01E4A1368092B0ADC0C20AC
:101A700058431C491C4D0C186360A56000240133B9
:101A8000445013600022194B1A60FEF7B9FC002085
:101A900005B030BD164803F075FFCDE7154A136851
:101AA000092B05DD0022144B1A60FEF7DDFCEEE782
:101AB0000C20584311490C4D0C186360A56000249C
:101AC000013344501360EDE700710200A864001078
:101AD000F46400100065001029180010E5140010CF
:101AE000F80A0020000B0020E1030010EC0A00209F
:101AF000DC640010FC0A0020F00A0020780B0020B3
:101B0000094A83009A1810B5146840225440803264
:101B10002240064CC000A44663441A60044B9C4615
:101B20006044416010BDC04604C0014004D0014083
:101B3000004001400123D02283401206936293614A
:101B4000094A83009A1811684022514080320A40A5
:101B50000649C0008C4663441A60054B9C46052329
:101B6000604443607047C04604C0014004D0014057
:101B7000004001400FB400B5084883B003F002FFF5
:101B8000049B002B07D005A91800019103F044FD28
:101B9000034803F0F7FE012003F056FDA065001096
:101BA00024640010EFF3108072B6034A1368002B10
:101BB000FCD0BFF35F8F70472C0100D0BFF35F8F65
:101BC0000022024B1A6080F3108870472C0100D06D
:101BD00070B5EFF3108C72B60D4D2B68002BFCD056
:101BE000BFF35F8F0724CB08C618C05C01230C40ED
:101BF000A3401C000440034207D118433070BFF3D8
:101C00005F8F2C608CF3108870BD1000FFF7B2FF5F
:101C10002C0100D0044A1078431CDBB2172B00D9EA
:101C2000102313707047C046E80100200021044BC8
:101C3000044ABFF35F8F02C39342FAD17047C04694
:101C4000000100D0800100D0054B064A1360064A0F
:101C5000136053609360D360136153619361704765
:101C60008080808000E400E004E400E01F2318404E
:101C70001E3B8340002905D0C021044A490053502F
:101C800013607047802201498B50FAE700E100E0C1
:101C900001228240034B1B6813405A1E9341D8B265
:101CA0007047C04600E100E070B50D00EFF310860C
:101CB00072B60F4A1368002BFCD0BFF35F8F0D4B39
:101CC00010309B6884001B590B4A934203D09D42FD
:101CD00001D001F0F9F9074B9B681D51BFF35F8FED
:101CE000BFF35F8F0022024B1A6086F3108870BD2D
:101CF000240100D000ED00E0CD010010F0B5DE467B
:101D000057464E464546E0B50C0083B0EFF31088C9
:101D100072B6634A1368002BFCD0BFF35F8F614B30
:101D200061499A68030010339F00D55900938D4292
:101D300043D0A54254D05D4EAA1B2F2A3DD85C4B00
:101D40009C461B689A4601231A00994682405346D6
:101D500013401F2201934B46024093409A46802233
:101D6000634650469850BFF35F8FEFF305839B4661
:101D7000002B37D0009B5B4501D001F0A5F92A006C
:101D80004B469A439068844208D177E04B005B1839
:101D90009B00F3189868844236D01A0006215156E9
:101DA0000029F3DA844255D0019B002B27D0C022B2
:101DB00051463F4B5200995019603A4B9B68DD5198
:101DC000BFF35F8FBFF35F8F0022354B1A6088F33C
:101DD000108803B0F0BCBB46B246A946A046F0BD91
:101DE0000D00EAE72A004B469A4390688442D5D119
:101DF00006201056130000280ADA0D0032E0802376
:101E000051462B4AD150D8E706201856002822DB2D
:101E100042001118890074188946A1689960E17917
:101E2000D971062161569971002925DBA488F11A20
:101E3000640524154C440919E0240905490D2402C0
:101E40002143998013181B4A9B001178F31899714C
:101E50001070A9E713005946002914D1FF31917180
:101E60001549918013490A789A71144A9B1B5B416A
:101E70005A43120D0A7097E71149E2E706201056FF
:101E800013000028C4DA0F4A0F49D21A083A500248
:101E9000400D014399800D4952080A43DA8083E7D7
:101EA000240100D000ED00E0CD010010EC01002085
:101EB00000E100E09C0C002001BDFFFFAAAA000089
:101EC00001BD00002602002000F0FFFF00F8FFFF28
:101ED00070B501240443EFF30581EFF3108C72B663
:101EE000214A1368002BFCD0BFF35F8F1F4B050006
:101EF0001F4AED1A6D416A43120D1E4D8900AE68EE
:101F000052B27658A6421CD00621595691421CD096
:101F100012215956914222D01E215956914220D069
:101F20002A2159560324914210D0134B19781A7064
:101F30008171BFF35F8F00220B4B1A608CF3108806
:101F400070BDAB680D4C5C50EFE7002461000919CF
:101F500089005B18FF21997109499980E5E70124FF
:101F6000F4E70224F2E7C046240100D0EC0100208F
:101F7000AAAA000000ED00E09C0C0020CD0100109A
:101F800001BDFFFF024B9C46614489000160704720
:101F900040000034F8B5134D134E2C00FF27B54216
:101FA0001ED22368002B0FD0FFF734FE010028005B
:101FB000FFF7E8FFA780BFF35F8F0834B4420FD26A
:101FC00023682500002BEFD1FFF724FE0100280035
:101FD000FFF7D8FF2771BFF35F8F0834B442EFD308
:101FE000F8BDC046B8060020C80600200A4B196894
:101FF000EFF3108072B60A68002AFCD0BFF35F8F3F
:102000001B68BFF35F8F00221A6080F3108840BF07
:10201000002000217047C046300C0020F0B5DE469D
:1020200057464E464546E0B585B0EFF3058203239B
:102030001340B64A9900575801229A408846934661
:10204000B34B1A60B34B02935B46B3484363082318
:10205000FE5E002E35DABB881BB2002B00DBA8E049
:10206000BB79002B00D0E9E00823F85E00281EDBD6
:1020700043007A691B18DB00D3189D68DC686B1C71
:1020800000D108E1A44801004144826A0B69AE1AFC
:102090009B1A9E4213D35A46036A1A420FD09E4897
:1020A00000F060FB8C4202DCCED18542CCD940BF2F
:1020B00005B0F0BCBB46B246A946A046F0BD0D61D6
:1020C000EDE77A69730091469B19DB0099444B4612
:1020D0009C68DD6800F046FB8D42BCDC00D1FEE070
:1020E000002D00DAE3E04B46029A1B69934200D1CF
:1020F000D5E04A465288494694460822B85E624670
:102100000004496910439847009001910099019A91
:102110000B001000134300D1C9E013000A0000288F
:1021200000DBE0E020002900801A99414B469860CE
:10213000D96000229A5E002A00DA8CE753009C18CE
:102140007D69E4002C190093A368E4689A468C42E8
:1021500000DD80E702D1834200D97CE708239C465A
:10216000BC443A8103976746009BB4463E000EE0AC
:102170008C4200D1C5E01E000023F25E002A0BDB7A
:1021800053009C18E4002C19A768E468BA469B1811
:10219000DB00EB188C42EBDD330066469C464B4679
:1021A0001A806346039F1E80BB881BB2002B00DA97
:1021B00056E73A69EFF3108172B61368002BFCD032
:1021C000BFF35F8F0123BE885B42BB8036B23B69A1
:1021D000BFF35F8F00221A6081F31088002E00DAAF
:1021E0003EE73B0008333A0099467D6973009B192E
:1021F000DB00EB189968DC688C460820115E4846C5
:10220000002910DB009306E0A34240D00023F95ED2
:102210003800002906DB4F007F18FF00EF19FB682C
:10222000A342F1DD009B068000201E5E1980002E77
:10223000DCDA1700BB79002B00D115E70023BB7156
:102240003D000823F95E08354B1C00D12FE77C695F
:102250000800A44603E035004B1C00D106E74B0004
:102260005B180A006146DB00CE18C95E73881BB29A
:10227000002BF0DA01235B42DC17B360F46082428A
:10228000EAD029803B89100033803A81E4E7BB68BB
:102290006345BBD9C6E7631C00D0F3E6FFE64B46B7
:1022A0005B699A461B6950469847002823D14B46E4
:1022B0001B883A693B81EFF3108372B611680029DD
:1022C000FCD0BFF35F8F49467A880A803A697E80E6
:1022D000BFF35F8F0021116083F31088BBE6844257
:1022E00000D8FDE6B7E60C4800F03CFA009B019CE4
:1022F000C01861411AE753461A685B68009201935F
:1023000004E7824500D836E746E7C046DC0A0020ED
:102310003C7005401D2000100040054070B52E4C5B
:102320002569002D04D00A212C48FFF72BFE70BD33
:102330002B4E0321300000F00BFAE660FFF76AFC39
:10234000284B03229C46D02322701B061B680121C8
:102350006370254B6044A3600F238000206102203E
:10236000638063694942A18019800231198647312F
:102370001D83585218315A5275325C3999521832AD
:102380000131995218320131995218320131995262
:10239000083518329D5202311832995218320131E3
:1023A000995218320131995218320131995218322A
:1023B000013199521832013199520C4B0C49DC60B1
:1023C00001303562FFF770FC01210320FFF74EFC5E
:1023D000084B1D60A7E7C04634020020300C0020E7
:1023E0000040054040000034FFFF1000DC0A0020E0
:1023F0001D2000103860054070B501000469EFF33E
:10240000108C72B620680028FCD0BFF35F8F0220CA
:102410000D5E4C6968004019C0002418002D37DBA0
:10242000208848800869BFF35F8F002606608CF320
:102430001088E36063880498013320615B04059889
:102440005B0CA26060611A1C002B1FD093B22804A1
:10245000628018430A69EFF3108C72B61368002B80
:10246000FCD0BFF35F8F8B8823808D800B69BFF317
:102470005F8F00221A608CF310880B7801329A402B
:10248000CB6808498C4663441A6070BD0122DDE7C1
:102490000B69BFF35F8F00221A608CF31088012054
:1024A0004042F2E73C20000010B543890A149342F1
:1024B0001ADD53009B184269DB00D3180469EFF35F
:1024C000108C72B62268002AFCD0BFF35F8F5A8846
:1024D000090494B2090C8A4208D00369BFF35F8FE4
:1024E00000221A608CF31088002010BD8022120296
:1024F00014435C80012302698371BFF35F8F002165
:1025000011608CF31088044902788C469340C268AD
:10251000012062441360E8E73C200000F0B50400AD
:102520000D0006267642F717C64636196F4100B5EC
:1025300082B08F4214D811D000F01CF932003B0059
:10254000121A8B41002B17DC002B47D020002900EA
:1025500000F04EF902B080BCB846F0BD8642EBD91F
:102560000022002316001F0000F004F932003B0097
:10257000121A8B41002BE7DD00F0FCF832003B0023
:10258000121A8B41002B0ADB00230193154B3200FA
:10259000009315483B00FFF72FFF0028D6DB0023F0
:1025A0009C46B046114A124E736A9F4204D8B16AE3
:1025B0004145CBD29F42C9D11168EFF3108072B66A
:1025C0000B68002BFCD0BFF35F8F1368BFF35F8FE6
:1025D0006146196080F3108820BFE5E7002AB5D076
:1025E000CAE7C046ED1F001034020020300C002066
:1025F0000040054070B504000D0000F0BBF88023DA
:10260000001969411B06994202D301200249404248
:10261000FFF784FF70BDC046FFFFFF7F70B5060067
:1026200000F0A8F8FA2204000D0000233000002179
:10263000920001F07FFC8023001969411B0699423A
:1026400002D3012002494042FFF768FF70BDC04637
:10265000FFFFFF7FF0B5CE46474680B504000D0072
:1026600083B0EFF30587002F0DD0364A0020536A60
:102670008B4203D3926A0130A24250D303B0C0BC54
:10268000B946B046F0BD304B9846DB6899464346A4
:1026900048461E7800F066F80B00494602000436F2
:1026A000B600715820008E1A2900801A99418F4275
:1026B00011DC0ED020BF234A0020536AAB42DDD389
:1026C000926A0130A242D9D2EB1A5A1E9341D8B273
:1026D000D4E78642EED900F04DF822002B00121A02
:1026E0008B41002B20DB00230193184B2200009329
:1026F00040462B00FFF780FE011E15DD114B2E001A
:102700005A6A95421CD89B6AA34217D34046FFF7EA
:10271000CBFE0C4A0020536A9E42AFD8D0E75B1A2A
:102720005A1E9341D8B2A9E7064A0020536AAB4229
:10273000A4D3926A0120A242A0D2C5E79542E5D176
:1027400020BFE3E70040054034020020ED1F0010E9
:1027500010B5024A0248FFF73BFA10BDB065001001
:102760007C0A00200300416A0A00986A596A8A427A
:10277000FAD17047034B596A0A00986A596A914224
:10278000FAD170470040054070B504000D00174AAB
:10279000536A1900966A536A8B42FAD130001900C5
:1027A00024184D41AB4216D813D0104B2A005B6A57
:1027B0009D4203D90D494B6A9342FCD3934207D102
:1027C0000A4A02E0516A994202D1916AA142F9D3C0
:1027D00070BDA642E9D9054B5B6A1C005A1CEFD0BC
:1027E000012201246442E5175242E3E7004005401C
:1027F000064A536A9942FCD807D1044B02E05A6A50
:10280000914202D19A6A8242F9D370470040054052
:10281000F8B5040006200D0000F076F9002842D03B
:10282000364B3749E21853425A418023DB039C461A
:102830009205344B62441A60334B1A6010000B68E7
:102840009843FBD12D4B314AE31859424B4180212B
:102850005B0049000620995200F056F92900C0009B
:1028600000F04CFD0130C3091ED1402701226262F5
:10287000A362266BF30722D4E36A254B0620E518F2
:1028800000232B60266300F03FF93900800000F040
:1028900035FD7023E26A5A400E3313402B601D4B06
:1028A00023630323A364F8BD1B4A93421ED900236C
:1028B0001A4A1B4F6262A362266BF307DCD5194BE1
:1028C000144AE3181A60656AA36A0620AD01ED1880
:1028D00000F01AF9144900F011FDAD0201002800C2
:1028E00000F00CFD0021FFF74FFFC5E74006800E0A
:1028F0009F011A003F180300B9E7C0460080FCBFE3
:1029000008C0004000E0004000F00040700C0020D3
:102910002C10000001030000FEFF0000FFFF00007C
:10292000C0FF3F00303000004E0E0000F8B5DE461C
:102930004E4657464546E0B58B4605000A991800B5
:10294000160000F0DBFC0A9B6C001F02324B64197E
:102950009C46A4006444636881469F4200D9676036
:102960002B1FDBB29846012B30D9C02380229B015C
:10297000E31812011A60294BAD0059599A460029F3
:102980001BD17301E026226853401E40802342463B
:102990005B01E3181E60012A30D9802380229B014D
:1029A000E31812011A6053464A4667605A51F0BC58
:1029B000BB46B246A946A046F8BD586900F09EFC49
:1029C000013043001B18033BFDD2DAE75B46012BC5
:1029D000CBD1C02303229B01E3181A60023AA368FB
:1029E0001A42FCD07301E0262268AD0053401E401D
:1029F00080230A4A5B019246E3181E605A4621680A
:102A0000514003220A401A6001225B469A40A368A3
:102A10001A42FCD0C1E7C04600800040800A002076
:102A2000F0B546464F46D646C0B51F00344B44006D
:102A30009C462418A4006444636888461600FF2B53
:102A400002D880235B006360031FDBB29A46012B30
:102A500030D9C02380229B01E31812011A60294B50
:102A600085005959994600291BD17301E026226837
:102A700053401E40802352465B01E3181E60012A2A
:102A800030D9802380229B01E31812011A60802331
:102A90005B0063604B465F51E0BCBA46B146A84656
:102AA000F0BD586900F02AFC013043001B18033BBD
:102AB000FDD2DAE74346012BCBD1C02303229B0191
:102AC000E3181A60023AA3681A42FCD07301E026A8
:102AD0002268850053401E4080230A4A5B019146CC
:102AE000E3181E6042462168514003220A401A60E2
:102AF000012342469340A2681342FCD0C1E7C0467E
:102B000000800040800A0020014B8000C0587047C0
:102B1000800A0020F0B54746CE4680B55B4B1500D5
:102B20005A680700884683B0FF2A02D880225200E4
:102B30005A600322564B554E1A600123B468234253
:102B4000FCD0202231685140C0320A4051490A600D
:102B500032684E4E5A40032313400B600223B46880
:102B60002342FCD080224C4B12011A6080235B0070
:102B700073604A4C99464A4B3A00636101214346CF
:102B80004848009500F0AAF941463800694300F032
:102B9000B5FB454B05005A68FF2A01D84A465A60E2
:102BA0008022424B12011A602169002907D0606916
:102BB00000F0A4FB013043001B18033BFDD2E022D0
:102BC000394B3B4819680A4002600222196851409B
:102BD00001320A40042102609A681142FCD080212F
:102BE000344A09011160802252005A60324B23613D
:102BF000264B5968FF2900D85A6003220121244B33
:102C00001A60224A93681942FCD0E02310680340FE
:102C100020480360126803234A40022113401B4AE4
:102C2000036093681942FCD080211B4B0901196095
:102C30008021224B4900516065615A68FF2A00D803
:102C4000596080221E4B12011A60A169002907D029
:102C5000606900F053FB013043001B18033BFDD2B9
:102C6000402316490A685A40A0331340154A13609E
:102C70008022154B12011A6080235B004B60084BC9
:102C8000A36103B0C0BCB946B046F0BD3C80004073
:102C90003CB000403C9000403CA00040800A002036
:102CA000006CDC02008002403080004030B0004008
:102CB0003090004030A00040001BB700488000402A
:102CC00048B000404890004048A00040F0B54E4653
:102CD00091467D4A45469046A0225746DE46520020
:102CE000E0B51700424606008A4683B00092019381
:102CF000009B764A934209D9754A009B9446013F4E
:102D0000634400930F2FF3D100206EE01D00714B40
:102D100031219C466544280000F0F0FA864200D13B
:102D2000BCE00724631EB8469B4637002E005D4674
:102D300065433000290000F0E1FA874246D0A31E27
:102D40009B46022C00D1ADE02D1B2900300000F085
:102D5000D5FA874250D0E31E9B46032C52D02D1B40
:102D60002900300000F0CAFA874253D0231F9B4647
:102D7000042C55D02D1B2900300000F0BFFA8742EB
:102D800059D0631F9B46052C5BD02D1B29003000BA
:102D900000F0B4FA87425CD0062C5ED03000E91F08
:102DA00000F0ACFAB84263D0242130000624242578
:102DB00000F0A4FA874261D005239B465D46654337
:102DC0003000290000F09AFA8742B8D10029B6D124
:102DD0005D46D346C246019B52463F4901205143BE
:102DE0005A4611604A4614601D6003B0F0BCBB46F1
:102DF000B246A946A046F0BD0029E9D0E31E9B4695
:102E0000032CACD102240425B3089F4236D0012301
:102E10009B468CE70029DBD0231F9B46042CA9D1BD
:102E2000092130000324092500F068FA874225D0E3
:102E300002239B467BE70029CAD0631F9B46052CD3
:102E4000A3D10424102533099F4217D003239B46A6
:102E50006DE70029BCD0062CA0D119213000052433
:102E6000192500F04BFA874208D004239B465EE701
:102E7000002923D0052306249B4658E7AB4635009E
:102E80003E0047465946280000F038FA002900D095
:102E900048E7D3462500BA46019B9DE73123072426
:102EA0009B46EFE735003E004746B54200D023E79A
:102EB000D3460124C2460125019B8DE7D346072452
:102EC000C2460125019B87E750262F0050F80C00D1
:102ED00020D1FFFFB0710B00001BB700F8B5040054
:102EE00020481D0017000E0000F008FA010038000D
:102EF00000F004FA069B29041B0319432368002BE6
:102F00001EDB194B194DE21853425A4180235B01D5
:102F10009C461203164B62441A60164B1A60170047
:102F20002B689F43FBD1144B2660E2182123A0603D
:102F300013602368002BFCDA0823E1601360F8BDFE
:102F40003F2322681340B342DBD1A3681B051B0D4E
:102F50008342D6D1EE22E368D20213408B42D0D115
:102F6000EDE7C046001BB7000040FDBF08C00040B1
:102F700000E0004000F0004004300000024B1A68FE
:102F8000024B5A607047C046C80A002000800540C6
:102F9000194B1A4A10B5DA618022194BD2051A6012
:102FA000184C194A146000290AD0E022174BD204A9
:102FB0001A60002809D18022144B12061A6010BD35
:102FC000E022D2041A600028F5D043011B1A9B00AE
:102FD0001818802300015B04984209D203000C4AB0
:102FE00013608022044BD2055860084B1A60E6E754
:102FF000084B1800F3E7C046008005402131B76A4E
:1030000000B00540FCFF01000820014000A0054081
:10301000C80A0020FFFFFF00024B9868431E98413A
:10302000C0B27047008005408023024A9B000B43DA
:10303000D362704700800540142310B50100188842
:1030400004331B88984710BD162310B5010018885B
:1030500002331B88984710BDF8B54746CE4680B569
:103060000F1E19D0142399460433040000250126AD
:1030700098464B461888434621681B88984701C4E8
:10308000431E9841013540420640AF42F1D1300025
:10309000C0BCB946B046F8BD0126F8E7AA23064AE7
:1030A0001B0113608D235B00D3600449044B19603E
:1030B0005368002BFCDA70470040024000B0FA0071
:1030C000006002407047C04610B50148FEF752FD4F
:1030D000D465001070B5074D074EB54209D20024E3
:1030E000013E761BB60808CD984723000134B34251
:1030F000F9D170BD186200105462001070B5074D10
:10310000074EB54209D20024013E761BB60808CD11
:10311000984723000134B342F9D170BD4C620010CE
:1031200054620010054B064A06491A60064A074BCE
:103130001A6010000B689843FBD1704700E0004014
:10314000BFCDFBFE08C00040FE7F3C0000F0004009
:10315000044BDB6C002B03D18022034BD2021A609C
:103160007047C046000011504C201150044A054BD6
:103170001A60054A1368DB018033FBD17047C046F3
:10318000FFFFFF0100F0004008C000404022034B59
:103190009A675A671A67DA667047C04600F00140BE
:1031A00010B5FEF743FD10BD70B5044D044CA96881
:1031B000C022200000F028FFAC6070BD00ED00E0F0
:1031C00000000020002310B5294C82B0A367FFF750
:1031D00065FF0122274B1A60636C012BFCD103228F
:1031E000254B1A60224A936B012BFCD101330093CB
:1031F0000121224A22480433FFF770FE05230121F2
:103200000093204A2048FFF769FE00220221042093
:103210001E4BFFF705FC0022012105201C4BFFF788
:10322000FFFB0022002107201A4BFFF7F9FB0022C9
:1032300000210820174BFFF7F3FB8023DB000093EE
:10324000002200210920134BFFF770FB0022104BD6
:1032500000210620FFF7E4FB0420FFF755FC0E4990
:1032600000F04CF801000020FFF7DEFE02B010BDB8
:10327000008000403CB0004030B00040002F685952
:1032800000800240008C864700C00240001BB7004F
:1032900040597307006CDC0240420F0001480421D2
:1032A000014B18475002002059300010124A936F0A
:1032B0009B0815D29066D166002905D0FFE7FFE78D
:1032C000FFE7516F106F704704B580210906C217E0
:1032D0005140002800D0C84302F08EFF002104BDF9
:1032E000F0B5146E556E576F166FFFF7E3FF146657
:1032F000556657671667F0BD000000D0114A936FFE
:103300009B0813D210665166002905D0FFE7FFE73E
:10331000FFE7516F106F704704B5002801D00020FF
:10332000C04302F069FF002104BDC046F0B5146E31
:10333000556E576F166FFFF7E5FF146655665767B2
:103340001667F0BD000000D094464A4A926F92087A
:10335000624601D228E0C046F0B5464E346E756E26
:10336000776F366F00F020F89446424A146655662F
:10337000576716676246F0BD94463E4A926F9208C0
:10338000624601D254E0C046F0B53A4E346E756ED6
:10339000776F366F00F04CF89446364A14665566DF
:1033A000576716676246F0BD002B24DB11D0002959
:1033B0003EDA00B5C943404200D1013100F038F88F
:1033C000C943404200D10131DB43524200D10133B5
:1033D00000BD002AEBD1002801D1002905D0002032
:1033E000C90FC90701D1C043410800B502F0FCFE76
:1033F0000022002300BD00B500290ADBDB43524256
:1034000000D1013300F014F8C943404200D101312A
:1034100000BDC943404200D10131DB43524200D1DB
:10342000013300F005F8DB43524200D1013300BD07
:10343000002923D1002B18D1002A0CD0BC460D4FF7
:1034400038667A6600210023FFE7FFE7FFE77A6F1F
:10345000386F67467047002801D00748010000B563
:1034600002F0C2FE0022002300BD02000B0000207B
:1034700000217047000000D0FFFFFFFF002B00D0AD
:10348000BFE0130C28D1002AE7D080B4114F396671
:103490007A66FFE7FFE730B4040C7B6F396F1B04DB
:1034A00023433B667A66FFE7FFE7FFE7C04684B247
:1034B0007B6F3D6F1B0423433B667A66FFE7FFE7A4
:1034C000C04600232C042D0C7A6F386F0019694117
:1034D000B0BC7047000000D0F0B594460025140E33
:1034E00001D112020835140F01D112010435940FD5
:1034F00001D192000235D40F01D152000135D40B15
:103500000134254F7C66254C3C660E0C93B2FFE7D8
:10351000FFE7FFE73C6F6643360C7703BE46734315
:10352000DF0B5B04C01AB941130C7343DB18C91AD3
:10353000CE086643360CB64493B273431F0F1B018B
:10354000C01AB941130C73431F0B1B05C01AB941B4
:10355000860D8F023E436643360C092D24DB520A4A
:103560007243801A7703460A6643360C16235B1BA8
:10357000DE40DF40BF1964466643821B7046043557
:1035800006330100D940A840C01900D30131A2423E
:1035900006D20023F0BD0000000000D0FFFFFFFFB7
:1035A000121B0130F3D3F1E709277F1BFE4064466D
:1035B000A2B27243801A00D20139220C7243130C5A
:1035C0001204821A99410B0070460435133701002A
:1035D000F940A840801900D30131002B02D1A2424A
:1035E0000AD2F0BD013000D30131121BFAD2013BE7
:1035F000F8D1A24200D2F0BD013000D30131121B3C
:10360000F7E7F0B51C0C00D080E00CB400251C0AD4
:1036100004D11B02160E3343120208351C0B04D1D1
:103620001B01160F3343120104359C0B04D19B0080
:10363000960F334392000235DC0B02D192185B41A6
:1036400001351C00971864410134464F7C66464C96
:103650003C660E0CFFE7FFE7FFE7C0463C6F6643A2
:10366000360C7703BE4697B27743C01B00D20139B0
:10367000C01B00D201399FB27743C91BC91B170C6D
:1036800077437E04FF0B801BB941CE086643360C9E
:103690000C2D33DBB644120B1F053A431B0B97B2BC
:1036A0007743C01B00D201399FB27743C91B170C67
:1036B00077433E043F0C801BB941860D8F023E4389
:1036C000664329277F1BFE400C3D7746AF40BF195C
:1036D00030BCA2B2ABB272437343801A9941220C40
:1036E0007243130C1204801A994102000B00013737
:1036F000001BA941F9D2781E0021F0BD0C277F1BC9
:10370000FE4077467F0BAF40FF19E0E700245D1CC9
:1037100007D0144F7D663966FFE7FFE7FFE7FFE755
:103720003C6F95B29EB265436643401BB141150C98
:103730001E0C6543664336042F0C3E432D04401B8C
:10374000B141994204D202000B0020000021F0BDDB
:1037500001D19042F7D3801A994101349942F2D3B2
:10376000F6E70000000000D0FFFFFFFF48404140A7
:10377000484018B41B4B5B68FC46019308BD04DF4E
:10378000073A001018B4174B1B68FC46019308BD9C
:1037900000DF113A00109446134A926F920809D242
:1037A000624618B40F4BDB68FC46019308BD0CDF82
:1037B000C93C00100C4AF0B5146E556E576F166F69
:1037C0006246FFF7EEFF084A1466556657671667AC
:1037D000F0BD18B4034B9B68FC46019308BD08DF9D
:1037E0006D3B001048080020000000D0FFB550409D
:1037F0004240504059404B40594000E0FFB5154F02
:103800004C00640D03D0BC4204D10C0314D800203A
:10381000090D09055C00640D03D0BC4204D11C03F2
:103820000AD800221B0D1B0501264B4009D44B4032
:1038300003D58B4200D18242FFBD9942FCD1904218
:10384000FFBD0B43DB1803431343F5D0C9434918AD
:10385000FFBD0000FF07000000B5FFF7CFFF80416C
:1038600000BDC04600B5FFF7C1FF01D9002000BD73
:10387000012000BD00B5FFF7B9FF804100BD012068
:1038800040054A00121804D85A00121801D8002026
:1038900070470120704700000021002805D17047C3
:1038A000C1174840401AFAD0C90713B5064B1B6828
:1038B00098470CBC441CA2401005120B0349091B7D
:1038C00009051943114310BD2C0C00201F040000F2
:1038D00010B54C00620D8023D218DB00D21A5B05B4
:1038E0007E2A10DD9E3A13DACC17090349081943E2
:1038F0005242D140640001341532202A05DAD0400A
:103900000843604310BD002010BD0846604310BD51
:10391000C80FC018013810BD18B4044B5B6AFC46D0
:10392000019308BD24DF793E001000004808002004
:10393000132370B51D78012D19D014DD1F48FFF732
:1039400083FB06001E48FFF77FFB1E4C80223100E0
:10395000200000F059FB022D2DD01B48FFF76CFB17
:103960001A4B186070BD1A4B164CA364F5E7184B40
:10397000144C23606360A360E36023616361A3610F
:10398000E36123626362A362E36223636363A3630D
:10399000E36323646364A364E36423656365A365ED
:1039A000E36523666366A366E36623676367A367CD
:1039B000E367A364D1E7064BA364CEE7534400005A
:1039C00053460000480800204C3300002C0C002017
:1039D000D539001007B5604601880A0A0230DF2A8F
:1039E000FAD1C9B2820804D3028840880004104387
:1039F00000E00068014A5050039007BD48080020CD
:103A00000FB403BC0CBCF0B50124E407634000E034
:103A1000F0B50C0DCF0F661E3605891B640503D368
:103A2000C943404200D30131640D03D0661CF60A3D
:103A300007D0E41B00207F00791C89078912803C95
:103A400024031D0DDF0F6E1E36059B1B6D0503D372
:103A5000DB43524200D301336D0D03D06E1CF60AD6
:103A600007D0ED1B00227F007B1C9B079B12803D33
:103A70002D032F1B661B58D4A446202E46DA203770
:103A80001400BC401D00BD40F24033412A43801861
:103A90005941CB0F05D0C943C04300226442504175
:103AA000514162464D0D28D10D0D07D100281FD080
:103AB000241940414941013A0D0DF9D0640006D363
:103AC000013000D30131002C01D140084000013AFF
:103AD0000BD4941CE40A04D112051144DB071944E9
:103AE000F0BDD907204B194300E0D9070020F0BDF5
:103AF0000029DDD1002CDBD1F0BD0132C607400822
:103B0000CD0728434908002EE1D0D9E73C2E29DA19
:103B1000203E40371400BC4000D00124F240144342
:103B20001A00BB401C43D317ACE7AC46202F08DA81
:103B300020360400B4400D00B540F8403941284318
:103B4000A5E73C2F0CDA203F40360400B44000D0FB
:103B50000124F84004430800B1400C43C117EAE7D0
:103B600010001900002494E70000F07FF0B50C0D60
:103B7000661E3605891BE60A6405640D02D0651CC5
:103B8000ED0A04D0002001210905803C2403A4464D
:103B90001C0D671E3F05DB1BE70A6405640D02D0A0
:103BA000651CED0A04D0002201231B05803C240380
:103BB0007740644497B484B296B27443070C7E4352
:103BC000150C6F4380B26843361802D301200004FD
:103BD0003F183004350C00197D41844688B29AB2F2
:103BE00050430C0C62431F0C7C438EB27E439219EF
:103BF00002D301263604A4191604170C361867419F
:103C000001BC81B29AB25143040C62431B0C5C4369
:103C100080B25843121802D3012000042418100463
:103C2000130C401863412D185E410020474106BC2B
:103C300088B293B258430C0C6343120C544389B2BC
:103C400051435B1802D301210904641819041A0CAA
:103C5000091862416D1856410020474118BCF9020D
:103C6000720D1143F0026A0D1043ED020A0D03D1EB
:103C70006D1940414941013B124E9B1B7600B342F6
:103C80000ED26D0007D301300026714166463543E0
:103C900001D1400840001B05C918E4072144F0BDCC
:103CA0000BDA013306D1013004D101314F0D01D0BF
:103CB0004908F2E7E1070020F0BD01363105002098
:103CC000EBE70000FF030000F0B51C0D671E3F0589
:103CD000DB1BE70A6405640D02D0661CF60A04D0FB
:103CE000002201231B05803C2403D0252D0600263D
:103CF000F6432E661E096E66CE0FF619B4464900CD
:103D00004F0D02D07E1CF60A03D000200021403F58
:103D10003F033E1BB600B444013F7F05C91B490861
:103D20002E6F013676089C02950D25437543ED13E1
:103D30007543AD1301356D10F603761B0CB4CC0240
:103D4000450D2C43A2B2B3B25A43270C7B43350C2A
:103D50006F43A4B26C431B1902D3012424043F19FE
:103D60001C041D0CA4187D4124196D41009A91B2C8
:103D7000ACB26143170C7C432B0C5F4392B25A43A5
:103D8000A41802D301221204BF182204230C5218D3
:103D90007B41019C6C431B19520ED9010A4344011B
:103DA000A01A81B2B2B2514303145A43360C734382
:103DB00087B27743D617D21900277E4136049B1964
:103DC0001704160C7F185E417316ED18F3010026D8
:103DD00080337541A90F06D16400690AE8055B0AC2
:103DE000184309D22FE00422944480337541A90A74
:103DF000A8059B0A184326D3404149412404009A50
:103E0000019B0D005543641B4343E41A95B286B2EF
:103E10007543170C7E43030C5F4392B25A43B618A6
:103E200002D301221204BF183204330C52197B4111
:103E300052429C41002C02D40022013051414008E2
:103E4000CA071043490802B06246D7079210084BD0
:103E5000D218084B9A4203D212058918C919F0BD2D
:103E60000020002A01DC3900F0BD01331905F5E717
:103E7000FD030000FE070000002200B5203200F024
:103E800004F8080000BD000000220B150AD410B58C
:103E9000944600F031F81414013400DA0021CB17F5
:103EA000144C20470020002170476244343A0CD45F
:103EB0000C2A07DA04009140904052422032D4404C
:103EC000214310BDD843D94310BD203207D40C463E
:103ED0009440524220321141D040204310BD08008E
:103EE000C917203203D452422032104110BD1800AD
:103EF000190010BDAB3E00100A0DCC0F531E1B0560
:103F0000C91A520503D3C943404200D30131520DAF
:103F100003D0531CDB0A07D0121B00206400611C75
:103F200089078912803A1203014BD21A70470000A8
:103F3000FF03000051434343C9188C46110C83B260
:103F40004B4310B4040C614392B280B250436243BD
:103F50001C041B0C001910BC59411304120CC0188E
:103F60005141614470470000132310B512481C787A
:103F7000FFF76AF80100012C0AD003DD80220F4808
:103F800000F042F80E48FFF757F80E4B186010BDCE
:103F90000A4C5422200000F037F80B4B6365A365F0
:103FA000E36523666366A366E36623676367A367C7
:103FB000E3672362E361E5E7534600004809002018
:103FC0004C3300002C0C0020CD3F001007B560469C
:103FD00001880A0A0230DF2AFAD1C9B2820804D362
:103FE000028840880004104300E00068014A5050F5
:103FF000039007BD4809002001480421014B1847E0
:104000006002002059300010014B5B681847000027
:10401000600200207047C046F8B557464546DE4668
:104020004E46E0B598460A9B06009A460D9B0F0047
:10403000934615009B0710D10B9B0C9A93420CD210
:1040400013005C460B9A9D1A5D44220043460134DE
:1040500039002020B047A542F7D10B9C6319002CF2
:1040600009D01D0053462A1B013C185D3900434608
:10407000B047002CF6D10D9B9B070ED55B46EC1A82
:104080000C9BA34209D999462A00434639002020B7
:104090000134B0470135A145F6D82800F0BCBB4635
:1040A000B246A946A046F8BDF0B54F464646D646AC
:1040B000C0B584B098460EAB1B7894469946129BC7
:1040C0000D9C109F119E9A0724D4002E6AD1BC42E9
:1040D00020D201221A409246202C00D1CBE00C9A2B
:1040E000551E302201E0202C30D001342A55A74241
:1040F000F9D85246002A0DD0B4420BD20C9A551E64
:104100003022202C02D126E0202C61D001342A5507
:10411000B442F9D1DA0634D55A0562D4002C5CD108
:104120000F9A102A00D191E0022A00D1A1E030229A
:104130000C9C227001244A46002A5CD15A0700D404
:104140007DE02B220C9D2A5501341CE05246002AAA
:1041500002D0202E3CD92024DA0614D55A0512D4D8
:10416000202F00D197E0202E3BD120261F223400A3
:104170000F9D102D00D181E0022D4CD030250C9FD9
:10418000BD54202CD7D103930C9B6246009302961A
:1041900043460194FFF740FF04B0E0BCBA46B14685
:1041A000A846F0BD012215001D40AA461A4227D09C
:1041B0004A46002A33D10C321A4230D1BC429BD23B
:1041C000202C00D08BE7202EC5D8DA06A4D4DAE75D
:1041D0002024DA06D7D55A0503D4A74221D0B44209
:1041E0001FD00F9A102A21D0022A10D0202CCAD01A
:1041F00022000134C2E72D220C9D2A550134C2E76A
:10420000BC4200D386E7202C00D068E7E1E7202CF1
:10421000B9D02200013462250C9FBD54E6E7013E6F
:10422000CCE7621E012C00D17AE7A1E79A0616D4EA
:10423000202CA8D078220C9D2A550134D6E71A07E5
:10424000A1D520220C9D2A5501349CE79A060ED454
:1042500078220C9C22703022627002246BE7202CA2
:1042600091D058250C9A121915700134BEE75822C6
:10427000EFE76222EDE7002AA7D1AAE7023C9D06FC
:1042800004D478250C9F3D551400B1E758250C9FA8
:104290003D551400ACE71F226AE7C04610B5002860
:1042A00000D110BD01F022FBFBE7C0460B0010B5AA
:1042B000002802D049681B68984710BDF0B55746E2
:1042C0004E464546DE46E0B599B082468946904660
:1042D0000993229A239B10001900FFF7D0FA0028B7
:1042E00000D0C8E0229823990122D54B5242FFF713
:1042F000C1FA002800D0BEE0229823990122D14BB8
:104300005242FFF7A9FA002800D0B4E0229823997E
:1043100000220023FFF7A0FA002800D0E9E1229E46
:10432000239F8023269ADB001A400D92269A1A4278
:1043300001D1062324933B00334300D0B4E0269BF5
:104340001B0500D5BFE1002300240A930B94002332
:1043500004250C93259B0024AB4200D95C1B02234F
:10436000269A1A400D92269A134203D06B426B4153
:104370005B421C400C9B002B07D00A9A0B9B300021
:104380003900FFF708FA06000F002298239900224F
:104390000023FFF761FA002803D0802109067B186B
:1043A0001F00269AA84B009601971340099E04937C
:1043B000249B03940293424633004946504600F042
:1043C000A7F90400002D67D02020269A4946024014
:1043D00013005A4253415B42621C18400A92330058
:1043E00022004530D0470C9A6F1ED317D4185C407A
:1043F000D30F9B46002501E0202D13D008AA944638
:104400001F23200063440A2101355E19FEF776FF61
:104410003031317020000A21FEF770FF26000400C1
:10442000092EE9D805230693002304930A33039346
:104430005B46099E029310AB0A9A009349463300EB
:10444000504605970195FFF72FFE0D9A0400002AAC
:1044500022D04246851A259AAA421DD9B04657460F
:10446000160022004346494620200135B847013452
:10447000AE42F6D810E0269B42460493259B49465F
:104480000393249B50460293229B239C0093019408
:10449000099B00F03DF90400200019B0F0BCBB46B8
:1044A000B246A946A046F0BD684B78009C46400D38
:1044B0006044FFF7F5F9664A664BFFF78AF9664AEA
:1044C000664BFFF75FF9664A3B031B0B1A43040078
:1044D0000D00644B110030000022FFF74AF9624AD8
:1044E000624BFFF776F902000B0020002900FFF76E
:1044F00049F9FFF7EDF90C90FFF7D2F95C4A5D4BF3
:1045000004000D00FFF765F900225B4BFFF73AF955
:10451000FFF7DEF9594A8346594B20002900FFF77F
:1045200058F9040058460D00FFF7BAF9554A564BA2
:10453000FFF74FF902000B0020002900FFF719F9DF
:1045400002000B000A900B91FFF743F904000D00E5
:104550000A980B9902000B00FFF714F900220E9045
:104560000F914A4B20002900FFF715F90022484B14
:10457000FFF708F902000B0020002900FFF70BF9F4
:104580000022444BFFF7FEF802000B002000290038
:10459000FFF701F90A9A0B9B0D0080210400C90561
:1045A0000020FFF7E6F802000B0020002900FFF7CB
:1045B000E9F8394C02000B000E980F99FFF7EBF861
:1045C0005C440022264BFFF7DDF823050022FFF7AD
:1045D00000F904000D0002000B00300039000A94BD
:1045E0000B95FFF739F900285ED123002A00C62574
:1045F0000C9963318D42AD4126996D420435090510
:1046000000D4A7E6134364D030003900234A244B7A
:10461000FFF728F9002807D0002230003900214B8D
:10462000FFF71AF9002854D1249B002B00D191E602
:104630000D9B5A1E9341249AD31A24938AE6C046AE
:10464000FFFFEF7FFFFFEFFFFFF7FFFF01FCFFFF23
:10465000FB799F501344D33FB3C8608B288AC63F71
:104660000000F03F0000F83F61436F63A787D23F2F
:1046700071A379094F930A400000E03F1655B5BB7E
:10468000B16B0240EF39FAFE422EE63F00002C40AB
:104690000000244000001840FF0300002D431CEBE5
:1046A000E2361A3F80842E410C9B0022013B0C9382
:1046B0002000164B2900FFF76EF80A0001000300E6
:1046C0000A910B9293E7002300240A930B94002392
:1046D0000C93249A0C9B9A4214DDD31A013B249329
:1046E0008023269ADB001A430023002526920C9390
:1046F00030E6802212069446229B1E00239B6344D0
:104700001F000EE600232493EAE7C0460000244081
:10471000F0B54546DE464E465746E0B595B08B4669
:10472000904699461E9A1F9B0A9019001000209DE2
:10473000FFF7A5F8002800D0B0E11E981F990122CC
:10474000C74B5242FFF788F8002800D037E11E9887
:104750001F990122C34B5242FFF78CF8002800D06A
:10476000A7E01E981F990022BF4BFFF783F800288F
:1047700000D088E01E981F990022BC4BFFF76CF810
:10478000002800D07FE01E981F9900220023FFF729
:1047900063F8002800D0FAE000230B938023229CCA
:1047A000229ADB001C401A4200D102E1092D00D8F8
:1047B0007EE106A98C462C00172200233021093CFB
:1047C00062440133D154EF1A202B00D132E1A342CD
:1047D000F7D10022A44B069207931E981F99FFF76A
:1047E00077F80500FFF75CF802000B001E981F9990
:1047F000FEF7BFFF069A079BFEF7EBFF08900991B3
:10480000FFF78AF80600FFF747F802000B00089848
:104810000999FEF7AEFF0022954B08900991FFF72A
:1048200029F8002800D1D2E001363000FFF734F833
:10483000069A079BFFF716F8002801D000260135DD
:10484000AA46002F00D098E02800FFF729F80200C0
:104850000B001E981F99FEF78CFF854B0022060067
:104860000F00FEF7F9FF0CAB9A46002845D1002255
:10487000300039007E4BFEF7FDFF00283DD1EB07ED
:104880003BD5013539E0229B42460493219B594692
:1048900003930A981E9B1F9C0295009301944B461C
:1048A000FFF70CFD15B0F0BCBB46B246A946A046CA
:1048B000F0BD229B5B0767D403226E4B22990192C5
:1048C000039121990291009342464B4659460A981A
:1048D000FFF7A2FBE6E706AA9446172328006344E5
:1048E0000A2101341E19FEF7E1FC30312800317035
:1048F0000A21FEF7DBFC051E76D0202CEBD103232A
:10490000229A1340012B1DD1219B002B1AD00B9B07
:10491000002B00D0BBE0229A0C33134200D0B6E04B
:10492000219BA34200D887E006AB9C461722302388
:10493000624404E02199013413558C4259D0202C53
:10494000F8D12024229B01940393219B0293534688
:10495000B9E706AA944617230A21634430000134BC
:104960001D19FEF7CBFC3031297030000A21013FC0
:10497000FEF7C4FC092E46D90600202CE9D1554685
:104980000CAB20249A46B8E704223B4B96E71E9ACC
:104990001F9B00200021FEF7ECFE01230B938023D8
:1049A000229C229ADB001E901F911C401A4200D0CC
:1049B000FCE60022314B0627069207930DE7229B67
:1049C0000393219B0293042301932D4B7BE7002249
:1049D00008980999264BFEF73FFF002800D02FE7E3
:1049E000002E4FD101362BE70323229A1340012BCF
:1049F00068D0202CA6D00B9B002B1FD02D23524615
:104A0000135501349EE75546202CB9D030223B196E
:104A1000002F4BD0172006A9013409180A55202C65
:104A2000AED09C42F6D10CAA92462E2251465C1C76
:104A3000CA5462E72024CCE6202C83D0229B5B075B
:104A400008D4229B1B0700D47CE720235246135531
:104A5000013477E72B2352461355013472E7C046E1
:104A6000FFFFEFFFFFFFEF7F65CDCD4165CDCDC1EE
:104A70000000E03F786600107066001080842E41D0
:104A800080660010F30700D4DAE60136D8E6219BF1
:104A9000013B2193A34200D946E7AAE7229B039357
:104AA000219B029303230193084B0CE72300BAE7F1
:104AB000074BEA009B185C681B682F00069307945D
:104AC00000248AE6219B002B93D020E77C6600100F
:104AD00028680010F0B5DE4657464E464546E0B51C
:104AE0009FB01C00289B93460A93CC4ACC4B8A4625
:104AF00009901A60002900D14DE1002320789946E1
:104B0000002800D14FE1C74B4D460893C64B0D938B
:104B10000AE02A006E1C5B46099D5146A8473500F5
:104B200001342078002872D02528F2D1102399462C
:104B3000083B9846043B00219C460227013420781C
:104B400026000300203BDBB2102B03D8089A9B0001
:104B5000D3589F460300303B092B6ED900272A28E3
:104B600000D18AE000230B932E2800D176E00300C9
:104B7000683BDBB2122B1BD8AC4C9B00E3589F4622
:104B8000012301341943DAE739430134D7E7634697
:104B900001341943D3E74B4601341943CFE7434669
:104BA00001341943CBE780235B0070781943013649
:104BB00067280AD824281FD90300253BDBB2422BE3
:104BC0001AD80D9A9B00D3589F460300693BDBB26D
:104BD0000F2B11D801249C40954AA44690461440BE
:104BE0000C9462464446224200D025E20A2B00D1B2
:104BF00001E1072B00D1D8E0099C2A005B46514611
:104C0000A04770786F1C741C3D0000288CD1A94609
:104C10002C00CB4503D801235B425B4499465B469D
:104C20004A4651460020099DA84720001FB0F0BC0D
:104C3000BB46B246A946A046F0BD0027BB00DF191F
:104C400001367F003F183078303F0300303B092B9E
:104C5000F4D900230B932E2800D088E780237078A6
:104C6000DB0019430300303B741C092B00D82CE1F6
:104C70002A2800D138E1260079E70A9B80CB002F53
:104C800003DB60780A93661C6CE7022260781143AC
:104C90007F420A93661C65E7672800D1C8E1472870
:104CA00000D104E2452800D104E207200A9B0491C8
:104CB0000733834319000B9A039702920CC9099892
:104CC000009201930A912A005B465146FFF7F6FADB
:104CD000741C050025E770786C2800D10DE2802354
:104CE0005B001943013663E780239B00707819430A
:104CF00001365DE77078682800D1F9E1802301363C
:104D0000194355E7462800D18FE107200A9B0491FB
:104D10000733834319000B9A039702920CC9099831
:104D2000009201930A912A005B465146FFF7F0FC7E
:104D3000741C0500F5E62A00099C5B4651462520B7
:104D40006F1CA0473D00741CEBE6890700D4DEE130
:104D50000A9B2A0098466B1C9946434601CB514654
:104D60009846099C5B46C0B2A047ED19012F00D8B8
:104D700093E24C46B1465646099F22005B460134F9
:104D800031002020B847AC42F7D1B24643464E46E8
:104D90000A93741CC5E6274B207809930023994693
:104DA000002800D0AFE6002433E70A9B1A0008CAA7
:104DB0009046002B00D1A7E0212008430EA98C4685
:104DC0001F2262440F27AC46814615000C9C02E06E
:104DD000202C0CD01300380018400100373109286E
:104DE00000D80739013429551A090F2BF0D8654628
:104DF00048460C9494E00A9B1A0008CA12920B9A37
:104E0000002A7BD102241A786442002A1DD0013482
:104E100018199C461C00030010E0C046D54A00103B
:104E2000C40A00208866001018670010CC660010C5
:104E300041900000154000109C4203D0607801347E
:104E40000028F9D16346E01A0C908020C000844607
:104E5000084080466046014204D00B980C9C844276
:104E600000D90C900220844608400A90604608420F
:104E700000D189E1101E00D170E14246002A00D124
:104E80001BE10B9A5B1B9046A84444462A00B84697
:104E900099465746B246099E09E05B463900551CC3
:104EA000B0474B46585D002800D12CE12A009442BF
:104EB000F3D156462500BA4647460A9B002B00D040
:104EC0004CE1129B741C0A932BE6002293009B1862
:104ED0005B0001341A182078303A0300303B092B6C
:104EE000F4D926000B9242E60A9B023604CBD0434B
:104EF000C01702400B9230780A9338E61A78002ADD
:104F0000A3D00B98441E82E7102308008027984303
:104F1000113318430B00FF003B40394200D14DE7ED
:104F2000082305930B9B2A0004931023039300236B
:104F300002930C9B0690019316AB009351465B467F
:104F40000998FFF7B1F843460500741C0A93E8E599
:104F5000622800D1A6E1582800D1B1E180230A00DF
:104F6000DB001A409046194200D189E11123994390
:104F70008C46802362469B001A40100062461A420B
:104F800000D023E1802364465B001C401A4200D01D
:104F900032E263465B0600D56BE163460A991B0665
:104FA00000D4DBE208C91BB2DA179818504080B26F
:104FB0000A91DA0F0C92002B00D118E280460EAA5B
:104FC00091461F234B441395E14645461297B04640
:104FD0001E0001E0202C0FD028000A21FEF78EF9D8
:104FE000013437193031397028000A21FEF786F96B
:104FF0002F000500092FEDD84646CC46129F139D81
:10500000634606930B9B059704930A2303930C9B1B
:10501000029316AB2A000194009351465B4609980F
:10502000FFF742F8741C05007BE5202319436CE66A
:1050300080231B01194338E6782800D07CE18023C7
:105040000A00DB001A409146194200D1A5E20D2367
:105050009943080003330C93802302009B001A40FD
:105060009046184200D078E1802304005B001C4089
:10507000184200D007E2430600D453E2FF210A9B06
:1050800004CB0A4090460A934346002B00D026E109
:10509000103398434B46002B00D120E100240B9B9A
:1050A000069004930C9B059703930023B0E780239D
:1050B0001B01194320231943F7E55B1B99460C9B01
:1050C000099C98465B46B3465646BA461F002A00DE
:1050D0003B003100A0474B460135585D0028F6D112
:1050E00043460C933B005746B2465E469B46E4E679
:1050F000C023B078194302365AE5C0239B00B0782C
:105100001943023654E55646BA464746D5E6012FBE
:1051100000D832E26B1E9846B8442C00A94645469A
:10512000B8465746B246099E22005B460134390014
:105130002020B047AC42F7D10A9B564601CBBA4675
:105140004746984622005B46099C5146C0B2A0479C
:105150004D464346ED190A93741CE2E40C9BA846A5
:105160009F4200D8ADE64446B04656467D19099F99
:10517000ED1A22005B46013431002020B847AC42D2
:10518000F7D1B24646469CE60C98874200D8F0E13B
:10519000424698467919B9465746B246099E0C1AB6
:1051A0000C922A005B46013539002020B047A54209
:1051B000F7D15646BA464F4643460C9A90467A1C5B
:1051C0000C921A78101E00D057E67AE608220721C2
:1051D00091460A9B07338B4399444A460ACB0C00FD
:1051E0000A921C43DA0F002C4ED0D81704001090FE
:1051F0004C4011900E94109811990C005C400F9443
:105200000E9B0F9C1B1A8C410E930F940EA988467F
:105210001F23002443441297B046270013951E0015
:105220000E9C0F9DE1460C9201E0202F10D0200033
:1052300029000A220023FEF79FF8013730322B00A5
:10524000F2550D0022000400002BEED1092AECD803
:105250004646CC460E940F950C9A3C00139D129F27
:10526000634606930B9B059704930A2302920393CC
:10527000CFE6FF230A9904C9134018000A9198E663
:10528000102399438C4674E643460024002BE7D153
:10529000002300240E930F94B8E743464D460A932B
:1052A000741C3EE480230A00DB001A409146194238
:1052B00000D140E10D2399430B3B08000C93CBE652
:1052C00080230A00DB001A409146194200D162E1B6
:1052D0000D2320209943033308430C93BCE661233C
:1052E000810600D541230EA91F228C46DBB2624401
:1052F0000A3B13971495814645460C9FB04612937E
:10530000160008E03033DBB201343355BD420ED312
:10531000202C0CD0050039002800FDF7EFFFCBB2A0
:105320000929EFD9129A94466344DBB2ECE746466A
:105330004846139F149DB2E66F2800D03CE10C2331
:105340000800984380230A00DB001A409146194266
:1053500000D02AE108230C937EE60A99FA3BFF3B32
:105360000731994301339C468C4463464A680A934B
:105370000B6890469C461343191E06D14B461031CC
:1053800000248843002B00D089E66121830600D5E4
:1053900041210EAA91461F234B449946C9B20C9B4A
:1053A0000A3913971495159645464E4600246746CC
:1053B0009846814612910CE03032D2B2002301347B
:1053C0003255AB4200D1BCE0202C00D1BCE007003C
:1053D0000D004246002338002900FDF7CDFFD2B270
:1053E000092AE9D9129B9C466244D2B2E6E74346B9
:1053F000002B00D004E6E2E50A9C08CCDA0F1392F9
:10540000002B00D1A5E0D9175B184B4098460EAA97
:1054100091461F234B440C95A14645461296E04603
:1054200006001C000A9701E0202E0FD028000A2158
:10543000FDF764FF0136A7193031397028000A21C1
:10544000FDF75CFF2F000500092FEDD8C4464C4640
:1054500030000A9F0C9D129E634606930B9B2A0008
:1054600004930A230393139B0190029316AB0093BA
:1054700051465B4609980597FEF716FE0A9405000B
:10548000741CFFF74EFB0A9B10CB1493002C04D125
:10549000102398434B46002B2CD16123810600D565
:1054A00041230EA91F228C46DBB262440A3B1297AD
:1054B0001395814645460C9FB0460A93160008E0B6
:1054C0003033DBB201357355BC420ED3202D0CD0E6
:1054D000040039002000FDF711FFCBB20929EFD9F4
:1054E0000A9A94466344DBB2ECE748464646129F6C
:1054F000A846139D0B9B2A0004930C9B06900393D4
:10550000002302934346019316AB009351465B463A
:1055100009980597FEF7C8FD149B05000A93741CB3
:10552000FFF7FFFA03061FD50A9B02CB09040A0CFA
:1055300090460A93A8E50C2399430A3B08000C9374
:105540008AE5B84500D83FE74846139F149D159E4D
:10555000A5E54346002B00D07EE758E708C9DA17D7
:10556000981850400A9124E50A9B04CB90460A9370
:105570008AE5010001310C9124E60A9F6C1C01CFE1
:105580002A005B46099D5146C0B2A84725000A97EC
:10559000741CFFF7C6FA202319430C2399430023F8
:1055A0009946103308000C9356E508238C460C935B
:1055B0000D23604698434FE510230A009A43944612
:1055C000692808D180230A00DB001A40904619425E
:1055D00000D1CEE4CAE41C230800984380230A00CB
:1055E000DB001A409146194202D10A230C9333E59D
:1055F0000A230C93DCE7C04600B585B00391012176
:1056000002900093034813004A4202A9FFF762FA8E
:1056100005B000BDAD42001010B5094A0300146882
:1056200084B0002C08D0012200910648524203A900
:10563000A047012004B010BD00F0A4F90020F9E754
:10564000C40A00209D42001000BEFDE710B5FFF720
:10565000FBFFC04670B5FDF73DFD074D074EB54257
:1056600009D20024013E761BB60808CD98472300D6
:105670000134B342F9D170BD546200105862001079
:10568000030010B5080011001B68984710BDC04604
:10569000F0B546464F46D646C0B5437D80460E001F
:1056A0001700002B4BD0002A32DD274B01259A46EC
:1056B0004B1E00240020994607E0335D0A2B2CD0B6
:1056C0002B0001340135BB4213DA002CF5D13378BD
:1056D0000A2BF5D143461B7D002BF1D143465046A2
:1056E00002211B68984728002B0001340135BB427A
:1056F000EBDB874204DD4346391A1B6830189847B4
:10570000F619013E33780D3B5A4253414246137518
:10571000E0BCBA46B146A846F0BD4B461B5D0D2B1A
:10572000CED0A042DADA4346211A1B6830189847D7
:105730004346504602211B6898472800D4E7036877
:10574000110030009847E3E778680010F0B5C646CE
:105750000B6806000C0000B5802B06D05A1C226096
:10576000E418267180BCB846F0BD0F4B1D68002DB3
:1057700016D00B1D98460D4F02E02D69002D0FD05D
:105780002B68002BF9D03B68002B01D0AB42F4D141
:10579000280041462268FFF77BFF2D69002DEFD1DD
:1057A00001220023DBE7C046AC0A0020B80A002033
:1057B000F0B5DE4657464E464546E0B585B0170083
:1057C0001C0006000D00FCF7D5FF0023314A12181B
:1057D0004B41802109068B4202D301222E4B5242BB
:1057E0002E4908008A4600F00FFD01906B1C03D182
:1057F000300000F0BFFC0500002C26D0284B984656
:10580000284B1C68002C15D0002F21D1264F02E018
:105810002469002C0ED02368002BF9D03B68002BA4
:1058200001D0A342F4D120002A003100C0472469EE
:10583000002CF0D1019B002B28D1280005B0F0BC32
:10584000BB46B246A946A046F0BD184B9846D7E7DE
:10585000154B994602ABDF1D0A239B4602E02469E3
:10586000002CE7D02368002BF9D04B461B68002B97
:1058700001D0A342F3D12A0031002000C0475B468B
:105880000122390020003B70C047E8E7504600F095
:10589000A3FCD2E740420F00FFFFFF7FC0060020BD
:1058A00091560010AC0A0020B80A00208156001062
:1058B0000A4A1368002B05D10CE01A001B6910324C
:1058C000002B07D09842F8D1002902D10369136058
:1058D000016170470029FCD01060FAE7AC0A002093
:1058E00010B500F0B7F9012010BDC046F0B5CE46A6
:1058F000474680B583B06B460600DD1D2870FCF777
:1059000039FF00231A4A12184B41802109068B42A5
:1059100002D30122174B524217490800884600F073
:1059200073FC164B81461C68002C14D0144F02E007
:105930002469002C0FD02368002BF9D03B68002B82
:1059400001D0A342F4D1200001222900FFF7A0FEDC
:105950002469002CEFD14B46002B05D1300003B059
:10596000C0BCB946B046F0BD404600F035FCF5E796
:1059700040420F00FFFFFF7FC0060020AC0A00205E
:10598000B80A002070B5040000F0F4FB0123010008
:10599000050001222000FFF70BFF084B1C68002CBC
:1059A00006D06368002B05D098472469002CF8D1F5
:1059B000280070BD2469002CF3D1F9E7AC0A00205F
:1059C000F0B5CE46474680B5A3B004000D00FCF705
:1059D000D1FE0023294A12184B41802109068B422F
:1059E00002D30122264B5242264F380000F00CFC15
:1059F00000230600019322002B00234801A9FFF792
:105A0000FBFD019B8046002B14D1204B1C68002C11
:105A100006D06368002B0BD098472469002CF8D17E
:105A2000002E25D1404623B0C0BCB946B046F0BDDB
:105A30002469ECE7154B1D689946002D1CD0144CC9
:105A400002E02D69002D0FD02B68002BF9D02368C0
:105A5000002B01D0AB42F4D12800019A02A9FFF734
:105A600017FE2D69002DEFD14B4601951C68CEE73E
:105A7000380000F0B1FBD5E70195D1E740420F00B7
:105A8000FFFFFF7FC00600204D570010AC0A00202A
:105A9000B80A00200FB400B583B004A901C9019170
:105AA000FFF78EFF03B008BC04B01847F0B500291B
:105AB00015DD0E4B0D271A680D4B0E4CD3185D42A9
:105AC0006B41451820215B001E5F0478A64207D079
:105AD00093691942FCD101301460A842F5D1F0BDA0
