:020000041000EA
:1000000000B5324B212058609868022188439860DF
:10001000D860186158612E4B002199600221596106
:100020000121F02299502B49196001219960352056
:1000300000F044F80222904214D00621196600F024
:1000400034F8196E01211966002018661A6600F04E
:100050002CF8196E196E196E052000F02FF8012189
:100060000842F9D1002199601B49196000215960AB
:100070001A491B48016001219960EB211966A021F2
:10008000196600F012F800219960164914480160C1
:100090000121996001BC002800D000471248134993
:1000A000086003C880F30888084703B5996A0420EC
:1000B0000142FBD001200142F8D103BD02B5186610
:1000C0001866FFF7F2FF186E186E02BD00000240BE
:1000D000000000180000070000035F00212200005C
:1000E000F4000018222000A00001001008ED00E03C
:1000F00000000000000000000000000074B24E7A12
:1001000000200420F7010010C3010010C5010010F9
:10011000C1010010C1010010C1010010C101001097
:10012000C1010010C1010010C1010010C701001081
:10013000C1010010C1010010C9010010CB01001065
:10014000CD010010CD010010CD010010CD01001037
:10015000CD010010CD010010CD010010CD01001027
:10016000CD010010CD010010CD010010CD01001017
:10017000CD010010CD010010CD010010CD01001007
:10018000CD010010CD010010CD010010CD010010F7
:10019000CD010010CD010010CD010010CD010010E7
:1001A000CD010010CD010010CD010010CD010010D7
:1001B000CD010010CD010010CD010010CD010010C7
:1001C00000BE00BE00BE00BE00BE00BEEFF3058054
:1001D000103800BEF2EB8871644C00108C4C00109B
:1001E0003802001090A31AE71E481F49086006C88D
:1001F00081F3088810471D480068002801D019487D
:10020000F3E70DA40ECC002902D000F012F8F9E7B4
:100210001749184A002000E001C19142FCD116495B
:100220008847164988471649884700BEFDE701C937
:1002300001C29A42FBD370478C4C0010C0000020D2
:10024000C00600208C520010000004200000042092
:100250008C52001000100420001004200000000048
:10026000704700000000000008ED00E0000000D032
:10027000C0060020C86202209D3E0010210300102D
:10028000953E0010F8B5C0460448054B10B58342B2
:1002900003D0044B002B00D0984710BDC0060020AF
:1002A000C00600200000000006480749091A8B100C
:1002B000C90FC91810B5491003D0044B002B00D04A
:1002C000984710BDC0060020C006002000000000B6
:1002D00010B5074C2378002B09D1FFF7D5FF054B4C
:1002E000002B02D0044800E000BF0123237010BDA2
:1002F000400A00200000000090480010054B10B597
:10030000002B03D00449054800E000BFFFF7CCFFF5
:1003100010BDC04600000000440A002090480010B4
:10032000F0B5DE4657464E464546E0B587B003F089
:10033000FBFE00F037F9834B834F9E6A00239946FA
:10034000824B00249B46824B4D460293814BB8461C
:100350000393814BDA460493059637E07F4B2A00DE
:100360001868EB17C11702F0E7F9002300259B4638
:100370004C04C00B0443019353461F682000FB1735
:100380003A00E117994602F0D7F9E6264904C00B76
:100390000843C0137600019B5A46361A4946380076
:1003A00002F0CAF94904C00B0843C013413036B209
:1003B000FF300322310000B200F012FA01235B4249
:1003C0009C46E0444346002B00D19EE004F0D4F963
:1003D000634B9842C2DD634B984234DCEB1799467D
:1003E000614B2A0018684B46C11702F0A5F95F4B14
:1003F0002E00C50B1868E717490422003B000D4387
:10040000C11702F099F95A4B4904C00B08432D1843
:10041000186832004B46C11702F08EF9554BC60BD7
:10042000186849043B000E432200C11702F084F90A
:100430004904C00B0843504B36181C68EB17AB46F9
:100440003419019398E74D4B2E0098422EDCEB17A0
:1004500099464B4B2A0018684B46C11702F06CF9BD
:10046000484BC50B1868E717490422003B000D43B1
:10047000C11702F061F9444B4904C00B08432D1A1F
:10048000186832004B46C11702F056F93F4BC60BB5
:10049000186849043B000E432200C11702F04CF9D2
:1004A0004904C00B08433A4B3618C6E7EB17994688
:1004B000029B2A0018684B46C11702F03DF9039BC6
:1004C000C50B1868E717490422003B000D43C1170C
:1004D00002F032F9049B4904C00B08432D18186838
:1004E00032004B46C11702F027F92A4BC60B186899
:1004F00049043B000E432200C11702F01DF94904D4
:10050000C00B0843244B361897E70E4B059E986A9C
:10051000801B01F089FD0022204B01F004FD01F059
:10052000CFFD02F023F902000B001D48064903F03D
:10053000D5FE002007B0F0BCBB46B246A946A04697
:10054000F0BDC0460040054050C3000098010020A7
:10055000AC010020A8010020A4010020D801002047
:1005600012AE4701DF7A146ED4010020D0010020C2
:10057000CC010020C8010020C40100206F3D0A7793
:10058000C0010020BC010020B8010020B4010020FF
:10059000B0010020A00100209C01002080842E4199
:1005A00090480010F0B5D6464F464646C0B57A4949
:1005B0008AB07A4803F09AFF79490600774803F039
:1005C00095FF78490500754803F090FF00238022CD
:1005D00099460593F82352025B0202920393C023CB
:1005E00004001B03102202A906A89846049302F0F7
:1005F0002FF93100731C08310A03DB01134306A9EC
:10060000102202A8079302F023F9674B01270593F4
:10061000A0230621DB0210209A46029300F010F975
:100620000123102200215D48009703F0E1FF320012
:10063000002102AB594804F035F829006B1C0D313C
:100640000A03DB011343594A062113408022D205D5
:100650001343079343460893554B11200993534680
:10066000069300F0EDF80123112201214B48009779
:1006700003F0BEFF2A00012106AB484804F012F83F
:100680004B4680220593F82352025B0202920393A9
:100690004346102202A906A8049302F0D9F82200CA
:1006A000A31C08321203DB01134306A9102202A87F
:1006B000079302F0CDF83F4B06211220059300F07E
:1006C000BFF80621132000F0BBF80621142000F02B
:1006D000B7F80621152000F0B3F8042312220221F6
:1006E0002E48009703F084FF2200022102AB2B4822
:1006F00003F0D8FF012004F023F8A0260400012015
:1007000004F01EF8F605B4462B4BE502C2022B4955
:100710002B40134319432A4EA30163441E60294E04
:1007200080015E609626B6029E601961264960448B
:100730000A4026492A430A43254901608021436033
:1007400087600261154A490253680B42FCD180213F
:10075000204B89021361114A53680B42FCD1E023FC
:100760008021FF3353610D4AC90253680B42FCD10B
:100770004023FF339361184B184AA0211A600123CC
:100780008622A340C905D2008B500AB0E0BCBA460D
:10079000B146A846F0BDC046FC48001000002050FD
:1007A000D8480010BC48001000020004FFFFFF9F63
:1007B0002046004452024010FD0700FF11000100D6
:1007C000C40A002018002050FD871FFF09801F0069
:1007D000DC0100208F0200000020205007070000ED
:1007E00010B50400F0200B1C4000814201DBE02327
:1007F000FF3319B2CB43DB1719408B00E0435B1882
:10080000A021C017DB0189002040884200DB0A4894
:100810001B18D90708D50F2108485B10C45C1201CA
:1008200021400A43C25410BD0F2404485B10C15C30
:10083000A1430A43C254F6E77F020000C40A002025
:10084000094A83009A1810B5146840225440803237
:100850002240064CC000A44663441A60044B9C46E8
:100860006044416010BDC04604C0014004D0014056
:10087000004001400FB400B5084883B003F0A6FC67
:10088000049B002B07D005A91800019103F0E8FA9A
:10089000034803F09BFC012003F0FAFA184900100A
:1008A000B8480010EFF3108072B6034A1368002BAB
:1008B000FCD0BFF35F8F70472C0100D0BFF35F8F78
:1008C0000022024B1A6080F3108870472C0100D080
:1008D00070B5EFF3108C72B60D4D2B68002BFCD069
:1008E000BFF35F8F0724CB08C618C05C01230C4000
:1008F000A3401C000440034207D118433070BFF3EB
:100900005F8F2C608CF3108870BD1000FFF7B2FF72
:100910002C0100D0F8B54746CE46884680B5EFF3A7
:10092000108C72B6214D2C68002CFCD0BFF35F8F69
:100930009A422CD8D4080727055D061901241740D0
:10094000BC402C421FD007210127894609E0D4086A
:10095000055D06194C4639001440A1400C0029429F
:1009600011D001329342F2D201204042BFF35F8F97
:1009700000220E4B1A608CF3108800280FDBC0BCDD
:10098000B946B046F8BD254310003570EEE7BFF319
:100990005F8F00232B608CF3108801204042434678
:1009A000002BECD00898FFF765FFC0462C0100D063
:1009B000044A1078431CDBB2172B00D910231370A4
:1009C0007047C046E00100200021044B044ABFF3F9
:1009D0005F8F02C39342FAD17047C046000100D036
:1009E000800100D0054B064A1360064A136053602D
:1009F0009360D360136153619361704780808080FE
:100A000000E400E004E400E01F2318401E3B8340A4
:100A1000002905D0C021044A490053501360704793
:100A2000802201498B50FAE700E100E070B50D002B
:100A3000EFF3108672B60F4A1368002BFCD0BFF399
:100A40005F8F0D4B10309B6884001B590B4A9342FB
:100A500003D09D4201D000F013FF074B9B681D514E
:100A6000BFF35F8FBFF35F8F0022024B1A6086F3E4
:100A7000108870BD240100D000ED00E0CD01001011
:100A8000F0B5DE4657464E464546E0B50C0083B00D
:100A9000EFF3108872B6634A1368002BFCD0BFF3E3
:100AA0005F8F614B61499A68030010339F00D559ED
:100AB00000938D4243D0A54254D05D4EAA1B2F2AED
:100AC0003DD85C4B9C461B689A4601231A00994608
:100AD0008240534613401F2201934B4602409340ED
:100AE0009A468022634650469850BFF35F8FEFF3DB
:100AF00005839B46002B37D0009B5B4501D000F05F
:100B0000BFFE2A004B469A439068844208D177E0A2
:100B10004B005B189B00F3189868844236D01A008B
:100B2000062151560029F3DA844255D0019B002B4F
:100B300027D0C02251463F4B5200995019603A4B82
:100B40009B68DD51BFF35F8FBFF35F8F0022354B92
:100B50001A6088F3108803B0F0BCBB46B246A946C1
:100B6000A046F0BD0D00EAE72A004B469A43906884
:100B70008442D5D106201056130000280ADA0D0051
:100B800032E0802351462B4AD150D8E70620185630
:100B9000002822DB42001118890074188946A168D8
:100BA0009960E179D971062161569971002925DB97
:100BB000A488F11A640524154C440919E024090598
:100BC000490D24022143998013181B4A9B00117878
:100BD000F31899711070A9E713005946002914D130
:100BE000FF3191711549918013490A789A71144A1D
:100BF0009B1B5B415A43120D0A7097E71149E2E7CC
:100C00000620105613000028C4DA0F4A0F49D21AE2
:100C1000083A5002400D014399800D4952080A4399
:100C2000DA8083E7240100D000ED00E0CD01001060
:100C3000E401002000E100E0C662022001BDFFFFE8
:100C4000AAAA000001BD00001E02002000F0FFFF64
:100C500000F8FFFF70B501240443EFF30581EFF3C3
:100C6000108C72B6214A1368002BFCD0BFF35F8F43
:100C70001F4B05001F4AED1A6D416A43120D1E4DB0
:100C80008900AE6852B27658A6421CD00621595649
:100C900091421CD012215956914222D01E21595600
:100CA000914220D02A2159560324914210D0134B4F
:100CB00019781A708171BFF35F8F00220B4B1A6095
:100CC0008CF3108870BDAB680D4C5C50EFE70024CE
:100CD0006100091989005B18FF2199710949998000
:100CE000E5E70124F4E70224F2E7C046240100D03E
:100CF000E4010020AAAA000000ED00E0C662022084
:100D0000CD01001001BDFFFF024B9C4661448900EC
:100D10000160704740000034F8B5134D134E2C00AD
:100D2000FF27B5421ED22368002B0FD0FFF740FEED
:100D300001002800FFF7E8FFA780BFF35F8F0834AA
:100D4000B4420FD223682500002BEFD1FFF730FE0D
:100D500001002800FFF7D8FF2771BFF35F8F083429
:100D6000B442EFD3F8BDC046B8060020C00600204C
:100D70000A4B1968EFF3108072B60A68002AFCD09B
:100D8000BFF35F8F1B68BFF35F8F00221A6080F391
:100D9000108840BF002000217047C046B80A0020DC
:100DA000F0B5DE4657464E464546E0B585B0EFF312
:100DB000058203231340B64A9900575801229A40EE
:100DC00088469346B34B1A60B34B02935B46B348D5
:100DD00043630823FE5E002E35DABB881BB2002B6E
:100DE00000DBA8E0BB79002B00D0E9E00823F85E27
:100DF00000281EDB43007A691B18DB00D3189D68AE
:100E0000DC686B1C00D108E1A44801004144826AFF
:100E10000B69AE1A9B1A9E4213D35A46036A1A42B2
:100E20000FD09E4800F0C4FA8C4202DCCED185423D
:100E3000CCD940BF05B0F0BCBB46B246A946A046DF
:100E4000F0BD0D61EDE77A69730091469B19DB00F7
:100E500099444B469C68DD6800F0AAFA8D42BCDCE0
:100E600000D1FEE0002D00DAE3E04B46029A1B6958
:100E7000934200D1D5E04A4652884946944608221A
:100E8000B85E62460004496910439847009001919A
:100E90000099019A0B001000134300D1C9E0130020
:100EA0000A00002800DBE0E020002900801A9941B8
:100EB0004B469860D96000229A5E002A00DA8CE7DF
:100EC00053009C187D69E4002C190093A368E46822
:100ED0009A468C4200DD80E702D1834200D97CE74C
:100EE00008239C46BC443A8103976746009BB4465E
:100EF0003E000EE08C4200D1C5E01E000023F25EF1
:100F0000002A0BDB53009C18E4002C19A768E46846
:100F1000BA469B18DB00EB188C42EBDD33006646CB
:100F20009C464B461A806346039F1E80BB881BB2BB
:100F3000002B00DA56E73A69EFF3108172B61368B6
:100F4000002BFCD0BFF35F8F0123BE885B42BB80C8
:100F500036B23B69BFF35F8F00221A6081F31088BD
:100F6000002E00DA3EE73B0008333A0099467D69DF
:100F700073009B19DB00EB189968DC688C4608202D
:100F8000115E4846002910DB009306E0A34240D0E2
:100F90000023F95E3800002906DB4F007F18FF00B0
:100FA000EF19FB68A342F1DD009B068000201E5E66
:100FB0001980002EDCDA1700BB79002B00D115E771
:100FC0000023BB713D000823F95E08354B1C00D19E
:100FD0002FE77C690800A44603E035004B1C00D1D4
:100FE00006E74B005B180A006146DB00CE18C95EBD
:100FF00073881BB2002BF0DA01235B42DC17B3606D
:10100000F4608242EAD029803B89100033803A8123
:10101000E4E7BB686345BBD9C6E7631C00D0F3E6D1
:10102000FFE64B465B699A461B6950469847002885
:1010300023D14B461B883A693B81EFF3108372B68C
:1010400011680029FCD0BFF35F8F49467A880A8077
:101050003A697E80BFF35F8F0021116083F31088AF
:10106000BBE6844200D8FDE6B7E60C4800F0A0F9E4
:10107000009B019CC01861411AE753461A685B68DF
:101080000092019304E7824500D836E746E7C04660
:10109000A40A00203C700540A10D0010004005404E
:1010A00070B52E4C2569002D04D00A212C48FFF77D
:1010B0002BFE70BD2B4E0321300000F06FF9E6606F
:1010C000FFF776FC284B03229C46D02322701B0698
:1010D0001B6801216370254B6044A3600F238000CF
:1010E00020610220638063694942A1801980023136
:1010F000198647311D83585218315A5275325C395E
:1011000099521832013199521832013199521832DC
:1011100001319952083518329D52023118329952D4
:101120001832013199521832013199521832013175
:1011300099521832013199521832013199520C4B9F
:101140000C49DC6001303562FFF770FC012103209F
:10115000FFF75AFC084B1D60A7E7C0462C02002091
:10116000B80A00200040054040000034FFFF100096
:10117000A40A0020A10D00103860054070B50100E0
:101180000469EFF3108C72B620680028FCD0BFF31E
:101190005F8F02200D5E4C6968004019C000241862
:1011A000002D37DB208848800869BFF35F8F002659
:1011B00006608CF31088E360638804980133206133
:1011C0005B0405985B0CA26060611A1C002B1FD0A9
:1011D00093B22804628018430A69EFF3108C72B648
:1011E0001368002BFCD0BFF35F8F8B8823808D802A
:1011F0000B69BFF35F8F00221A608CF310880B78A5
:1012000001329A40CB6808498C4663441A6070BD2D
:101210000122DDE70B69BFF35F8F00221A608CF3B8
:10122000108801204042F2E73C20000010B54389BD
:101230000A1493421ADD53009B184269DB00D3184D
:101240000469EFF3108C72B62268002AFCD0BFF359
:101250005F8F5A88090494B2090C8A4208D0036946
:10126000BFF35F8F00221A608CF31088002010BD3E
:101270008022120214435C80012302698371BFF350
:101280005F8F002111608CF31088044902788C462E
:101290009340C268012062441360E8E73C200000EC
:1012A000F0B5CE46474680B504000D0083B0EFF39D
:1012B0000587002F0DD0364A0020536A8B4203D396
:1012C000926A0130A24250D303B0C0BCB946B046C6
:1012D000F0BD304B9846DB689946434648461E7839
:1012E00000F066F80B00494602000436B60071585B
:1012F00020008E1A2900801A99418F4211DC0ED0ED
:1013000020BF234A0020536AAB42DDD3926A0130EA
:10131000A242D9D2EB1A5A1E9341D8B2D4E78642E0
:10132000EED900F04DF822002B00121A8B41002B51
:1013300020DB00230193184B2200009340462B0032
:10134000FFF71CFF011E15DD114B2E005A6A954256
:101350001CD89B6AA34217D34046FFF767FF0C4A8D
:101360000020536A9E42AFD8D0E75B1A5A1E9341C1
:10137000D8B2A9E7064A0020536AAB42A4D3926AC6
:101380000120A242A0D2C5E79542E5D120BFE3E704
:10139000004005402C020020710D001010B5024ADB
:1013A0000248FFF795FA10BD284900106C0A00208A
:1013B0000300416A0A00986A596A8A42FAD1704762
:1013C000034B596A0A00986A596A9142FAD17047E8
:1013D0000040054070B504000D00174A536A19001B
:1013E000966A536A8B42FAD13000190024184D4195
:1013F000AB4216D813D0104B2A005B6A9D4203D92A
:101400000D494B6A9342FCD3934207D10A4A02E04A
:10141000516A994202D1916AA142F9D370BDA642A4
:10142000E9D9054B5B6A1C005A1CEFD0012201244C
:101430006442E5175242E3E700400540F8B5040076
:1014400006200D0000F076F9002842D0364B3749CF
:10145000E21853425A418023DB039C469205344BE9
:1014600062441A60334B1A6010000B689843FBD13A
:101470002D4B314AE31859424B4180215B00490012
:101480000620995200F056F92900C00000F0FEFA3B
:101490000130C3091ED1402701226262A362266B7C
:1014A000F30722D4E36A254B0620E51800232B60BE
:1014B000266300F03FF93900800000F0E7FA70235E
:1014C000E26A5A400E3313402B601D4B2363032303
:1014D000A364F8BD1B4A93421ED900231A4A1B4F2E
:1014E0006262A362266BF307DCD5194B144AE3183A
:1014F0001A60656AA36A0620AD01ED1800F01AF9BA
:10150000144900F0C3FAAD020100280000F0BEFA51
:101510000021FFF75FFFC5E74006800E9F011A001C
:101520003F180300B9E7C0460080FCBF08C0004078
:1015300000E0004000F00040BC0A00202C10000039
:1015400001030000FEFF0000FFFF0000C0FF3F009E
:10155000303000004E0E0000F8B5DE464E465746CD
:101560004546E0B58B4605000A991800160000F0C4
:101570008DFA0A9B6C001F02324B64199C46A40032
:101580006444636881469F4200D967602B1FDBB2C9
:101590009846012B30D9C02380229B01E318120109
:1015A0001A60294BAD0059599A4600291BD1730185
:1015B000E026226853401E40802342465B01E31828
:1015C0001E60012A30D9802380229B01E31812017A
:1015D0001A6053464A4667605A51F0BCBB46B24651
:1015E000A946A046F8BD586900F050FA0130430002
:1015F0001B18033BFDD2DAE75B46012BCBD1C0239E
:1016000003229B01E3181A60023AA3681A42FCD035
:101610007301E0262268AD0053401E4080230A4A31
:101620005B019246E3181E605A462168514003222E
:101630000A401A6001225B469A40A3681A42FCD015
:10164000C1E7C04600800040700A0020F0B5464661
:101650004F46D646C0B51F00344B44009C46241864
:10166000A4006444636888461600FF2B02D88023D8
:101670005B006360031FDBB29A46012B30D9C023A5
:1016800080229B01E31812011A60294B85005959E9
:10169000994600291BD17301E026226853401E4061
:1016A000802352465B01E3181E60012A30D9802353
:1016B00080229B01E31812011A6080235B006360A3
:1016C0004B465F51E0BCBA46B146A846F0BD5869EA
:1016D00000F0DCF9013043001B18033BFDD2DAE7D0
:1016E0004346012BCBD1C02303229B01E3181A6090
:1016F000023AA3681A42FCD07301E02622688500F2
:1017000053401E4080230A4A5B019146E3181E6045
:1017100042462168514003220A401A600123424692
:101720009340A2681342FCD0C1E7C046008000404D
:10173000700A0020014B8000C0587047700A0020DA
:10174000F8B5040020481D0017000E0000F09EF9B7
:101750000100380000F09AF9069B29041B03194385
:101760002368002B1EDB194B194DE21853425A41D6
:1017700080235B019C461203164B62441A60164B91
:101780001A6017002B689F43FBD1144B2660E218A8
:101790002123A06013602368002BFCDA0823E1609A
:1017A0001360F8BD3F2322681340B342DBD1A36826
:1017B0001B051B0D8342D6D1EE22E368D2021340F3
:1017C0008B42D0D1EDE7C046001BB7000040FDBF03
:1017D00008C0004000E0004000F00040043000007D
:1017E0008023024A9B000B43D36270470080054070
:1017F000142310B50100188804331B88984710BDC6
:10180000162310B50100188802331B88984710BDB5
:10181000F8B54746CE4680B50F1E19D01423994619
:10182000043304000025012698464B461888434699
:1018300021681B88984701C4431E984101354042E6
:101840000640AF42F1D13000C0BCB946B046F8BD49
:101850000126F8E7AA23064A1B0113608D235B00CB
:10186000D3600449044B19605368002BFCDA7047BD
:101870000040024000B0FA00006002407047C046DD
:1018800010B50148FEF7F6FF4C49001070B5074D42
:10189000074EB54209D20024013E761BB60808CD9A
:1018A000984723000134B342F9D170BD504800106D
:1018B0008C480010054B064A06491A60064A074B39
:1018C0001A6010000B689843FBD1704700E000409D
:1018D000BFCDFBFE08C00040FE7F3C0000F0004092
:1018E000044BDB6C002B03D18022034BD2021A6025
:1018F0007047C046000011504C201150044A054B5F
:101900001A60054A1368DB018033FBD17047C0467B
:10191000FFFFFF0100F0004008C000404022034BE1
:101920009A675A671A67DA667047C04600F0014046
:1019300010B5FFF749F810BD70B5044D044CA96807
:10194000C022200000F084FFAC6070BD00ED00E01C
:1019500000000020002310B5294C82B0A367FFF7D8
:1019600079FF0122274B1A60636C012BFCD1032203
:10197000254B1A60224A936B012BFCD10133009353
:101980000121224A22480433FFF7DAFE0523012110
:101990000093204A2048FFF7D3FE002202210420B2
:1019A0001E4BFFF753FE0022012105201C4BFFF7C1
:1019B0004DFE0022002107201A4BFFF747FE0022B0
:1019C00000210820174BFFF741FE8023DB00009326
:1019D000002200210920134BFFF7BEFD0022104B0F
:1019E00000210620FFF732FE0420FFF7A3FE0E4978
:1019F00000F04CF801000020FFF7F2FE02B010BD2D
:101A0000008000403CB0004030B00040002F6859DA
:101A100000800240008C864700C00240001BB700D7
:101A200040597307006CDC0240420F00014804215A
:101A3000014B18475002002011180010124A936FF2
:101A40009B0815D29066D166002905D0FFE7FFE715
:101A5000FFE7516F106F704704B580210906C21768
:101A60005140002800D0C84302F0E2FE002104BD2E
:101A7000F0B5146E556E576F166FFFF7E3FF1466DF
:101A8000556657671667F0BD000000D0114A936F86
:101A90009B0813D210665166002905D0FFE7FFE7C7
:101AA000FFE7516F106F704704B5002801D0002088
:101AB000C04302F0BDFE002104BDC046F0B5146E67
:101AC000556E576F166FFFF7E5FF1466556657673B
:101AD0001667F0BD000000D094464A4A926F920803
:101AE000624601D228E0C046F0B5464E346E756EAF
:101AF000776F366F00F020F89446424A14665566B8
:101B0000576716676246F0BD94463E4A926F920848
:101B1000624601D254E0C046F0B53A4E346E756E5E
:101B2000776F366F00F04CF89446364A1466556667
:101B3000576716676246F0BD002B24DB11D00029E1
:101B40003EDA00B5C943404200D1013100F038F817
:101B5000C943404200D10131DB43524200D101333D
:101B600000BD002AEBD1002801D1002905D00020BA
:101B7000C90FC90701D1C043410800B502F050FEAA
:101B80000022002300BD00B500290ADBDB435242DE
:101B900000D1013300F014F8C943404200D10131B3
:101BA00000BDC943404200D10131DB43524200D164
:101BB000013300F005F8DB43524200D1013300BD90
:101BC000002923D1002B18D1002A0CD0BC460D4F80
:101BD00038667A6600210023FFE7FFE7FFE77A6FA8
:101BE000386F67467047002801D00748010000B5EC
:101BF00002F016FE0022002300BD02000B000020B0
:101C000000217047000000D0FFFFFFFF002B00D035
:101C1000BFE0130C28D1002AE7D080B4114F3966F9
:101C20007A66FFE7FFE730B4040C7B6F396F1B0463
:101C300023433B667A66FFE7FFE7FFE7C04684B2CF
:101C40007B6F3D6F1B0423433B667A66FFE7FFE72C
:101C5000C04600232C042D0C7A6F386F001969419F
:101C6000B0BC7047000000D0F0B594460025140EBB
:101C700001D112020835140F01D112010435940F5D
:101C800001D192000235D40F01D152000135D40B9D
:101C90000134254F7C66254C3C660E0C93B2FFE761
:101CA000FFE7FFE73C6F6643360C7703BE4673439E
:101CB000DF0B5B04C01AB941130C7343DB18C91A5C
:101CC000CE086643360CB64493B273431F0F1B0114
:101CD000C01AB941130C73431F0B1B05C01AB9413D
:101CE000860D8F023E436643360C092D24DB520AD3
:101CF0007243801A7703460A6643360C16235B1B31
:101D0000DE40DF40BF1964466643821B70460435DF
:101D100006330100D940A840C01900D30131A242C6
:101D200006D20023F0BD0000000000D0FFFFFFFF3F
:101D3000121B0130F3D3F1E709277F1BFE406446F5
:101D4000A2B27243801A00D20139220C7243130CE2
:101D50001204821A99410B007046043513370100B2
:101D6000F940A840801900D30131002B02D1A242D2
:101D70000AD2F0BD013000D30131121BFAD2013B6F
:101D8000F8D1A24200D2F0BD013000D30131121BC4
:101D9000F7E7F0B51C0C00D080E00CB400251C0A5D
:101DA00004D11B02160E3343120208351C0B04D15A
:101DB0001B01160F3343120104359C0B04D19B0009
:101DC000960F334392000235DC0B02D192185B412F
:101DD00001351C00971864410134464F7C66464C1F
:101DE0003C660E0CFFE7FFE7FFE7C0463C6F66432B
:101DF000360C7703BE4697B27743C01B00D2013939
:101E0000C01B00D201399FB27743C91BC91B170CF5
:101E100077437E04FF0B801BB941CE086643360C26
:101E20000C2D33DBB644120B1F053A431B0B97B244
:101E30007743C01B00D201399FB27743C91B170CEF
:101E400077433E043F0C801BB941860D8F023E4311
:101E5000664329277F1BFE400C3D7746AF40BF19E4
:101E600030BCA2B2ABB272437343801A9941220CC8
:101E70007243130C1204801A994102000B000137BF
:101E8000001BA941F9D2781E0021F0BD0C277F1B51
:101E9000FE4077467F0BAF40FF19E0E700245D1C52
:101EA00007D0144F7D663966FFE7FFE7FFE7FFE7DE
:101EB0003C6F95B29EB265436643401BB141150C21
:101EC0001E0C6543664336042F0C3E432D04401B15
:101ED000B141994204D202000B0020000021F0BD64
:101EE00001D19042F7D3801A994101349942F2D33B
:101EF000F6E70000000000D0FFFFFFFF4840414030
:101F0000484018B41B4B5B68FC46019308BD04DFD6
:101F1000AF21001018B4174B1B68FC46019308BD95
:101F200000DFB92100109446134A926F920809D23B
:101F3000624618B40F4BDB68FC46019308BD0CDF0A
:101F4000712400100C4AF0B5146E556E576F166F61
:101F50006246FFF7EEFF084A146655665767166734
:101F6000F0BD18B4034B9B68FC46019308BD08DF25
:101F70001523001040080020000000D0FFB550409D
:101F80004240504059404B40594000E0FFB5154F8A
:101F90004C00640D03D0BC4204D10C0314D80020C3
:101FA000090D09055C00640D03D0BC4204D11C037B
:101FB0000AD800221B0D1B0501264B4009D44B40BB
:101FC00003D58B4200D18242FFBD9942FCD19042A1
:101FD000FFBD0B43DB1803431343F5D0C943491836
:101FE000FFBD0000FF07000000B5FFF7CFFF8041F5
:101FF00000BDC04600B5FFF7C1FF01D9002000BDFC
:10200000012000BD00B5FFF7B9FF804100BD0120F0
:1020100040054A00121804D85A00121801D80020AE
:1020200070470120704700000021002805D170474B
:10203000C1174840401AFAD0C90713B5064B1B68B0
:1020400098470CBC441CA2401005120B0349091B05
:1020500009051943114310BDB40A00201F040000F4
:1020600010B54C00620D8023D218DB00D21A5B053C
:102070007E2A10DD9E3A13DACC170903490819436A
:102080005242D140640001341532202A05DAD04092
:102090000843604310BD002010BD0846604310BDDA
:1020A000C80FC018013810BD18B4044B5B6AFC4659
:1020B000019308BD24DF2126001000004008002005
:1020C00018B4044BDB6FFC46019308BD7CDFA126EE
:1020D0000010000040080020132370B51D78012D6A
:1020E00019D014DD1F48FFF78BFB06001E48FFF7D1
:1020F00087FB1E4C80223100200000F0A9FB022D3E
:102100002DD01B48FFF774FB1A4B186070BD1A4B9B
:10211000164CA364F5E7184B144C23606360A3606E
:10212000E36023616361A361E36123626362A3628D
:10213000E36223636363A363E36323646364A3646D
:10214000E36423656365A365E36523666366A3664D
:10215000E36623676367A367E367A364D1E7064B7E
:10216000A364CEE75344000053460000400800201B
:102170004C330000B40A00207D21001007B56046F2
:1021800001880A0A0230DF2AFAD1C9B2820804D3D0
:10219000028840880004104300E00068014A505063
:1021A000039007BD400800200FB403BC0CBCF0B581
:1021B0000124E407634000E0F0B50C0DCF0F661E6C
:1021C0003605891B640503D3C943404200D301315E
:1021D000640D03D0661CF60A07D0E41B00207F00C4
:1021E000791C89078912803C24031D0DDF0F6E1EA8
:1021F00036059B1B6D0503D3DB43524200D30133ED
:102200006D0D03D06E1CF60A07D0ED1B00227F0077
:102210007B1C9B079B12803D2D032F1B661B58D4F4
:10222000A446202E46DA20371400BC401D00BD40D5
:10223000F24033412A4380185941CB0F05D0C9439E
:10224000C043002264425041514162464D0D28D1A5
:102250000D0D07D100281FD0241940414941013AF2
:102260000D0DF9D0640006D3013000D30131002CEC
:1022700001D140084000013A0BD4941CE40A04D177
:1022800012051144DB071944F0BDD907204B19434F
:1022900000E0D9070020F0BD0029DDD1002CDBD102
:1022A000F0BD0132C6074008CD0728434908002E7B
:1022B000E1D0D9E73C2E29DA203E40371400BC405B
:1022C00000D00124F24014431A00BB401C43D31732
:1022D000ACE7AC46202F08DA20360400B4400D00ED
:1022E000B540F84039412843A5E73C2F0CDA203FA0
:1022F00040360400B44000D00124F84004430800F4
:10230000B1400C43C117EAE710001900002494E71C
:102310000000F07FF0B50C0D661E3605891BE60A3D
:102320006405640D02D0651CED0A04D00020012173
:102330000905803C2403A4461C0D671E3F05DB1BDA
:10234000E70A6405640D02D0651CED0A04D0002282
:1023500001231B05803C24037740644497B484B276
:1023600096B27443070C7E43150C6F4380B26843EA
:10237000361802D3012000043F183004350C001930
:102380007D41844688B29AB250430C0C62431F0CC4
:102390007C438EB27E43921902D301263604A419DF
:1023A0001604170C3618674101BC81B29AB251432A
:1023B000040C62431B0C5C4380B25843121802D3D6
:1023C0000120000424181004130C401863412D1838
:1023D0005E410020474106BC88B293B258430C0CC2
:1023E0006343120C544389B251435B1802D3012159
:1023F0000904641819041A0C091862416D18564131
:102400000020474118BCF902720D1143F0026A0D19
:102410001043ED020A0D03D16D1940414941013BC2
:10242000124E9B1B7600B3420ED26D0007D30130D3
:10243000002671416646354301D1400840001B0526
:10244000C918E4072144F0BD0BDA013306D101308D
:1024500004D101314F0D01D04908F2E7E107002016
:10246000F0BD013631050020EBE70000FF0300005E
:10247000F0B51C0D671E3F05DB1BE70A6405640D04
:1024800002D0661CF60A04D0002201231B05803C02
:102490002403D0252D060026F6432E661E096E66FF
:1024A000CE0FF619B44649004F0D02D07E1CF60A35
:1024B00003D000200021403F3F033E1BB600B44440
:1024C000013F7F05C91B49082E6F013676089C0223
:1024D000950D25437543ED137543AD1301356D100F
:1024E000F603761B0CB4CC02450D2C43A2B2B3B25A
:1024F0005A43270C7B43350C6F43A4B26C431B1922
:1025000002D3012424043F191C041D0CA4187D418E
:1025100024196D41009A91B2ACB26143170C7C430F
:102520002B0C5F4392B25A43A41802D30122120427
:10253000BF182204230C52187B41019C6C431B19C9
:10254000520ED9010A434401A01A81B2B2B25143DA
:1025500003145A43360C734387B27743D617D21904
:1025600000277E4136049B191704160C7F185E4124
:102570007316ED18F301002680337541A90F06D1BB
:102580006400690AE8055B0A184309D22FE00422B7
:10259000944480337541A90AA8059B0A184326D3A1
:1025A000404149412404009A019B0D005543641B9E
:1025B0004343E41A95B286B27543170C7E43030C6D
:1025C0005F4392B25A43B61802D301221204BF18D5
:1025D0003204330C52197B4152429C41002C02D4EC
:1025E0000022013051414008CA071043490802B097
:1025F0006246D7079210084BD218084B9A4203D272
:1026000012058918C919F0BD0020002A01DC390023
:10261000F0BD01331905F5E7FD030000FE070000DA
:10262000002200B5203200F004F8080000BD0000D0
:1026300000220B150AD410B5944600F05FF814146C
:10264000013400DA0021CB17144C20470020002170
:1026500070476244343A0CD40C2A07DA04009140E3
:10266000904052422032D440214310BDD843D94338
:1026700010BD203207D40C46944052422032114102
:10268000D040204310BD0800C917203203D4524265
:102690002032104110BD1800190010BD5326001043
:1026A0004A00520D144BD21A13DDFF2A1EDAD2054E
:1026B000CB0FDB071A43C300400F0903490A084345
:1026C00010435B0001D301D0013070474308FBD2B7
:1026D000704702D0C80FC00770470A0312130132B7
:1026E000F8D1420F072AF5D1012200E0FF22C80FDE
:1026F00000028018C0057047800300000A0DCC0F4F
:10270000531E1B05C91A520503D3C943404200D3C7
:102710000131520D03D0531CDB0A07D0121B0020DD
:102720006400611C89078912803A1203014BD21A96
:1027300070470000FF03000051434343C9188C4613
:10274000110C83B24B4310B4040C614392B280B2BB
:10275000504362431C041B0C001910BC5941130464
:10276000120CC0185141614470470000034BDB6FED
:10277000FC4618477CDF11280010000040090020AB
:10278000132310B512481C78FFF73AF80100012C0A
:102790000AD003DD80220F4800F05AF80E48FFF7F8
:1027A00027F80E4B186010BD0A4C5422200000F090
:1027B0004FF80B4B6365A365E36523666366A36609
:1027C000E36623676367A367E3672362E361E5E783
:1027D00053460000400900204C330000B40A00209A
:1027E000E527001007B5604601880A0A0230DF2A93
:1027F000FAD1C9B2820804D3028840880004104389
:1028000000E00068014A5050039007BD40090020D5
:10281000C30FDB0741000A0E07D0FF2A08D00909C1
:10282000054A89181943400770471900002070476E
:102830000249C918FAE70000000000380000F07FE4
:1028400001480421014B18476002002011180010B4
:10285000014B5B6818470000600200207047C046CB
:10286000F8B557464546DE464E46E0B598460A9BC3
:1028700006009A460D9B0F00934615009B0710D14A
:102880000B9B0C9A93420CD213005C460B9A9D1A38
:102890005D4422004346013439002020B047A54260
:1028A000F7D10B9C6319002C09D01D0053462A1B3D
:1028B000013C185D39004346B047002CF6D10D9B12
:1028C0009B070ED55B46EC1A0C9BA34209D999468F
:1028D0002A004346390020200134B0470135A14584
:1028E000F6D82800F0BCBB46B246A946A046F8BDC3
:1028F000F0B54F464646D646C0B584B098460EABB6
:102900001B7894469946129B0D9C109F119E9A0726
:1029100024D4002E6AD1BC4220D201221A40924611
:10292000202C00D1CBE00C9A551E302201E0202C47
:1029300030D001342A55A742F9D85246002A0DD08A
:10294000B4420BD20C9A551E3022202C02D126E024
:10295000202C61D001342A55B442F9D1DA0634D59D
:102960005A0562D4002C5CD10F9A102A00D191E054
:10297000022A00D1A1E030220C9C227001244A4698
:10298000002A5CD15A0700D47DE02B220C9D2A55E9
:1029900001341CE05246002A02D0202E3CD92024CB
:1029A000DA0614D55A0512D4202F00D197E0202E34
:1029B0003BD120261F2234000F9D102D00D181E035
:1029C000022D4CD030250C9FBD54202CD7D1039321
:1029D0000C9B62460093029643460194FFF740FF2A
:1029E00004B0E0BCBA46B146A846F0BD01221500CD
:1029F0001D40AA461A4227D04A46002A33D10C323B
:102A00001A4230D1BC429BD2202C00D08BE7202E22
:102A1000C5D8DA06A4D4DAE72024DA06D7D55A05D1
:102A200003D4A74221D0B4421FD00F9A102A21D03C
:102A3000022A10D0202CCAD022000134C2E72D2255
:102A40000C9D2A550134C2E7BC4200D386E7202CF6
:102A500000D068E7E1E7202CB9D0220001346225DC
:102A60000C9FBD54E6E7013ECCE7621E012C00D16D
:102A70007AE7A1E79A0616D4202CA8D078220C9DDC
:102A80002A550134D6E71A07A1D520220C9D2A55D4
:102A900001349CE79A060ED478220C9C22703022D6
:102AA000627002246BE7202C91D058250C9A1219E1
:102AB00015700134BEE75822EFE76222EDE7002AE5
:102AC000A7D1AAE7023C9D0604D478250C9F3D556A
:102AD0001400B1E758250C9F3D551400ACE71F22A8
:102AE0006AE7C04610B5002800D110BD01F022FBF6
:102AF000FBE7C0460B0010B5002802D049681B68F0
:102B0000984710BDF0B557464E464546DE46E0B5FF
:102B100099B08246894690460993229A239B1000D9
:102B20001900FFF774FA002800D0C8E02298239912
:102B30000122D54B5242FFF765FA002800D0BEE0D3
:102B4000229823990122D14B5242FFF74DFA0028D7
:102B500000D0B4E02298239900220023FFF744FA22
:102B6000002800D0E9E1229E239F8023269ADB00E3
:102B70001A400D92269A1A4201D1062324933B0053
:102B8000334300D0B4E0269B1B0500D5BFE10023F2
:102B900000240A930B94002304250C93259B002406
:102BA000AB4200D95C1B0223269A1A400D92269A4A
:102BB000134203D06B426B415B421C400C9B002BC9
:102BC00007D00A9A0B9B30003900FFF7ACF90600DA
:102BD0000F002298239900220023FFF705FA00280E
:102BE00003D0802109067B181F00269AA84B009667
:102BF00001971340099E0493249B03940293424639
:102C000033004946504600F0A7F90400002D67D074
:102C10002020269A4946024013005A4253415B4203
:102C2000621C18400A92330022004530D0470C9AAB
:102C30006F1ED317D4185C40D30F9B46002501E0CC
:102C4000202D13D008AA94461F23200063440A2194
:102C500001355E19FEF71AFF3031317020000A216C
:102C6000FEF714FF26000400092EE9D80523069379
:102C7000002304930A3303935B46099E029310AB2F
:102C80000A9A009349463300504605970195FFF78D
:102C90002FFE0D9A0400002A22D04246851A259A5A
:102CA000AA421DD9B046574616002200434649465F
:102CB00020200135B8470134AE42F6D810E0269BFB
:102CC00042460493259B49460393249B5046029316
:102CD000229B239C00930194099B00F03DF9040082
:102CE000200019B0F0BCBB46B246A946A046F0BDD4
:102CF000684B78009C46400D6044FFF799F9664A9E
:102D0000664BFFF72EF9664A664BFFF703F9664AF2
:102D10003B031B0B1A4304000D00644B11003000F1
:102D20000022FFF7EEF8624A624BFFF71AF9020041
:102D30000B0020002900FFF7EDF8FFF791F90C9048
:102D4000FFF776F95C4A5D4B04000D00FFF709F9C7
:102D500000225B4BFFF7DEF8FFF782F9594A834602
:102D6000594B20002900FFF7FCF8040058460D00DD
:102D7000FFF75EF9554A564BFFF7F3F802000B00D8
:102D800020002900FFF7BDF802000B000A900B910C
:102D9000FFF7E7F804000D000A980B9902000B00FA
:102DA000FFF7B8F800220E900F914A4B200029003F
:102DB000FFF7B9F80022484BFFF7ACF802000B0010
:102DC00020002900FFF7AFF80022444BFFF7A2F8DC
:102DD00002000B0020002900FFF7A5F80A9A0B9BC0
:102DE0000D0080210400C9050020FFF78AF80200C9
:102DF0000B0020002900FFF78DF8394C02000B0072
:102E00000E980F99FFF78FF85C440022264BFFF7CE
:102E100081F823050022FFF7A4F804000D0002004A
:102E20000B00300039000A940B95FFF7DDF80028FD
:102E30005ED123002A00C6250C9963318D42AD4135
:102E400026996D420435090500D4A7E6134364D0E2
:102E500030003900234A244BFFF7CCF8002807D074
:102E6000002230003900214BFFF7BEF8002854D172
:102E7000249B002B00D191E60D9B5A1E9341249A6E
:102E8000D31A24938AE6C046FFFFEF7FFFFFEFFFD0
:102E9000FFF7FFFF01FCFFFFFB799F501344D33F77
:102EA000B3C8608B288AC63F0000F03F0000F83F9F
:102EB00061436F63A787D23F71A379094F930A409B
:102EC0000000E03F1655B5BBB16B0240EF39FAFE8A
:102ED000422EE63F00002C40000024400000184035
:102EE000FF0300002D431CEBE2361A3F80842E4185
:102EF0000C9B0022013B0C932000164B2900FFF78E
:102F000012F80A00010003000A910B9293E70023D4
:102F100000240A930B9400230C93249A0C9B9A424E
:102F200014DDD31A013B24938023269ADB001A4335
:102F30000023002526920C9330E680221206944648
:102F4000229B1E00239B63441F000EE60023249354
:102F5000EAE7C04600002440F0B54546DE464E464E
:102F60005746E0B595B08B46904699461E9A1F9BF2
:102F70000A9019001000209DFFF749F8002800D0A2
:102F8000B0E11E981F990122C74B5242FFF72CF85F
:102F9000002800D037E11E981F990122C34B5242EE
:102FA000FFF730F8002800D0A7E01E981F990022F4
:102FB000BF4BFFF727F8002800D088E01E981F9924
:102FC0000022BC4BFFF710F8002800D07FE01E98CD
:102FD0001F9900220023FFF707F8002800D0FAE02D
:102FE00000230B938023229C229ADB001C401A4270
:102FF00000D102E1092D00D87EE106A98C462C0003
:10300000172200233021093C62440133D154EF1AC6
:10301000202B00D132E1A342F7D10022A44B06922B
:1030200007931E981F99FFF71BF80500FFF700F89C
:1030300002000B001E981F99FEF763FF069A079B7C
:10304000FEF78FFF08900991FFF72EF80600FEF7B4
:10305000EBFF02000B0008980999FEF752FF0022CF
:10306000954B08900991FEF7CDFF002800D1D2E0E2
:1030700001363000FEF7D8FF069A079BFEF7BAFF2D
:10308000002801D000260135AA46002F00D098E084
:103090002800FEF7CDFF02000B001E981F99FEF7D7
:1030A00030FF854B002206000F00FEF79DFF0CABA2
:1030B0009A46002845D10022300039007E4BFEF7A9
:1030C000A1FF00283DD1EB073BD5013539E0229B1C
:1030D00042460493219B594603930A981E9B1F9CCA
:1030E0000295009301944B46FFF70CFD15B0F0BC20
:1030F000BB46B246A946A046F0BD229B5B0767D4FB
:1031000003226E4B2299019203912199029100931F
:1031100042464B4659460A98FFF7A2FBE6E706AA45
:1031200094461723280063440A2101341E19FEF730
:1031300085FC3031280031700A21FEF77FFC051E26
:1031400076D0202CEBD10323229A1340012B1DD1E2
:10315000219B002B1AD00B9B002B00D0BBE0229AA6
:103160000C33134200D0B6E0219BA34200D887E085
:1031700006AB9C4617223023624404E021990134B7
:1031800013558C4259D0202CF8D12024229B019435
:103190000393219B02935346B9E706AA944617234B
:1031A0000A216344300001341D19FEF76FFC3031F1
:1031B000297030000A21013FFEF768FC092E46D92C
:1031C0000600202CE9D155460CAB20249A46B8E7DE
:1031D00004223B4B96E71E9A1F9B00200021FEF71E
:1031E00090FE01230B938023229C229ADB001E90E9
:1031F0001F911C401A4200D0FCE60022314B0627EA
:10320000069207930DE7229B0393219B02930423CD
:1032100001932D4B7BE7002208980999264BFEF776
:10322000E3FE002800D02FE7002E4FD101362BE718
:103230000323229A1340012B68D0202CA6D00B9B8D
:10324000002B1FD02D235246135501349EE75546BF
:10325000202CB9D030223B19002F4BD0172006A9C3
:10326000013409180A55202CAED09C42F6D10CAA84
:1032700092462E2251465C1CCA5462E72024CCE6BA
:10328000202C83D0229B5B0708D4229B1B0700D4F1
:103290007CE7202352461355013477E72B2352460F
:1032A0001355013472E7C046FFFFEFFFFFFFEF7FCA
:1032B00065CDCD4165CDCDC10000E03FFC4900109A
:1032C000F449001080842E41044A0010F30700D412
:1032D000DAE60136D8E6219B013B2193A34200D9CF
:1032E00046E7AAE7229B0393219B029303230193C2
:1032F000084B0CE72300BAE7074BEA009B185C6811
:103300001B682F000693079400248AE6219B002B5C
:1033100093D020E7004A0010A84B0010F0B5DE461D
:1033200057464E464546E0B59FB01C00289B934645
:103330000A93CC4ACC4B8A4609901A60002900D1E6
:103340004DE1002320789946002800D14FE1C74B7A
:103350004D460893C64B0D930AE02A006E1C5B464F
:10336000099D5146A847350001342078002872D0C5
:103370002528F2D110239946083B9846043B0021AA
:103380009C4602270134207826000300203BDBB254
:10339000102B03D8089A9B00D3589F460300303B5C
:1033A000092B6ED900272A2800D18AE000230B932D
:1033B0002E2800D176E00300683BDBB2122B1BD82D
:1033C000AC4C9B00E3589F46012301341943DAE7D4
:1033D00039430134D7E7634601341943D3E74B46F9
:1033E00001341943CFE7434601341943CBE7802327
:1033F0005B0070781943013667280AD824281FD942
:103400000300253BDBB2422B1AD80D9A9B00D35800
:103410009F460300693BDBB20F2B11D801249C406F
:10342000954AA446904614400C9462464446224273
:1034300000D025E20A2B00D101E1072B00D1D8E012
:10344000099C2A005B465146A04770786F1C741C8B
:103450003D0000288CD1A9462C00CB4503D8012380
:103460005B425B4499465B464A4651460020099DB3
:10347000A84720001FB0F0BCBB46B246A946A046F4
:10348000F0BD0027BB00DF1901367F003F18307800
:10349000303F0300303B092BF4D900230B932E2837
:1034A00000D088E780237078DB0019430300303BAD
:1034B000741C092B00D82CE12A2800D138E1260001
:1034C00079E70A9B80CB002F03DB60780A93661CA8
:1034D0006CE70222607811437F420A93661C65E71D
:1034E000672800D1C8E1472800D104E2452800D16F
:1034F00004E207200A9B04910733834319000B9AC7
:10350000039702920CC90998009201930A912A002C
:103510005B465146FFF7F6FA741C050025E7707804
:103520006C2800D10DE280235B001943013663E76C
:1035300080239B007078194301365DE77078682816
:1035400000D1F9E180230136194355E7462800D11F
:103550008FE107200A9B04910733834319000B9ADC
:10356000039702920CC90998009201930A912A00CC
:103570005B465146FFF7F0FC741C0500F5E62A0097
:10358000099C5B46514625206F1CA0473D00741CDA
:10359000EBE6890700D4DEE10A9B2A0098466B1C03
:1035A0009946434601CB51469846099C5B46C0B2BA
:1035B000A047ED19012F00D893E24C46B14656467C
:1035C000099F22005B46013431002020B847AC42FD
:1035D000F7D1B24643464E460A93741CC5E6274BC4
:1035E0002078099300239946002800D0AFE60024F4
:1035F00033E70A9B1A0008CA9046002B00D1A7E0C7
:10360000212008430EA98C461F2262440F27AC4696
:10361000814615000C9C02E0202C0CD013003800D1
:10362000184001003731092800D8073901342955DD
:103630001A090F2BF0D8654648460C9494E00A9B73
:103640001A0008CA12920B9A002A7BD102241A7817
:103650006442002A1DD0013418199C461C00030046
:1036600010E0C0461D330010A00A00200C4A0010D4
:103670009C4A0010504A0010419000005D28001044
:103680009C4203D0607801340028F9D16346E01AE7
:103690000C908020C000844608408046604601426D
:1036A00004D00B980C9C844200D90C9002208446D4
:1036B00008400A906046084200D189E1101E00D1FE
:1036C00070E14246002A00D11BE10B9A5B1B904639
:1036D000A84444462A00B84699465746B246099E31
:1036E00009E05B463900551CB0474B46585D002841
:1036F00000D12CE12A009442F3D156462500BA4667
:1037000047460A9B002B00D04CE1129B741C0A9385
:103710002BE6002293009B185B0001341A182078D6
:10372000303A0300303B092BF4D926000B9242E6D5
:103730000A9B023604CBD043C01702400B9230786C
:103740000A9338E61A78002AA3D00B98441E82E721
:103750001023080080279843113318430B00FF0003
:103760003B40394200D14DE7082305930B9B2A00CB
:10377000049310230393002302930C9B0690019360
:1037800016AB009351465B460998FFF7B1F84346E4
:103790000500741C0A93E8E5622800D1A6E15828C8
:1037A00000D1B1E180230A00DB001A4090461942A3
:1037B00000D189E1112399438C46802362469B0006
:1037C0001A40100062461A4200D023E1802364466A
:1037D0005B001C401A4200D032E263465B0600D513
:1037E0006BE163460A991B0600D4DBE208C91BB2F1
:1037F000DA179818504080B20A91DA0F0C92002B19
:1038000000D118E280460EAA91461F234B4413951F
:10381000E14645461297B0461E0001E0202C0FD02D
:1038200028000A21FEF732F9013437193031397096
:1038300028000A21FEF72AF92F000500092FEDD8EC
:103840004646CC46129F139D634606930B9B0597F5
:1038500004930A2303930C9B029316AB2A00019452
:10386000009351465B460998FFF742F8741C050027
:103870007BE5202319436CE680231B01194338E6BE
:10388000782800D07CE180230A00DB001A409146B2
:10389000194200D1A5E20D239943080003330C938C
:1038A000802302009B001A409046184200D078E125
:1038B000802304005B001C40184200D007E243064E
:1038C00000D453E2FF210A9B04CB0A4090460A939E
:1038D0004346002B00D026E1103398434B46002B83
:1038E00000D120E100240B9B069004930C9B0597CC
:1038F00003930023B0E780231B01194320231943BE
:10390000F7E55B1B99460C9B099C98465B46B346C2
:103910005646BA461F002A003B003100A0474B46DE
:103920000135585D0028F6D143460C933B005746BD
:10393000B2465E469B46E4E6C023B07819430236A1
:103940005AE5C0239B00B0781943023654E5564629
:10395000BA464746D5E6012F00D832E26B1E98469C
:10396000B8442C00A9464546B8465746B246099E7B
:1039700022005B46013439002020B047AC42F7D129
:103980000A9B564601CBBA464746984622005B46FC
:10399000099C5146C0B2A0474D464346ED190A93D3
:1039A000741CE2E40C9BA8469F4200D8ADE6444656
:1039B000B04656467D19099FED1A22005B46013438
:1039C00031002020B847AC42F7D1B24646469CE6CB
:1039D0000C98874200D8F0E1424698467919B946DA
:1039E0005746B246099E0C1A0C922A005B460135D6
:1039F00039002020B047A542F7D15646BA464F4677
:103A000043460C9A90467A1C0C921A78101E00D0ED
:103A100057E67AE60822072191460A9B07338B4333
:103A200099444A460ACB0C000A921C43DA0F002C38
:103A30004ED0D817040010904C4011900E9410985E
:103A400011990C005C400F940E9B0F9C1B1A8C412B
:103A50000E930F940EA988461F2300244344129707
:103A6000B046270013951E000E9C0F9DE1460C9258
:103A700001E0202F10D0200029000A220023FEF7A9
:103A800043F8013730322B00F2550D0022000400BC
:103A9000002BEED1092AECD84646CC460E940F9561
:103AA0000C9A3C00139D129F634606930B9B05974F
:103AB00004930A2302920393CFE6FF230A9904C9D1
:103AC000134018000A9198E6102399438C4674E637
:103AD00043460024002BE7D1002300240E930F94CB
:103AE000B8E743464D460A93741C3EE480230A001F
:103AF000DB001A409146194200D140E10D23994361
:103B00000B3B08000C93CBE680230A00DB001A4035
:103B10009146194200D162E10D23202099430333DD
:103B200008430C93BCE66123810600D541230EA90E
:103B30001F228C46DBB262440A3B139714958146E0
:103B400045460C9FB0461293160008E03033DBB2B6
:103B500001343355BD420ED3202C0CD00500390062
:103B60002800FDF793FFCBB20929EFD9129A9446AA
:103B70006344DBB2ECE746464846139F149DB2E629
:103B80006F2800D03CE10C230800984380230A00F2
:103B9000DB001A409146194200D02AE108230C9319
:103BA0007EE60A99FA3BFF3B0731994301339C4675
:103BB0008C4463464A680A930B6890469C461343BC
:103BC000191E06D14B46103100248843002B00D02B
:103BD00089E66121830600D541210EAA91461F2363
:103BE0004B449946C9B20C9B0A3913971495159604
:103BF00045464E46002467469846814612910CE0A1
:103C00003032D2B2002301343255AB4200D1BCE095
:103C1000202C00D1BCE007000D00424600233800F4
:103C20002900FDF771FFD2B2092AE9D9129B9C46FF
:103C30006244D2B2E6E74346002B00D004E6E2E558
:103C40000A9C08CCDA0F1392002B00D1A5E0D917FB
:103C50005B184B4098460EAA91461F234B440C9587
:103C6000A14645461296E04606001C000A9701E070
:103C7000202E0FD028000A21FDF708FF0136A719D2
:103C80003031397028000A21FDF700FF2F000500B0
:103C9000092FEDD8C4464C4630000A9F0C9D129E59
:103CA000634606930B9B2A0004930A230393139BFA
:103CB0000190029316AB009351465B460998059715
:103CC000FEF716FE0A940500741CFFF74EFB0A9BD4
:103CD00010CB1493002C04D1102398434B46002B97
:103CE0002CD16123810600D541230EA91F228C46C9
:103CF000DBB262440A3B12971395814645460C9FFE
:103D0000B0460A93160008E03033DBB20135735534
:103D1000BC420ED3202D0CD0040039002000FDF74A
:103D2000B5FECBB20929EFD90A9A94466344DBB2B7
:103D3000ECE748464646129FA846139D0B9B2A0077
:103D400004930C9B06900393002302934346019334
:103D500016AB009351465B4609980597FEF7C8FDE0
:103D6000149B05000A93741CFFF7FFFA03061FD586
:103D70000A9B02CB09040A0C90460A93A8E50C237F
:103D800099430A3B08000C938AE5B84500D83FE701
:103D90004846139F149D159EA5E54346002B00D071
:103DA0007EE758E708C9DA17981850400A9124E5C9
:103DB0000A9B04CB90460A938AE5010001310C91DD
:103DC00024E60A9F6C1C01CF2A005B46099D5146E0
:103DD000C0B2A84725000A97741CFFF7C6FA202333
:103DE00019430C23994300239946103308000C9380
:103DF00056E508238C460C930D23604698434FE507
:103E000010230A009A439446692808D180230A00A7
:103E1000DB001A409046194200D1CEE4CAE41C23CC
:103E20000800984380230A00DB001A40914619429B
:103E300002D10A230C9333E50A230C93DCE7C04636
:103E400000B585B00391012102900093034813004F
:103E50004A4202A9FFF762FA05B000BDF52A001038
:103E600010B5094A0300146884B0002C08D0012260
:103E700000910648524203A9A047012004B010BD9A
:103E800000F0A4F90020F9E7A00A0020E52A0010BC
:103E900000BEFDE710B5FFF7FBFFC04670B5FDF7AC
:103EA000F5FC074D074EB54209D20024013E761BB2
:103EB000B60808CD984723000134B342F9D170BD4C
:103EC0008C48001090480010030010B50800110045
:103ED0001B68984710BDC046F0B546464F46D646CB
:103EE000C0B5437D80460E001700002B4BD0002A42
:103EF00032DD274B01259A464B1E002400209946AF
:103F000007E0335D0A2B2CD02B0001340135BB4276
:103F100013DA002CF5D133780A2BF5D143461B7DFB
:103F2000002BF1D14346504602211B6898472800D8
:103F30002B0001340135BB42EBDB874204DD4346F5
:103F4000391A1B6830189847F619013E33780D3B33
:103F50005A42534142461375E0BCBA46B146A846A0
:103F6000F0BD4B461B5D0D2BCED0A042DADA4346A6
:103F7000211A1B68301898474346504602211B6897
:103F800098472800D4E70368110030009847E3E71A
:103F9000F84B0010F0B5C6460B6806000C0000B5E3
:103FA000802B06D05A1C2260E418267180BCB846CB
:103FB000F0BD0F4B1D68002D16D00B1D98460D4F00
:103FC00002E02D69002D0FD02B68002BF9D03B6843
:103FD000002B01D0AB42F4D1280041462268FFF704
:103FE0007BFF2D69002DEFD101220023DBE7C046C6
:103FF000980A00209C0A0020F0B5DE4657464E463F
:104000004546E0B585B017001C0006000D00FDF721
:10401000D7F90023314A12184B41802109068B42FF
:1040200002D301222E4B52422E4908008A4600F04C
:1040300007FC01906B1C03D1300000F0B7FB0500BA
:10404000002C26D0284B9846284B1C68002C15D0F5
:10405000002F21D1264F02E02469002C0ED02368C6
:10406000002BF9D03B68002B01D0A342F4D12000F3
:104070002A003100C0472469002CF0D1019B002B9D
:1040800028D1280005B0F0BCBB46B246A946A046E0
:10409000F0BD184B9846D7E7154B994602ABDF1D8C
:1040A0000A239B4602E02469002CE7D02368002BFA
:1040B000F9D04B461B68002B01D0A342F3D12A0054
:1040C00031002000C0475B460122390020003B70D0
:1040D000C047E8E7504600F09BFBD2E740420F00A4
:1040E000FFFFFF7FB8060020D93E0010980A00208D
:1040F0009C0A0020C93E00100A4A1368002B05D113
:104100000CE01A001B691032002B07D09842F8D13E
:10411000002902D103691360016170470029FCD0B6
:104120001060FAE7980A002010B500F0B7F90120F6
:1041300010BDC046F0B5CE46474680B583B06B464D
:104140000600DD1D2870FDF73BF900231A4A1218FE
:104150004B41802109068B4202D30122174B524268
:1041600017490800884600F06BFB164B81461C6817
:10417000002C14D0144F02E02469002C0FD02368C7
:10418000002BF9D03B68002B01D0A342F4D12000D2
:1041900001222900FFF7A0FE2469002CEFD14B4635
:1041A000002B05D1300003B0C0BCB946B046F0BD0D
:1041B000404600F02DFBF5E740420F00FFFFFF7F78
:1041C000B8060020980A00209C0A002070B5040060
:1041D00000F0ECFA01230100050001222000FFF7A6
:1041E0000BFF084B1C68002C06D06368002B05D021
:1041F00098472469002CF8D1280070BD2469002C50
:10420000F3D1F9E7980A0020F0B5CE46474680B5CD
:10421000A3B004000D00FDF7D3F80023294A1218BB
:104220004B41802109068B4202D30122264B524288
:10423000264F380000F004FB002306000193220003
:104240002B00234801A9FFF7FBFD019B8046002BB3
:1042500014D1204B1C68002C06D06368002B0BD0B7
:1042600098472469002CF8D1002E25D1404623B070
:10427000C0BCB946B046F0BD2469ECE7154B1D68DB
:104280009946002D1CD0144C02E02D69002D0FD052
:104290002B68002BF9D02368002B01D0AB42F4D15E
:1042A0002800019A02A9FFF717FE2D69002DEFD112
:1042B0004B4601951C68CEE7380000F0A9FAD5E717
:1042C0000195D1E740420F00FFFFFF7FB8060020B5
:1042D000953F0010980A00209C0A00200FB400B5FA
:1042E00083B004A901C90191FFF78EFF03B008BC98
:1042F00004B01847F0B5002915DD0E4B0D271A68DC
:104300000D4B0E4CD3185D426B41451820215B00CC
:104310001E5F0478A64207D093691942FCD1013090
:104320001460A842F5D1F0BD93691942FCD1176021
:10433000F2E7C046C00A00200080FCBFBC0A002093
:1043400030B504000D1E2EDD002010211F4B013C56
:104350001A689369194216D1013093691942FCD148
:10436000136823548542F4D1194B1B68002B08D0E5
:1043700050239363516B183B0B4016498C466244A3
:10438000136028000EE0124B1B68002B08D050234E
:104390009363516B183B0B400E498C46624413608B
:1043A00000280FD030BD0A4B1B68002B0AD05022CA
:1043B000064B1B689A63596B183A0A4005498C46AC
:1043C00063441A6003204042ECE7C046C00A002064
:1043D000640A002034100000064B10B51B68002B47
:1043E00006D00021044A12689163044A1068984775
:1043F00010BDC046640A0020C00A0020680A0020E0
:104400000822034B19688B691A42FCD17047C046D9
:10441000C00A002070B51B4E1B4B32680500D31834
:104420005842434114331C00002D04D0174B1A6826
:10443000002A11D070BD154E3368002BFAD0002130
:1044400020009563FCF7E0FA20001149FCF718FB07
:10445000104B35601D60EDE71D600E4B20001960AC
:104460000B49FCF7E3FA01212000FCF7CDFA5022BA
:1044700033689A63596B183A0A4007498C4663447B
:104480001A60D7E7C00A00200080FCBF640A002041
:10449000D9430010680A0020341000000D4B10B5FD
:1044A0001B780D4B0D4C1B780D4B02211B780D4BCF
:1044B00000202360FCF7C4F902210120FCF7C0F9B9
:1044C000E12120684902FCF7B9FF01210648FFF706
:1044D00013FE10BD884C0010844C0010C00A002050
:1044E000804C00100040034070020020F0B5574699
:1044F000DE464E4645468846E0B583B006000524B4
:10450000FCF7D0F9434684461C571879364B374A96
:10451000F3181B0D9B009246D75801228240013AA6
:10452000002C42DB2021091A8C423BDC1100A14007
:1045300025000F4236D141460968894641468979AE
:1045400000294DD1AA4093463A423FD180218901AA
:1045500000228846002816D06146A44634004E4604
:104560009946030001915100705A404500D240190C
:10457000A91812318900013208519A42F3D3019BE4
:1045800064469C464B465A4617435246D7506046AF
:10459000FCF794F9200003B0F0BCBB46B246A94634
:1045A000A046F0BD01246442F1E72024241A0DD472
:1045B0001100A14025008B46394205D109E01100C8
:1045C000A14025000F42B6D0013CF8D20924644234
:1045D000DDE742461268914642469279002AB5D0FC
:1045E00014246442D3E7C0460000E0AF5C0A002018
:1045F000F0B54E464546DE465746E0B583B089469F
:104600000CA984460D781F2A45D84946490088469A
:104610004944C900461837003400DC373868CC34C8
:1046200083462068310001901C4880248246A40201
:1046300051440C6069424D411E216D428D43184921
:104640008A465544052B0CD9A0201F214005D83699
:10465000540104430532053B3C600A403560052B9C
:10466000F6D852019B06134342464A44D2006244A4
:104670001000DC3213600300D8331D605B4613600A
:10468000019BCC300360002003B0F0BCBB46B246B7
:10469000A946A046F0BD05204042F5E7CC30000019
:1046A0009FE00000F0B501258D400468AC43046034
:1046B000002B2ED04D006C18E400041926001F6852
:1046C000C83637609F68043677605F68DB68DC3423
:1046D000376023606B18184DDB00AC468025C4188A
:1046E00064442D0625602560144C0D1D8C408460AB
:1046F00001242600AE40802508318C401F21AD01E9
:104700004519C0180A40D8302E602C600260002085
:10471000F0BD4D006C18E400041926008027C8364F
:104720007F023760C0273F03B760F82704367F0257
:10473000DC3437602360CDE7D010000001010101B7
:1047400010B5064B064C82B00100009300220B23EB
:104750002000FCF7DFF802B010BDC046444C00104A
:10476000C46202200022034B1B68A83318605A6001
:104770007047C04688020020094B10B51C68094AE2
:10478000A83420686168084BFDF7D6FF012200239A
:1047900080185941206061604800400810BDC04643
:1047A000880200202D7F954C2DF4515810B58307B9
:1047B0000AD00300032102E001330B4205D01A782E
:1047C000002AF9D1181A10BD030019680C4A0D4CC3
:1047D0008A188A4322420FD15968094A04338A1839
:1047E0008A43224208D15968054A04338A188A4309
:1047F0002242F1D000E001331A78002AFBD1E1E730
:10480000FFFEFEFE80808080F8B5C04600000000FC
:1048100001B40248844601BC604700BF5D0100202E
:1048200001B40248844601BC604700BF85010020F6
:1048300001B40248844601BC604700BF85010020E6
:1048400001B40248844601BC604700BFC10000209B
:10485000B5180010E11800102D1A001041280010A2
:10486000D92000108127001055190010FD180010E4
:104870001D19001031190010190D00103919001000
:10488000A11000107D180010E5090010FD020010B5
:104890000A0A2054696D6520746F20636F6D70750E
:1048A000746520256420706F696E74733A20253317
:1048B0002E3666207365630A0A000000C4480010A3
:1048C00009FF0000A08047A000E022A0C123A08033
:1048D0000464046245000000E04800100EFF000080
:1048E000A08027A0C02001C0420049E0C02086006F
:1048F00000E0C020C0205FE0C0388C0004490010F8
:1049000009FF0000A08027A0420000FF00FF00FF79
:1049100001FF01EC00C100000A2A2A2A2050414E62
:104920004943202A2A2A0A00486172647761726525
:1049300020616C61726D20256420616C7265616418
:104940007920636C61696D65640000004861726480
:10495000206173736572740052656C6561736500E4
:10496000626F6F74325F773235713038300000001B
:10497000322E312E310000007069636F000000009C
:104980005647415F4261726E736C65795F4665722E
:104990006E0000004D617220313620323032350019
:1049A00006005250D3F0754258490010060052508C
:1049B000E182887F6049001006005250ABB360531B
:1049C0007049001006005250BBFF3CB678490010F9
:1049D00006005250861C0302804900100600525007
:1049E0005422A29D9449001005005250DE65F468DF
:1049F0008C520010666E692B00000000666E690024
:104A00006E616E00666E692D00000000E6330010D6
:104A10009C3300109C330010DE3300109C330010D8
:104A20009C3300109C3300109C3300109C3300100A
:104A30009C3300109C330010D63300109C330010C0
:104A4000D03300109C3300109C330010C83300108A
:104A50003C350010F833001030350010F8330010EA
:104A60001E350010F8330010F8330010F833001032
:104A7000F8330010F8330010F8330010F83300104A
:104A8000EE330010F8330010F8330010F833001044
:104A9000F8330010F8330010EE3300107E350010AC
:104AA00040340010403400104034001040340010F6
:104AB00040340010403400104034001040340010E6
:104AC00040340010403400104034001040340010D6
:104AD00040340010403400104034001040340010C6
:104AE00040340010403400104034001040340010B6
:104AF00040340010403400104034001040340010A6
:104B00004034001040340010403400104034001095
:104B1000403400104034001040340010E0340010E5
:104B20004C350010E03400104034001040340010C8
:104B30004034001040340010403400104034001065
:104B40004034001040340010403400104034001055
:104B50004034001040340010403400104034001045
:104B600040340010403400109837001040340010DA
:104B70004034001040340010403400104034001025
:104B80004034001040340010403400104034001015
:104B9000983700109235001098370010E03400105C
:104BA0004C350010E0340010000000000000F03F21
:104BB00000000000000024400000000000005940F8
:104BC0000000000000408F40000000000088C3404B
:104BD00000000000006AF8400000000080842E41C0
:104BE00000000000D01263410000000084D797410C
:104BF0000000000065CDCD410D0A00005541525422
:104C000020737464696E00005541525420737464BB
:104C10006F7574005541525420737464696E202F6F
:104C2000207374646F7574000600525053B4F4A17D
:104C3000144C00100800525012000000080052509E
:104C4000921000004E6F20444D41206368616E6EEB
:104C5000656C732061726520617661696C61626C5C
:044C600065000000EB
:104C6400A0490010AC490010B8490010C449001014
:104C7400D0490010DC490010E84900103C4C0010F9
:084C8400344C0010284C001014
:104C8C00F0B5C646150000B504001E000268EFF32F
:104C9C00108172B61368002BFCD0BFF35F8F042316
:104CAC00E356002B2DDB2268BFF35F8F00201060D2
:104CBC0081F31088D0221206127852B290469A4292
:104CCC0003D1002080BCB846F0BD00270BE0236860
:104CDC00BFF35F8F1F6081F310882800310000F054
:104CEC0033F80028EDD12268EFF3108172B6136807
:104CFC00002BFCD0BFF35F8F23797F2BE7D9434682
:104D0C0002E0D0231B061B6823712368BFF35F8F5F
:104D1C0000221A6081F310880120D3E70268EFF3B8
:104D2C00108172B61368002BFCD0BFF35F8FFF238A
:104D3C0003710368BFF35F8F00221A6081F3108840
:104D4C0040BF70477047C04601B40248844601BC5E
:104D5C00604700BFA11200100080160051380000FF
:104D6C00B81E000047210000D7230000CDECFFFF48
:104D7C00CCCC0000281C0000701D00004721000056
:104D8C0099190000CCCC0000CC6C0000E2FAFFFFBB
:104D9C001E050000CC6C00007A140000C40A002030
:104DAC0010000000000000000000010000000000E6
:104DBC0000000000000002000000000000000000E5
:104DCC000000030000000000000000000000FF00D5
:104DDC000000000001B5486801318E46004770465E
:104DEC0009380149884701BD550C0010000000002E
:104DFC0000000000000000000000000000000000A7
:104E0C00C0060020000000000000000000000000B0
:104E1C00503300004C330000543300005233000078
:104E2C004D5300004D430000533400004334000048
:104E3C00F5420010014400104143001015440010CD
:104E4C0000000000000100009002002000000000A3
:104E5C00000000007C050020E40500204C0600202A
:104E6C000000000000000000000000000000000036
:104E7C000000000000000000000000000000000026
:104E8C000000000000000000000000000000000016
:104E9C000000000000000000000000000000000006
:104EAC0000000000000000000000000000000000F6
:104EBC0000000000000000000000000000000000E6
:104ECC0000000000000000000000000000000000D6
:104EDC0000000000000000000000000000000000C6
:104EEC0000000000000000000000000000000000B6
:104EFC0000000000000000000100000000000000A5
:104F0C000E33CDAB34126DE6ECDE05000B00000069
:104F1C000000000000000000000000000000000085
:104F2C000000000000000000000000000000000075
:104F3C000000000000000000000000000000000065
:104F4C000000000000000000000000000000000055
:04000005100001E9FD
:00000001FF
