:020000041000EA
:1030000000200420F7300010C3300010C53000103D
:10301000C1300010C1300010C1300010C1300010AC
:10302000C1300010C1300010C1300010C730001096
:10303000C1300010C1300010C9300010CB3000107A
:10304000CD300010CD300010CD300010CD3000104C
:10305000CD300010CD300010CD300010CD3000103C
:10306000CD300010CD300010CD300010CD3000102C
:10307000CD300010CD300010CD300010CD3000101C
:10308000CD300010CD300010CD300010CD3000100C
:10309000CD300010CD300010CD300010CD300010FC
:1030A000CD300010CD300010CD300010CD300010EC
:1030B000CD300010CD300010CD300010CD300010DC
:1030C00000BE00BE00BE00BE00BE00BEEFF3058025
:1030D000103800BEF2EB8871EC4F00100850001061
:1030E0003831001090A31AE71E481F49086006C82F
:1030F00081F3088810471D480068002801D019484E
:10310000F3E70DA40ECC002902D000F012F8F9E785
:103110001749184A002000E001C19142FCD116492C
:103120008847164988471649884700BEFDE701C908
:1031300001C29A42FBD3704708500010C000002023
:1031400068020020B051001000000420000004209C
:10315000B0510010001004200010042000000000F6
:10316000704700000000000008ED00E0000000D003
:10317000680200206C060020A54B001039320010B8
:103180009D4B0010F8B5C0460448054B10B583426E
:1031900003D0044B002B00D0984710BD68020020DC
:1031A000680200200000000006480749091A8B1039
:1031B000C90FC91810B5491003D0044B002B00D01B
:1031C000984710BD6802002068020020000000003F
:1031D00010B5074C2378002B09D1FFF7D5FF054B1D
:1031E000002B02D0044800E000BF0123237010BD73
:1031F000E805002000000000004F0010054B10B54E
:10320000002B03D00449054800E000BFFFF7CCFFC6
:1032100010BDC04600000000EC050020004F00106B
:10322000012210B5034B00210020DA6001F01AFAE8
:1032300010BDC0460080054070B5192000F0D0F9DF
:10324000D024802324069B0463620E2000F0C8F97A
:10325000002201210E2000F047F90D2000F0C0F9F6
:10326000002201210D2000F03FF9802601220421D7
:103270000E20104B00F04CF9B601636833420CD0BD
:103280008025AD04FA20A56100F0E2FFFA20656117
:1032900000F0DEFF63683342F2D10122064B0021C9
:1032A00000201A6101F0DEF9FA20800000F0D0FF62
:1032B000E3E7C0462132001000800540D0231B0602
:1032C0001B68854A99005258F0B5574692465A1ED7
:1032D00093413022DE464E4645465B421A4013007B
:1032E0007E4AE0B5944683B0634401937C4B8846A4
:1032F00008260F279B463500083DEA081300019970
:1033000008339B005C58002C26D001239946534675
:10331000002B2BD039002140274217D05B46424674
:103320009A582B00EA40203BDB1713404A461342D1
:103330000CD1072208002A40920090400200EB08BE
:1033400068483C339B001A502800D04724090135B7
:10335000002C01D0B542DDD30836282ECBD103B0E6
:10336000F0BCBB46B246A946A046F0BD390021409C
:10337000274209D040465A4B18583300E840283BB2
:10338000DB0F034200D180E02309E5D00F221100BA
:1033900019401A420FD04046514BF21F18583300C3
:1033A000D040273BDB0F034205D1D2083C329300CB
:1033B0004C4A09019950230ACED00F22110019401E
:1033C0001A420FD04046464BB21F18583300D04027
:1033D000263BDB0F034205D1D2083C329300414A21
:1033E00009029950230BB7D00F22110019401A423D
:1033F0003AD1230CB0D00F22110019401A4249D102
:10340000230DA9D00F22110019401A4253D1230EC7
:10341000A2D00F22110019401A420FD04046304B63
:10342000B21E18583300D040223BDB0F034205D1B7
:10343000D3083C332B4A09069B009950240F711E78
:10344000002C00D188E74246254B9A583300CA40E9
:10345000213BDB0F134200D07EE7CB08214A3C33EF
:1034600024079B009C5077E740461D4B721F18585D
:103470003300D040253BDB0F0342BAD1D2083C32A7
:103480009300184A09039950B3E7164B3C32920057
:10349000D15079E74046124B321F18583300D040C4
:1034A000243BDB0F0342ABD1D2083C3293000D4AE0
:1034B00009049950A4E74046094BF21E18583300FE
:1034C000D040233BDB0F0342A1D1D3083C33054A54
:1034D00009059B0099509AE704060020004101402D
:1034E0005806002000400140074B8000C3181B68AD
:1034F000C90092000A435A400C231340034A9446E1
:10350000604403607047C04604C0014004D00140DD
:10351000F8B545469846D0231B06DE461C689B46F8
:103520002B4B57469A46A3004E469946E0B5534664
:1035300016004A469B5807000D00002B34D0434626
:10354000002B3FD053464A4641469950D0231B0694
:103550001C6863425C412F220720634293431D4A4B
:1035600038409446FA081100800085403C311A48E2
:103570006344890092000D509B18002E0ED08022CB
:1035800092019446634401210D201D6000F0AEF8C5
:10359000F0BCBB46B246A946A046F8BDC022920187
:1035A000944663441D60F3E74346002BD1D0534655
:1035B00041460D2099500022084900F0D3F85B469F
:1035C0001C68C6E70D20054900F0C6F9BAE7C046F9
:1035D000040600203041014000400140BD3200108F
:1035E0000123D0228340120693629361094A83002B
:1035F0009A1811684022514080320A400649C000A2
:103600008C4663441A60054B9C4605236044436026
:103610007047C04604C0014004D001400040014052
:103620000FB400B5084883B001F004FC049B002BE4
:1036300007D005A91800019101F096FA034801F09E
:10364000F9FB012001F0A8FA004F0010104F001004
:1036500070B5EFF3108C72B60D4D2B68002BFCD0BB
:10366000BFF35F8F0724CB08C618C05C01230C4052
:10367000A3401C000440034207D118433070BFF33D
:103680005F8F2C608CF3108870BD1000FFF7C8FFAF
:103690002C0100D0044A1078431CDBB2172B00D950
:1036A000102313707047C046980100200021044B7E
:1036B000044ABFF35F8F02C39342FAD17047C046FA
:1036C000000100D0800100D0054B064A1360064A75
:1036D000136053609360D3601361536193617047CB
:1036E0008080808000E400E004E400E01F231840B4
:1036F0001E3B8340002905D0C021044A4900535095
:1037000013607047802201498B50FAE700E100E026
:1037100070B50D00EFF3108672B60F4A1368002BD8
:10372000FCD0BFF35F8F0D4B10309B6884001B599A
:103730000B4A934203D09D4201D001F031F8074B70
:103740009B681D51BFF35F8FBFF35F8F0022024B59
:103750001A6086F3108870BD240100D000ED00E0EF
:10376000CD300010F0B557464E46DE464546E0B532
:1037700085B0060000911700EFF3108B72B66A4A0D
:103780001368002BFCD0BFF35F8F0025674B5D579C
:103790009A46002D00DA8BE06B00654C01935B19B3
:1037A0009B009846A146C1444B4652469B79103631
:1037B0001370604BB6009B6899590B1B2F2B33D9A4
:1037C0005D4B994200D0ACE0019B42469C465B4B6E
:1037D0006544AD0063535A4B0232A218043B9B1A56
:1037E0001B05584A5B0D651913436B80564B01212D
:1037F000AB80FF23AB71009BEF71AB604B460B437B
:1038000019004C4B9B689951BFF35F8FBFF35F8FDB
:103810000022454B1A608BF3108805B0F0BCBB4604
:10382000B246A946A046F0BD01200A008243D379E2
:103830008C46BB4231D84546130044491B1B5B41B3
:103840005943090D3D4B63533D4B02356519043B0C
:103850005B1B1B053B4D5B0D2B43AA464D466B8006
:103860000425AC465546E044131F44441B1B1B056E
:103870005B0D1D434B46997100999D8099604946A7
:10388000DF71334B01431360BBE75800C018800061
:103890002018C179B94211D902000623D356002B52
:1038A000F3DA0293131D9A462A4B6146039319E0FB
:1038B00000F076FF002553465D576DE79088029330
:1038C0004005131D9A46031561469C464046D44464
:1038D000634604302018181AE0230005400D1B022F
:1038E0001843039004235B429C46E14450464B46F8
:1038F0001B1A1B055B0D9C46124B9571984663463F
:10390000404603439380019B5A199200039BA418DD
:10391000A380029B0E4AA371009B2260E771A36003
:103920006FE700F03DFF4FE7240100D0680600205C
:103930009C01002000ED00E0CD30001000A1FFFF51
:10394000CC01002000E0FFFF01BDFFFFAAAA00009C
:103950000148804701BD0000F0B5DE4657464E469F
:103960004546E0B50C0083B0EFF3108872B6634AA9
:103970001368002BFCD0BFF35F8F614B61499A68DD
:10398000030010339F00D55900938D4243D0A542C8
:1039900054D05D4EAA1B2F2A3DD85C4B9C461B6819
:1039A0009A4601231A0099468240534613401F222B
:1039B00001934B46024093409A468022634650460C
:1039C0009850BFF35F8FEFF305839B46002B37D0F2
:1039D000009B5B4501D000F0E3FE2A004B469A4372
:1039E0009068844208D177E04B005B189B00F31885
:1039F0009868844236D01A00062151560029F3DA1D
:103A0000844255D0019B002B27D0C02251463F4B0A
:103A10005200995019603A4B9B68DD51BFF35F8F9C
:103A2000BFF35F8F0022354B1A6088F3108803B014
:103A3000F0BCBB46B246A946A046F0BD0D00EAE781
:103A40002A004B469A4390688442D5D106201056EE
:103A5000130000280ADA0D0032E0802351462B4A79
:103A6000D150D8E706201856002822DB4200111852
:103A7000890074188946A1689960E179D971062195
:103A800061569971002925DBA488F11A6405241573
:103A90004C440919E0240905490D24022143998069
:103AA00013181B4A9B001178F31899711070A9E73D
:103AB00013005946002914D1FF31917115499180A5
:103AC00013490A789A71144A9B1B5B415A43120DA1
:103AD0000A7097E71149E2E7062010561300002804
:103AE000C4DA0F4A0F49D21A083A5002400D014376
:103AF00099800D4952080A43DA8083E7240100D0F7
:103B000000ED00E0CD3000109C01002000E100E05D
:103B10006806002001BDFFFFAAAA000001BD000049
:103B2000D601002000F0FFFF00F8FFFF70B5012470
:103B30000443EFF30581EFF3108C72B6214A13684A
:103B4000002BFCD0BFF35F8F1F4B05001F4AED1AFF
:103B50006D416A43120D1E4D8900AE6852B276580F
:103B6000A6421CD00621595691421CD0122159560A
:103B7000914222D01E215956914220D02A215956D5
:103B80000324914210D0134B19781A708171BFF33E
:103B90005F8F00220B4B1A608CF3108870BDAB68EE
:103BA0000D4C5C50EFE700246100091989005B1897
:103BB000FF21997109499980E5E70124F4E702247E
:103BC000F2E7C046240100D09C010020AAAA000010
:103BD00000ED00E068060020CD30001001BDFFFFC1
:103BE000024B9C46614489000160704740000034EC
:103BF000F8B5134D134E2C00FF27B5421ED2236893
:103C0000002B0FD0FFF746FD01002800FFF7E8FF6B
:103C1000A780BFF35F8F0834B4420FD2236825001A
:103C2000002BEFD1FFF736FD01002800FFF7D8FF8A
:103C30002771BFF35F8F0834B442EFD3F8BDC0469D
:103C400020020020280200200A4B1968EFF31080A0
:103C500072B60A68002AFCD0BFF35F8F1B68BFF3FF
:103C60005F8F00221A6080F3108840BF002000217F
:103C70007047C04664060020F0B5DE4657464E4603
:103C80004546E0B585B0EFF3058203231340B64AFD
:103C90009900575801229A4088469346B34B1A60C0
:103CA000B34B02935B46B34843630823FE5E002E8A
:103CB00035DABB881BB2002B00DBA8E0BB79002BF8
:103CC00000D0E9E00823F85E00281EDB43007A6993
:103CD0001B18DB00D3189D68DC686B1C00D108E161
:103CE000A44801004144826A0B69AE1A9B1A9E42A5
:103CF00013D35A46036A1A420FD09E4800F04CFB79
:103D00008C4202DCCED18542CCD940BF05B0F0BC9C
:103D1000BB46B246A946A046F0BD0D61EDE77A6903
:103D2000730091469B19DB0099444B469C68DD6803
:103D300000F032FB8D42BCDC00D1FEE0002D00DA49
:103D4000E3E04B46029A1B69934200D1D5E04A4614
:103D50005288494694460822B85E62460004496982
:103D600010439847009001910099019A0B001000B0
:103D7000134300D1C9E013000A00002800DBE0E093
:103D800020002900801A99414B469860D960002292
:103D90009A5E002A00DA8CE753009C187D69E400E3
:103DA0002C190093A368E4689A468C4200DD80E7F2
:103DB00002D1834200D97CE708239C46BC443A8167
:103DC00003976746009BB4463E000EE08C4200D14C
:103DD000C5E01E000023F25E002A0BDB53009C1896
:103DE000E4002C19A768E468BA469B18DB00EB18BE
:103DF0008C42EBDD330066469C464B461A80634698
:103E0000039F1E80BB881BB2002B00DA56E73A697D
:103E1000EFF3108172B61368002BFCD0BFF35F8FF5
:103E20000123BE885B42BB8036B23B69BFF35F8F24
:103E300000221A6081F31088002E00DA3EE73B0072
:103E400008333A0099467D6973009B19DB00EB1833
:103E50009968DC688C460820115E4846002910DB12
:103E6000009306E0A34240D00023F95E3800002909
:103E700006DB4F007F18FF00EF19FB68A342F1DD5E
:103E8000009B068000201E5E1980002EDCDA1700E1
:103E9000BB79002B00D115E70023BB713D0008233F
:103EA000F95E08354B1C00D12FE77C690800A44659
:103EB00003E035004B1C00D106E74B005B180A00FD
:103EC0006146DB00CE18C95E73881BB2002BF0DAA6
:103ED00001235B42DC17B360F4608242EAD02980A0
:103EE0003B89100033803A81E4E7BB686345BBD966
:103EF000C6E7631C00D0F3E6FFE64B465B699A46D3
:103F00001B6950469847002823D14B461B883A69C5
:103F10003B81EFF3108372B611680029FCD0BFF328
:103F20005F8F49467A880A803A697E80BFF35F8F47
:103F30000021116083F31088BBE6844200D8FDE6BF
:103F4000B7E60C4800F028FA009B019CC0186141BC
:103F50001AE753461A685B680092019304E78245AA
:103F600000D836E746E7C046480600203C700540CA
:103F7000793C00100040054070B52E4C2569002D9D
:103F800004D00A212C48FFF72BFE70BD2B4E0321D5
:103F9000300000F0F7F9E660FFF77CFB284B0322C6
:103FA0009C46D02322701B061B6801216370254BA1
:103FB0006044A3600F238000206102206380636956
:103FC0004942A18019800231198647311D83585218
:103FD00018315A5275325C3999521832013199525E
:103FE000183201319952183201319952083518327C
:103FF0009D520231183299521832013199521832B9
:1040000001319952183201319952183201319952C5
:104010001832013199520C4B0C49DC600130356289
:10402000FFF776FB01210320FFF760FB084B1D60C3
:10403000A7E7C046E40100206406002000400540D8
:1040400040000034FFFF100048060020793C0010BB
:104050003860054070B501000469EFF3108C72B64A
:1040600020680028FCD0BFF35F8F02200D5E4C69F2
:1040700068004019C0002418002D37DB20884880D4
:104080000869BFF35F8F002606608CF31088E36039
:1040900063880498013320615B0405985B0CA2607F
:1040A00060611A1C002B1FD093B228046280184351
:1040B0000A69EFF3108C72B61368002BFCD0BFF3C3
:1040C0005F8F8B8823808D800B69BFF35F8F002209
:1040D0001A608CF310880B7801329A40CB6808493B
:1040E0008C4663441A6070BD0122DDE70B69BFF3A3
:1040F0005F8F00221A608CF3108801204042F2E7A3
:104100003C20000010B543890A1493421ADD530085
:104110009B184269DB00D3180469EFF3108C72B668
:104120002268002AFCD0BFF35F8F5A88090494B23A
:10413000090C8A4208D00369BFF35F8F00221A601E
:104140008CF31088002010BD8022120214435C8082
:10415000012302698371BFF35F8F002111608CF32B
:104160001088044902788C469340C268012062445A
:104170001360E8E73C200000F0B504000D000626BF
:104180007642F717C64636196F4100B582B08F42A6
:1041900014D811D000F008F932003B00121A8B41FC
:1041A000002B17DC002B47D02000290000F006F977
:1041B00002B080BCB846F0BD8642EBD90022002395
:1041C00016001F0000F0F0F832003B00121A8B417D
:1041D000002BE7DD00F0E8F832003B00121A8B41BB
:1041E000002B0ADB00230193154B32000093154886
:1041F0003B00FFF72FFF0028D6DB00239C46B0468C
:10420000114A124E736A9F4204D8B16A4145CBD21B
:104210009F42C9D11168EFF3108072B60B68002B72
:10422000FCD0BFF35F8F1368BFF35F8F61461960E7
:1042300080F3108820BFE5E7002AB5D0CAE7C04662
:10424000493C0010E40100206406002000400540C5
:1042500070B5060000F0A8F8FA2204000D00002353
:1042600030000021920000F007FC80230019694112
:104270001B06994202D3012002494042FFF77CFF0E
:1042800070BDC046FFFFFF7FF0B5CE46474680B504
:1042900004000D0083B0EFF30587002F0DD0364AE0
:1042A0000020536A8B4203D3926A0130A24250D35A
:1042B00003B0C0BCB946B046F0BD304B9846DB6891
:1042C0009946434648461E7800F066F80B0049467A
:1042D00002000436B600715820008E1A2900801A98
:1042E00099418F4211DC0ED020BF234A0020536A2F
:1042F000AB42DDD3926A0130A242D9D2EB1A5A1EE8
:104300009341D8B2D4E78642EED900F04DF82200AE
:104310002B00121A8B41002B20DB00230193184B3A
:104320002200009340462B00FFF794FE011E15DD8E
:10433000114B2E005A6A95421CD89B6AA34217D390
:104340004046FFF7DFFE0C4A0020536A9E42AFD87A
:10435000D0E75B1A5A1E9341D8B2A9E7064A00205B
:10436000536AAB42A4D3926A0120A242A0D2C5E70D
:104370009542E5D120BFE3E700400540E40100207D
:10438000493C001010B5024A0248FFF761F910BD20
:10439000144F00100C0600200300416A0A00986ABE
:1043A000596A8A42FAD17047034B596A0A00986ADF
:1043B000596A9142FAD1704700400540064A536A53
:1043C0009942FCD807D1044B02E05A6A914202D1CB
:1043D0009A6A8242F9D3704700400540F8B5DE463C
:1043E0004E4657464546E0B58B4605000A991800EB
:1043F000160000F0B3FA0A9B6C001F02324B6419DE
:104400009C46A4006444636881469F4200D967606B
:104410002B1FDBB29846012B30D9C02380229B0191
:10442000E31812011A60294BAD0059599A46002928
:104430001BD17301E026226853401E408023424670
:104440005B01E3181E60012A30D9802380229B0182
:10445000E31812011A6053464A4667605A51F0BC8D
:10446000BB46B246A946A046F8BD586900F076FAA8
:10447000013043001B18033BFDD2DAE75B46012BFA
:10448000CBD1C02303229B01E3181A60023AA36830
:104490001A42FCD07301E0262268AD0053401E4052
:1044A00080230A4A5B019246E3181E605A4621683F
:1044B000514003220A401A6001225B469A40A368D9
:1044C0001A42FCD0C1E7C046008000401006002020
:1044D000F0B546464F46D646C0B51F00344B4400A3
:1044E0009C462418A4006444636888461600FF2B89
:1044F00002D880235B006360031FDBB29A46012B66
:1045000030D9C02380229B01E31812011A60294B85
:1045100085005959994600291BD17301E02622686C
:1045200053401E40802352465B01E3181E60012A5F
:1045300030D9802380229B01E31812011A60802366
:104540005B0063604B465F51E0BCBA46B146A8468B
:10455000F0BD586900F002FA013043001B18033B1C
:10456000FDD2DAE74346012BCBD1C02303229B01C6
:10457000E3181A60023AA3681A42FCD07301E026DD
:104580002268850053401E4080230A4A5B01914601
:10459000E3181E6042462168514003220A401A6017
:1045A000012342469340A2681342FCD0C1E7C046B3
:1045B0000080004010060020014B8000C05870476A
:1045C00010060020F8B5040020481D0017000E005A
:1045D00000F0C4F90100380000F0C0F9069B29047E
:1045E0001B0319432368002B1EDB194B194DE218DE
:1045F00053425A4180235B019C461203164B62448E
:104600001A60164B1A6017002B689F43FBD1144B9E
:104610002660E2182123A06013602368002BFCDAD7
:104620000823E1601360F8BD3F2322681340B342C2
:10463000DBD1A3681B051B0D8342D6D1EE22E368B4
:10464000D20213408B42D0D1EDE7C046001BB70029
:104650000040FDBF08C0004000E0004000F0004006
:104660000430000010B580241C4BE4051C600028B9
:104670001AD001231A4C18431A4BDC611A4C4440DF
:104680001C62596298628021144BC9051960174851
:1046900017490860E021C9041960002A07D1802267
:1046A000144B12061A6010BD0E4BD861EBE7530194
:1046B0009B1A9B009A18802312015B049A4209D22C
:1046C00013000D490B60074B5A608022094BD2053D
:1046D0001A60E8E7094B1A00F3E7C04600B005404E
:1046E000D3C007B0008005402D3FF84FFCFF01000C
:1046F0000820014000A0054044060020FFFFFF0005
:104700008023024A9B000B43D36270470080054020
:10471000142310B50100188804331B88984710BD76
:10472000162310B50100188802331B88984710BD66
:10473000F8B54746CE4680B50F1E19D014239946CA
:10474000043304000025012698464B46188843464A
:1047500021681B88984701C4431E98410135404297
:104760000640AF42F1D13000C0BCB946B046F8BDFA
:104770000126F8E7AA23064A1B0113608D235B007C
:10478000D3600449044B19605368002BFCDA70476E
:104790000040024000B0FA00006002407047C0468E
:1047A00010B50148FEF73CFF384F001070B5074DBB
:1047B000074EB54209D20024013E761BB60808CD4B
:1047C000984723000134B342F9D170BD280200207C
:1047D00064020020054B064A06491A60064A074B48
:1047E0001A6010000B689843FBD1704700E000404E
:1047F000BFCDFBFE08C00040FE7F3C0000F0004043
:10480000044BDB6C002B03D18022034BD2021A60D5
:104810007047C046000011504C201150044A054B0F
:104820001A60054A1368DB018033FBD17047C0462C
:10483000FFFFFF0100F0004008C000404022034B92
:104840009A675A671A67DA667047C04600F00140F7
:1048500010B5FEF72BFF10BD70B5044D044CA968D0
:10486000C022200000F072F9AC6070BD00ED00E0E5
:1048700000000020002310B5294C82B0A367FFF789
:1048800079FF0122274B1A60636C012BFCD10322B4
:10489000254B1A60224A936B012BFCD10133009304
:1048A0000121224A22480433FFF78CFE052301210F
:1048B0000093204A2048FFF785FE002202210420B1
:1048C0001E4BFFF705FE0022012105201C4BFFF7C0
:1048D000FFFD0022002107201A4BFFF7F9FD0022FF
:1048E00000210820174BFFF7F3FD8023DB00009326
:1048F000002200210920134BFFF770FD0022104B0E
:1049000000210620FFF7E4FD0420FFF755FE0E49C5
:1049100000F024F801000020FFF7F2FE02B010BD05
:10492000008000403CB0004030B00040002F68598B
:1049300000800240008C864700C00240001BB70088
:1049400040597307006CDC0240420F00014804210B
:10495000014B18470002002031470010114A936FA5
:104960009B0813D210665166002905D0FFE7FFE7C8
:10497000FFE7516F106F704704B5002801D0002089
:10498000C04300F0ADFA002104BDC046F0B5146E7E
:10499000556E576F166FFFF7E5FF1466556657673C
:1049A0001667F0BD000000D0132370B51D78012DEF
:1049B00019D014DD1F48FFF7B3FE06001E48FFF7AD
:1049C000AFFE1E4C80223100200000F0BFF8022D07
:1049D0002DD01B48FFF79CFE1A4B186070BD1A4B78
:1049E000164CA364F5E7184B144C23606360A36076
:1049F000E36023616361A361E36123626362A36295
:104A0000E36223636363A363E36323646364A36474
:104A1000E36423656365A365E36523666366A36654
:104A2000E36623676367A367E367A364D1E7064B85
:104A3000A364CEE75344000053460000E80300207F
:104A40004C330000600600204D4A001007B5604658
:104A500001880A0A0230DF2AFAD1C9B2820804D3D7
:104A6000028840880004104300E00068014A50506A
:104A7000039007BDE803002051434343C9188C4607
:104A8000110C83B24B4310B4040C614392B280B258
:104A9000504362431C041B0C001910BC5941130401
:104AA000120CC0185141614470470000132310B527
:104AB00012481C78FFF734FE0100012C0AD003DDF8
:104AC00080220F4800F042F80E48FFF721FE0E4BFF
:104AD000186010BD0A4C5422200000F037F80B4B30
:104AE0006365A365E36523666366A366E366236780
:104AF0006367A367E3672362E361E5E7534600006A
:104B0000E80400204C33000060060020114B001028
:104B100007B5604601880A0A0230DF2AFAD1C9B215
:104B2000820804D3028840880004104300E0006833
:104B3000014A5050039007BDE804002001480421B9
:104B4000014B18471002002031470010014B5B68F1
:104B5000184700001002002010B5002800D110BD39
:104B600000F01CF9FBE7C04610B5094A03001468C1
:104B700084B0002C08D0012200910648524203A9BB
:104B8000A047012004B010BD00F054F90020F9E75F
:104B900040060020594B001000BEFDE710B5FFF79E
:104BA000FBFFC04670B5FFF701FE074D074EB5424B
:104BB00009D20024013E761BB60808CD9847230091
:104BC0000134B342F9D170BD6402002068020020B4
:104BD000030010B5080011001B68984710BDC046BF
:104BE000F0B546464F46D646C0B5437D80460E00DA
:104BF0001700002B4BD0002A32DD274B01259A46A7
:104C00004B1E00240020994607E0335D0A2B2CD070
:104C10002B0001340135BB4213DA002CF5D1337877
:104C20000A2BF5D143461B7D002BF1D1434650465C
:104C300002211B68984728002B0001340135BB4234
:104C4000EBDB874204DD4346391A1B68301898476E
:104C5000F619013E33780D3B5A42534142461375D3
:104C6000E0BCBA46B146A846F0BD4B461B5D0D2BD5
:104C7000CED0A042DADA4346211A1B683018984792
:104C80004346504602211B6898472800D4E7036832
:104C9000110030009847E3E7E84F0010F0B5DE461A
:104CA00057464E464546E0B585B017001C00060045
:104CB0000D00FFF779FB0023314A12184B41802188
:104CC00009068B4202D301222E4B52422E49080084
:104CD0008A4600F00DF901906B1C03D1300000F002
:104CE000C7F80500002C26D0284B9846284B1C6896
:104CF000002C15D0002F21D1264F02E02469002C72
:104D00000ED02368002BF9D03B68002B01D0A342C2
:104D1000F4D120002A003100C0472469002CF0D1D2
:104D2000019B002B28D1280005B0F0BCBB46B24641
:104D3000A946A046F0BD184B9846D7E7154B9946B3
:104D400002ABDF1D0A239B4602E02469002CE7D05A
:104D50002368002BF9D04B461B68002B01D0A342DF
:104D6000F3D12A0031002000C0475B460122390000
:104D700020003B70C047E8E7504600F0A9F8D2E7B2
:104D800040420F00FFFFFF7F20020020E14B001098
:104D9000380600203C060020D14B0010F0B5CE466E
:104DA000474680B583B06B460600DD1D2870FFF7CF
:104DB000FBFA00231A4A12184B41802109068B4244
:104DC00002D30122174B524217490800884600F0CF
:104DD0008FF8164B81461C68002C14D0144F02E04B
:104DE0002469002C0FD02368002BF9D03B68002BDE
:104DF00001D0A342F4D1200001222900FFF7F0FEE8
:104E00002469002CEFD14B46002B05D1300003B0B4
:104E1000C0BCB946B046F0BD404600F059F8F5E7D1
:104E200040420F00FFFFFF7F2002002038060020D5
:104E30003C06002070B5040000F01AF801230100C0
:104E4000050001222000FFF729FF084B1C68002CF9
:104E500006D06368002B05D098472469002CF8D150
:104E6000280070BD2469002CF3D1F9E73806002032
:104E700010B583070AD00300032102E001330B427F
:104E800005D01A78002AF9D1181A10BD0300196844
:104E90000C4A0D4C8A188A4322420FD15968094A9C
:104EA00004338A188A43224208D15968054A0433D8
:104EB0008A188A432242F1D000E001331A78002A8E
:104EC000FBD1E1E7FFFEFEFE80808080F8B5C046A2
:104ED00001B40248844601BC604700BF5D01002068
:104EE00001B40248844601BC604700BF8501002030
:104EF00001B40248844601BC604700BFC1000020E5
:104F00000A2A2A2A2050414E4943202A2A2A0A00E6
:104F10000A000000486172647761726520616C610B
:104F2000726D20256420616C726561647920636C08
:104F300061696D656400000048617264206173738B
:104F40006572740052656C6561736500626F6F74A1
:104F5000325F77323571303830000000322E312E1A
:104F6000310000007069636F00000000576F726DC0
:104F70005F426F6F746C6F616465725F6170706CBB
:104F800069636174696F6E004D6172203136203241
:104F90003032350006005250D3F07542444F0010B5
:104FA00006005250E182887F4C4F0010060052509C
:104FB000ABB360535C4F001006005250BBFF3CB6D1
:104FC000644F001006005250861C03026C4F001004
:104FD000060052505422A29D884F001005005250E6
:0C4FE000DE65F468B05100100D0A0000FE
:104FEC00944F0010A04F0010AC4F0010B84F0010A1
:0C4FFC00C44F0010D04F0010DC4F00101C
:10500800F0B5C646150000B504001E000268EFF3AF
:10501800108172B61368002BFCD0BFF35F8F042396
:10502800E356002B2DDB2268BFF35F8F0020106052
:1050380081F31088D0221206127852B290469A4212
:1050480003D1002080BCB846F0BD00270BE02368E0
:10505800BFF35F8F1F6081F310882800310000F0D4
:1050680033F80028EDD12268EFF3108172B6136887
:10507800002BFCD0BFF35F8F23797F2BE7D9434602
:1050880002E0D0231B061B6823712368BFF35F8FE0
:1050980000221A6081F310880120D3E70268EFF339
:1050A800108172B61368002BFCD0BFF35F8FFF230B
:1050B80003710368BFF35F8F00221A6081F31088C1
:1050C80040BF70477047C04601B40248844601BCDF
:1050D800604700BF89420010100000000000000077
:1050E80000000100000000000000000000000200B5
:1050F80000000000000000000000030000000000A5
:10510800000000000000FF000000000001B5486832
:1051180001318E460047704609380149884701BD6C
:105128002D3B0010000000000000000000000000FF
:1051380000000000000000006802002000000000DD
:10514800503300004C330000543300005233000049
:105158004D5300004D430000533400004334000019
:105168000000000000000000D547001001480010B2
:105178004D4900103D4B0010A9490010AD4A0010E0
:10518800754800101D4800103D4800105148001097
:10519800F13B001059480010793F00109D4700105E
:0851A800C9360010FD310010B2
:04000005100030E9CE
:00000001FF
