:020000041000EA
:1000000000B5324B212058609868022188439860DF
:10001000D860186158612E4B002199600221596106
:100020000121F02299502B49196001219960352056
:1000300000F044F80222904214D00621196600F024
:1000400034F8196E01211966002018661A6600F04E
:100050002CF8196E196E196E052000F02FF8012189
:100060000842F9D1002199601B49196000215960AB
:100070001A491B48016001219960EB211966A021F2
:10008000196600F012F800219960164914480160C1
:100090000121996001BC002800D000471248134993
:1000A000086003C880F30888084703B5996A0420EC
:1000B0000142FBD001200142F8D103BD02B5186610
:1000C0001866FFF7F2FF186E186E02BD00000240BE
:1000D000000000180000070000035F00212200005C
:1000E000F4000018222000A00001001008ED00E03C
:1000F00000000000000000000000000074B24E7A12
:1001000000200420F7010010C3010010C5010010F9
:10011000C1010010C1010010C1010010C101001097
:10012000C1010010C1010010C1010010C701001081
:10013000C1010010C1010010C9010010CB01001065
:10014000CD010010CD010010CD010010CD01001037
:10015000CD010010CD010010CD010010CD01001027
:10016000CD010010CD010010CD010010CD01001017
:10017000CD010010CD010010CD010010CD01001007
:10018000CD010010CD010010CD010010CD010010F7
:10019000CD010010CD010010CD010010CD010010E7
:1001A000CD010010CD010010CD010010CD010010D7
:1001B000CD010010CD010010CD010010CD010010C7
:1001C00000BE00BE00BE00BE00BE00BEEFF3058054
:1001D000103800BEF2EB8871441D0010601D001045
:1001E0003802001090A31AE71E481F49086006C88D
:1001F00081F3088810471D480068002801D019487D
:10020000F3E70DA40ECC002902D000F012F8F9E7B4
:100210001749184A002000E001C19142FCD116495B
:100220008847164988471649884700BEFDE701C937
:1002300001C29A42FBD37047601D0010C00000202D
:100240008803002028200010000004200000042063
:1002500028200010001004200010042000000000DE
:10026000704700000000000008ED00E0000000D032
:1002700088030020040B00203D1900100105001028
:1002800035190010F8B5C0460448054B10B5834237
:1002900003D0044B002B00D0984710BD88030020EA
:1002A000880300200000000006480749091A8B1047
:1002B000C90FC91810B5491003D0044B002B00D04A
:1002C000984710BD8803002088030020000000002C
:1002D00010B5074C2378002B09D1FFF7D5FF054B4C
:1002E000002B02D0044800E000BF0123237010BDA2
:1002F0000805002000000000481C0010054B10B548
:10030000002B03D00449054800E000BFFFF7CCFFF5
:1003100010BDC046000000000C050020481C001065
:10032000A0238001DB05C01880235B0402691A4208
:10033000FCD17047044B181C0449086003C880F3C3
:10034000088808477047C0460030001008ED00E0FC
:10035000024AC302024813401843704731F81FFF96
:1003600019801F002022034B99691142FCD11860AB
:100370007047C04600400340064B10B500229B5E0C
:100380000400834202D10D20FFF7ECFF2000FFF7AD
:10039000E9FF10BD90080020A021154BC9051A687F
:1003A00070B593015B18D86204001000FFF7B8FF26
:1003B000002310200F49104A0B6093690342FCD1BF
:1003C0001368DBB23A2BF8D1102693693342FCD183
:1003D0001368651CDBB223700868013008600A2BC3
:1003E00001D00D2B02D100232B7070BD2C00ECE747
:1003F00054060020240600200040034070B500236E
:100400000500124E326852109A4209DC00222C2B51
:1004100001DC2C32D21A0021C01801F05DFA70BD47
:100420002A7811003739C9B2402A01D8303AD1B2FE
:100430006C782200373AD2B2402C01D8303CE2B27C
:1004400009010A43C25402350133DBE724060020C8
:1004500070B5A025872400230200ED05E4002B5190
:10046000054B186883015B191A60D962FFF758FFC2
:1004700028594042C0B270BD5006002030B50D4B27
:10048000027844781A7083780B491B0223435BBAC5
:100490000B800A4BC1780A4C19700023011D9A4247
:1004A00004DC80180279074B1A7030BDCD5CE5542E
:1004B0000133F4E7020B00208E080020D50A00204B
:1004C000970800209508002070B504000D00412019
:1004D000FFF752FF2000FFF75FFF2000FFF78EFFBE
:1004E00029002000FFF7B4FF0023984206D14220E4
:1004F000FFF742FF2800FFF7C1FF0123180070BD7E
:10050000F0B50E2087B000F03FFA002201210E2046
:1005100000F028FAE54BDA68002A00D1D6E0002284
:10052000DA60012504210F2000F004FAE04BE14AD3
:1005300019201A60E04BD0261A68E04B360653406B
:100540001B0CDF4A1B0413602A00DE4B1B689A4316
:100550001300DD4A136000F017FA802396219B04F4
:1005600073624901D94800F0BFFE00232A00082128
:10057000D64800F0F9FE0021D44800F009FF02211E
:10058000002000F0D7F92800022100F0D3F929005B
:100590000022280000F0E6F9280001F0BBFACC4A5E
:1005A00010602800039201F0B5FACA4C20602800C0
:1005B00001F0B0FAC84F3860280001F0ABFA039A96
:1005C000C64B12681860029010000192FFF7C0FE3F
:1005D0000C22A023019D9043AD01C14ADB05EB181D
:1005E0001A600492BF4A30215A602C2224680843C2
:1005F0009A6018612000FFF7ABFE1C21202388437E
:100600001843A023A401DB05E318049AB64C1C6030
:100610005A602C229A6018618023B4481B042D185C
:100620002B60B34B019819681E2342001A40E22345
:10063000FF3313434B40AF4ADB05DB0D1360002251
:100640003D68AD4B28001A60FFF782FE1C21202771
:1006500088433843A027AD01FF05ED192C60A74C56
:100660006C60019480246400AC6028610298FFF7FC
:100670006FFE0C2230219043029A08439301019AA5
:10068000DB191A609E4A5A6004929C6018618023AC
:100690009B04736193499248FFF716FF0028F6D038
:1006A000984B1B78012B7AD0042B00D1DDE0002B76
:1006B000F0D10293944B029A1B789A4224DB802358
:1006C00072689B041A42E4D0B361E3E78F4B1B6866
:1006D0001A78F22A00D024E75A78EB2A00D020E7D3
:1006E0009A78882A00D01CE7DB78712B00D018E7B5
:1006F000D0231B065B685B0400D412E70E2000F0D9
:100700004EF9FFF717FE0CE7814A029913785D1C3A
:10071000EDB21570794A05927E4A525C0599CA5429
:10072000002D24D17C4C7D4F20683B68984227D215
:100730007B4F3B78002B1DD0A022684BD205186858
:1007400083019B18019A1A60049ADA62FFF7E8FDA8
:100750003D70A0222368D2050133FF3323605E4B36
:10076000186883019B18019ADA62FFF7D9FD029B92
:1007700001339EE780220599520001F045FAE8E72F
:1007800080211800490101F04FFA80223B68520194
:100790009B188022059920683B605200EDE75E4C73
:1007A0005E4B20681B68554D984245D28022290037
:1007B000520001F029FA8022C020049952008001E1
:1007C00001F022FA0123574A5B421360564A136034
:1007D000039B186801F0AEF9039B186801F090F9CB
:1007E0003C4C206801F0A6F9206801F089F93A4CE8
:1007F000206801F09FF9206801F082F9A021002310
:100800004A4AC9054A4D8B502C78002C1ED12F48DE
:1008100000F030FD192000F0C2F80E2000F0BFF803
:100820000122284B0F201B681340274A136000F059
:10083000B6F8FFF77FFD2DE780211800490101F090
:10084000F3F98022290020685200B2E72000002B33
:1008500008D0FFF787FD23000D3B5A425341013575
:10086000DBB2D1E7FFF788FDF5E701222C4B2B4CDB
:100870001A70C023284A9B011360A0222360164BE4
:10088000D205186883019B18019ADA62FFF748FDC8
:10089000802100221E4B206849011A7001F0C4F922
:1008A0008022236852019B182360F3E600800540F4
:1008B0009C000540B80800009800054000005C045A
:1008C000981005408C0005408C1005400040034006
:1008D0005006002054060020580600205C06002028
:1008E000D60A0020A7080020030B0020102000508B
:1008F000340400503414005038240050D40900202F
:10090000D4080020D50A0020020B0020000300209C
:10091000D40A0020970800208006002064060020EA
:10092000D3080020800101E0800201E034040000CF
:10093000481C0010084B8200D31810B51C684023D7
:100940006340C0242340054CC00012191360044BBF
:10095000C018416010BDC04604C0014004D0014031
:1009600000400140064B8000C3181B68C90092007C
:100970000A435A400C231A40024BC01802607047C9
:1009800004C0014004D001400123D022834010B5AF
:100990001206936205219361FFF7CCFF10BD10B5DD
:1009A0001F21FFF7C7FF10BD0FB407B5084801F0BE
:1009B00097F8049B002B07D005A91800019100F0BF
:1009C0009DFF044801F08CF8012000F0B1FFC04603
:1009D000531C0010611C0010EFF3108072B6034A24
:1009E0001368002BFCD0BFF35F8F70472C0100D041
:1009F000BFF35F8F0022024B1A6080F310887047AC
:100A00002C0100D00722CB08C35C01201140884094
:100A10001840431E9841C0B27047F8B505000C005D
:100A20001700FFF7D9FF210006002800FFF7EAFFB3
:100A3000002803D021003800FFF7B6FF0723E208A3
:100A40001C40063BA340A95C30000B43AB54FFF7AE
:100A5000CFFFF8BDF7B505000E0014001F00FFF72B
:100A6000BBFF0190BC4202D9012464420DE0210089
:100A70002800FFF7C7FF002811D1072201232240D9
:100A80009340E1086A5C13436B540198FFF7B0FF91
:100A9000002C06DA002E04D00898FFF785FF0134F9
:100AA000E0E72000FEBD70B505000C00FFF794FFE5
:100AB00007230122E1081C40A2406B5C93436B5466
:100AC000FFF796FF70BD0000044A1078431CDBB2AC
:100AD000172B00D9102313707047C0460403002061
:100AE0000021044B044ABFF35F8F02C39342FAD143
:100AF0007047C046000100D0800100D0074B103085
:100B00009B688000C150BFF35F8FBFF35F8F0021F0
:100B1000034B196082F310887047C04600ED00E077
:100B2000240100D0054B064A1360064A1360536047
:100B30009360D360136153619361704780808080BC
:100B400000E400E004E400E01F2318401E3B834063
:100B5000002905D0C021044A490053501360704752
:100B6000024AD367FBE7C04600E100E004E100E091
:100B7000024B10309B688000C058704700ED00E0C9
:100B800070B504000D00EFF3108672B60A4A1368C0
:100B9000002BFCD0BFF35F8F2000FFF7E9FF074B6E
:100BA000984203D0A84201D000F006FD320029008F
:100BB0002000FFF7A3FF70BD240100D0CD0100107D
:100BC000024BC918890001607047C04640000034DC
:100BD00010B50400FFF778FF01002000FFF7F0FFD9
:100BE000FF232371BFF35F8F10BD10B50400FFF723
:100BF0006BFF01002000FFF7E3FFFF23A380BFF39B
:100C00005F8F10BD10B50848084B984200D310BD47
:100C1000040003680834002B03D0FFF7E6FF200030
:100C2000F2E7FFF7D5FFFAE7400300204803002072
:100C30000A4B1868EFF3108272B601680029FCD0E5
:100C4000BFF35F8F1B68BFF35F8F0021196082F3D2
:100C5000108840BF002000217047C046880800204F
:100C6000F0B587B0EFF3058203231A40924B03924D
:100C70009200D4580123039A93400493049A8F4B13
:100C80001A608F4B049A5A630822A35E0293002BCA
:100C900052DB1823029A656953438948ED18AA6804
:100CA000EB680092019300F077FA019B8B4243DCE2
:100CB00002D1009B83423FD8019B002B00DA64E005
:100CC0002B69804A6E6993424FD13000336998474F
:100CD00000285AD07768366833003B4355D0002F40
:100CE0004DDA00980199801BB9410022AB5EA860E3
:100CF000E960002B20DB6269944618225A43624463
:100D0000D6688E4218DC02D19268824214D826003E
:100D10002381083618225A436244D7688F4208DC80
:100D200002D19768874204D816000022B35E002BD8
:100D3000F0DA2B80029B3380A3881BB2002B3BDAB6
:100D4000A379002B09D00023A371200018250822C5
:100D5000A35E08305A1C00D06DE00823E15E002934
:100D600000DB84E040BF07B0F0BD0821605E6A8808
:100D7000000431001043984706000F00ACE75048CC
:100D800000F00AFA80197941AFE72B8821692381A5
:100D9000EFF3108372B60A68002AFCD0BFF35F8FAE
:100DA00062882A80029A62802269BFF35F8F0021E5
:100DB000116083F31088BFE72169EFF3108272B6E8
:100DC0000B68002BFCD0BFF35F8F0121A388494241
:100DD000A1801BB22169BFF35F8F0020086082F3FE
:100DE0001088220008320592002B00DAA8E7626919
:100DF000059D009218225A4300998A189168D76875
:100E000002910821605E00280CDB18214143009EFE
:100E10007118CE68BE4205DC09D18E68B446029EC8
:100E2000B44504D92B800021535E1080DCE70D000F
:100E30000021685EE7E72900594366697218765E0B
:100E40005188B44609B200290FDA0826A15F0126AD
:100E50007642F7179660D7608B4204D061460180D6
:100E6000218911802381634674E71000FBE7182273
:100E70004A4363699B189D68DE686B1C01D1731C33
:100E80000ED0039B0E4F9B00DB19B96A1A69681AD2
:100E9000521A904203D33A6A0499114200D11D615B
:100EA000074800F079F98E4200DD5BE700D0E8E604
:100EB000854200D8E5E655E7700600203C70054005
:100EC00000400540610C0010F8B5C1600400160038
:100ED0001F000D00FFF7F8FDD022267012061268E1
:100EE000144B62700122C0185242BBB263819B183E
:100EF00063800023800020612281A280BB4212D146
:100F000001270D4BB200D4503C00B44030002C629D
:100F10000A49FFF735FE39003000FFF715FE084B90
:100F2000ED182C60F8BD1820584361695A1E4252D2
:100F30000133E3E74000003470060020610C00102C
:100F40003820000010B5094C2369002B09D103217A
:100F5000074800F017F91023032220000449FFF787
:100F6000B3FF0A210348FFF72BFE10BD0803002042
:100F7000004005408808002010B5074C0300626A55
:100F80000020914206D8A46A01309C4202D2881AFD
:100F9000431E984110BDC04600400540F0B5010019
:100FA0000469EFF3108672B620680028FCD0BFF306
:100FB0005F8F02200D5E182068434C692418086971
:100FC000002D08DABFF35F8F0023036086F31088DB
:100FD00001204042F0BD27884F80BFF35F8F00277C
:100FE000076086F31088E360638805980133206109
:100FF0005B0406985B0CA26060611A1CBB4200D1C6
:10100000012293B22804628018430E69EFF3108323
:1010100072B63268002AFCD0BFF35F8F8A882280C4
:101020000A698D80BFF35F8F0024146083F31088FA
:1010300001220B789A40CB6801495B181A60C9E716
:101040003C200000F7B51F000AAB1C780500160015
:10105000002C09D0099B32000193089B28000093C3
:101060003B00FFF79BFFFEBD00F0C2F832003B00E3
:10107000121A8B41002BEDDA2000F4E730B50300A3
:1010800040890A14904201DC002030BD18205043F2
:101090005A691D691218EFF3108472B62868002887
:1010A000FCD0BFF35F8F558889B2A8B28D4207D0BC
:1010B0001B69BFF35F8F00221A6084F31088E3E797
:1010C000802109020143518001201A699871BFF300
:1010D0005F8F0021116084F3108801001A78DB68AB
:1010E00091400A0001495B181A60CEE73C200000DD
:1010F000F0B504000D0087B0EFF305830493002BD7
:1011000002D0200029002AE01C4FFB683E7818001E
:10111000059300F041F802000B0004360599B60073
:10112000715820008E1A2900801A99410B000499E9
:101130000200994204DC01D1964201D820BFE0E7C9
:101140000023029301930E4B2200009338002B00E2
:10115000FFF778FF290006002000002E03DCFFF7D0
:101160000BFF07B0F0BDFFF707FF002800D120BF3D
:1011700031003800FFF782FFC3E7C04608030020B4
:10118000310C001010B5024A0248FFF746FC10BDB2
:10119000631C0010960800200300416A0A00986A48
:1011A000596A8A42FAD17047416A9942FCD39942FE
:1011B00002D1816A914200D37047416AF7E770B566
:1011C00014001D000600FFF7E7FF02000B00A41843
:1011D0005D41A94202D804D1A04202D9012464424F
:1011E000E5172B0030002200FFF7DEFF70BD000086
:1011F00010B50248FFF7D0FF10BDC04600400540C3
:1012000010B502000B000248FFF7D9FF10BDC04621
:1012100000400540F7B5076B04000E000192FB0784
:1012200015D5104B104AC3181A60456A836AAD0180
:101230000620ED1800F02AF90C4900F093FAAD02EF
:101240000100280000F08EFA0021FFF7D9FFE36AC1
:101250005E40019B33401E00054BE3181E60276370
:10126000F7BDC04630300000010300004E0E000004
:101270002C100000044B054AC0184342584101237A
:1012800016308340136070470080FCBF00E00040D0
:1012900070B5060006200C0000F0F8F82100C00030
:1012A00000F060FA01300124C50905D00C4B9D42C5
:1012B00012D840062C00850E002211003000746206
:1012C000B562FFF7A7FF062000F0E0F8A101491979
:1012D000800000F047FA70BD0025024CECE7C046E4
:1012E000FEFF0000FFFF000070B5040006200D00A7
:1012F00000F0CCF8002828D0144B1549E2185342CE
:101300005A41012316329340124A1360124A136065
:1013100018000A689043FBD10C4B104AE31859425D
:101320004B4180215B004900995220002900FFF7C2
:10133000AFFF7023E26A53407E221340084AA2188E
:101340001360084B23630323A36470BD0080FCBFBC
:1013500008C0004000E0004000F00040900800207D
:101360002C100000010300000539013A4901D200A8
:101370000A43002110B58B4205D00231013B0A43DC
:1013800059424B41990011436E22FFF743FF10BDB4
:1013900010B510220901FFF73DFF10BDF7B50C2471
:1013A000444301932A4B0092E4186368089A0500AD
:1013B0000E00934200D26260C0232F1F9B01FFB238
:1013C000E318012F1BD8012E19D103221A60A3683C
:1013D0003342FCD0009B22685B015340E022134063
:1013E00080225201A21813600321236873400B402E
:1013F00013600123B340A2681342FCD01BE080229B
:1014000012011A60134BAA00D158002907D058695D
:1014100000F0A8F9431C032058430338FDD2009B79
:1014200022685B015340E022134080225201A2183F
:101430001360012FD8D9802380229B01E318120169
:101440001A60089B019A6360024BAD00EA50F7BD39
:101450000080004028060020F7B505000E001800A7
:101460000899170000F07EF9089A03001402310071
:101470003A0028000094FFF791FFF7BD13B58024D0
:1014800064000094FFF78AFF13BD0000014B800049
:10149000C058704728060020F8B504001F48170000
:1014A0001E000D0000F05EF90100380000F05AF94E
:1014B000069A3304120313432268002A0FDA3F21ED
:1014C00022680A40AA420AD1A2681205120D82427D
:1014D00005D1EE21E268C9020A409A421CD0104AA6
:1014E000104EA1184A42514101220C318A400E4946
:1014F0000A600E490A60170031688F43391EFAD11D
:101500000B4A2131A2182560A060116021680029D2
:10151000FCDAE36008231360F8BDC046001BB70087
:101520000040FDBF08C0004000E0004000F0004067
:10153000043000008023024A9B000B43D3627047B3
:1015400000800540142310B50100188804331B885F
:10155000984710BD162310B50100188802331B8868
:10156000984710BDF8B50E00040000270125B742CA
:1015700001D12800F8BD2068FFF7E4FF01C4431E35
:101580009841404205400137F1E70000AA22064B8E
:1015900012011A608D225200DA600449044A116077
:1015A0005A68002AFCDA70470040024000B0FA0096
:1015B000006002407047000010B50148FFF7F4F9E1
:1015C000851C001010B5044C044B9C4200D310BD88
:1015D00008CC9847F8E7C046480300208403002061
:1015E000054B064A06491A60064B074A1360180065
:1015F0000A689043FBD1704700E00040BFCDFBFE7E
:1016000008C00040FE7F3C0000F00040044BDB6C53
:10161000002B03D18022034BD2021A607047C046D0
:10162000000011504C201150044A054B1A60054A25
:101630001368DB018033FBD17047C046FFFFFF0119
:1016400000F0004008C000404022034B9A675A67F0
:101650001A67DA667047C04600F0014010B5FFF720
:101660003FFA10BD70B5044D044CA968C02220009B
:1016700000F038F9AC6070BD00ED00E00000002023
:10168000002373B5284DAB67FFF780FF0122274B7E
:101690001A606B6C012BFCD10322254B1A60AC6BDA
:1016A000012CFCD102260525210000960623214AA3
:1016B0002148FFF7F1FE2B00210000951F4A20482A
:1016C000FFF7EAFE3100002204201E4BFFF7D6FE92
:1016D0002800210000221C4BFFF7D0FE002207202B
:1016E00011001A4BFFF7CAFE002208201100174B09
:1016F000FFF7C4FE80230022DB00110000930920C5
:10170000124BFFF7A9FE00220F4B11000620FFF736
:10171000B5FE0420FFF7BAFE0D4900F023F80100E2
:101720000020FFF707FF73BD008000403CB0004081
:1017300030B00040002F685900800240008C86477E
:1017400000C00240001BB70040597307006CDC0268
:1017500040420F0001480421014B1847200300209C
:1017600065150010114A936F9B0813D210665166DD
:10177000002905D0FFE7FFE7FFE7516F106F7047C3
:1017800004B5002801D00020C04300F045FA002134
:1017900004BDC046F0B5146E556E576F166FFFF757
:1017A000E5FF1466556657671667F0BD000000D068
:1017B000132370B51C78114D012C0ED10023104954
:1017C0009A000133A950202BFAD10D4BAB640D4880
:1017D000FFF7B8FE0C4B186070BD012CF5DD0B480F
:1017E000FFF7B8FE06000A48FFF7B4FE802231007A
:1017F000280000F077F8022CE9D1E6E78406002003
:10180000151800104C3300008407002053440000DA
:101810005346000007B5604601880A0A0230DF2AF5
:10182000FAD1C9B2820804D3028840880004104368
:1018300000E00068014A5050039007BD8406002074
:10184000132310B510481C78FFF784FE0100012C0B
:1018500013D10E4C5422200000F044F815230C4AFA
:10186000990001336250202BFAD12262E2610948CB
:10187000FFF768FE084B186010BD012CF7DD8022D1
:10188000024800F02FF8F2E75346000088070020D6
:101890009D1800104C3300008407002007B56046F7
:1018A00001880A0A0230DF2AFAD1C9B2820804D3B9
:1018B000028840880004104300E00068014A50504C
:1018C000039007BD8807002001480421014B1847F9
:1018D0003003002065150010014B1B6818470000FD
:1018E00030030020014B5B681847000030030020E4
:1018F00010B5002801D000F0E7F810BD30B50A4B54
:1019000085B01C68002C0AD00122084D030000910C
:101910002800524203A9A047012005B030BD00F0C5
:10192000DFF82000F9E7C0466C060020F11800102F
:1019300000BEFDE710B5FFF7FBFF000010B5FFF795
:1019400041FE044C044B9C4200D310BD08CC984788
:10195000F8E7C0468403002088030020030010B588
:10196000080011001B68984710BD0000F7B5437DC3
:1019700006000F001400002B12D10368110038007C
:101980009847F7BD7A5D01950A2A1BD15A5D0D2A49
:1019900018D085420FDD291A3368381898470AE0B5
:1019A000002AEEDD00253B7828000A2B09D1337D83
:1019B000AB4206D101950C480221336898472800B4
:1019C00001307B1E0135AC42DCDC844203DD211A90
:1019D0003368381898473C19013C23780D3B5A422C
:1019E00053413375CDE7C046241D001010B5FFF7F5
:1019F000FFFB0023064A12184B41802109068B4247
:101A000002D30122034B5242034800F015F910BDE6
:101A100040420F00FFFFFF7F4003002010B5024847
:101A200000F0EAF810BDC04640030020F0B585B0D4
:101A300006000C001D000092FFF7D8FF0190631C08
:101A400003D1300000F0A6F80400144F002D00D0A0
:101A5000134F144B1D68002D07D1019B002B01D0A3
:101A6000FFF7DCFF200005B0F0BD2B68002B13D082
:101A70000D4B1B68002B01D0AB420DD12200310071
:101A80002800B847009B002B06D002ABD91D0A23C3
:101A9000012228000B70B8472D69DCE75D190010A2
:101AA0006D1900106006002068060020054B10B577
:101AB0001C68002C00D110BD6368002B00D0984733
:101AC0002469F6E76006002013B56B460400D81DB4
:101AD0000123002219000470FFF7A8FF200016BDA3
:101AE00070B5050000F056F80123040001001A004B
:101AF0002800FFF79BFFFFF7D9FF200070BD000013
:101B000010B5034B01001800FEF7CDFF10BDC04615
:101B10008C08002013B5054B054C010000930022F2
:101B20000B232000FEF796FF16BDC046261D0010B1
:101B30008C080020104B8201D3181968C3024B4057
:101B40000E4910B50B400E4951180B60012383401C
:101B50000C490D480B600D490B60A021C9050B50C5
:101B60000B4812188020400414680442FCD18022E3
:101B7000D2008B5010BDC04610000050017800000C
:101B8000101000500434005044040000143400507D
:101B90000C00005010B583070AD00300032102E0B7
:101BA00001330B4205D01A78002AF9D1181A10BD5A
:101BB000030019680C4A0D4C8A188A4322420FD13F
:101BC0005968094A04338A188A43224208D159685D
:101BD000054A04338A188A432242F1D000E00133D7
:101BE0001A78002AFBD1E1E7FFFEFEFE80808080AC
:101BF000F8B5C0460000000001B40248844601BCAC
:101C0000604700BF8701002001B40248844601BC40
:101C1000604700BF6502002001B40248844601BC51
:101C2000604700BFD902002001B40248844601BCCD
:101C3000604700BFED01002001B40248844601BCAA
:081C4000604700BF59010020BC
:101C48004272616E6368696E670A000A2A2A2A204E
:101C580050414E4943202A2A2A0A00486172647773
:101C680061726520616C61726D20256420616C72FF
:101C78006561647920636C61696D656400486172AF
:101C880064206173736572740052656C6561736575
:101C980000626F6F74325F773235713038300032DE
:101CA8002E312E31007069636F0053657269616C63
:101CB8005F426F6F746C6F61646572004D61722072
:101CC800313620323032350006005250D3F075429A
:101CD800911C001006005250E182887F991C001068
:101CE80006005250ABB36053A71C001006005250B8
:101CF800BBFF3CB6AD1C001006005250861C030208
:101D0800B21C0010060052505422A29DC41C0010A0
:101D180005005250DE65F468282000100D0A4E6F49
:101D280020444D41206368616E6E656C732061725A
:0C1D38006520617661696C61626C650079
:101D4400D01C0010DC1C0010E81C0010F41C001057
:0C1D5400001D00100C1D0010181D0010D8
:101D6000030010B50068EFF3108472B60268002A11
:101D7000FCD0BFF35F8F04229A56002A0CDAD022DF
:101D80000120120612681A711B68BFF35F8F0022D0
:101D90001A6084F3108810BD002901D10020F3E7F8
:101DA0000A60FBE7F7B50193D023050016001B0678
:101DB0001F682968EFF3108372B60A68002AFCD006
:101DC000BFF35F8F297900242A687F2907D92F71F3
:101DD000BFF35F8F146083F310880120FEBDBFF353
:101DE0005F8F146083F310883000019900F0C8F809
:101DF0000028DED02000F1E773B501A90400160029
:101E00001D00FFF7ADFF00280CD1D0221206019B68
:101E100012785BB252B2934204D032002B00200001
:101E2000FFF7C0FF76BD0168EFF3108372B60A6852
:101E3000002AFCD0BFF35F8FFF2202710268BFF35C
:101E40005F8F0021116083F3108840BF704700004E
:101E5000084A10B51378002B0AD180230648074999
:101E60005B051C68C45004338B42FAD10123137004
:101E700010BDC04694080020240500100001001089
:101E800010B5014B984710BD250500208023F0B503
:101E9000421807000C0085B09B039A4201D900F05C
:101EA00077F81426182530882B88124998472B88F4
:101EB00003901149308898472B8802900F49308849
:101EC00098472B880E490190308898470500FFF706
:101ED000BFFF039B9847029B984780222100D8238D
:101EE00038005202019CA047A847FFF7C9FF05B080
:101EF000F0BDC0464946000045580000524500006C
:101F0000464300008023F0B5170085B08218040016
:101F100003919B039A4201D900F03AF81426182540
:101F200030882B88104998472B8802900F493088B9
:101F300098472B8801900E49308898472B880D4987
:101F40000090308898470500FFF782FF029B984772
:101F5000019B98473A0020000399009B9847A847A7
:101F6000FFF78EFF05B0F0BD494600004558000060
:101F700052500000464300007047C0460000000079
:101F800001B40248844601BC604700BFF110001054
:101F900001B40248844601BC604700BFB915001077
:101FA000D43000101000000000000000000000000D
:101FB0000000000000000000000000008803002076
:101FC000503300004C330000543300005233000003
:101FD0004D5300004D4300005334000043340000D3
:101FE0000000000000000000E11500100D160010B8
:101FF00055170010C9180010B11700104118001033
:102000008116001029160010491600105D160010E8
:10201000050C001065160010450F0010B5150010D6
:08202000250B0010FD02001069
:04000005100001E9FD
:00000001FF
