:020000041000EA
:1000000000B5324B212058609868022188439860DF
:10001000D860186158612E4B002199600221596106
:100020000121F02299502B49196001219960352056
:1000300000F044F80222904214D00621196600F024
:1000400034F8196E01211966002018661A6600F04E
:100050002CF8196E196E196E052000F02FF8012189
:100060000842F9D1002199601B49196000215960AB
:100070001A491B48016001219960EB211966A021F2
:10008000196600F012F800219960164914480160C1
:100090000121996001BC002800D000471248134993
:1000A000086003C880F30888084703B5996A0420EC
:1000B0000142FBD001200142F8D103BD02B5186610
:1000C0001866FFF7F2FF186E186E02BD00000240BE
:1000D000000000180000070000035F00212200005C
:1000E000F4000018222000A00001001008ED00E03C
:1000F00000000000000000000000000074B24E7A12
:1001000000200420F7010010C3010010C5010010F9
:10011000C1010010C1010010C1010010C101001097
:10012000C1010010C1010010C1010010C701001081
:10013000C1010010C1010010C9010010CB01001065
:10014000CD010010CD010010CD010010CD01001037
:10015000CD010010CD010010CD010010CD01001027
:10016000CD010010CD010010CD010010CD01001017
:10017000CD010010CD010010CD010010CD01001007
:10018000CD010010CD010010CD010010CD010010F7
:10019000CD010010CD010010CD010010CD010010E7
:1001A000CD010010CD010010CD010010CD010010D7
:1001B000CD010010CD010010CD010010CD010010C7
:1001C00000BE00BE00BE00BE00BE00BEEFF3058054
:1001D000103800BEF2EB8871B0680010DC680010C7
:1001E0003802001090A31AE71E481F49086006C88D
:1001F00081F3088810471D480068002801D019487D
:10020000F3E70DA40ECC002902D000F012F8F9E7B4
:100210001749184A002000E001C19142FCD116495B
:100220008847164988471649884700BEFDE701C937
:1002300001C29A42FBD37047DC680010D000002056
:1002400068020020746A00100000042000000420EE
:10025000746A001000100420001004200000000048
:10026000704700000000000008ED00E0000000D032
:1002700068020020DCA4022099550010690B0010D0
:1002800091550010F8B5C0460448054B10B583429F
:1002900003D0044B002B00D0984710BD680200200B
:1002A000680200200000000006480749091A8B1068
:1002B000C90FC91810B5491003D0044B002B00D04A
:1002C000984710BD6802002068020020000000006E
:1002D00010B5074C2378002B09D1FFF7D5FF054B4C
:1002E000002B02D0044800E000BF0123237010BDA2
:1002F000A006002000000000745F0010054B10B540
:10030000002B03D00449054800E000BFFFF7CCFFF5
:1003100010BDC04600000000A4060020745F00105D
:10032000026870B501230400002A18D0184D25601A
:10033000002B01D1012070BD01F038FF154E73680C
:100340008B42F7D802D133688342F3D8D0231B06FF
:100350001B68012B19D001220F4B1A6001E00D4ED2
:100360000B4DD02380221B065968920411420AD1FA
:100370005A6101F01BFF0023084A801859410023ED
:1003800030607160D3E79A61F3E7054A1360E8E7EC
:100390002E030010980600205837002020A10700E7
:1003A0005C370020F0B5DE4657464E464546E0B580
:1003B0000368A1B0002B00D03FE2E64805F052FAF6
:1003C000E54BA0211A681F93012393408622C9059B
:1003D000D2008B500822E14B0F201A6001F05EF82A
:1003E0000021412001F046F8012001F04DF8DC48E1
:1003F00001F05EF80A21412001F03CF8D94801F0F3
:1004000057F81421412001F035F8D74801F050F891
:100410001E21412001F02EF8D44801F049F80021B6
:10042000FA2001F027F8022001F02EF8D04801F060
:100430003FF8D04B1D93D04B0E93D04B1E93D04B17
:100440000F93D04B1993D04B1393D04B1693D04BA3
:100450001A93D04B1193D04B1B93D04B1C93D04B82
:100460001793D04B18931F9B1A68CF4B92019C4651
:100470006244802480211368640449041C400B42B8
:10048000F7D10E9B802798461E9B1D9D99467F01A4
:1004900043461E194B4628781A590021C003D3172A
:1004A00003F05AFC4904C00B0843043430600135A2
:1004B000BC42EDD122000F9C0021200003F03EFD44
:1004C0008022199BD2001A6000230121139AB74F92
:1004D0001360169A13601A9BA0221B68D2059940DC
:1004E0008623DB00D15001220E9B211D181DB04B2D
:1004F0009B46B04B9A46B04B9946B04B9846B04B92
:1005000002935B46AF4D54081C4053002B405546A8
:100510001C43A4B2A3082B404D46A4002C404546E2
:10052000A4B21C4323092B40029D24012C40A4B2F9
:1005300023435BBA9BB29B0993420DD90E9C9B004F
:10054000E41805682668066025600F9D0C68AC46B7
:1005500063441D680D601C60013292B204300431A6
:10056000BA42CED109239A46083B089353461093CA
:10057000089B00241A0000275B0008939B00099346
:1005800093005B42A2463D001C000C925346109A19
:10059000119993405A1CFF3292009B00CB588A5805
:1005A0005B4251100291591004918021C9008A4583
:1005B00052DA0C9EDB17069356440E9BB6009F1929
:1005C0000F9BD2179C46059266440D953B68029A94
:1005D0009846D917336840469946DB179B46059BDA
:1005E000079103F0B9FB4904C50B049A4846069BE2
:1005F0000D43594603F0B0FB4904C00B08432D1AC4
:10060000029A4846059B594603F0A6FB4904C00BD5
:1006100008438146049A069B4046079903F09CFBD9
:100620003A5933594904C00B084352105B10511B0F
:1006300048443960191AC018089BAD189C46099B9C
:10064000E2449C46802331603D513051674466440A
:10065000DB009A45BADB0D9D01350C9BADB2AA4675
:100660009D4293DB109B5A1E109281D21B9B002649
:100670001B680E9F9A46DB179B460F9B98460023EC
:10068000994602933C68E317E4185C4043461D68B2
:100690002000EB17ED185D40AC4200DD280052460B
:1006A0005B46C11703F058FB4904C00B0843AC423A
:1006B00000DA2C002418A14505DA042E03DD0123FD
:1006C000A14612960293434620C3984680230136E2
:1006D00010C79B009E42D5D1029B002B00D1AAE0FF
:1006E000129B169A1800136002F0CCFB0022364BC6
:1006F00002F061FB02F01AFC4A46139B1A600023C9
:100700001C9CB02220601421FA2000931E3300F0BC
:10071000C3FC206803F05CFB189C020017992000C2
:1007200004F006FF1421FA2000F0A4FE022000F0DD
:10073000ABFE200000F0BCFE802212019446402453
:100740000E9B224DE027634498462600A946FF37BA
:100750003EE0C046785F0010643C002000E00440AA
:100760008C5F0010A05F0010AC5F0010BC5F001039
:10077000D05F00106438002004270020D0940220AD
:10078000001700202C3700203C3700204037002085
:10079000F8160020BC060020AC01002044370020E1
:1007A000E05F00100437002010000050FF0300003D
:1007B0005555000033330000CCCCFFFF0F0F000075
:1007C000F0F0FFFFAAAAFFFF0088234018270020AF
:1007D00033B29A46AE22002332215046FF3200F057
:1007E0000BFC4A4608CA01361C00DB171D00914667
:1007F000DB00620F13430B93E3000A930A9A0B9BEF
:1008000012196B415904D00B53040843029303900F
:100810000299039A5304CA0B1A43D1130AB2791AE4
:100820000F23504609B200F0E7FBB6B2C145CFD165
:100830001494159517E6002061E79F46F0B5DE4653
:1008400057464E464546E0B5474B85B01B68002BE2
:1008500000D087E0454B1B68002B1AD1444B454E16
:100860009A460027444C33680FE000225546530057
:100870009B189B00534428009B6898472268336864
:10088000013222600C359A42F1DB2760002BECDC50
:10089000FEE7012B06D005B0F0BCBB46B246A94628
:1008A000A046F0BD324B344C9A46344B314E9846FC
:1008B000334B344F0293344B344D0393002399460A
:1008C0003B6801333B604B4623603368002B00DC00
:1008D000FEE72B00BB462500370054461E004B4662
:1008E000336001F063FC43462A6818605960530086
:1008F0009B189B0053449B68200098473368012B4A
:100900000BD02B683A6801332B600C349342E6DB42
:100910002C0035003E005F46D2E72C002368029988
:100920009B00CA5835000132CA5001F03FFC039ABF
:1009300023689446DB009C4463460090019118684C
:10094000596843461A685B68801A994102000B0097
:100950000098019912184B4161463E000A604B60B5
:100960005F46ADE79F46C0466037002068370020ED
:10097000743700206C3700203037002088060020B4
:10098000703C0020683C0020E8030020583700201D
:10099000F0B5DE4657464E464546E0B5474B85B076
:1009A0001B68002B00D087E0454B1B68002B1AD139
:1009B000444B454E9A460027444C33680FE00022D2
:1009C000554653009B189B00534428009B6898474A
:1009D00022683368013222600C359A42F1DB2760CD
:1009E000002BECDCFEE7012B06D005B0F0BCBB46CB
:1009F000B246A946A046F0BD324B344C9A46344B21
:100A0000314E9846334B344F0293344B344D03935D
:100A1000002399463B6801333B604B4623603368B3
:100A2000002B00DCFEE72B00BB46250037005446B8
:100A30001E004B46336001F0B9FB43462A6818603C
:100A4000596053009B189B0053449B6820009847B3
:100A50003368012B0BD02B683A6801332B600C34C0
:100A60009342E6DB2C0035003E005F46D2E72C00C7
:100A7000236802999B00CA5835000132CA5001F020
:100A800095FB039A23689446DB009C4463460090E0
:100A900001911868596843461A685B68801A994141
:100AA00002000B000098019912184B4161463E006C
:100AB0000A604B605F46ADE79F46C0466437002042
:100AC00068370020EC3700207037002034370020D2
:100AD00090060020983C00206C3C00203804002048
:100AE0005C370020D0231B061B6870B5012B16D085
:100AF00016490B68092B05DD0022154B1A60FFF71C
:100B00009DFE70BD5A001348D2189200124D8418F1
:100B10006360A5600024013384500B60ECE70F494B
:100B20000B68092B0BDC5A000D48D21892000A4DB5
:100B300084186360A5600024013384500B60002298
:100B4000084B1A60FFF724FFDBE7C0466C37002034
:100B50006037002074370020210300107037002018
:100B6000EC37002064370020F0B5DE4657464E468D
:100B70004546E0B583B004F023FE00F01FF91920CC
:100B800000F042FDD02380221B0692045A621F21EE
:100B90009A611A2000F0F6FC002200211A2000F0D1
:100BA0000BFD00211A2000F01BFD05F055F9E02196
:100BB000624AC90113680B4061490B60614B1968B7
:100BC000614B4B4061490B4061490B6096235B03CD
:100BD000136100235F4A994608C292465E4A08C2E2
:100BE000013398460192404603F0D0F803F028F90B
:100BF0005A4A5B4B02F0DFF800225A4B02F0DBF856
:100C000004000D0002F0BEF906000F0020002900CC
:100C100002F0A2F9D3460022534B04000D0030002D
:100C2000390002F0C8F8CB4402F044F95B462200D8
:100C300018604E492B00002002F08DF800224C4B2A
:100C400002F0B9F8484B002202F0B5F802F032F990
:100C500001239C460333E0449C468023019EDB0035
:100C60004E443060E1449845BDD1012005F0E2F8E2
:100C7000404C414D2060012005F0DCF83F4B2268DC
:100C800018603F4BD4023F4923401943A0239201EF
:100C9000DB05D3181D603C4D5D6045469D601961C4
:100CA0003A49C3020B403A49234319438301A02028
:100CB000C005844637486344186037488446624418
:100CC0005A60012235489A60196104F02FFFD02341
:100CD0001B061B68012B1CD0314A1368092B0CDD45
:100CE0000022304B1A60FFF7A9FD002003B0F0BCD2
:100CF000BB46B246A946A046F0BD0C2058432A493F
:100D00002A4D0C186360A560002401334450136021
:100D1000E6E7274A1368092B0ADC0C2058432549CB
:100D2000224D0C186360A560002401334450136009
:100D30000022214B1A60FFF72BFED6E700C00440CB
:100D400000D0044008C004400B0000010F00000F59
:100D500008D00440BC060020D09402206F1283C04B
:100D6000CA2119400000503F0000E0400000F03F61
:100D70000000E03F643C00200CC00440F816002056
:100D8000FD7F00FF2100120064380020FD871FFF57
:100D900009801F00A801002004000050E50A00108F
:100DA0006C3700206037002074370020A503001046
:100DB00070370020EC37002064370020F0B5D646AD
:100DC0004F464646C0B57A498AB07A4804F008FFD3
:100DD00079490600774804F003FF78490500754813
:100DE00004F0FEFE0023802299460593F823520268
:100DF0005B0202920393C02304001B03102202A98A
:100E000006A89846049303F09FF83100731C08313C
:100E10000A03DB01134306A9102202A8079303F07B
:100E200093F8674B01270593A0230621DB021020CE
:100E30009A46029300F0A6FB0123102200215D4890
:100E4000009704F04FFF3200002102AB594804F034
:100E5000A3FF29006B1C0D310A03DB011343594A20
:100E6000062113408022D20513430793434608937B
:100E7000554B112009935346069300F083FB012341
:100E8000112201214B48009704F02CFF2A00012178
:100E900006AB484804F080FF4B4680220593F823B8
:100EA00052025B02029203934346102202A906A853
:100EB000049303F049F82200A31C08321203DB015B
:100EC000134306A9102202A8079303F03DF83F4BF5
:100ED00006211220059300F055FB0621132000F097
:100EE00051FB0621142000F04DFB0621152000F0D7
:100EF00049FB0423122202212E48009704F0F2FE3F
:100F00002200022102AB2B4804F046FF012004F02E
:100F100091FFA0260400012004F08CFFF605B446E2
:100F20002B4BE502C2022B492B40134319432A4E97
:100F3000A30163441E60294E80015E609626B602BE
:100F40009E601961264960440A4026492A430A43A3
:100F5000254901608021436087600261154A49028A
:100F600053680B42FCD18021204B89021361114A46
:100F700053680B42FCD1E0238021FF3353610D4ABB
:100F8000C90253680B42FCD14023FF339361184BD5
:100F9000184AA0211A6001238622A340C905D20065
:100FA0008B500AB0E0BCBA46B146A846F0BDC04678
:100FB0002065001000002050FC640010E064001068
:100FC00000020004FFFFFF9F204600445202401031
:100FD000FD0700FF11000100D03C00201800205048
:100FE000FD871FFF09801F00B00100208F02000055
:100FF0000020205007070000F0B54546DE46574662
:101000004E46E0B5551804009C46A94237DA1B014C
:10101000DBB2C0439846A023C0179B0020409842F3
:1010200033DAF0235B009A46D23BFF3B01279B4615
:10103000174C0AE05E465210A35C0131334046462D
:1010400009B23343A354A94219DA0B1C514501DB01
:10105000E023FF331BB2DA43D21713409A00D218B1
:10106000D20112181742E5D15E465210A35C01313D
:10107000B343664609B23343A354A942E5DBF0BC4F
:10108000BB46B246A946A046F0BD0248C9E7C046E5
:10109000D03C00207F020000F0B557464546DE46B2
:1010A0004E468446E0B583B088460CA9097894443E
:1010B0008A460100604545DA43441C0053461B0143
:1010C000DBB29946A0453DDAF02701260B00214806
:1010D0007F0019B2C943A022C917194009B2920072
:1010E000914200DB1C4942460193009109E00F2523
:1010F0005B10C15C013229404D462943C154A242D4
:101100001CD013B2111CBB4202DBE023FF33191CBD
:1011100009B2CB43DB1719408B005B180099DB0148
:101120008B465B441E42E2D10F255B10C15C01324D
:10113000A94355462943C154A242E2D1019B013340
:101140006345C6D103B0F0BCBB46B246A946A04633
:10115000F0BDC046D03C00207F020000F0B54E46F6
:10116000DE4657464546E0B593B09C461CAB1E781C
:101170001DAB1C78A023029607949B00984200DBCD
:10118000B9E0A03B994200DBB5E0A04663004344D0
:101190005B001B18002B00DCADE0E3005B18002BAC
:1011A00000DCA8E093009B183201D2B203926246A1
:1011B0001201D2B2914682B292461600AA4A002586
:1011C0009B180F22934652460F9262460D96CA46CE
:1011D0002E0088B2009210901193052E00D141E1AB
:1011E000119B9A5D6B4634215B5E109C19008C4606
:1011F0002100083189B209910F99200006948C19B9
:1012000021B2C9430A93079BC917634421400C913B
:1012100005920E960B93059BDA0700D472E0079BAC
:10122000012B00D1C4E06B4618229B5E0A9F9846B2
:101230000B9B9F4248DA079C4444A04544DAA02215
:10124000920094464246F026089252469846030081
:1012500086497600019238B2C043C017384000B2C8
:10126000604500DB82489946089A049709E05D468C
:101270007F10CB5D01322B40019D2B43CB55A24209
:101280001AD017B2131CB74201DBE023FF331BB2A5
:10129000DF43FF173B409F00FF180123FF013F186A
:1012A0003B42E4D15D467F10CB5D0132AB43009DF4
:1012B0002B43CB55A242E4D1049F4B46013747450F
:1012C000C9D1019A18009246059B069A5B080593BE
:1012D000079B01309C46624493B20693099B80B2FF
:1012E000834298D10D9B0E9E63449BB201360D93B1
:1012F000062E00D071E713B0F0BCBB46B246A9463B
:10130000A046F0BD029B009A9342DDD0079B012BC3
:1013100072D06B460B9C18229B5E0A9AA242D3DACB
:101320000799CD18AB42CFDAF0270493A4461300F7
:10133000524682464D497F001CB2E443A020E41788
:101340001C4024B28000844200DB494C9046049843
:10135000019309E05E465B10CA5C01303240039E97
:101360003243CA54A8421BD003B2021CBB4202DB68
:10137000E023FF331A1C12B2D343DB171A40930049
:101380009B180122DB011B191A42E3D15E465B1058
:10139000CA5C0130B243029E3243CA54A842E3D130
:1013A000019B424601336345C6D15046C2468BE796
:1013B000F02104B2021C49008C4202DBE023FF331F
:1013C0001A1C12B2D1436B46A024C9170A409100DF
:1013D0008A183021595ED201A400A14200DB2449C1
:1013E0005218D1072CD55B46204952108C5C1C400A
:1013F00053461C438C5467E7F02104B2021C490099
:101400008C4202DBE023FF331A1C12B2D1436B463D
:10141000A024C9170A4091008A183021595ED201D0
:10142000A400A14200DB12495218D10711D55B4636
:101430000E4952108C5C1C40039B1C438C5443E7A8
:101440005B460A4952108C5C9C43009B1C438C54A5
:101450003AE75B46054952108C5C9C43029B1C4357
:101460008C5431E70022BDE6E45F0010D03C002040
:101470007F020000024B1880024B19807047C04663
:10148000D2A40220D4A40220034A031C002800D1C5
:101490000123DBB213807047D6A40220024B1870E0
:1014A000024B18707047C046D9A40220DAA402206B
:1014B000F0B5CE46474680B50278040083B0002AD6
:1014C00023D02A4B2A4E99462A4D0EE00D2A09D0E8
:1014D000092A1FD19F21274A890013888B4201D2F4
:1014E000043313802278002A0FD001340A2AEDD168
:1014F000214B1F4A1B881188DB005B1813800022D8
:101500001C4B1A802278002AEFD103B0C0BCB94628
:10151000B046F0BD4B460020315E0027E85F164F15
:101520001B78B8463F780197144F3F780097FFF734
:1015300015FE43461A8829885300D3185B005B18B0
:101540000F499BB209782B800029CBD0A0208000C6
:1015500084469100511A490061448B42C2DD3388B0
:10156000D200D218002332802B80BBE7DAA40220FD
:10157000D4A40220D2A40220D6A40220D9A40220FE
:10158000DBA40220094A83009A1810B5146840228F
:10159000544080322240064CC000A44663441A6086
:1015A000044B9C466044416010BDC04604C00140ED
:1015B00004D0014000400140074B8000C3181B6865
:1015C000C90092000A435A400C231340034A944630
:1015D000604403607047C04604C0014004D001402D
:1015E0008000002905D0064B9C46402360440360E0
:1015F0007047044B9C46402360440360F8E7C046B4
:1016000004E0014004F001400123D022834012068F
:1016100093629361094A83009A18116840225140ED
:1016200080320A400649C0008C4663441A60054B6C
:101630009C460523604443607047C04604C0014097
:1016400004D00140004001400FB400B5084883B009
:1016500004F008F9049B002B07D005A9180001919C
:1016600003F07CFF034804F0FDF8012003F08EFF37
:101670003C6500104C650010EFF3108072B6034A11
:101680001368002BFCD0BFF35F8F70472C0100D094
:10169000BFF35F8F0022024B1A6080F310887047FF
:1016A0002C0100D070B5EFF3108C72B60D4D2B6885
:1016B000002BFCD0BFF35F8F0724CB08C618C05C9B
:1016C00001230C40A3401C000440034207D11843EF
:1016D0003070BFF35F8F2C608CF3108870BD1000EA
:1016E000FFF7B2FF2C0100D0F8B54746CE4688463A
:1016F00080B5EFF3108C72B6214D2C68002CFCD015
:10170000BFF35F8F9A422CD8D4080727055D0619CE
:1017100001241740BC402C421FD0072101278946D5
:1017200009E0D408055D06194C4639001440A14073
:101730000C00294211D001329342F2D201204042E2
:10174000BFF35F8F00220E4B1A608CF310880028C5
:101750000FDBC0BCB946B046F8BD2543100035705C
:10176000EEE7BFF35F8F00232B608CF3108801201E
:1017700040424346002BECD00898FFF765FFC04677
:101780002C0100D0044A1078431CDBB2172B00D97F
:10179000102313707047C046B40100200021044B91
:1017A000044ABFF35F8F02C39342FAD17047C04629
:1017B000000100D0800100D0054B064A1360064AA4
:1017C000136053609360D3601361536193617047FA
:1017D0008080808000E400E004E400E01F231840E3
:1017E0001E3B8340002905D0C021044A49005350C4
:1017F00013607047802201498B50FAE700E100E056
:1018000001228240034B1B6813405A1E9341D8B2F9
:101810007047C04600E100E070B50D00EFF31086A0
:1018200072B60F4A1368002BFCD0BFF35F8F0D4BCD
:1018300010309B6884001B590B4A934203D09D4291
:1018400001D000F027FF074B9B681D51BFF35F8F4E
:10185000BFF35F8F0022024B1A6086F3108870BDC1
:10186000240100D000ED00E0CD010010F0B5DE460F
:1018700057464E464546E0B50C0083B0EFF310885E
:1018800072B6634A1368002BFCD0BFF35F8F614BC5
:1018900061499A68030010339F00D55900938D4227
:1018A00043D0A54254D05D4EAA1B2F2A3DD85C4B95
:1018B0009C461B689A4601231A009946824053466B
:1018C00013401F2201934B46024093409A468022C8
:1018D000634650469850BFF35F8FEFF305839B46F6
:1018E000002B37D0009B5B4501D000F0D3FE2A00CF
:1018F0004B469A439068844208D177E04B005B18CE
:101900009B00F3189868844236D01A00062151567D
:101910000029F3DA844255D0019B002B27D0C02246
:1019200051463F4B5200995019603A4B9B68DD512C
:10193000BFF35F8FBFF35F8F0022354B1A6088F3D0
:10194000108803B0F0BCBB46B246A946A046F0BD25
:101950000D00EAE72A004B469A4390688442D5D1AD
:1019600006201056130000280ADA0D0032E080230A
:1019700051462B4AD150D8E706201856002822DBC2
:1019800042001118890074188946A1689960E179AC
:10199000D971062161569971002925DBA488F11AB5
:1019A000640524154C440919E0240905490D240255
:1019B0002143998013181B4A9B001178F3189971E1
:1019C0001070A9E713005946002914D1FF31917115
:1019D0001549918013490A789A71144A9B1B5B41FF
:1019E0005A43120D0A7097E71149E2E70620105694
:1019F00013000028C4DA0F4A0F49D21A083A5002DD
:101A0000400D014399800D4952080A43DA8083E76B
:101A1000240100D000ED00E0CD010010B80100204D
:101A200000E100E0D8A4022001BDFFFFAAAA000047
:101A300001BD0000F201002000F0FFFF00F8FFFFF1
:101A400070B501240443EFF30581EFF3108C72B6F7
:101A5000214A1368002BFCD0BFF35F8F1F4B05009A
:101A60001F4AED1A6D416A43120D1E4D8900AE6882
:101A700052B27658A6421CD00621595691421CD02B
:101A800012215956914222D01E215956914220D0FE
:101A90002A2159560324914210D0134B19781A70F9
:101AA0008171BFF35F8F00220B4B1A608CF310889B
:101AB00070BDAB680D4C5C50EFE700246100091964
:101AC00089005B18FF21997109499980E5E7012494
:101AD000F4E70224F2E7C046240100D0B801002058
:101AE000AAAA000000ED00E0D8A40220CD01001059
:101AF00001BDFFFF024B9C466144890001607047B5
:101B000040000034F8B5134D134E2C00FF27B542AA
:101B10001ED22368002B0FD0FFF734FE01002800EF
:101B2000FFF7E8FFA780BFF35F8F0834B4420FD2FE
:101B300023682500002BEFD1FFF724FE01002800C9
:101B4000FFF7D8FF2771BFF35F8F0834B442EFD39C
:101B5000F8BDC04658020020680200200A4B1968F0
:101B6000EFF3108072B60A68002AFCD0BFF35F8FD3
:101B70001B68BFF35F8F00221A6080F3108840BF9C
:101B8000002000217047C046C43C0020F0B5DE466E
:101B900057464E464546E0B585B0EFF30582032330
:101BA0001340B64A9900575801229A4088469346F6
:101BB000B34B1A60B34B02935B46B34843630823AD
:101BC000FE5E002E35DABB881BB2002B00DBA8E0DE
:101BD000BB79002B00D0E9E00823F85E00281EDB6B
:101BE00043007A691B18DB00D3189D68DC686B1C06
:101BF00000D108E1A44801004144826A0B69AE1A91
:101C00009B1A9E4213D35A46036A1A420FD09E482B
:101C100000F0C4FA8C4202DCCED18542CCD940BF60
:101C200005B0F0BCBB46B246A946A046F0BD0D616A
:101C3000EDE77A69730091469B19DB0099444B46A6
:101C40009C68DD6800F0AAFA8D42BCDC00D1FEE0A1
:101C5000002D00DAE3E04B46029A1B69934200D163
:101C6000D5E04A465288494694460822B85E624604
:101C70000004496910439847009001910099019A26
:101C80000B001000134300D1C9E013000A00002824
:101C900000DBE0E020002900801A99414B46986063
:101CA000D96000229A5E002A00DA8CE753009C1863
:101CB0007D69E4002C190093A368E4689A468C427D
:101CC00000DD80E702D1834200D97CE708239C46EF
:101CD000BC443A8103976746009BB4463E000EE041
:101CE0008C4200D1C5E01E000023F25E002A0BDB0F
:101CF00053009C18E4002C19A768E468BA469B18A6
:101D0000DB00EB188C42EBDD330066469C464B460D
:101D10001A806346039F1E80BB881BB2002B00DA2B
:101D200056E73A69EFF3108172B61368002BFCD0C6
:101D3000BFF35F8F0123BE885B42BB8036B23B6935
:101D4000BFF35F8F00221A6081F31088002E00DA43
:101D50003EE73B0008333A0099467D6973009B19C2
:101D6000DB00EB189968DC688C460820115E484659
:101D7000002910DB009306E0A34240D00023F95E67
:101D80003800002906DB4F007F18FF00EF19FB68C1
:101D9000A342F1DD009B068000201E5E1980002E0C
:101DA000DCDA1700BB79002B00D115E70023BB71EB
:101DB0003D000823F95E08354B1C00D12FE77C69F4
:101DC0000800A44603E035004B1C00D106E74B0099
:101DD0005B180A006146DB00CE18C95E73881BB22F
:101DE000002BF0DA01235B42DC17B360F46082421F
:101DF000EAD029803B89100033803A81E4E7BB6850
:101E00006345BBD9C6E7631C00D0F3E6FFE64B464B
:101E10005B699A461B6950469847002823D14B4678
:101E20001B883A693B81EFF3108372B61168002971
:101E3000FCD0BFF35F8F49467A880A803A697E807A
:101E4000BFF35F8F0021116083F31088BBE68442EB
:101E500000D8FDE6B7E60C4800F0A0F9009B019C15
:101E6000C01861411AE753461A685B6800920193F3
:101E700004E7824500D836E746E7C04648370020E9
:101E80003C7005408D1B00100040054070B52E4C85
:101E90002569002D04D00A212C48FFF72BFE70BDC8
:101EA0002B4E0321300000F06FF9E660FFF76AFC6B
:101EB000284B03229C46D02322701B061B6801215D
:101EC0006370254B6044A3600F23800020610220D3
:101ED000638063694942A1801980023119864731C4
:101EE0001D83585218315A5275325C399952183242
:101EF00001319952183201319952183201319952F7
:101F0000083518329D520231183299521832013177
:101F100099521832013199521832013199521832BE
:101F2000013199521832013199520C4B0C49DC6045
:101F300001303562FFF770FC01210320FFF74EFCF2
:101F4000084B1D60A7E7C04600020020C43C0020EB
:101F50000040054040000034FFFF100048370020DB
:101F60008D1B00103860054070B501000469EFF367
:101F7000108C72B620680028FCD0BFF35F8F02205F
:101F80000D5E4C6968004019C0002418002D37DB35
:101F9000208848800869BFF35F8F002606608CF3B5
:101FA0001088E36063880498013320615B0405981E
:101FB0005B0CA26060611A1C002B1FD093B2280436
:101FC000628018430A69EFF3108C72B61368002B15
:101FD000FCD0BFF35F8F8B8823808D800B69BFF3AC
:101FE0005F8F00221A608CF310880B7801329A40C0
:101FF000CB6808498C4663441A6070BD0122DDE756
:102000000B69BFF35F8F00221A608CF310880120E8
:102010004042F2E73C20000010B543890A14934285
:102020001ADD53009B184269DB00D3180469EFF3F3
:10203000108C72B62268002AFCD0BFF35F8F5A88DA
:10204000090494B2090C8A4208D00369BFF35F8F78
:1020500000221A608CF31088002010BD802212022A
:1020600014435C80012302698371BFF35F8F0021F9
:1020700011608CF31088044902788C469340C26842
:10208000012062441360E8E73C200000F0B5CE4632
:10209000474680B504000D0083B0EFF30587002F9D
:1020A0000DD0364A0020536A8B4203D3926A013026
:1020B000A24250D303B0C0BCB946B046F0BD304BCD
:1020C0009846DB689946434648461E7800F066F815
:1020D0000B00494602000436B600715820008E1AE3
:1020E0002900801A99418F4211DC0ED020BF234A6B
:1020F0000020536AAB42DDD3926A0130A242D9D2AA
:10210000EB1A5A1E9341D8B2D4E78642EED900F0BA
:102110004DF822002B00121A8B41002B20DB0023EC
:102120000193184B2200009340462B00FFF71CFF41
:10213000011E15DD114B2E005A6A95421CD89B6A70
:10214000A34217D34046FFF767FF0C4A0020536AAB
:102150009E42AFD8D0E75B1A5A1E9341D8B2A9E786
:10216000064A0020536AAB42A4D3926A0120A242DD
:10217000A0D2C5E79542E5D120BFE3E70040054086
:10218000000200205D1B001010B5024A0248FFF754
:1021900089FA10BD50650010CC1600200300416A7A
:1021A0000A00986A596A8A42FAD17047034B596A01
:1021B0000A00986A596A9142FAD170470040054076
:1021C00070B504000D00174A536A1900966A536AE5
:1021D0008B42FAD13000190024184D41AB4216D879
:1021E00013D0104B2A005B6A9D4203D90D494B6AFC
:1021F0009342FCD3934207D10A4A02E0516A9942C2
:1022000002D1916AA142F9D370BDA642E9D9054B2A
:102210005B6A1C005A1CEFD0012201246442E517BE
:102220005242E3E700400540F8B5040006200D00E7
:1022300000F076F9002842D0364B3749E218534275
:102240005A418023DB039C469205344B62441A605A
:10225000334B1A6010000B689843FBD12D4B314A69
:10226000E31859424B4180215B00490006209952F6
:1022700000F056F92900C00000F026FB0130C30928
:102280001ED1402701226262A362266BF30722D48B
:10229000E36A254B0620E51800232B60266300F037
:1022A0003FF93900800000F00FFB7023E26A5A40CA
:1022B0000E3313402B601D4B23630323A364F8BD2F
:1022C0001B4A93421ED900231A4A1B4F6262A36223
:1022D000266BF307DCD5194B144AE3181A60656ABC
:1022E000A36A0620AD01ED1800F01AF9144900F0B8
:1022F000EBFAAD020100280000F0E6FA0021FFF73A
:102300005FFFC5E74006800E9F011A003F180300DB
:10231000B9E7C0460080FCBF08C0004000E00040B4
:1023200000F00040C83C00202C1000000103000019
:10233000FEFF0000FFFF0000C0FF3F003030000044
:102340004E0E0000F8B5DE464E4657464546E0B50F
:102350008B4605000A991800160000F0B5FA0A9B92
:102360006C001F02324B64199C46A40064446368ED
:1023700081469F4200D967602B1FDBB29846012B34
:1023800030D9C02380229B01E31812011A60294B27
:10239000AD0059599A4600291BD17301E0262268E5
:1023A00053401E40802342465B01E3181E60012A11
:1023B00030D9802380229B01E31812011A60534612
:1023C0004A4667605A51F0BCBB46B246A946A04691
:1023D000F8BD586900F078FA013043001B18033B40
:1023E000FDD2DAE75B46012BCBD1C02303229B0150
:1023F000E3181A60023AA3681A42FCD07301E0267F
:102400002268AD0053401E4080230A4A5B01924679
:10241000E3181E605A462168514003220A401A60A0
:1024200001225B469A40A3681A42FCD0C1E7C0462D
:1024300000800040D0160020F0B546464F46D646F4
:10244000C0B51F00344B44009C462418A4006444CB
:10245000636888461600FF2B02D880235B00636008
:10246000031FDBB29A46012B30D9C02380229B0187
:10247000E31812011A60294B850059599946002921
:102480001BD17301E026226853401E408023524630
:102490005B01E3181E60012A30D9802380229B0152
:1024A000E31812011A6080235B0063604B465F51A2
:1024B000E0BCBA46B146A846F0BD586900F004FA3F
:1024C000013043001B18033BFDD2DAE74346012BE2
:1024D000CBD1C02303229B01E3181A60023AA36800
:1024E0001A42FCD07301E0262268850053401E404A
:1024F00080230A4A5B019146E3181E604246216828
:10250000514003220A401A60012342469340A268C8
:102510001342FCD0C1E7C04600800040D016002026
:10252000014B8000C0587047D0160020F8B5040059
:1025300020481D0017000E0000F0C6F90100380009
:1025400000F0C2F9069B29041B0319432368002BE2
:102550001EDB194B194DE21853425A4180235B018F
:102560009C461203164B62441A60164B1A60170001
:102570002B689F43FBD1144B2660E2182123A060F7
:1025800013602368002BFCDA0823E1601360F8BDB8
:102590003F2322681340B342DBD1A3681B051B0D08
:1025A0008342D6D1EE22E368D20213408B42D0D1CF
:1025B000EDE7C046001BB7000040FDBF08C000406B
:1025C00000E0004000F00040043000008023024A98
:1025D0009B000B43D362704700800540142310B565
:1025E0000100188804331B88984710BD162310B5C6
:1025F0000100188802331B88984710BDF8B547467C
:10260000CE4680B50F1E19D014239946043304001A
:102610000025012698464B461888434621681B88AA
:10262000984701C4431E9841013540420640AF42DD
:10263000F1D13000C0BCB946B046F8BD0126F8E77C
:10264000142370B50400188804331B880D00054955
:10265000984703000020002C01DB0130A040290036
:102660009847C04655420000AA23064A1B01136042
:102670008D235B00D3600449044B19605368002B21
:10268000FCDA70470040024000B0FA0000600240EF
:102690007047C04610B50148FEF7D6FF74650010BC
:1026A00070B5074D074EB54209D20024013E761B96
:1026B000B60808CD984723000134B342F9D170BD64
:1026C000305F00106C5F001070B5074D074EB542CB
:1026D00009D20024013E761BB60808CD9847230096
:1026E0000134B342F9D170BD645F00106C5F00101B
:1026F000054B064A06491A60064A074B1A60100045
:102700000B689843FBD1704700E00040BFCDFBFE53
:1027100008C00040FE7F3C0000F00040044BDB6C32
:10272000002B03D18022034BD2021A607047C046AF
:10273000000011504C201150044A054B1A60054A04
:102740001368DB018033FBD17047C046FFFFFF01F8
:1027500000F0004008C000404022034B9A675A67CF
:102760001A67DA667047C04600F0014010B5FFF7FF
:1027700015F810BD70B5044D044CA968C0222000A6
:1027800001F0E2FBAC6070BD00ED00E00000002055
:10279000002310B5294C82B0A367FFF765FF012223
:1027A000274B1A60636C012BFCD10322254B1A6066
:1027B000224A936B012BFCD1013300930121224A61
:1027C00022480433FFF7B2FE052301210093204A7B
:1027D0002048FFF7ABFE0022022104201E4BFFF72A
:1027E0002BFE0022012105201C4BFFF725FE0022B5
:1027F000002107201A4BFFF71FFE002200210820AE
:10280000174BFFF719FE8023DB0000930022002105
:102810000920134BFFF796FD0022104B00210620E4
:10282000FFF70AFE0420FFF77BFE0E4900F04CF88C
:1028300001000020FFF7CAFE02B010BD008000407A
:102840003CB0004030B00040002F6859008002408A
:10285000008C864700C00240001BB7004059730738
:10286000006CDC0240420F0001480421014B184774
:1028700020020020FD250010124A936F9B0815D2FC
:102880009066D166002905D0FFE7FFE7FFE7516FAB
:10289000106F704704B580210906C2175140002807
:1028A00000D0C84303F034FB002104BDF0B5146E22
:1028B000556E576F166FFFF7E3FF1466556657673F
:1028C0001667F0BD000000D0114A936F9B0813D229
:1028D00010665166002905D0FFE7FFE7FFE7516F5B
:1028E000106F704704B5002801D00020C04303F0EA
:1028F0000FFB002104BDC046F0B5146E556E576F36
:10290000166FFFF7E5FF1466556657671667F0BD4B
:10291000000000D094464A4A926F9208624601D263
:1029200028E0C046F0B5464E346E756E776F366F50
:1029300000F020F89446424A1466556657671667B9
:102940006246F0BD94463E4A926F9208624601D2BA
:1029500054E0C046F0B53A4E346E756E776F366F00
:1029600000F04CF89446364A146655665767166769
:102970006246F0BD002B24DB11D000293EDA00B501
:10298000C943404200D1013100F038F8C943404208
:1029900000D10131DB43524200D1013300BD002A96
:1029A000EBD1002801D1002905D00020C90FC907AB
:1029B00001D1C043410800B503F0A2FA0022002370
:1029C00000BD00B500290ADBDB43524200D10133D0
:1029D00000F014F8C943404200D1013100BDC943A1
:1029E000404200D10131DB43524200D1013300F0BB
:1029F00005F8DB43524200D1013300BD002923D149
:102A0000002B18D1002A0CD0BC460D4F38667A66D0
:102A100000210023FFE7FFE7FFE77A6F386F674683
:102A20007047002801D00748010000B503F068FA9C
:102A30000022002300BD02000B000020002170478F
:102A4000000000D0FFFFFFFF002B00D0BFE0130C01
:102A500028D1002AE7D080B4114F39667A66FFE7A3
:102A6000FFE730B4040C7B6F396F1B0423433B66D4
:102A70007A66FFE7FFE7FFE7C04684B27B6F3D6FF2
:102A80001B0423433B667A66FFE7FFE7C04600234B
:102A90002C042D0C7A6F386F00196941B0BC704757
:102AA000000000D0F0B594460025140E01D11202AA
:102AB0000835140F01D112010435940F01D1920091
:102AC0000235D40F01D152000135D40B0134254F0A
:102AD0007C66254C3C660E0C93B2FFE7FFE7FFE7F0
:102AE0003C6F6643360C7703BE467343DF0B5B04D3
:102AF000C01AB941130C7343DB18C91ACE086643D8
:102B0000360CB64493B273431F0F1B01C01AB94170
:102B1000130C73431F0B1B05C01AB941860D8F029E
:102B20003E436643360C092D24DB520A7243801A59
:102B30007703460A6643360C16235B1BDE40DF40F4
:102B4000BF1964466643821B704604350633010094
:102B5000D940A840C01900D30131A24206D20023B7
:102B6000F0BD0000000000D0FFFFFFFF121B01308E
:102B7000F3D3F1E709277F1BFE406446A2B27243FC
:102B8000801A00D20139220C7243130C1204821AEB
:102B900099410B007046043513370100F940A840F5
:102BA000801900D30131002B02D1A2420AD2F0BD1C
:102BB000013000D30131121BFAD2013BF8D1A242FD
:102BC00000D2F0BD013000D30131121BF7E7F0B5A0
:102BD0001C0C00D080E00CB400251C0A04D11B02A0
:102BE000160E3343120208351C0B04D11B01160FBD
:102BF0003343120104359C0B04D19B00960F3343E1
:102C000092000235DC0B02D192185B4101351C00A9
:102C1000971864410134464F7C66464C3C660E0C66
:102C2000FFE7FFE7FFE7C0463C6F6643360C7703DC
:102C3000BE4697B27743C01B00D20139C01B00D2F9
:102C400001399FB27743C91BC91B170C77437E0418
:102C5000FF0B801BB941CE086643360C0C2D33DBCD
:102C6000B644120B1F053A431B0B97B27743C01BA8
:102C700000D201399FB27743C91B170C77433E043A
:102C80003F0C801BB941860D8F023E4366432927C6
:102C90007F1BFE400C3D7746AF40BF1930BCA2B24F
:102CA000ABB272437343801A9941220C7243130CE6
:102CB0001204801A994102000B000137001BA94140
:102CC000F9D2781E0021F0BD0C277F1BFE4077460D
:102CD0007F0BAF40FF19E0E700245D1C07D0144FC5
:102CE0007D663966FFE7FFE7FFE7FFE73C6F95B2D8
:102CF0009EB265436643401BB141150C1E0C6543F3
:102D0000664336042F0C3E432D04401BB1419942CB
:102D100004D202000B0020000021F0BD01D190423E
:102D2000F7D3801A994101349942F2D3F6E70000B3
:102D3000000000D0FFFFFFFF44464D4656465F4669
:102D4000F0B47047F0BCA046A946B246BB467047F7
:102D500048404140484018B41B4B5B68FC46019317
:102D600008BD04DF0F33001018B4174B1B68FC4676
:102D7000019308BD00DF193300109446134A926F87
:102D8000920809D2624618B40F4BDB68FC460193E7
:102D900008BD0CDFD13500100C4AF0B5146E556E2D
:102DA000576F166F6246FFF7EEFF084A14665566C6
:102DB00057671667F0BD18B4034B9B68FC46019338
:102DC00008BD08DF7534001088040020000000D022
:102DD000FFB550404240504059404B40594000E000
:102DE000FFB5154F4C00640D03D0BC4204D10C0359
:102DF00014D80020090D09055C00640D03D0BC4205
:102E000004D11C030AD800221B0D1B0501264B40D0
:102E100009D44B4003D58B4200D18242FFBD994279
:102E2000FCD19042FFBD0B43DB1803431343F5D0A5
:102E3000C9434918FFBD0000FF07000000B5FFF7B8
:102E4000CFFF804100BDC04600B5FFF7C1FF01D9EB
:102E5000002000BD012000BD00B5FFF7B9FF804193
:102E600000BD012040054A00121804D85A0012186B
:102E700001D8002070470120704700000021002881
:102E800005D17047C1174840401AFAD0C90713B599
:102E9000064B1B6898470CBC441CA2401005120B43
:102EA0000349091B09051943114310BDC03C00200B
:102EB0001F04000010B54C00620D8023D218DB0007
:102EC000D21A5B057E2A10DD9E3A13DACC1709036D
:102ED000490819435242D140640001341532202A76
:102EE00005DAD0400843604310BD002010BD0846FD
:102EF000604310BDC80FC018013810BD18B4044B92
:102F00005B6AFC46019308BD24DF05380010000011
:102F10008804002018B4044B1B6EFC46019308BDC6
:102F200060DF1339001000008804002018B4044B3F
:102F3000DB6FFC46019308BD7CDF9D38001000006C
:102F400088040020024A034B00B500F0BFF900BD21
:102F5000182D4454FB2119408A0002D3920D092AEE
:102F600008DA18B4064BDB6BFC46019308BD3CDF66
:102F7000473A001000B5FFF7E5FF04BC9646F0E7BE
:102F8000880400208A0002D3920D092A08DA18B4B6
:102F9000064B1B6CFC46019308BD40DF573A0010FE
:102FA00000B5FFF7CFFF04BC9646F0E78804002089
:102FB000132370B51D78012D19D014DD1F48FFF7BC
:102FC00015FB06001E48FFF711FB1E4C8022310046
:102FD000200000F0B9FF022D2DD01B48FFF7FEFAAC
:102FE0001A4B186070BD1A4B164CA364F5E7184BCA
:102FF000144C23606360A360E36023616361A36199
:10300000E36123626362A362E36223636363A36396
:10301000E36323646364A364E36423656365A36576
:10302000E36523666366A366E36623676367A36756
:10303000E367A364D1E7064BA364CEE753440000E3
:1030400053460000880400204C330000C03C0020A0
:10305000DD320010F0B54E464546DE4657461C00B0
:103060001300E0B589B004930594129B4D006400F1
:10307000814694466D0D640D002B02D01A0000238A
:1030800013608F4EB5426ED0002C6CD0002D00D155
:1030900074E002000B00B44267D0661EB046AE4238
:1030A00063DC8022CB0F9B460B0352031B0B1343A5
:1030B0001F00059B4E461B031B0B9A46634602935B
:1030C00053461A430392A84500D18BE05B46002B80
:1030D00000D196E032003B002D1B002756429F4155
:1030E000002D00DC9DE00120039B40421911FFF7F9
:1030F000EBFB00239B461D3381469A46A846079466
:1031000018E032009A4001923300AB402000009357
:10311000E117029A039B00F01FFE009E019F5B4691
:10312000A346AB409B4443465B1B361A8F419846EF
:10313000002B26DD45460C2D00DD0C254B46BC1131
:103140005C4353465B1B1C412B0001346410203B45
:10315000D7D5202332005B1BDA4013003A00AA4087
:103160001A430192D0E70022564B1000190009B013
:10317000F0BCBB46B246A946A046F0BD00220023E3
:10318000F3E7079C029A039BBB4269DD002F4ADBF1
:103190000298039932003B0092197B418B4219DC63
:1031A00016D002998A4254D0059B002B02DA5B4666
:1031B0005B429B46129B002B01D05A461A60424A42
:1031C0003000121B3900FFF7A5FE02000B00CCE710
:1031D0008242E6D9029A039BB61A9F4101239C467C
:1031E000E344E1E797422BDD5B46002B4BD1029A8B
:1031F000039B92185B41B61A9F41012344469B46AC
:10320000D2E72D1B002D00DD6DE7029A039BBB4228
:10321000E0DC4CD0029A039BB61A9F4101239B46E7
:10322000B6E700239B46029A039BB6185F41002F26
:1032300041DAB6185F4102235B429C46E344A7E7AC
:10324000029B039CA74201D19E42CDD802000B00F5
:103250008BE7039A9342A7D15B46DB07A4D5B9E776
:10326000BB4201D1B24291D8029A039BB61A9F4148
:10327000BB4218DC14D0029A039BB61A9F4102236A
:103280009C46E34484E7029A039B92185B41921B9D
:10329000BB411F0001235B42160044469B4683E767
:1032A000029BB342E7D901239C46E34470E7029BAB
:1032B000B342AFD98EE701235B429C46E34467E704
:1032C000FF0700000000F07F3304000010B5002469
:1032D00082B00094FFF7BEFE02B010BD07B5604695
:1032E00001880A0A0230DF2AFAD1C9B2820804D35F
:1032F000028840880004104300E00068014A5050F2
:10330000039007BD880400200FB403BC0CBCF0B5CB
:103310000124E407634000E0F0B50C0DCF0F661EFA
:103320003605891B640503D3C943404200D30131EC
:10333000640D03D0661CF60A07D0E41B00207F0052
:10334000791C89078912803C24031D0DDF0F6E1E36
:1033500036059B1B6D0503D3DB43524200D301337B
:103360006D0D03D06E1CF60A07D0ED1B00227F0006
:103370007B1C9B079B12803D2D032F1B661B58D483
:10338000A446202E46DA20371400BC401D00BD4064
:10339000F24033412A4380185941CB0F05D0C9432D
:1033A000C043002264425041514162464D0D28D134
:1033B0000D0D07D100281FD0241940414941013A81
:1033C0000D0DF9D0640006D3013000D30131002C7B
:1033D00001D140084000013A0BD4941CE40A04D106
:1033E00012051144DB071944F0BDD907204B1943DE
:1033F00000E0D9070020F0BD0029DDD1002CDBD191
:10340000F0BD0132C6074008CD0728434908002E09
:10341000E1D0D9E73C2E29DA203E40371400BC40E9
:1034200000D00124F24014431A00BB401C43D317C0
:10343000ACE7AC46202F08DA20360400B4400D007B
:10344000B540F84039412843A5E73C2F0CDA203F2E
:1034500040360400B44000D00124F8400443080082
:10346000B1400C43C117EAE710001900002494E7AB
:103470000000F07FF0B50C0D661E3605891BE60ACC
:103480006405640D02D0651CED0A04D00020012102
:103490000905803C2403A4461C0D671E3F05DB1B69
:1034A000E70A6405640D02D0651CED0A04D0002211
:1034B00001231B05803C24037740644497B484B205
:1034C00096B27443070C7E43150C6F4380B2684379
:1034D000361802D3012000043F183004350C0019BF
:1034E0007D41844688B29AB250430C0C62431F0C53
:1034F0007C438EB27E43921902D301263604A4196E
:103500001604170C3618674101BC81B29AB25143B8
:10351000040C62431B0C5C4380B25843121802D364
:103520000120000424181004130C401863412D18C6
:103530005E410020474106BC88B293B258430C0C50
:103540006343120C544389B251435B1802D30121E7
:103550000904641819041A0C091862416D185641BF
:103560000020474118BCF902720D1143F0026A0DA8
:103570001043ED020A0D03D16D1940414941013B51
:10358000124E9B1B7600B3420ED26D0007D3013062
:10359000002671416646354301D1400840001B05B5
:1035A000C918E4072144F0BD0BDA013306D101301C
:1035B00004D101314F0D01D04908F2E7E1070020A5
:1035C000F0BD013631050020EBE70000FF030000ED
:1035D000F0B51C0D671E3F05DB1BE70A6405640D93
:1035E00002D0661CF60A04D0002201231B05803C91
:1035F0002403D0252D060026F6432E661E096E668E
:10360000CE0FF619B44649004F0D02D07E1CF60AC3
:1036100003D000200021403F3F033E1BB600B444CE
:10362000013F7F05C91B49082E6F013676089C02B1
:10363000950D25437543ED137543AD1301356D109D
:10364000F603761B0CB4CC02450D2C43A2B2B3B2E8
:103650005A43270C7B43350C6F43A4B26C431B19B0
:1036600002D3012424043F191C041D0CA4187D411D
:1036700024196D41009A91B2ACB26143170C7C439E
:103680002B0C5F4392B25A43A41802D301221204B6
:10369000BF182204230C52187B41019C6C431B1958
:1036A000520ED9010A434401A01A81B2B2B2514369
:1036B00003145A43360C734387B27743D617D21993
:1036C00000277E4136049B191704160C7F185E41B3
:1036D0007316ED18F301002680337541A90F06D14A
:1036E0006400690AE8055B0A184309D22FE0042246
:1036F000944480337541A90AA8059B0A184326D330
:10370000404149412404009A019B0D005543641B2C
:103710004343E41A95B286B27543170C7E43030CFB
:103720005F4392B25A43B61802D301221204BF1863
:103730003204330C52197B4152429C41002C02D47A
:103740000022013051414008CA071043490802B025
:103750006246D7079210084BD218084B9A4203D200
:1037600012058918C919F0BD0020002A01DC3900B2
:10377000F0BD01331905F5E7FD030000FE07000069
:10378000624618CA94465A46002A20DB04E0624684
:1037900018CA944600291ADAC01861415B463B41B9
:1037A0005C46B4405246FA40224344464D4662418C
:1037B0006B41904699462B46B3403D41FC401C432B
:1037C00052465B46A241AB4192469B467047C01AA7
:1037D000A1414B463B414C46B4404246FA4022434D
:1037E00054465D4662416B4192469B462B46B34030
:1037F0003D41FC401C4342464B46A241AB419046F2
:1038000099467047002200B5203200F010F80800F9
:1038100000BD002200B500F00CF8CA179A4200D192
:1038200000BDD8430121C907414000BD00220B154E
:103830000AD410B5944600F0A7F81414013400DA45
:103840000021CB17144C2047002000217047624410
:10385000343A0CD40C2A07DA0400914090405242CA
:103860002032D440214310BDD843D94310BD20326B
:1038700007D40C469440524220321141D04020439C
:1038800010BD0800C917203203D452422032104123
:1038900010BD1800190010BD4F3800104A00520D1D
:1038A000144BD21A13DDFF2A1EDAD205CB0FDB0729
:1038B0001A43C300400F0903490A084310435B0041
:1038C00001D301D0013070474308FBD2704702D0CA
:1038D000C80FC00770470A0312130132F8D1420F14
:1038E000072AF5D1012200E0FF22C80F000280184C
:1038F000C00570478003000000210A00002104E099
:1039000000210A00C11704E00022002306E0C0469F
:103910000022CB1758405940C01A994130B5184C75
:10392000A21A002903D1010010D00020203A4C1522
:1039300012D104D2013A001849414C0DFAD3114C6E
:10394000A24204D212058918DB07C91830BDD24340
:10395000520D00200021F5E703D4013A0018494137
:10396000FBD50B324405C00A4D052843C90A640043
:1039700003D0002460416141E1E7E0D34408F8E767
:1039800032040000FE0700000A0DCC0F531E1B0579
:10399000C91A520503D3C943404200D30131520D25
:1039A00003D0531CDB0A07D0121B00206400611CEB
:1039B00089078912803A1203014BD21A704700001E
:1039C000FF030000023225D40C2A1CDA1125AD1A9F
:1039D0000B002B41083207350600EE409040914025
:1039E0003143F0CC63431A1500235A4155435643E3
:1039F0005743BF02F412760576196741ED177F1918
:103A0000801BB94170470C220020C91749000131C1
:103A10000905DBE70902030E194300025342203275
:103A200008D40C0019419440D84020430022504152
:103A3000514170470800C917203B2032F1D50020C2
:103A4000002100227047F0B5FFF776F900F00EF87C
:103A500000F030F806E0F0B5FFF76EF900F006F878
:103A600000F046F8FFF76EF9F0BD000000B5FFF773
:103A70008BFF30A4FFF7A6FF00242C4D2C4ED2075D
:103A800002D3F6436D426641520004D2A246A346D9
:103A9000A846B14603E0A046A146AA46B3466EA496
:103AA000A44601271F26FFF772FE0137013E212F92
:103AB000F9D100BD594684B28DB26C4306147543EA
:103AC0000B145E4382B25A43AD18EA1700D7D243B3
:103AD0001204B6182A042B0C1219734140464946A9
:103AE0009D009B17920F2A43904199413E2210E777
:103AF000494684B28DB26C43061475430B145E4381
:103B000082B25A43AD18EA1700D7D2431204B6184E
:103B10002A042B0C12197341504659469D009B17DD
:103B2000920F2A43504159413E22F2E6BB4DF09D8F
:103B3000C556F6367D5100001A61140085880A00CA
:103B4000FB211900F0B5FFF7F7F8404D0C002C40B1
:103B500001D0AC4202D1090D090500201C002C4007
:103B600001D0AC4202D11B0D1B0500220026ED0244
:103B7000002B04D502266B40694000D476424F19D1
:103B800004D599420CDD0136694003E0BB4207DAF7
:103B9000013E6B40070010003A000F0019003B0087
:103BA00040B4002A0FD1002B0AD05C006415013408
:103BB00009D14C006415013402D10139013B02E006
:103BC000002000212EE0FFF703FD3E22FFF722FE3A
:103BD00082468B46002000218046012292079146B2
:103BE0001DA4A44601271F26FFF7CAFD0137013E89
:103BF000212FF9D14A4653460C3A01246407002785
:103C000052081B0005D49341001979416408F7D18B
:103C100004E05341001BB9416408F1D1CE074910BB
:103C20004008304340BC002E0AD0094C094D01D554
:103C3000E443ED43F60701D10019694100196941D8
:103C40003D22FFF766FEFFF77DF8F0BD0000F07F34
:103C50008D305A88A8F64332694FBB610567AC1DA9
:103C6000B16E4096FCBAAD0F72DB0BABA66EF507DA
:103C700039BD9FE576ABFE034B6297BA5BD5FF017A
:103C8000D694DBDDAAFAFF005DEAEE5655FF7F0011
:103C90006E77B7AAEAFF3F00BCBB5555FDFF1F007A
:103CA000DEADAAAAFFFF0F006F5555F5FFFF070015
:103CB000ABAAAAFEFFFF03005555D5FFFFFF010089
:103CC000ABAAFAFFFFFF00005555FFFFFF7F000082
:103CD000ABEAFFFFFF3F000055FDFFFFFF1F0000A5
:103CE000ABFFFFFFFF0F0000F5FFFFFFFF07000026
:103CF000FFFFFFFFFF0300000000000000020000C4
:103D00000000000000010000000000008000000032
:103D10000000000040000000000000002000000043
:103D2000000000001000000000000000080000007B
:103D3000000000000400000000000000020000007D
:103D400000000000010000000000008000000000F2
:103D5000000000400000000051434343C9188C4656
:103D6000110C83B24B4310B4040C614392B280B285
:103D7000504362431C041B0C001910BC594113042E
:103D8000120CC0185141614470470000C10FC907AF
:103D900000D54042002817D0F44603B40B4B1B68F3
:103DA000984706BC81409E384042803107D20B06BE
:103DB00007D04900490AC005104308436047013055
:103DC000F8E7490A8902F5E770470000C03C002087
:103DD00041000A0E80231B067E2A0BDD9E3A0BDA79
:103DE000C1174002400818435242D04049000131F7
:103DF0004843704700207047C00FC0180138704713
:103E0000C0420DD300B540004008002100F012F878
:103E1000002801D4404200BD8020000600BD000003
:103E2000034BDB69FC4618471CDFE53E0010000031
:103E300088050020014B5B6A1847000088050020B8
:103E4000034BDB6FFC4618477CDFFD3E0010000093
:103E500088050020132310B512481C78FEF7C6FB16
:103E60000100012C0AD003DD80220F4800F06CF81D
:103E70000E48FEF7B3FB0E4B186010BD0A4C5422DF
:103E8000200000F061F80B4B6365A365E3652366D2
:103E90006366A366E36623676367A367E3672362DA
:103EA000E361E5E753460000880500204C3300003D
:103EB000C03C0020B93E001007B5604601880A0AE0
:103EC0000230DF2AFAD1C9B2820804D302884088BE
:103ED0000004104300E00068014A5050039007BD01
:103EE000880500200021C2158032803201D0024AAC
:103EF0001047002070470000CD2A0000C30FDB07E9
:103F000041000A0E07D0FF2A08D00909054A89187E
:103F10001943400770471900002070470249C9182B
:103F2000FAE70000000000380000F07F014804219B
:103F3000014B184730020020FD250010014B1B6883
:103F40001847000030020020014B5B681847000052
:103F5000300200209A4200D2885470477047C04611
:103F6000F8B557464546DE464E46E0B598460A9BAC
:103F700006009A460D9B0F00934615009B0710D133
:103F80000B9B0C9A93420CD213005C460B9A9D1A21
:103F90005D4422004346013439002020B047A54249
:103FA000F7D10B9C6319002C09D01D0053462A1B26
:103FB000013C185D39004346B047002CF6D10D9BFB
:103FC0009B070ED55B46EC1A0C9BA34209D9994678
:103FD0002A004346390020200134B0470135A1456D
:103FE000F6D82800F0BCBB46B246A946A046F8BDAC
:103FF000F0B54F464646D646C0B584B098460EAB9F
:104000001B7894469946129B0D9C109F119E9A070F
:1040100024D4002E6AD1BC4220D201221A409246FA
:10402000202C00D1CBE00C9A551E302201E0202C30
:1040300030D001342A55A742F9D85246002A0DD073
:10404000B4420BD20C9A551E3022202C02D126E00D
:10405000202C61D001342A55B442F9D1DA0634D586
:104060005A0562D4002C5CD10F9A102A00D191E03D
:10407000022A00D1A1E030220C9C227001244A4681
:10408000002A5CD15A0700D47DE02B220C9D2A55D2
:1040900001341CE05246002A02D0202E3CD92024B4
:1040A000DA0614D55A0512D4202F00D197E0202E1D
:1040B0003BD120261F2234000F9D102D00D181E01E
:1040C000022D4CD030250C9FBD54202CD7D103930A
:1040D0000C9B62460093029643460194FFF740FF13
:1040E00004B0E0BCBA46B146A846F0BD01221500B6
:1040F0001D40AA461A4227D04A46002A33D10C3224
:104100001A4230D1BC429BD2202C00D08BE7202E0B
:10411000C5D8DA06A4D4DAE72024DA06D7D55A05BA
:1041200003D4A74221D0B4421FD00F9A102A21D025
:10413000022A10D0202CCAD022000134C2E72D223E
:104140000C9D2A550134C2E7BC4200D386E7202CDF
:1041500000D068E7E1E7202CB9D0220001346225C5
:104160000C9FBD54E6E7013ECCE7621E012C00D156
:104170007AE7A1E79A0616D4202CA8D078220C9DC5
:104180002A550134D6E71A07A1D520220C9D2A55BD
:1041900001349CE79A060ED478220C9C22703022BF
:1041A000627002246BE7202C91D058250C9A1219CA
:1041B00015700134BEE75822EFE76222EDE7002ACE
:1041C000A7D1AAE7023C9D0604D478250C9F3D5553
:1041D0001400B1E758250C9F3D551400ACE71F2291
:1041E0006AE7C04610B5002800D110BD01F0EEFA14
:1041F000FBE7C046F0B557464E464546DE46E0B5BD
:1042000099B08246894690460993229A239B1000D2
:104210001900FEF726FE002800D0C8E02298239956
:104220000122D54B5242FEF717FE002800D0BEE017
:10423000229823990122D14B5242FEF7FFFD00281C
:1042400000D0B4E02298239900220023FEF7F6FD67
:10425000002800D0E9E1229E239F8023269ADB00DC
:104260001A400D92269A1A4201D1062324933B004C
:10427000334300D0B4E0269B1B0500D5BFE10023EB
:1042800000240A930B94002304250C93259B0024FF
:10429000AB4200D95C1B0223269A1A400D92269A43
:1042A000134203D06B426B415B421C400C9B002BC2
:1042B00007D00A9A0B9B30003900FEF75EFD06001E
:1042C0000F002298239900220023FEF7B7FD002853
:1042D00003D0802109067B181F00269AA84B009660
:1042E00001971340099E0493249B03940293424632
:1042F00033004946504600F0A7F90400002D67D06E
:104300002020269A4946024013005A4253415B42FC
:10431000621C18400A92330022004530D0470C9AA4
:104320006F1ED317D4185C40D30F9B46002501E0C5
:10433000202D13D008AA94461F23200063440A218D
:1043400001355E19FEF7C0FA3031317020000A21C4
:10435000FEF7BAFA26000400092EE9D805230693D1
:10436000002304930A3303935B46099E029310AB28
:104370000A9A009349463300504605970195FFF786
:1043800037FE0D9A0400002A22D04246851A259A4B
:10439000AA421DD9B0465746160022004346494658
:1043A00020200135B8470134AE42F6D810E0269BF4
:1043B00042460493259B49460393249B504602930F
:1043C000229B239C00930194099B00F03DF904007B
:1043D000200019B0F0BCBB46B246A946A046F0BDCD
:1043E000684B78009C46400D6044FEF74BFD664AE2
:1043F000664BFEF7E0FC664A664BFEF7B5FC664A84
:104400003B031B0B1A4304000D00644B11003000EA
:104410000022FEF7A0FC624A624BFEF7CCFC0200D1
:104420000B0020002900FEF79FFCFEF743FD0C90D7
:10443000FEF728FD5C4A5D4B04000D00FEF7BBFC57
:1044400000225B4BFEF790FCFEF734FD594A834691
:10445000594B20002900FEF7AEFC040058460D0021
:10446000FEF710FD554A564BFEF7A5FC02000B0067
:1044700020002900FEF76FFC02000B000A900B9150
:10448000FEF799FC04000D000A980B9902000B003E
:10449000FEF76AFC00220E900F914A4B2000290083
:1044A000FEF76BFC0022484BFEF75EFC02000B009F
:1044B00020002900FEF761FC0022444BFEF754FC6B
:1044C00002000B0020002900FEF757FC0A9A0B9B04
:1044D0000D0080210400C9050020FEF73CFC02000D
:1044E0000B0020002900FEF73FFC394C02000B00B6
:1044F0000E980F99FEF741FC5C440022264BFEF714
:1045000033FC23050022FEF756FC04000D000200D8
:104510000B00300039000A940B95FEF78FFC002841
:104520005ED123002A00C6250C9963318D42AD412E
:1045300026996D420435090500D4A7E6134364D0DB
:1045400030003900234A244BFEF77EFC002807D0B8
:10455000002230003900214BFEF770FC002854D1B6
:10456000249B002B00D191E60D9B5A1E9341249A67
:10457000D31A24938AE6C046FFFFEF7FFFFFEFFFC9
:10458000FFF7FFFF01FCFFFFFB799F501344D33F70
:10459000B3C8608B288AC63F0000F03F0000F83F98
:1045A00061436F63A787D23F71A379094F930A4094
:1045B0000000E03F1655B5BBB16B0240EF39FAFE83
:1045C000422EE63F00002C4000002440000018402E
:1045D000FF0300002D431CEBE2361A3F80842E417E
:1045E0000C9B0022013B0C932000164B2900FEF788
:1045F000C4FB0A00010003000A910B9293E7002319
:1046000000240A930B9400230C93249A0C9B9A4247
:1046100014DDD31A013B24938023269ADB001A432E
:104620000023002526920C9330E680221206944641
:10463000229B1E00239B63441F000EE6002324934D
:10464000EAE7C04600002440F0B54546DE464E4647
:104650005746E0B595B08B46904699461E9A1F9BEB
:104660000A9019001000209DFEF7FBFB002800D0E7
:10467000B0E11E981F990122C74B5242FEF7DEFBA4
:10468000002800D037E11E981F990122C34B5242E7
:10469000FEF7E2FB002800D0A7E01E981F99002239
:1046A000BF4BFEF7D9FB002800D088E01E981F9969
:1046B0000022BC4BFEF7C2FB002800D07FE01E9812
:1046C0001F9900220023FEF7B9FB002800D0FAE072
:1046D00000230B938023229C229ADB001C401A4269
:1046E00000D102E1092D00D87EE106A98C462C00FC
:1046F000172200233021093C62440133D154EF1AC0
:10470000202B00D132E1A342F7D10022A44B069224
:1047100007931E981F99FEF7CDFB0500FEF7B2FB2D
:1047200002000B001E981F99FEF715FB069A079BC7
:10473000FEF741FB08900991FEF7E0FB0600FEF74B
:104740009DFB02000B0008980999FEF704FB00226C
:10475000954B08900991FEF77FFB002800D1D2E02D
:1047600001363000FEF78AFB069A079BFEF76CFBCA
:10477000002801D000260135AA46002F00D098E07D
:104780002800FEF77FFB02000B001E981F99FEF722
:10479000E2FA854B002206000F00FEF74FFB0CAB40
:1047A0009A46002845D10022300039007E4BFEF7A2
:1047B00053FB00283DD1EB073BD5013539E0229B67
:1047C00042460493219B594603930A981E9B1F9CC3
:1047D0000295009301944B46FFF70CFD15B0F0BC19
:1047E000BB46B246A946A046F0BD229B5B0767D4F4
:1047F00003226E4B22990192039121990291009319
:1048000042464B4659460A98FFF7AAFBE6E706AA36
:1048100094461723280063440A2101341E19FEF729
:104820002BF83031280031700A21FEF725F8051EDB
:1048300076D0202CEBD10323229A1340012B1DD1DB
:10484000219B002B1AD00B9B002B00D0BBE0229A9F
:104850000C33134200D0B6E0219BA34200D887E07E
:1048600006AB9C4617223023624404E021990134B0
:1048700013558C4259D0202CF8D12024229B01942E
:104880000393219B02935346B9E706AA9446172344
:104890000A216344300001341D19FEF715F8303148
:1048A000297030000A21013FFEF70EF8092E46D983
:1048B0000600202CE9D155460CAB20249A46B8E7D7
:1048C00004223B4B96E71E9A1F9B00200021FEF717
:1048D00042FA01230B938023229C229ADB001E9034
:1048E0001F911C401A4200D0FCE60022314B0627E3
:1048F000069207930DE7229B0393219B02930423C7
:1049000001932D4B7BE7002208980999264BFEF76F
:1049100095FA002800D02FE7002E4FD101362BE763
:104920000323229A1340012B68D0202CA6D00B9B86
:10493000002B1FD02D235246135501349EE75546B8
:10494000202CB9D030223B19002F4BD0172006A9BC
:10495000013409180A55202CAED09C42F6D10CAA7D
:1049600092462E2251465C1CCA5462E72024CCE6B3
:10497000202C83D0229B5B0708D4229B1B0700D4EA
:104980007CE7202352461355013477E72B23524608
:104990001355013472E7C046FFFFEFFFFFFFEF7FC3
:1049A00065CDCD4165CDCDC10000E03F2066001052
:1049B0001866001080842E4128660010F30700D48A
:1049C000DAE60136D8E6219B013B2193A34200D9C8
:1049D00046E7AAE7229B0393219B029303230193BB
:1049E000084B0CE72300BAE7074BEA009B185C680A
:1049F0001B682F000693079400248AE6219B002B56
:104A000093D020E724660010D0670010F0B5DE4692
:104A100057464E464546E0B59FB01C00289B93463E
:104A20000A93CC4ACC4B8A4609901A60002900D1DF
:104A30004DE1002320789946002800D14FE1C74B73
:104A40004D460893C64B0D930AE02A006E1C5B4648
:104A5000099D5146A847350001342078002872D0BE
:104A60002528F2D110239946083B9846043B0021A3
:104A70009C4602270134207826000300203BDBB24D
:104A8000102B03D8089A9B00D3589F460300303B55
:104A9000092B6ED900272A2800D18AE000230B9326
:104AA0002E2800D176E00300683BDBB2122B1BD826
:104AB000AC4C9B00E3589F46012301341943DAE7CD
:104AC00039430134D7E7634601341943D3E74B46F2
:104AD00001341943CFE7434601341943CBE7802320
:104AE0005B0070781943013667280AD824281FD93B
:104AF0000300253BDBB2422B1AD80D9A9B00D358FA
:104B00009F460300693BDBB20F2B11D801249C4068
:104B1000954AA446904614400C946246444622426C
:104B200000D025E20A2B00D101E1072B00D1D8E00B
:104B3000099C2A005B465146A04770786F1C741C84
:104B40003D0000288CD1A9462C00CB4503D8012379
:104B50005B425B4499465B464A4651460020099DAC
:104B6000A84720001FB0F0BCBB46B246A946A046ED
:104B7000F0BD0027BB00DF1901367F003F183078F9
:104B8000303F0300303B092BF4D900230B932E2830
:104B900000D088E780237078DB0019430300303BA6
:104BA000741C092B00D82CE12A2800D138E12600FA
:104BB00079E70A9B80CB002F03DB60780A93661CA1
:104BC0006CE70222607811437F420A93661C65E716
:104BD000672800D1C8E1472800D104E2452800D168
:104BE00004E207200A9B04910733834319000B9AC0
:104BF000039702920CC90998009201930A912A0026
:104C00005B465146FFF7F6FA741C050025E77078FD
:104C10006C2800D10DE280235B001943013663E765
:104C200080239B007078194301365DE7707868280F
:104C300000D1F9E180230136194355E7462800D118
:104C40008FE107200A9B04910733834319000B9AD5
:104C5000039702920CC90998009201930A912A00C5
:104C60005B465146FFF7F0FC741C0500F5E62A0090
:104C7000099C5B46514625206F1CA0473D00741CD3
:104C8000EBE6890700D4DEE10A9B2A0098466B1CFC
:104C90009946434601CB51469846099C5B46C0B2B3
:104CA000A047ED19012F00D893E24C46B146564675
:104CB000099F22005B46013431002020B847AC42F6
:104CC000F7D1B24643464E460A93741CC5E6274BBD
:104CD0002078099300239946002800D0AFE60024ED
:104CE00033E70A9B1A0008CA9046002B00D1A7E0C0
:104CF000212008430EA98C461F2262440F27AC4690
:104D0000814615000C9C02E0202C0CD013003800CA
:104D1000184001003731092800D8073901342955D6
:104D20001A090F2BF0D8654648460C9494E00A9B6C
:104D30001A0008CA12920B9A002A7BD102241A7810
:104D40006442002A1DD0013418199C461C0003003F
:104D500010E0C0460D4A00103837002030660010C1
:104D6000C066001074660010419000005D3F0010A6
:104D70009C4203D0607801340028F9D16346E01AE0
:104D80000C908020C0008446084080466046014266
:104D900004D00B980C9C844200D90C9002208446CD
:104DA00008400A906046084200D189E1101E00D1F7
:104DB00070E14246002A00D11BE10B9A5B1B904632
:104DC000A84444462A00B84699465746B246099E2A
:104DD00009E05B463900551CB0474B46585D00283A
:104DE00000D12CE12A009442F3D156462500BA4660
:104DF00047460A9B002B00D04CE1129B741C0A937F
:104E00002BE6002293009B185B0001341A182078CF
:104E1000303A0300303B092BF4D926000B9242E6CE
:104E20000A9B023604CBD043C01702400B92307865
:104E30000A9338E61A78002AA3D00B98441E82E71A
:104E40001023080080279843113318430B00FF00FC
:104E50003B40394200D14DE7082305930B9B2A00C4
:104E6000049310230393002302930C9B0690019359
:104E700016AB009351465B460998FFF7B9F84346D5
:104E80000500741C0A93E8E5622800D1A6E15828C1
:104E900000D1B1E180230A00DB001A40904619429C
:104EA00000D189E1112399438C46802362469B00FF
:104EB0001A40100062461A4200D023E18023644663
:104EC0005B001C401A4200D032E263465B0600D50C
:104ED0006BE163460A991B0600D4DBE208C91BB2EA
:104EE000DA179818504080B20A91DA0F0C92002B12
:104EF00000D118E280460EAA91461F234B44139519
:104F0000E14645461297B0461E0001E0202C0FD026
:104F100028000A21FDF7D8FC0134371930313970E7
:104F200028000A21FDF7D0FC2F000500092FEDD83D
:104F30004646CC46129F139D634606930B9B0597EE
:104F400004930A2303930C9B029316AB2A0001944B
:104F5000009351465B460998FFF74AF8741C050018
:104F60007BE5202319436CE680231B01194338E6B7
:104F7000782800D07CE180230A00DB001A409146AB
:104F8000194200D1A5E20D239943080003330C9385
:104F9000802302009B001A409046184200D078E11E
:104FA000802304005B001C40184200D007E2430647
:104FB00000D453E2FF210A9B04CB0A4090460A9397
:104FC0004346002B00D026E1103398434B46002B7C
:104FD00000D120E100240B9B069004930C9B0597C5
:104FE00003930023B0E780231B01194320231943B7
:104FF000F7E55B1B99460C9B099C98465B46B346BC
:105000005646BA461F002A003B003100A0474B46D7
:105010000135585D0028F6D143460C933B005746B6
:10502000B2465E469B46E4E6C023B078194302369A
:105030005AE5C0239B00B0781943023654E5564622
:10504000BA464746D5E6012F00D832E26B1E984695
:10505000B8442C00A9464546B8465746B246099E74
:1050600022005B46013439002020B047AC42F7D122
:105070000A9B564601CBBA464746984622005B46F5
:10508000099C5146C0B2A0474D464346ED190A93CC
:10509000741CE2E40C9BA8469F4200D8ADE644464F
:1050A000B04656467D19099FED1A22005B46013431
:1050B00031002020B847AC42F7D1B24646469CE6C4
:1050C0000C98874200D8F0E1424698467919B946D3
:1050D0005746B246099E0C1A0C922A005B460135CF
:1050E00039002020B047A542F7D15646BA464F4670
:1050F00043460C9A90467A1C0C921A78101E00D0E7
:1051000057E67AE60822072191460A9B07338B432C
:1051100099444A460ACB0C000A921C43DA0F002C31
:105120004ED0D817040010904C4011900E94109857
:1051300011990C005C400F940E9B0F9C1B1A8C4124
:105140000E930F940EA988461F2300244344129700
:10515000B046270013951E000E9C0F9DE1460C9251
:1051600001E0202F10D0200029000A220023FDF7A3
:10517000E9FB013730322B00F2550D00220004000C
:10518000002BEED1092AECD84646CC460E940F955A
:105190000C9A3C00139D129F634606930B9B059748
:1051A00004930A2302920393CFE6FF230A9904C9CA
:1051B000134018000A9198E6102399438C4674E630
:1051C00043460024002BE7D1002300240E930F94C4
:1051D000B8E743464D460A93741C3EE480230A0018
:1051E000DB001A409146194200D140E10D2399435A
:1051F0000B3B08000C93CBE680230A00DB001A402F
:105200009146194200D162E10D23202099430333D6
:1052100008430C93BCE66123810600D541230EA907
:105220001F228C46DBB262440A3B139714958146D9
:1052300045460C9FB0461293160008E03033DBB2AF
:1052400001343355BD420ED3202C0CD0050039005B
:105250002800FDF739FBCBB20929EFD9129A944601
:105260006344DBB2ECE746464846139F149DB2E622
:105270006F2800D03CE10C230800984380230A00EB
:10528000DB001A409146194200D02AE108230C9312
:105290007EE60A99FA3BFF3B0731994301339C466E
:1052A0008C4463464A680A930B6890469C461343B5
:1052B000191E06D14B46103100248843002B00D024
:1052C00089E66121830600D541210EAA91461F235C
:1052D0004B449946C9B20C9B0A39139714951596FD
:1052E00045464E46002467469846814612910CE09A
:1052F0003032D2B2002301343255AB4200D1BCE08F
:10530000202C00D1BCE007000D00424600233800ED
:105310002900FDF717FBD2B2092AE9D9129B9C4656
:105320006244D2B2E6E74346002B00D004E6E2E551
:105330000A9C08CCDA0F1392002B00D1A5E0D917F4
:105340005B184B4098460EAA91461F234B440C9580
:10535000A14645461296E04606001C000A9701E069
:10536000202E0FD028000A21FDF7AEFA0136A7192A
:105370003031397028000A21FDF7A6FA2F00050008
:10538000092FEDD8C4464C4630000A9F0C9D129E52
:10539000634606930B9B2A0004930A230393139BF3
:1053A0000190029316AB009351465B46099805970E
:1053B000FEF71EFE0A940500741CFFF74EFB0A9BC5
:1053C00010CB1493002C04D1102398434B46002B90
:1053D0002CD16123810600D541230EA91F228C46C2
:1053E000DBB262440A3B12971395814645460C9FF7
:1053F000B0460A93160008E03033DBB2013573552E
:10540000BC420ED3202D0CD0040039002000FDF743
:105410005BFACBB20929EFD90A9A94466344DBB20E
:10542000ECE748464646129FA846139D0B9B2A0070
:1054300004930C9B0690039300230293434601932D
:1054400016AB009351465B4609980597FEF7D0FDD1
:10545000149B05000A93741CFFF7FFFA03061FD57F
:105460000A9B02CB09040A0C90460A93A8E50C2378
:1054700099430A3B08000C938AE5B84500D83FE7FA
:105480004846139F149D159EA5E54346002B00D06A
:105490007EE758E708C9DA17981850400A9124E5C2
:1054A0000A9B04CB90460A938AE5010001310C91D6
:1054B00024E60A9F6C1C01CF2A005B46099D5146D9
:1054C000C0B2A84725000A97741CFFF7C6FA20232C
:1054D00019430C23994300239946103308000C9379
:1054E00056E508238C460C930D23604698434FE500
:1054F00010230A009A439446692808D180230A00A1
:10550000DB001A409046194200D1CEE4CAE41C23C5
:105510000800984380230A00DB001A409146194294
:1055200002D10A230C9333E50A230C93DCE7C0462F
:105530000EB4012230B584B007AC08CC064D010092
:105540000094280052420394FFF760FA04B030BC84
:1055500008BC03B01847C046553F001010B5094AB3
:105560000300146884B0002C08D001220091064882
:10557000524203A9A047012004B010BD00F072F907
:105580000020F9E738370020E541001000BEFDE7B4
:1055900010B5FFF7FBFFC04670B5FDF781F8074D6A
:1055A000074EB54209D20024013E761BB60808CD4D
:1055B000984723000134B342F9D170BD6C5F0010ED
:1055C000745F0010030010B5080011001B689847B5
:1055D00010BDC046F0B546464F46D646C0B5437DE1
:1055E00080460E001700002B4BD0002A32DD274BDF
:1055F00001259A464B1E00240020994607E0335DA2
:105600000A2B2CD02B0001340135BB4213DA002CBD
:10561000F5D133780A2BF5D143461B7D002BF1D110
:105620004346504602211B68984728002B0001344E
:105630000135BB42EBDB874204DD4346391A1B6868
:1056400030189847F619013E33780D3B5A425341C2
:1056500042461375E0BCBA46B146A846F0BD4B467B
:105660001B5D0D2BCED0A042DADA4346211A1B680F
:10567000301898474346504602211B689847280037
:10568000D4E70368110030009847E3E72068001072
:10569000F0B5DE4657464E464546E0B585B01700A4
:1056A0001C0006000D00FCF781FD0023314A121892
:1056B0004B41802109068B4202D301222E4B5242DC
:1056C0002E4908008A4600F02BFC01906B1C03D188
:1056D000300000F0DDFB0500002C26D0284B98465A
:1056E000284B1C68002C15D0002F21D1264F02E03A
:1056F0002469002C0ED02368002BF9D03B68002BC6
:1057000001D0A342F4D120002A003100C04724690F
:10571000002CF0D1019B002B28D1280005B0F0BC53
:10572000BB46B246A946A046F0BD184B9846D7E7FF
:10573000154B994602ABDF1D0A239B4602E0246904
:10574000002CE7D02368002BF9D04B461B68002BB8
:1057500001D0A342F3D12A0031002000C0475B46AC
:105760000122390020003B70C047E8E7504600F0B6
:10577000BFFBD2E740420F00FFFFFF7F6002002027
:10578000D5550010FC16002000270020C55500103C
:105790000A4A1368002B05D10CE01A001B6910326D
:1057A000002B07D09842F8D1002902D10369136079
:1057B000016170470029FCD01060FAE7FC16002058
:1057C00010B500F041F9012010BDC046F0B5CE463D
:1057D000474680B583B06B460600DD1D2870FCF798
:1057E000E5FC00231A4A12184B41802109068B421E
:1057F00002D30122174B524217490800884600F095
:105800008FFB164B81461C68002C14D0144F02E00D
:105810002469002C0FD02368002BF9D03B68002BA3
:1058200001D0A342F4D1200001222900FFF7D2FECB
:105830002469002CEFD14B46002B05D1300003B07A
:10584000C0BCB946B046F0BD404600F051FBF5E79C
:1058500040420F00FFFFFF7F60020020FC16002087
:105860000027002070B5040000F012FB01230100A6
:10587000050001222000FFF70BFF084B1C68002CDD
:1058800006D06368002B05D098472469002CF8D116
:10589000280070BD2469002CF3D1F9E7FC16002024
:1058A000F0B5002915DD0E4B0D271A680D4B0E4C77
:1058B000D3185D426B41451820215B001E5F0478C0
:1058C000A64207D093691942FCD101301460A84266
:1058D000F5D1F0BD93691942FCD11760F2E7C046DB
:1058E000CC3C00200080FCBFC83C002030B5040048
:1058F0000D1E2EDD002010211F4B013C1A689369FC
:10590000194216D1013093691942FCD1136823540E
:105910008542F4D1194B1B68002B08D050239363A8
:10592000516B183B0B4016498C46624413602800AB
:105930000EE0124B1B68002B08D050239363516B71
:10594000183B0B400E498C466244136000280FD070
:1059500030BD0A4B1B68002B0AD05022064B1B6837
:105960009A63596B183A0A4005498C4663441A6099
:1059700003204042ECE7C046CC3C0020C416002087
:1059800034100000064B10B51B68002B06D0002118
:10599000044A12689163044A1068984710BDC046D3
:1059A000C4160020CC3C0020C81600200822034B5F
:1059B00019688B691A42FCD17047C046CC3C002064
:1059C00070B51B4E1B4B32680500D318584243413B
:1059D00014331C00002D04D0174B1A68002A11D074
:1059E00070BD154E3368002BFAD00021200095635E
:1059F000FBF7F4FE20001149FBF738FF104B356030
:105A00001D60EDE71D600E4B200019600B49FBF790
:105A100003FF01212000FBF7E1FE502233689A6367
:105A2000596B183A0A4007498C4663441A60D7E715
:105A3000CC3C00200080FCBFC4160020855900101B
:105A4000C8160020341000000D4B10B51B780D4B0C
:105A50000D4C1B780D4B02211B780D4B0020236051
:105A6000FBF790FD02210120FBF78CFDE12120686E
:105A70004902FCF7D9FB01210648FFF789FE10BD5A
:105A8000D8680010D4680010CC3C0020D06800100A
:105A9000004003404002002003BDC04610B5040092
:105AA000FCF712FEA04710BDF0B5040087B00F2030
:105AB0000E001700FBF7A4FE002105000F20FBF7E6
:105AC0008DFE002300220092019301230293D02334
:105AD00004960594002600240121022003971B064A
