:020000041000EA
:1000000000B5324B212058609868022188439860DF
:10001000D860186158612E4B002199600221596106
:100020000121F02299502B49196001219960352056
:1000300000F044F80222904214D00621196600F024
:1000400034F8196E01211966002018661A6600F04E
:100050002CF8196E196E196E052000F02FF8012189
:100060000842F9D1002199601B49196000215960AB
:100070001A491B48016001219960EB211966A021F2
:10008000196600F012F800219960164914480160C1
:100090000121996001BC002800D000471248134993
:1000A000086003C880F30888084703B5996A0420EC
:1000B0000142FBD001200142F8D103BD02B5186610
:1000C0001866FFF7F2FF186E186E02BD00000240BE
:1000D000000000180000070000035F00212200005C
:1000E000F4000018222000A00001001008ED00E03C
:1000F00000000000000000000000000074B24E7A12
:1001000000200420F7010010C3010010C5010010F9
:10011000C1010010C1010010C1010010C101001097
:10012000C1010010C1010010C1010010C701001081
:10013000C1010010C1010010C9010010CB01001065
:10014000CD010010CD010010CD010010CD01001037
:10015000CD010010CD010010CD010010CD01001027
:10016000CD010010CD010010CD010010CD01001017
:10017000CD010010CD010010CD010010CD01001007
:10018000CD010010CD010010CD010010CD010010F7
:10019000CD010010CD010010CD010010CD010010E7
:1001A000CD010010CD010010CD010010CD010010D7
:1001B000CD010010CD010010CD010010CD010010C7
:1001C00000BE00BE00BE00BE00BE00BEEFF3058054
:1001D000103800BEF2EB8871F43200101C330010AE
:1001E0003802001090A31AE71E481F49086006C88D
:1001F00081F3088810471D480068002801D019487D
:10020000F3E70DA40ECC002902D000F012F8F9E7B4
:100210001749184A002000E001C19142FCD116495B
:100220008847164988471649884700BEFDE701C937
:1002300001C29A42FBD370471C330010C00000205B
:10024000E00200203C3500100000042000000420E3
:100250003C350010001004200010042000000000B5
:10026000704700000000000008ED00E0000000D032
:10027000E00200201C07002061290010050D00107D
:1002800059290010F8B5C0460448054B10B5834203
:1002900003D0044B002B00D0984710BDE002002093
:1002A000E00200200000000006480749091A8B10F0
:1002B000C90FC91810B5491003D0044B002B00D04A
:1002C000984710BDE0020020E0020020000000007E
:1002D00010B5074C2378002B09D1FFF7D5FF054B4C
:1002E000002B02D0044800E000BF0123237010BDA2
:1002F000600600200000000088310010054B10B59A
:10030000002B03D00449054800E000BFFFF7CCFFF5
:1003100010BDC046000000006406002088310010B7
:10032000F8B5DE4657464E464546E0B5A84EA94FBD
:100330003068396802F027FAA74B196802F03DFAD5
:10034000A64DA74B2860196898463B6834689946C3
:10035000A44B186802F017FA494602F02EFA211C45
:1003600002F011FAA04B18609A464346386831688B
:100370001B68994602F021FA9C4B041C19684846F8
:1003800002F01BFA011C201C02F0FDF9984B994C5D
:100390001B682060994629683B6848469B4602F0E6
:1003A0000CFA594602F0F2F953463860196837687A
:1003B000484602F002FA391C02F0E8F94346306080
:1003C00021681E68484602F0F8F9311C02F0DEF997
:1003D000434618600021286802F01EFA4642464152
:1003E000854B01361E600021206802F015FA834B10
:1003F000002800D1B2E0012228681A60002102F032
:100400000BFA431E98417E4B0021186020689A46E3
:1004100002F002FA431E98417A4B7B4F98461860CF
:100420007A4B3B60022E00D1B2E0784B784E2868C0
:100430000021336002F0F0F9002800D1B2E0286812
:1004400002F0F0F9734A744B01F045FE01F05CFED6
:10045000724B002118602068994602F0DDF90028EF
:1004600000D1A7E0206802F0DDF96A4A6A4B01F08A
:1004700032FE01F049FE4246694B18601068694A35
:100480001168884200D19FE0414609681160664AC0
:1004900090460F2241460A6052461068634A11682E
:1004A000884200D18EE051460968614D11600F22EB
:1004B0002A60186802F0B6F900225E4B01F00BFECC
:1004C00002000B0000205C4901F0E7FD01F010FE86
:1004D0004B465A4C2060186802F0A4F90022554B94
:1004E00001F0F9FD02000B000020534901F0D5FD99
:1004F00001F0FEFD524B534A18602168914202D927
:1005000051492260396019684E4A914202D94E49D8
:100510001A60316042461268002A0FD121684B4AA6
:1005200011602A68002A14D11A68494B01201A6008
:10053000F0BCBB46B246A946A046F8BD424641467D
:100540001268013A0A60414A424911602A68002A49
:10055000EAD02B683F4A013B2B60E6E7022228687D
:100560001A60002102F058F9431E9841244B0021E3
:10057000186020689A4602F04FF9431E9841214BBB
:10058000214F98461860344B3B60022E00D04CE758
:10059000314B1F4E28680021336002F03DF90028DE
:1005A00000D04CE7286802F03DF91A4A2B4B01F0C5
:1005B00092FD4BE7206802F035F9164A274B01F00F
:1005C0008AFD56E71A4D74E7174A904664E7C0461D
:1005D000A0010020A4010020B0010020C8060020D6
:1005E0009C010020A8010020CC060020AC010020C6
:1005F00098010020D0060020E0060020DC06002044
:10060000B8010020C00100201402002028020020B0
:10061000080200200AD7A3703D0AB73F0C0700204C
:1006200008070020BC010020B8060020B40100200B
:10063000BC0600200000494065CD9D41C801002056
:10064000C4010020105E5F00F40600202402002098
:100650001C02002048E80100300200203D0AB7BF1C
:10066000084B01211A6801231363074A49421160AC
:10067000064AA0211268C90593408622D2008B50F9
:100680007047C046FC01002020020020E00100204D
:10069000084B01211A6801231363074A494211607C
:1006A000064AA0211268C90593408622D2008B50C9
:1006B0007047C046F801002018020020CC0100203D
:1006C000F0B5DE4657464E464546E0B5AD4C8FB0D8
:1006D000060004912068AC4902F0C2FBAB49804699
:1006E000206802F0BDFBAA490700206802F0B8FBB1
:1006F0002368A84D99462B688246039300238022E5
:100700000993C020F82352025B020003069207936C
:10071000089006A910220AA802F0F6F84246531CD7
:100720001B03D20113430AA9102206A80B9302F05F
:10073000EBF81F2280233240DB0313430993964BCF
:1007400030000893954B4B441B0D0633DAB29346A9
:10075000110000F01FFB5946701C00F01BFB5946AE
:10076000B01C00F017FB5946F01C00F013FB0122EF
:1007700003999346009204233200484606AE02F0E5
:10078000F1FB330042460399484602F045FC844B96
:10079000802298461B68C020994600230993F823BD
:1007A00052025B02000306920793089006A91022EA
:1007B0000AA8266802F0A8F8FB1CFA011B031343E1
:1007C0000AA9102206A80B9302F09EF8E0231B034F
:1007D0003A0049460893300006AB02F01DFC0023A6
:1007E00080220993F823C0206E4F520239685B02C1
:1007F00006920793000306AB894608901900102261
:100800000AA8266802F080F8534652460433D20103
:100810001B0313430B930AAB1900102206A802F026
:1008200073F85246494606AB300002F0F5FB5846D5
:100830002A68236890400200196858460A431A60E3
:100840004246126819689040020058460A431A60EE
:100850003A681968904002000A431A605A461A63BF
:10086000514A049994468022634452001A6007203A
:1008700000F038FB0121072000F022FB11214B4B37
:100880004B4E1B682D680393D8024A4B04901B689B
:100890003040DA02104301438C46039924688801F2
:1008A000A021C9058946444904354844AD0089461C
:1008B0000968651901604560614608258560016128
:1008C0003E49049D05910A403D492A438C460A430E
:1008D000A021C9058A4649469B01534419605946DF
:1008E000586099601A61374B37481D68EB0299468A
:1008F0004946364B31401B68354EDA0211430843F6
:1009000041460490B04608683668A90151440E601B
:100910005E4604308000201848608E6004989B0179
:10092000086105985344024048460243604602432A
:100930004046186059609E601A61264B26491B6824
:10094000DA020A4061460A4339689B010431890092
:10095000641822495344096819605C609E601A61FA
:100960005A46039B51469A405B46AB40134386224E
:10097000D2008B500FB0F0BCBB46B246A946A04691
:10098000F0BDC046FC010020AC3100109C310010CD
:1009900088310010FC06002000000E080000E0AFC7
:1009A000F4010020F00100202C210000C0060020EE
:1009B000FD0700FFEC01002014020020FD871FFF4F
:1009C00009801F00E801002009800000E4010020E8
:1009D00010020020E0010020FDFF1FFF0C0200209C
:1009E000F0B5DE4657464E464546E0B5AD4C8FB0B5
:1009F000060004912068AC4902F032FAAB49804607
:100A0000206802F02DFAAA490700206802F028FAAF
:100A10002368A84D99462B688246039300238022C1
:100A20000993C020F82352025B0200030692079349
:100A3000089006A910220AA801F066FF4246531C3E
:100A40001B03D20113430AA9102206A80B9301F03D
:100A50005BFF1F2280233240DB0313430993964B35
:100A600030000893954B4B441B0D0633DAB2934686
:100A7000110000F08FF95946701C00F08BF95946AF
:100A8000B01C00F087F95946F01C00F083F90122F0
:100A900003999346009204233200484606AE02F0C2
:100AA00061FA330042460399484602F0B5FA844B96
:100AB000802298461B68C020994600230993F8239A
:100AC00052025B02000306920793089006A91022C7
:100AD0000AA8266801F018FFFB1CFA011B03134348
:100AE0000AA9102206A80B9301F00EFFE0231B03B6
:100AF0003A0049460893300006AB02F08DFA002315
:100B000080220993F823C0206E4F520239685B029D
:100B100006920793000306AB89460890190010223D
:100B20000AA8266801F0F0FE534652460433D2016B
:100B30001B0313430B930AAB1900102206A801F004
:100B4000E3FE5246494606AB300002F065FA5846CD
:100B50002A68236890400200196858460A431A60C0
:100B60004246126819689040020058460A431A60CB
:100B70003A681968904002000A431A605A461A639C
:100B8000514A049994468022634452001A60092015
:100B900000F0A8F90121092000F092F94B4B4C4ECE
:100BA0001B684C490393D8024B4B04901B683040A0
:100BB000DA02104301438C4603992D688801A02175
:100BC000C90589464549246804354844AD0089462D
:100BD0000968651901604560614608258560016105
:100BE0003F49049D05910A403E492A438C460A43E9
:100BF000A021C9058A4649469B01534419605946BC
:100C0000586099601A61384B38481D68EB02994664
:100C10004946374B31401B68364EDA0211430843D0
:100C200041460490B04608683668A90151440E60F8
:100C30005E4604308000201848608E6004989B0156
:100C40000861059853440240484602436046024307
:100C50004046186059609E601A61274B27491B68FF
:100C6000DA020A4061460A4339689B01043189006F
:100C7000641823495344096819605C609E601A61D6
:100C80005A46039B51469A405B46AB40134386222B
:100C9000D2008B500FB0F0BCBB46B246A946A0466E
:100CA000F0BDC046F8010020AC3100109C310010AE
:100CB00088310010FC06002000000E080000E0AFA4
:100CC000F4010020F00100202C210000DC010020B4
:100CD000FD0700FF11000400D801002008020020D9
:100CE000FD871FFF09801F00D40100200980040038
:100CF000D001002004020020CC010020FDFF1FFFD6
:100D00000002002010B58AB001F03EFF0220174912
:100D1000FFF7D6FC16490620FFF762FE00F08AFCBA
:100D200004AB029300230193124B134A0093012357
:100D30005B4200F093FD114B01201A6801231C0057
:100D400013630F4A404210600E4AA0211268C90581
:100D500094408622D2008C500B4C246823630B4CA9
:100D600020600B48006883408B50FEE7610600104E
:100D70009106001021030010E0B1FFFFF8010020F0
:100D800018020020CC010020FC01002020020020DD
:100D9000E0010020094A83009A1810B51468402227
:100DA000544080322240064CC000A44663441A607E
:100DB000044B9C466044416010BDC04604C00140E5
:100DC00004D00140004001400FB400B5084883B092
:100DD00001F02CFF049B002B07D005A918000191FE
:100DE00001F0A0FD034801F021FF012001F0B2FD58
:100DF000B8310010C8310010EFF3108072B6034A0A
:100E00001368002BFCD0BFF35F8F70472C0100D01C
:100E1000BFF35F8F0022024B1A6080F31088704787
:100E20002C0100D070B5EFF3108C72B60D4D2B680D
:100E3000002BFCD0BFF35F8F0724CB08C618C05C23
:100E400001230C40A3401C000440034207D1184377
:100E50003070BFF35F8F2C608CF3108870BD100072
:100E6000FFF7B2FF2C0100D0044A1078431CDBB21C
:100E7000172B00D9102313707047C046380200208A
:100E80000021044B044ABFF35F8F02C39342FAD19F
:100E90007047C046000100D0800100D0054B064AD3
:100EA0001360064A136053609360D360136153610B
:100EB000936170478080808000E400E004E400E0FB
:100EC0001F2318401E3B8340002905D0C021044A3F
:100ED0004900535013607047802201498B50FAE754
:100EE00000E100E070B50D00EFF3108672B60F4A16
:100EF0001368002BFCD0BFF35F8F0D4B10309B6845
:100F000084001B590B4A934203D09D4201D000F04C
:100F1000ABFF074B9B681D51BFF35F8FBFF35F8F24
:100F20000022024B1A6086F3108870BD240100D0A5
:100F300000ED00E0CD010010F0B5DE4657464E460C
:100F40004546E0B50C0083B0EFF3108872B6634AF3
:100F50001368002BFCD0BFF35F8F614B61499A6827
:100F6000030010339F00D55900938D4243D0A54212
:100F700054D05D4EAA1B2F2A3DD85C4B9C461B6863
:100F80009A4601231A0099468240534613401F2275
:100F900001934B46024093409A4680226346504656
:100FA0009850BFF35F8FEFF305839B46002B37D03C
:100FB000009B5B4501D000F057FF2A004B469A4347
:100FC0009068844208D177E04B005B189B00F318CF
:100FD0009868844236D01A00062151560029F3DA67
:100FE000844255D0019B002B27D0C02251463F4B55
:100FF0005200995019603A4B9B68DD51BFF35F8FE7
:10100000BFF35F8F0022354B1A6088F3108803B05E
:10101000F0BCBB46B246A946A046F0BD0D00EAE7CB
:101020002A004B469A4390688442D5D10620105638
:10103000130000280ADA0D0032E0802351462B4AC3
:10104000D150D8E706201856002822DB420011189C
:10105000890074188946A1689960E179D9710621DF
:1010600061569971002925DBA488F11A64052415BD
:101070004C440919E0240905490D240221439980B3
:1010800013181B4A9B001178F31899711070A9E787
:1010900013005946002914D1FF31917115499180EF
:1010A00013490A789A71144A9B1B5B415A43120DEB
:1010B0000A7097E71149E2E706201056130000284E
:1010C000C4DA0F4A0F49D21A083A5002400D0143C0
:1010D00099800D4952080A43DA8083E7240100D041
:1010E00000ED00E0CD0100103C02002000E100E036
:1010F0001807002001BDFFFFAAAA000001BD0000E3
:101100007602002000F0FFFF00F8FFFF70B5012419
:101110000443EFF30581EFF3108C72B6214A136894
:10112000002BFCD0BFF35F8F1F4B05001F4AED1A49
:101130006D416A43120D1E4D8900AE6852B2765859
:10114000A6421CD00621595691421CD01221595654
:10115000914222D01E215956914220D02A2159561F
:101160000324914210D0134B19781A708171BFF388
:101170005F8F00220B4B1A608CF3108870BDAB6838
:101180000D4C5C50EFE700246100091989005B18E1
:10119000FF21997109499980E5E70124F4E70224C8
:1011A000F2E7C046240100D03C020020AAAA0000B9
:1011B00000ED00E018070020CD01001001BDFFFF89
:1011C000024B9C4661448900016070474000003436
:1011D000F8B5134D134E2C00FF27B5421ED22368DD
:1011E000002B0FD0FFF740FE01002800FFF7E8FFBB
:1011F000A780BFF35F8F0834B4420FD22368250065
:10120000002BEFD1FFF730FE01002800FFF7D8FFD9
:101210002771BFF35F8F0834B442EFD3F8BDC046E7
:10122000D8020020E00200200A4B1968EFF310807A
:1012300072B60A68002AFCD0BFF35F8F1B68BFF349
:101240005F8F00221A6080F3108840BF00200021C9
:101250007047C04604070020F0B5DE4657464E46AC
:101260004546E0B585B0EFF3058203231340B64A47
:101270009900575801229A4088469346B34B1A600A
:10128000B34B02935B46B34843630823FE5E002ED4
:1012900035DABB881BB2002B00DBA8E0BB79002B42
:1012A00000D0E9E00823F85E00281EDB43007A69DD
:1012B0001B18DB00D3189D68DC686B1C00D108E1AB
:1012C000A44801004144826A0B69AE1A9B1A9E42EF
:1012D00013D35A46036A1A420FD09E4800F05CFBB3
:1012E0008C4202DCCED18542CCD940BF05B0F0BCE7
:1012F000BB46B246A946A046F0BD0D61EDE77A694E
:10130000730091469B19DB0099444B469C68DD684D
:1013100000F042FB8D42BCDC00D1FEE0002D00DA83
:10132000E3E04B46029A1B69934200D1D5E04A465E
:101330005288494694460822B85E624600044969CC
:1013400010439847009001910099019A0B001000FA
:10135000134300D1C9E013000A00002800DBE0E0DD
:1013600020002900801A99414B469860D9600022DC
:101370009A5E002A00DA8CE753009C187D69E4002D
:101380002C190093A368E4689A468C4200DD80E73C
:1013900002D1834200D97CE708239C46BC443A81B1
:1013A00003976746009BB4463E000EE08C4200D196
:1013B000C5E01E000023F25E002A0BDB53009C18E0
:1013C000E4002C19A768E468BA469B18DB00EB1808
:1013D0008C42EBDD330066469C464B461A806346E2
:1013E000039F1E80BB881BB2002B00DA56E73A69C8
:1013F000EFF3108172B61368002BFCD0BFF35F8F40
:101400000123BE885B42BB8036B23B69BFF35F8F6E
:1014100000221A6081F31088002E00DA3EE73B00BC
:1014200008333A0099467D6973009B19DB00EB187D
:101430009968DC688C460820115E4846002910DB5C
:10144000009306E0A34240D00023F95E3800002953
:1014500006DB4F007F18FF00EF19FB68A342F1DDA8
:10146000009B068000201E5E1980002EDCDA17002B
:10147000BB79002B00D115E70023BB713D00082389
:10148000F95E08354B1C00D12FE77C690800A446A3
:1014900003E035004B1C00D106E74B005B180A0047
:1014A0006146DB00CE18C95E73881BB2002BF0DAF0
:1014B00001235B42DC17B360F4608242EAD02980EA
:1014C0003B89100033803A81E4E7BB686345BBD9B0
:1014D000C6E7631C00D0F3E6FFE64B465B699A461D
:1014E0001B6950469847002823D14B461B883A6910
:1014F0003B81EFF3108372B611680029FCD0BFF373
:101500005F8F49467A880A803A697E80BFF35F8F91
:101510000021116083F31088BBE6844200D8FDE609
:10152000B7E60C4800F038FA009B019CC0186141F6
:101530001AE753461A685B680092019304E78245F4
:1015400000D836E746E7C046E40600203C70054078
:10155000591200100040054070B52E4C2569002D31
:1015600004D00A212C48FFF72BFE70BD2B4E03211F
:10157000300000F007FAE660FFF776FC284B032204
:101580009C46D02322701B061B6801216370254BEB
:101590006044A3600F2380002061022063806369A0
:1015A0004942A18019800231198647311D83585262
:1015B00018315A5275325C399952183201319952A8
:1015C00018320131995218320131995208351832C6
:1015D0009D52023118329952183201319952183203
:1015E0000131995218320131995218320131995210
:1015F0001832013199520C4B0C49DC6001303562D4
:10160000FFF770FC01210320FFF75AFC084B1D6017
:10161000A7E7C046840200200407002000400540E0
:1016200040000034FFFF1000E406002059120010B3
:1016300038600540004870478402002070B5010002
:101640000469EFF3108C72B620680028FCD0BFF359
:101650005F8F02200D5E4C6968004019C00024189D
:10166000002D37DB208848800869BFF35F8F002694
:1016700006608CF31088E36063880498013320616E
:101680005B0405985B0CA26060611A1C002B1FD0E4
:1016900093B22804628018430A69EFF3108C72B683
:1016A0001368002BFCD0BFF35F8F8B8823808D8065
:1016B0000B69BFF35F8F00221A608CF310880B78E0
:1016C00001329A40CB6808498C4663441A6070BD69
:1016D0000122DDE70B69BFF35F8F00221A608CF3F4
:1016E000108801204042F2E73C20000010B54389F9
:1016F0000A1493421ADD53009B184269DB00D31889
:101700000469EFF3108C72B62268002AFCD0BFF394
:101710005F8F5A88090494B2090C8A4208D0036981
:10172000BFF35F8F00221A608CF31088002010BD79
:101730008022120214435C80012302698371BFF38B
:101740005F8F002111608CF31088044902788C4669
:101750009340C268012062441360E8E73C20000027
:10176000F0B5CE46474680B504000D0083B0EFF3D8
:101770000587002F0DD0364A0020536A8B4203D3D1
:10178000926A0130A24250D303B0C0BCB946B04601
:10179000F0BD304B9846DB689946434648461E7874
:1017A00000F0FAF80B00494602000436B600715802
:1017B00020008E1A2900801A99418F4211DC0ED028
:1017C00020BF234A0020536AAB42DDD3926A013026
:1017D000A242D9D2EB1A5A1E9341D8B2D4E786421C
:1017E000EED900F0E1F822002B00121A8B41002BF9
:1017F00020DB00230193184B2200009340462B006E
:10180000FFF71CFF011E15DD114B2E005A6A954291
:101810001CD89B6AA34217D34046FFF767FF0C4AC8
:101820000020536A9E42AFD8D0E75B1A5A1E9341FC
:10183000D8B2A9E7064A0020536AAB42A4D3926A01
:101840000120A242A0D2C5E79542E5D120BFE3E73F
:10185000004005408402002029120010F0B5CE4659
:101860004746110080B583B004009C460C9D194387
:1018700000D16EE06146DB170193009353401E00D8
:10188000019B4B401F0000980199361A8F41634617
:101890000A996B600B9BAC606B6129612A6000F058
:1018A00083F88023801979411B06994202D30120D5
:1018B000314940422269EFF3108972B61368002B58
:1018C000FCD0BFF35F8F0223E65E6369720092195A
:1018D000D2009B18002E44DB1A8862802269904651
:1018E000BFF35F8F002247463A6089F31088234A8E
:1018F0009860D9601A615A885D6101325204520CB5
:10190000111C002A2BD088B232040243598020696E
:10191000EFF3108772B601680029FCD0BFF35F8F28
:10192000A1881980A6802369BFF35F8F0021196009
:1019300087F31088124823788446013199400120AA
:10194000E36863441960EA6003B0C0BCB946B046BE
:10195000F0BD00230126002701229C4697E70121C4
:10196000D1E72369BFF35F8F00221A6089F31088E3
:101970000020013AE7E7C046FFFFFF7F5912001041
:101980003C20000010B5024A0248FFF74BFA10BD98
:10199000CC3100108C0600200300416A0A00986ACE
:1019A000596A8A42FAD17047034B596A0A00986A09
:1019B000596A9142FAD170470040054070B5040061
:1019C0000D00174A536A1900966A536A8B42FAD17E
:1019D0003000190024184D41AB4216D813D0104BDB
:1019E0002A005B6A9D4203D90D494B6A9342FCD39E
:1019F000934207D10A4A02E0516A994202D1916AA0
:101A0000A142F9D370BDA642E9D9054B5B6A1C001F
:101A10005A1CEFD0012201246442E5175242E3E749
:101A200000400540F8B5040006200D0000F076F9EE
:101A3000002842D0364B3749E21853425A4180239E
:101A4000DB039C469205344B62441A60334B1A60A8
:101A500010000B689843FBD12D4B314AE3185942D3
:101A60004B4180215B0049000620995200F056F955
:101A70002900C00000F0D6FA0130C3091ED140276A
:101A800001226262A362266BF30722D4E36A254B2C
:101A90000620E51800232B60266300F03FF939008B
:101AA000800000F0BFFA7023E26A5A400E33134000
:101AB0002B601D4B23630323A364F8BD1B4A934291
:101AC0001ED900231A4A1B4F6262A362266BF307DA
:101AD000DCD5194B144AE3181A60656AA36A06201C
:101AE000AD01ED1800F01AF9144900F09BFAAD02AF
:101AF0000100280000F096FA0021FFF75FFFC5E71C
:101B00004006800E9F011A003F180300B9E7C04647
:101B10000080FCBF08C0004000E0004000F0004032
:101B2000100700202C10000001030000FEFF000041
:101B3000FFFF0000C0FF3F00303000004E0E0000ED
:101B4000F8B5DE464E4657464546E0B58B4605009D
:101B50000A991800160000F065FA0A9B6C001F0233
:101B6000324B64199C46A4006444636881469F42DA
:101B700000D967602B1FDBB29846012B30D9C023F8
:101B800080229B01E31812011A60294BAD005959BC
:101B90009A4600291BD17301E026226853401E405B
:101BA000802342465B01E3181E60012A30D980235E
:101BB00080229B01E31812011A6053464A4667606F
:101BC0005A51F0BCBB46B246A946A046F8BD58697A
:101BD00000F028FA013043001B18033BFDD2DAE77E
:101BE0005B46012BCBD1C02303229B01E3181A6073
:101BF000023AA3681A42FCD07301E0262268AD00C5
:101C000053401E4080230A4A5B019246E3181E603F
:101C10005A462168514003220A401A6001225B465D
:101C20009A40A3681A42FCD0C1E7C0460080004039
:101C300090060020F0B546464F46D646C0B51F0078
:101C4000344B44009C462418A400644463688846CE
:101C50001600FF2B02D880235B006360031FDBB2FA
:101C60009A46012B30D9C02380229B01E318120130
:101C70001A60294B85005959994600291BD17301D7
:101C8000E026226853401E40802352465B01E31841
:101C90001E60012A30D9802380229B01E3181201A3
:101CA0001A6080235B0063604B465F51E0BCBA461C
:101CB000B146A846F0BD586900F0B4F901304300C0
:101CC0001B18033BFDD2DAE74346012BCBD1C023DF
:101CD00003229B01E3181A60023AA3681A42FCD05F
:101CE0007301E0262268850053401E4080230A4A83
:101CF0005B019146E3181E60424621685140032271
:101D00000A401A60012342469340A2681342FCD065
:101D1000C1E7C0460080004090060020014B8000D3
:101D2000C058704790060020F8B5040020481D00F8
:101D300017000E0000F076F90100380000F072F98B
:101D4000069B29041B0319432368002B1EDB194B38
:101D5000194DE21853425A4180235B019C461203FD
:101D6000164B62441A60164B1A6017002B689F438B
:101D7000FBD1144B2660E2182123A0601360236876
:101D8000002BFCDA0823E1601360F8BD3F232268D2
:101D90001340B342DBD1A3681B051B0D8342D6D190
:101DA000EE22E368D20213408B42D0D1EDE7C04669
:101DB000001BB7000040FDBF08C0004000E000402D
:101DC00000F00040043000008023024A9B000B43D7
:101DD000D362704700800540142310B501001888B5
:101DE00004331B88984710BD162310B501001888CE
:101DF00002331B88984710BDF8B54746CE4680B5DC
:101E00000F1E19D01423994604330400002501261F
:101E100098464B461888434621681B88984701C45A
:101E2000431E9841013540420640AF42F1D1300097
:101E3000C0BCB946B046F8BD0126F8E7AA23064A59
:101E40001B0113608D235B00D3600449044B1960B0
:101E50005368002BFCDA70470040024000B0FA00E3
:101E6000006002407047C04610B50148FEF7ACFF65
:101E7000F031001070B5074D074EB54209D200246D
:101E8000013E761BB60808CD984723000134B342C3
:101E9000F9D170BD4831001084310010054B064A5D
:101EA00006491A60064A074B1A6010000B689843EF
:101EB000FBD1704700E00040BFCDFBFE08C00040F2
:101EC000FE7F3C0000F00040044BDB6C002B03D194
:101ED0008022034BD2021A607047C04600001150A6
:101EE0004C201150044A054B1A60054A1368DB0167
:101EF0008033FBD17047C046FFFFFF0100F0004078
:101F000008C000404022034B9A675A671A67DA6696
:101F10007047C04600F0014010B5FEF7B1FF10BD9C
:101F200070B5044D044CA968C022200000F0ECFC00
:101F3000AC6070BD00ED00E000000020002310B593
:101F4000294C82B0A367FFF779FF0122274B1A6063
:101F5000636C012BFCD10322254B1A60224A936B40
:101F6000012BFCD1013300930121224A2248043382
:101F7000FFF7DAFE052301210093204A2048FFF7EE
:101F8000D3FE0022022104201E4BFFF753FE002245
:101F9000012105201C4BFFF74DFE002200210720E8
:101FA0001A4BFFF747FE002200210820174BFFF7CE
:101FB00041FE8023DB000093002200210920134B07
:101FC000FFF7BEFD0022104B00210620FFF732FE76
:101FD0000420FFF7A3FE0E4900F024F801000020C2
:101FE000FFF7F2FE02B010BD008000403CB00040A0
:101FF00030B00040002F685900800240008C8647B6
:1020000000C00240001BB70040597307006CDC029F
:1020100040420F0001480421014B1847A002002054
:10202000F91D0010114A936F9B0813D21066516678
:10203000002905D0FFE7FFE7FFE7516F106F7047FA
:1020400004B5002801D00020C04301F06DF8002144
:1020500004BDC046F0B5146E556E576F166FFFF78E
:10206000E5FF1466556657671667F0BD000000D09F
:1020700048404140484018B41B4B5B68FC46019304
:1020800008BD04DFF721001018B4174B1B68FC468D
:10209000019308BD00DF012200109446134A926F9D
:1020A000920809D2624618B40F4BDB68FC460193D4
:1020B00008BD0CDFB92400100C4AF0B5146E556E43
:1020C000576F166F6246FFF7EEFF084A14665566B3
:1020D00057671667F0BD18B4034B9B68FC46019325
:1020E00008BD08DF5D23001060040020000000D060
:1020F00018B4044B5B6AFC46019308BD24DF6926D3
:10210000001000006004002018B4044BDB6FFC4694
:10211000019308BD7CDFE926001000006004002068
:10212000132370B51D78012D19D014DD1F48FFF75A
:102130005BFE06001E48FFF757FE1E4C8022310052
:10214000200000F0E1FB022D2DD01B48FFF744FEDC
:102150001A4B186070BD1A4B164CA364F5E7184B68
:10216000144C23606360A360E36023616361A36137
:10217000E36123626362A362E36223636363A36335
:10218000E36323646364A364E36423656365A36515
:10219000E36523666366A366E36623676367A367F5
:1021A000E367A364D1E7064BA364CEE75344000082
:1021B00053460000600400204C330000000700205C
:1021C000C521001007B5604601880A0A0230DF2ADF
:1021D000FAD1C9B2820804D30288408800041043AF
:1021E00000E00068014A5050039007BD60040020E1
:1021F0000FB403BC0CBCF0B50124E407634000E05D
:10220000F0B50C0DCF0F661E3605891B640503D390
:10221000C943404200D30131640D03D0661CF60A65
:1022200007D0E41B00207F00791C89078912803CBD
:1022300024031D0DDF0F6E1E36059B1B6D0503D39A
:10224000DB43524200D301336D0D03D06E1CF60AFE
:1022500007D0ED1B00227F007B1C9B079B12803D5B
:102260002D032F1B661B58D4A446202E46DA203798
:102270001400BC401D00BD40F24033412A43801889
:102280005941CB0F05D0C943C0430022644250419D
:10229000514162464D0D28D10D0D07D100281FD0A8
:1022A000241940414941013A0D0DF9D0640006D38B
:1022B000013000D30131002C01D140084000013A27
:1022C0000BD4941CE40A04D112051144DB07194411
:1022D000F0BDD907204B194300E0D9070020F0BD1D
:1022E0000029DDD1002CDBD1F0BD0132C60740084A
:1022F000CD0728434908002EE1D0D9E73C2E29DA42
:10230000203E40371400BC4000D00124F24014436A
:102310001A00BB401C43D317ACE7AC46202F08DAA9
:1023200020360400B4400D00B540F8403941284340
:10233000A5E73C2F0CDA203F40360400B44000D023
:102340000124F84004430800B1400C43C117EAE7F8
:1023500010001900002494E70000F07FF0B50C0D88
:10236000661E3605891BE60A6405640D02D0651CED
:10237000ED0A04D0002001210905803C2403A44675
:102380001C0D671E3F05DB1BE70A6405640D02D0C8
:10239000651CED0A04D0002201231B05803C2403A8
:1023A0007740644497B484B296B27443070C7E437A
:1023B000150C6F4380B26843361802D30120000425
:1023C0003F183004350C00197D41844688B29AB21A
:1023D00050430C0C62431F0C7C438EB27E43921917
:1023E00002D301263604A4191604170C36186741C7
:1023F00001BC81B29AB25143040C62431B0C5C4392
:1024000080B25843121802D301200004241810048B
:10241000130C401863412D185E410020474106BC53
:1024200088B293B258430C0C6343120C544389B2E4
:1024300051435B1802D301210904641819041A0CD2
:10244000091862416D1856410020474118BCF90235
:10245000720D1143F0026A0D1043ED020A0D03D113
:102460006D1940414941013B124E9B1B7600B3421E
:102470000ED26D0007D30130002671416646354308
:1024800001D1400840001B05C918E4072144F0BDF4
:102490000BDA013306D1013004D101314F0D01D0E7
:1024A0004908F2E7E1070020F0BD013631050020C0
:1024B000EBE70000FF030000F0B51C0D671E3F05B1
:1024C000DB1BE70A6405640D02D0661CF60A04D023
:1024D000002201231B05803C2403D0252D06002665
:1024E000F6432E661E096E66CE0FF619B4464900F5
:1024F0004F0D02D07E1CF60A03D000200021403F81
:102500003F033E1BB600B444013F7F05C91B490889
:102510002E6F013676089C02950D25437543ED1309
:102520007543AD1301356D10F603761B0CB4CC0268
:10253000450D2C43A2B2B3B25A43270C7B43350C52
:102540006F43A4B26C431B1902D3012424043F1926
:102550001C041D0CA4187D4124196D41009A91B2F0
:10256000ACB26143170C7C432B0C5F4392B25A43CD
:10257000A41802D301221204BF182204230C5218FB
:102580007B41019C6C431B19520ED9010A43440143
:10259000A01A81B2B2B2514303145A43360C7343AA
:1025A00087B27743D617D21900277E4136049B198C
:1025B0001704160C7F185E417316ED18F301002600
:1025C00080337541A90F06D16400690AE8055B0AEA
:1025D000184309D22FE00422944480337541A90A9C
:1025E000A8059B0A184326D3404149412404009A78
:1025F000019B0D005543641B4343E41A95B286B218
:102600007543170C7E43030C5F4392B25A43B618CE
:1026100002D301221204BF183204330C52197B4139
:1026200052429C41002C02D400220130514140080A
:10263000CA071043490802B06246D7079210084BF8
:10264000D218084B9A4203D212058918C919F0BD55
:102650000020002A01DC3900F0BD01331905F5E73F
:10266000FD030000FE070000002200B5203200F04C
:1026700004F8080000BD000000220B150AD410B5B4
:10268000944600F05FF81414013400DA0021CB17EF
:10269000144C20470020002170476244343A0CD487
:1026A0000C2A07DA04009140904052422032D44074
:1026B000214310BDD843D94310BD203207D40C4666
:1026C0009440524220321141D040204310BD0800B6
:1026D000C917203203D452422032104110BD1800D5
:1026E000190010BD9B2600104A00520D144BD21A3F
:1026F00013DDFF2A1EDAD205CB0FDB071A43C30016
:10270000400F0903490A084310435B0001D301D07D
:10271000013070474308FBD2704702D0C80FC00792
:1027200070470A0312130132F8D1420F072AF5D17C
:10273000012200E0FF22C80F00028018C005704788
:10274000800300000A0DCC0F531E1B05C91A520549
:1027500003D3C943404200D30131520D03D0531C6F
:10276000DB0A07D0121B00206400611C8907891254
:10277000803A1203014BD21A70470000FF03000099
:102780004840414048400E4B5B6818470C4B1B6863
:1027900018470C4A936F9B0802D2094BDB68184715
:1027A000F0B5146E556E576F166FFFF7F6FF054ABA
:1027B0001466556657671667F0BD014B9B6818474E
:1027C00060050020000000D007B548404140484067
:1027D00001E0C04607B54200120E03D0FF2A03D124
:1027E000420218D8C00DC0054A00120E03D0FF2ABD
:1027F00003D14A020FD8C90DC9050122414005D4B1
:10280000414001D5814207BD884207BD01434918B7
:1028100001D0C043001807BD00B5FFF7D5FF8041C8
:1028200000BD0000034BDB6FFC4618477CDFC92866
:102830000010000060050020132310B512481C781A
:10284000FFF7D2FA0100012C0AD003DD80220F48E5
:1028500000F05AF80E48FFF7BFFA0E4B186010BD93
:102860000A4C5422200000F04FF80B4B6365A3651F
:10287000E36523666366A366E36623676367A3670E
:10288000E3672362E361E5E753460000600500204B
:102890004C330000000700209D28001007B560465B
:1028A00001880A0A0230DF2AFAD1C9B2820804D3A9
:1028B000028840880004104300E00068014A50503C
:1028C000039007BD60050020C30FDB0741000A0E1F
:1028D00007D0FF2A08D00909054A8918194340077B
:1028E00070471900002070470249C918FAE7000034
:1028F000000000380000F07F01480421014B184718
:10290000B0020020F91D0010014B5B681847000061
:10291000B002002010B5002800D110BD00F03AF937
:10292000FBE7C04610B5094A0300146884B0002CC8
:1029300008D0012200910648524203A9A047012075
:1029400004B010BD00F072F90020F9E7D8060020AD
:102950001529001000BEFDE710B5FFF7FBFFC046CC
:1029600070B5FFF787FA074D074EB54209D200242C
:10297000013E761BB60808CD984723000134B342C8
:10298000F9D170BD8431001088310010030010B5FA
:10299000080011001B68984710BDC046F0B54646B8
:1029A0004F46D646C0B5437D80460E001700002B2B
:1029B0004BD0002A32DD274B01259A464B1E0024BE
:1029C0000020994607E0335D0A2B2CD02B00013400
:1029D0000135BB4213DA002CF5D133780A2BF5D13F
:1029E00043461B7D002BF1D14346504602211B6814
:1029F000984728002B0001340135BB42EBDB8742AE
:102A000004DD4346391A1B6830189847F619013E11
:102A100033780D3B5A42534142461375E0BCBA46E7
:102A2000B146A846F0BD4B461B5D0D2BCED0A04253
:102A3000DADA4346211A1B68301898474346504655
:102A400002211B6898472800D4E703681100300072
:102A50009847E3E7A8320010F0B5DE4657464E46E9
:102A60004546E0B585B017001C0006000D00FEF7D6
:102A70009BFF0023314A12184B41802109068B42EB
:102A800002D301222E4B52422E4908008A4600F002
:102A900053FB01906B1C03D1300000F00BFB0500D1
:102AA000002C26D0284B9846284B1C68002C15D0AB
:102AB000002F21D1264F02E02469002C0ED023687C
:102AC000002BF9D03B68002B01D0A342F4D12000A9
:102AD0002A003100C0472469002CF0D1019B002B53
:102AE00028D1280005B0F0BCBB46B246A946A04696
:102AF000F0BD184B9846D7E7154B994602ABDF1D42
:102B00000A239B4602E02469002CE7D02368002BAF
:102B1000F9D04B461B68002B01D0A342F3D12A0009
:102B200031002000C0475B460122390020003B7085
:102B3000C047E8E7504600F0EFFAD2E740420F0006
:102B4000FFFFFF7FD80200209D290010C40600204F
:102B5000D40600208D2900100A4A1368002B05D1E5
:102B60000CE01A001B691032002B07D09842F8D1F4
:102B7000002902D103691360016170470029FCD06C
:102B80001060FAE7C406002010B500F041F90120FA
:102B900010BDC046F0B5CE46474680B583B06B4603
:102BA0000600DD1D2870FEF7FFFE00231A4A1218EA
:102BB0004B41802109068B4202D30122174B52421E
:102BC00017490800884600F0B7FA164B81461C6882
:102BD000002C14D0144F02E02469002C0FD023687D
:102BE000002BF9D03B68002B01D0A342F4D1200088
:102BF00001222900FFF7D2FE2469002CEFD14B46B9
:102C0000002B05D1300003B0C0BCB946B046F0BDC2
:102C1000404600F081FAF5E740420F00FFFFFF7FDA
:102C2000D8020020C4060020D406002070B504009D
:102C300000F040FA01230100050001222000FFF707
:102C40000BFF084B1C68002C06D06368002B05D0D6
:102C500098472469002CF8D1280070BD2469002C05
:102C6000F3D1F9E7C4060020F0B5002915DD0E4BBD
:102C70000D271A680D4B0E4CD3185D426B41451859
:102C800020215B001E5F0478A64207D09369194299
:102C9000FCD101301460A842F5D1F0BD936919420E
:102CA000FCD11760F2E7C046140700200080FCBF8B
:102CB0001007002030B504000D1E2EDD002010216D
:102CC0001F4B013C1A689369194216D10130936970
:102CD0001942FCD1136823548542F4D1194B1B6867
:102CE000002B08D050239363516B183B0B401649BF
:102CF0008C466244136028000EE0124B1B68002BC8
:102D000008D050239363516B183B0B400E498C46FF
:102D10006244136000280FD030BD0A4B1B68002BA3
:102D20000AD05022064B1B689A63596B183A0A4026
:102D300005498C4663441A6003204042ECE7C046D4
:102D4000140700208406002034100000064B10B544
:102D50001B68002B06D00021044A12689163044AC4
:102D60001068984710BDC046840600201407002054
:102D7000880600200822034B19688B691A42FCD18F
:102D80007047C0461407002070B51B4E1B4B3268BD
:102D90000500D3185842434114331C00002D04D0C1
:102DA000174B1A68002A11D070BD154E3368002BDE
:102DB000FAD0002120009563FEF782F82000114927
:102DC000FEF7BAF8104B35601D60EDE71D600E4B45
:102DD000200019600B49FEF785F801212000FEF75D
:102DE0006FF8502233689A63596B183A0A400749C2
:102DF0008C4663441A60D7E7140700200080FCBFAC
:102E0000840600204D2D001088060020341000009C
:102E10000D4B10B51B780D4B0D4C1B780D4B022143
:102E20001B780D4B00202360FDF7B4FF0221012029
:102E3000FDF7B0FFE12120684902FEF7F3FD012113
:102E40000648FFF789FE10BD183300101433001038
:102E5000140700201033001000400340C00200207F
:102E6000F0B55746DE464E4645468846E0B583B047
:102E700006000524FDF7C0FF434684461C57187919
:102E8000364B374AF3181B0D9B009246D758012248
:102E90008240013A002C42DB2021091A8C423BDCA3
:102EA0001100A14025000F4236D1414609688946EC
:102EB0004146897900294DD1AA4093463A423FD1F3
:102EC0008021890100228846002816D06146A44648
:102ED00034004E469946030001915100705A404516
:102EE00000D24019A91812318900013208519A42C2
:102EF000F3D3019B64469C464B465A4617435246C1
:102F0000D7506046FDF784FF200003B0F0BCBB46FD
:102F1000B246A946A046F0BD01246442F1E7202450
:102F2000241A0DD41100A14025008B46394205D149
:102F300009E01100A14025000F42B6D0013CF8D2B3
:102F400009246442DDE7424612689146424692797E
:102F5000002AB5D014246442D3E7C0460000E0AF95
:102F60007C060020F0B54E464546DE465746E0B5A5
:102F700083B089460CA984460D781F2A45D8494656
:102F8000490088464944C900461837003400DC37F8
:102F90003868CC3483462068310001901C48802476
:102FA0008246A40251440C6069424D411E216D428B
:102FB0008D4318498A465544052B0CD9A0201F2162
:102FC0004005D836540104430532053B3C600A40B5
:102FD0003560052BF6D852019B06134342464A44FE
:102FE000D20062441000DC3213600300D8331D604D
:102FF0005B461360019BCC300360002003B0F0BC43
:10300000BB46B246A946A046F0BD05204042F5E7C2
:10301000CC3000009FE00000F0B501258D40046831
:10302000AC430460002B2ED04D006C18E400041952
:1030300026001F68C83637609F68043677605F686F
:10304000DB68DC34376023606B18184DDB00AC465E
:103050008025C41864442D0625602560144C0D1D80
:103060008C40846001242600AE40802508318C40CD
:103070001F21AD014519C0180A40D8302E602C60C0
:1030800002600020F0BD4D006C18E4000419260019
:103090008027C8367F023760C0273F03B760F82714
:1030A00004367F02DC3437602360CDE7D0100000A7
:1030B0000101010110B583070AD00300032102E0DA
:1030C00001330B4205D01A78002AF9D1181A10BD25
:1030D000030019680C4A0D4C8A188A4322420FD10A
:1030E0005968094A04338A188A43224208D1596828
:1030F000054A04338A188A432242F1D000E00133A2
:103100001A78002AFBD1E1E7FFFEFEFE8080808076
:10311000F8B5C0460000000001B40248844601BC76
:10312000604700BF5D01002001B40248844601BC35
:10313000604700BF8501002001B40248844601BCFD
:10314000604700BFC10000209D1E0010C91E001076
:1031500015200010F9280010212100103928001036
:103160003D1F0010E51E0010051F0010191F001064
:10317000D1110010211F001059150010651E0010FC
:083180009D0E0010FD0200107D
:103188009031001005FF0000A08027A022C0420057
:1031980020C00000A431001004FF0000206041009E
:1031A800C22003C0B431001002FF0000C320046035
:1031B8000A2A2A2A2050414E4943202A2A2A0A004C
:1031C8000A000000486172647761726520616C6171
:1031D800726D20256420616C726561647920636C6E
:1031E80061696D65640000004861726420617373F1
:1031F8006572740052656C6561736500626F6F7407
:10320800325F77323571303830000000322E312E7F
:10321800310000007069636F00000000537465702E
:103228007065725F4D6F746F72735F706F736974DE
:10323800696F6E5F616E645F73706565640000003E
:103248004D6172203136203230323500060052503E
:10325800D3F07542FC31001006005250E182887F9D
:103268000432001006005250ABB360531432001001
:1032780006005250BBFF3CB61C32001006005250EC
:10328800861C030224320010060052505422A29DCC
:103298004832001005005250DE65F4683C350010D5
:1032A8000D0A00005541525420737464696E000081
:1032B80055415254207374646F75740055415254CB
:1032C80020737464696E202F207374646F757400A2
:1032D8000600525053B4F4A1C432001008005250F2
:0C32E8001200000008005250921000007C
:1032F40054320010603200106C320010783200102A
:1033040084320010903200109C320010EC32001015
:08331400E4320010D832001071
:10331C00F0B5C646150000B504001E000268EFF3B8
:10332C00108172B61368002BFCD0BFF35F8F04239F
:10333C00E356002B2DDB2268BFF35F8F002010605B
:10334C0081F31088D0221206127852B290469A421B
:10335C0003D1002080BCB846F0BD00270BE02368E9
:10336C00BFF35F8F1F6081F310882800310000F0DD
:10337C0033F80028EDD12268EFF3108172B6136890
:10338C00002BFCD0BFF35F8F23797F2BE7D943460B
:10339C0002E0D0231B061B6823712368BFF35F8FE9
:1033AC0000221A6081F310880120D3E70268EFF342
:1033BC00108172B61368002BFCD0BFF35F8FFF2314
:1033CC0003710368BFF35F8F00221A6081F31088CA
:1033DC0040BF70477047C04601B40248844601BCE8
:1033EC00604700BF6117001017B751390000C84182
:1033FC00CDCCCC3D000080BF0000E04136AB2A4074
:10340C00000020410100000001000000010000004C
:10341C000100000048E8010048E801000900000034
:10342C000800000007000000060000000500000076
:10343C000400000003000000020000000100000076
:10344C00020000000100000000003050000020507D
:10345C00180200201C020020300200202002002054
:10346C00240200203002002000040000FFFF0100B5
:10347C0000040000FFFF010001030206040C080910
:10348C0009080C04060203011000000000000000F3
:10349C00000001000000000000000000000002001D
:1034AC00000000000000000000000300000000000D
:1034BC00000000000000FF000000000001B548689B
:1034CC0001318E460047704609380149884701BDD5
:1034DC000D110010000000000000000000000000B2
:1034EC000000000000000000E002002000000000CE
:1034FC00503300004C3300005433000052330000B2
:10350C004D5300004D430000533400004334000081
:10351C00692C0010752D0010B52C0010892D001091
:10352C00000000000001000000000000000000008E
:04000005100001E9FD
:00000001FF
