:020000041000EA
:1000000000B5324B212058609868022188439860DF
:10001000D860186158612E4B002199600221596106
:100020000121F02299502B49196001219960352056
:1000300000F044F80222904214D00621196600F024
:1000400034F8196E01211966002018661A6600F04E
:100050002CF8196E196E196E052000F02FF8012189
:100060000842F9D1002199601B49196000215960AB
:100070001A491B48016001219960EB211966A021F2
:10008000196600F012F800219960164914480160C1
:100090000121996001BC002800D000471248134993
:1000A000086003C880F30888084703B5996A0420EC
:1000B0000142FBD001200142F8D103BD02B5186610
:1000C0001866FFF7F2FF186E186E02BD00000240BE
:1000D000000000180000070000035F00212200005C
:1000E000F4000018222000A00001001008ED00E03C
:1000F00000000000000000000000000074B24E7A12
:1001000000200420F7010010C3010010C5010010F9
:10011000C1010010C1010010C1010010C101001097
:10012000C1010010C1010010C1010010C701001081
:10013000C1010010C1010010C9010010CB01001065
:10014000CD010010CD010010CD010010CD01001037
:10015000CD010010CD010010CD010010CD01001027
:10016000CD010010CD010010CD010010CD01001017
:10017000CD010010CD010010CD010010CD01001007
:10018000CD010010CD010010CD010010CD010010F7
:10019000CD010010CD010010CD010010CD010010E7
:1001A000CD010010CD010010CD010010CD010010D7
:1001B000CD010010CD010010CD010010CD010010C7
:1001C00000BE00BE00BE00BE00BE00BEEFF3058054
:1001D000103800BEF2EB8871502F0010782F0010FD
:1001E0003802001090A31AE71E481F49086006C88D
:1001F00081F3088810471D480068002801D019487D
:10020000F3E70DA40ECC002902D000F012F8F9E7B4
:100210001749184A002000E001C19142FCD116495B
:100220008847164988471649884700BEFDE701C937
:1002300001C29A42FBD37047782F0010C000002003
:1002400040020020F83000100000042000000420CC
:10025000F8300010001004200010042000000000FE
:10026000704700000000000008ED00E0000000D032
:1002700040020020400C0020D12600102103001075
:10028000C9260010F8B5C0460448054B10B5834296
:1002900003D0044B002B00D0984710BD4002002033
:1002A000400200200000000006480749091A8B1090
:1002B000C90FC91810B5491003D0044B002B00D04A
:1002C000984710BD400200204002002000000000BE
:1002D00010B5074C2378002B09D1FFF7D5FF054B4C
:1002E000002B02D0044800E000BF0123237010BDA2
:1002F000C005002000000000082E0010054B10B5BE
:10030000002B03D00449054800E000BFFFF7CCFFF5
:1003100010BDC04600000000C4050020082E0010DB
:10032000F0B5D6464F464646474CC0B502F0E4FA13
:100330002000464902F05EFC0222454963680A60DB
:10034000216813400D325140C0320A404149042017
:100350000A60414A0121136000F09EF80121052046
:1003600000F09AF80121062000F096F801210720FC
:1003700000F092F8394B3A4EC02708C6394B012499
:1003800099464A46384B951C138080235B0098465B
:10039000BF01200002F0DCF802F0FCF8334A344BD5
:1003A00001F0C7F90022334B01F0C3F901F008FA5C
:1003B0000022314B01F0BDF900222F4B01F092F9E0
:1003C00001F0C4F901C60005000D3843013428804E
:1003D00002354445DDD1012002F0FAFB0500012081
:1003E00002F0F6FBA021C9058C46244BC602EA02A6
:1003F0003340234F13431F438101AB01214D61441F
:100400000D60012563444B608D600F618421C9003C
:100410008846AA46674645461B4979511B495546B9
:100420000A401B4932430A4349461960194985402D
:1004300059609C601A618623DB00FD500020E0BCFF
:10044000BA46B146A846F0BD00C00340002D3101B8
:1004500004F0034000D0034004E00340FF07000025
:100460002C080020DC050020FF3700006F1283C03D
:10047000CA2119400000703F00FC9F40FD871FFF0C
:1004800009801F0098010020FFFF1700FD0700FFF3
:1004900015801D0008C00340094A83009A1810B552
:1004A00014684022544080322240064CC000A446CA
:1004B00063441A60044B9C466044416010BDC046D2
:1004C00004C0014004D00140004001400FB400B519
:1004D000084883B002F062FA049B002B07D005A9FC
:1004E0001800019102F0D6F8034802F057FA0120F3
:1004F00002F0E8F8082E0010182E001070B5EFF387
:10050000108C72B60D4D2B68002BFCD0BFF35F8FA3
:100510000724CB08C618C05C01230C40A3401C0074
:100520000440034207D118433070BFF35F8F2C6043
:100530008CF3108870BD1000FFF7C8FF2C0100D0AD
:10054000F8B54746CE46884680B5EFF3108C72B6B4
:10055000214D2C68002CFCD0BFF35F8F9A422CD821
:10056000D4080727055D061901241740BC402C421A
:100570001FD007210127894609E0D408055D061927
:100580004C4639001440A1400C00294211D00132E0
:100590009342F2D201204042BFF35F8F00220E4B04
:1005A0001A608CF3108800280FDBC0BCB946B04637
:1005B000F8BD254310003570EEE7BFF35F8F0023D1
:1005C0002B608CF31088012040424346002BECD076
:1005D0000898FFF77BFFC0462C0100D0044A107832
:1005E000431CDBB2172B00D9102313707047C04691
:1005F0009C0100200021044B044ABFF35F8F02C31B
:100600009342FAD17047C046000100D0800100D06B
:10061000054B064A1360064A136053609360D3602B
:1006200013615361936170478080808000E400E033
:1006300004E400E01F2318401E3B8340002905D03E
:10064000C021044A49005350136070478022014979
:100650008B50FAE700E100E070B50D00EFF3108673
:1006600072B60F4A1368002BFCD0BFF35F8F0D4B9F
:1006700010309B6884001B590B4A934203D09D4263
:1006800001D000F013FF074B9B681D51BFF35F8F34
:10069000BFF35F8F0022024B1A6086F3108870BD93
:1006A000240100D000ED00E0CD010010F0B5DE46E1
:1006B00057464E464546E0B50C0083B0EFF3108830
:1006C00072B6634A1368002BFCD0BFF35F8F614B97
:1006D00061499A68030010339F00D55900938D42F9
:1006E00043D0A54254D05D4EAA1B2F2A3DD85C4B67
:1006F0009C461B689A4601231A009946824053463D
:1007000013401F2201934B46024093409A46802299
:10071000634650469850BFF35F8FEFF305839B46C7
:10072000002B37D0009B5B4501D000F0BFFE2A00B4
:100730004B469A439068844208D177E04B005B189F
:100740009B00F3189868844236D01A00062151564F
:100750000029F3DA844255D0019B002B27D0C02218
:1007600051463F4B5200995019603A4B9B68DD51FE
:10077000BFF35F8FBFF35F8F0022354B1A6088F3A2
:10078000108803B0F0BCBB46B246A946A046F0BDF7
:100790000D00EAE72A004B469A4390688442D5D17F
:1007A00006201056130000280ADA0D0032E08023DC
:1007B00051462B4AD150D8E706201856002822DB94
:1007C00042001118890074188946A1689960E1797E
:1007D000D971062161569971002925DBA488F11A87
:1007E000640524154C440919E0240905490D240227
:1007F0002143998013181B4A9B001178F3189971B3
:100800001070A9E713005946002914D1FF319171E6
:100810001549918013490A789A71144A9B1B5B41D0
:100820005A43120D0A7097E71149E2E70620105665
:1008300013000028C4DA0F4A0F49D21A083A5002AE
:10084000400D014399800D4952080A43DA8083E73D
:10085000240100D000ED00E0CD010010A001002037
:1008600000E100E03E0C002001BDFFFFAAAA00004D
:1008700001BD0000DA01002000F0FFFF00F8FFFFDB
:1008800070B501240443EFF30581EFF3108C72B6C9
:10089000214A1368002BFCD0BFF35F8F1F4B05006C
:1008A0001F4AED1A6D416A43120D1E4D8900AE6854
:1008B00052B27658A6421CD00621595691421CD0FD
:1008C00012215956914222D01E215956914220D0D0
:1008D0002A2159560324914210D0134B19781A70CB
:1008E0008171BFF35F8F00220B4B1A608CF310886D
:1008F00070BDAB680D4C5C50EFE700246100091936
:1009000089005B18FF21997109499980E5E7012465
:10091000F4E70224F2E7C046240100D0A001002041
:10092000AAAA000000ED00E03E0C0020CD0100105E
:1009300001BDFFFF024B9C46614489000160704786
:1009400040000034F8B5134D134E2C00FF27B5427C
:100950001ED22368002B0FD0FFF740FE01002800B5
:10096000FFF7E8FFA780BFF35F8F0834B4420FD2D0
:1009700023682500002BEFD1FFF730FE010028008F
:10098000FFF7D8FF2771BFF35F8F0834B442EFD36E
:10099000F8BDC04638020020400200200A4B19680A
:1009A000EFF3108072B60A68002AFCD0BFF35F8FA5
:1009B0001B68BFF35F8F00221A6080F3108840BF6E
:1009C000002000217047C046300C0020F0B5DE4604
:1009D00057464E464546E0B585B0EFF30582032302
:1009E0001340B64A9900575801229A4088469346C8
:1009F000B34B1A60B34B02935B46B348436308237F
:100A0000FE5E002E35DABB881BB2002B00DBA8E0AF
:100A1000BB79002B00D0E9E00823F85E00281EDB3C
:100A200043007A691B18DB00D3189D68DC686B1CD7
:100A300000D108E1A44801004144826A0B69AE1A62
:100A40009B1A9E4213D35A46036A1A420FD09E48FD
:100A500000F0C4FA8C4202DCCED18542CCD940BF32
:100A600005B0F0BCBB46B246A946A046F0BD0D613C
:100A7000EDE77A69730091469B19DB0099444B4678
:100A80009C68DD6800F0AAFA8D42BCDC00D1FEE073
:100A9000002D00DAE3E04B46029A1B69934200D135
:100AA000D5E04A465288494694460822B85E6246D6
:100AB0000004496910439847009001910099019AF8
:100AC0000B001000134300D1C9E013000A000028F6
:100AD00000DBE0E020002900801A99414B46986035
:100AE000D96000229A5E002A00DA8CE753009C1835
:100AF0007D69E4002C190093A368E4689A468C424F
:100B000000DD80E702D1834200D97CE708239C46C0
:100B1000BC443A8103976746009BB4463E000EE012
:100B20008C4200D1C5E01E000023F25E002A0BDBE0
:100B300053009C18E4002C19A768E468BA469B1877
:100B4000DB00EB188C42EBDD330066469C464B46DF
:100B50001A806346039F1E80BB881BB2002B00DAFD
:100B600056E73A69EFF3108172B61368002BFCD098
:100B7000BFF35F8F0123BE885B42BB8036B23B6907
:100B8000BFF35F8F00221A6081F31088002E00DA15
:100B90003EE73B0008333A0099467D6973009B1994
:100BA000DB00EB189968DC688C460820115E48462B
:100BB000002910DB009306E0A34240D00023F95E39
:100BC0003800002906DB4F007F18FF00EF19FB6893
:100BD000A342F1DD009B068000201E5E1980002EDE
:100BE000DCDA1700BB79002B00D115E70023BB71BD
:100BF0003D000823F95E08354B1C00D12FE77C69C6
:100C00000800A44603E035004B1C00D106E74B006A
:100C10005B180A006146DB00CE18C95E73881BB200
:100C2000002BF0DA01235B42DC17B360F4608242F0
:100C3000EAD029803B89100033803A81E4E7BB6821
:100C40006345BBD9C6E7631C00D0F3E6FFE64B461D
:100C50005B699A461B6950469847002823D14B464A
:100C60001B883A693B81EFF3108372B61168002943
:100C7000FCD0BFF35F8F49467A880A803A697E804C
:100C8000BFF35F8F0021116083F31088BBE68442BD
:100C900000D8FDE6B7E60C4800F0A0F9009B019CE7
:100CA000C01861411AE753461A685B6800920193C5
:100CB00004E7824500D836E746E7C0461C08002016
:100CC0003C700540CD0900100040054070B52E4C29
:100CD0002569002D04D00A212C48FFF72BFE70BD9A
:100CE0002B4E0321300000F06FF9E660FFF776FC31
:100CF000284B03229C46D02322701B061B6801212F
:100D00006370254B6044A3600F23800020610220A4
:100D1000638063694942A180198002311986473195
:100D20001D83585218315A5275325C399952183213
:100D300001319952183201319952183201319952C8
:100D4000083518329D520231183299521832013149
:100D50009952183201319952183201319952183290
:100D6000013199521832013199520C4B0C49DC6017
:100D700001303562FFF770FC01210320FFF75AFCB8
:100D8000084B1D60A7E7C046E8010020300C00209A
:100D90000040054040000034FFFF10001C08002008
:100DA000CD0900103860054070B501000469EFF30B
:100DB000108C72B620680028FCD0BFF35F8F022031
:100DC0000D5E4C6968004019C0002418002D37DB07
:100DD000208848800869BFF35F8F002606608CF387
:100DE0001088E36063880498013320615B040598F0
:100DF0005B0CA26060611A1C002B1FD093B2280408
:100E0000628018430A69EFF3108C72B61368002BE6
:100E1000FCD0BFF35F8F8B8823808D800B69BFF37D
:100E20005F8F00221A608CF310880B7801329A4091
:100E3000CB6808498C4663441A6070BD0122DDE727
:100E40000B69BFF35F8F00221A608CF310880120BA
:100E50004042F2E73C20000010B543890A14934257
:100E60001ADD53009B184269DB00D3180469EFF3C5
:100E7000108C72B62268002AFCD0BFF35F8F5A88AC
:100E8000090494B2090C8A4208D00369BFF35F8F4A
:100E900000221A608CF31088002010BD80221202FC
:100EA00014435C80012302698371BFF35F8F0021CB
:100EB00011608CF31088044902788C469340C26814
:100EC000012062441360E8E73C200000F0B5CE4604
:100ED000474680B504000D0083B0EFF30587002F6F
:100EE0000DD0364A0020536A8B4203D3926A0130F8
:100EF000A24250D303B0C0BCB946B046F0BD304B9F
:100F00009846DB689946434648461E7800F066F8E6
:100F10000B00494602000436B600715820008E1AB4
:100F20002900801A99418F4211DC0ED020BF234A3C
:100F30000020536AAB42DDD3926A0130A242D9D27B
:100F4000EB1A5A1E9341D8B2D4E78642EED900F08C
:100F50004DF822002B00121A8B41002B20DB0023BE
:100F60000193184B2200009340462B00FFF71CFF13
:100F7000011E15DD114B2E005A6A95421CD89B6A42
:100F8000A34217D34046FFF767FF0C4A0020536A7D
:100F90009E42AFD8D0E75B1A5A1E9341D8B2A9E758
:100FA000064A0020536AAB42A4D3926A0120A242AF
:100FB000A0D2C5E79542E5D120BFE3E70040054058
:100FC000E80100209D09001010B5024A0248FFF711
:100FD00095FA10BD1C2E0010E40700200300416AA2
:100FE0000A00986A596A8A42FAD17047034B596AD3
:100FF0000A00986A596A9142FAD170470040054048
:1010000070B504000D00174A536A1900966A536AB6
:101010008B42FAD13000190024184D41AB4216D84A
:1010200013D0104B2A005B6A9D4203D90D494B6ACD
:101030009342FCD3934207D10A4A02E0516A994293
:1010400002D1916AA142F9D370BDA642E9D9054BFC
:101050005B6A1C005A1CEFD0012201246442E51790
:101060005242E3E700400540F8B5040006200D00B9
:1010700000F076F9002842D0364B3749E218534247
:101080005A418023DB039C469205344B62441A602C
:10109000334B1A6010000B689843FBD12D4B314A3B
:1010A000E31859424B4180215B00490006209952C8
:1010B00000F056F92900C00000F0D6FA0130C3094B
:1010C0001ED1402701226262A362266BF30722D45D
:1010D000E36A254B0620E51800232B60266300F009
:1010E0003FF93900800000F0BFFA7023E26A5A40ED
:1010F0000E3313402B601D4B23630323A364F8BD01
:101100001B4A93421ED900231A4A1B4F6262A362F4
:10111000266BF307DCD5194B144AE3181A60656A8D
:10112000A36A0620AD01ED1800F01AF9144900F089
:101130009BFAAD020100280000F096FA0021FFF7AB
:101140005FFFC5E74006800E9F011A003F180300AD
:10115000B9E7C0460080FCBF08C0004000E0004086
:1011600000F00040340C00202C10000001030000AF
:10117000FEFF0000FFFF0000C0FF3F003030000016
:101180004E0E0000F8B5DE464E4657464546E0B5E1
:101190008B4605000A991800160000F065FA0A9BB4
:1011A0006C001F02324B64199C46A40064446368BF
:1011B00081469F4200D967602B1FDBB29846012B06
:1011C00030D9C02380229B01E31812011A60294BF9
:1011D000AD0059599A4600291BD17301E0262268B7
:1011E00053401E40802342465B01E3181E60012AE3
:1011F00030D9802380229B01E31812011A605346E4
:101200004A4667605A51F0BCBB46B246A946A04662
:10121000F8BD586900F028FA013043001B18033B61
:10122000FDD2DAE75B46012BCBD1C02303229B0121
:10123000E3181A60023AA3681A42FCD07301E02650
:101240002268AD0053401E4080230A4A5B0192464B
:10125000E3181E605A462168514003220A401A6072
:1012600001225B469A40A3681A42FCD0C1E7C046FF
:1012700000800040E8070020F0B546464F46D646BD
:10128000C0B51F00344B44009C462418A40064449D
:10129000636888461600FF2B02D880235B006360DA
:1012A000031FDBB29A46012B30D9C02380229B0159
:1012B000E31812011A60294B8500595999460029F3
:1012C0001BD17301E026226853401E408023524602
:1012D0005B01E3181E60012A30D9802380229B0124
:1012E000E31812011A6080235B0063604B465F5174
:1012F000E0BCBA46B146A846F0BD586900F0B4F962
:10130000013043001B18033BFDD2DAE74346012BB3
:10131000CBD1C02303229B01E3181A60023AA368D1
:101320001A42FCD07301E0262268850053401E401B
:1013300080230A4A5B019146E3181E6042462168F9
:10134000514003220A401A60012342469340A2689A
:101350001342FCD0C1E7C04600800040E8070020EF
:10136000014B8000C0587047E8070020F8B5040022
:1013700020481D0017000E0000F076F9010038002B
:1013800000F072F9069B29041B0319432368002B04
:101390001EDB194B194DE21853425A4180235B0161
:1013A0009C461203164B62441A60164B1A601700D3
:1013B0002B689F43FBD1144B2660E2182123A060C9
:1013C00013602368002BFCDA0823E1601360F8BD8A
:1013D0003F2322681340B342DBD1A3681B051B0DDA
:1013E0008342D6D1EE22E368D20213408B42D0D1A1
:1013F000EDE7C046001BB7000040FDBF08C000403D
:1014000000E0004000F00040043000008023024A69
:101410009B000B43D362704700800540142310B536
:101420000100188804331B88984710BD162310B597
:101430000100188802331B88984710BDF8B547464D
:10144000CE4680B50F1E19D01423994604330400EC
:101450000025012698464B461888434621681B887C
:10146000984701C4431E9841013540420640AF42AF
:10147000F1D13000C0BCB946B046F8BD0126F8E74E
:10148000AA23064A1B0113608D235B00D360044925
:10149000044B19605368002BFCDA7047004002408F
:1014A00000B0FA00006002407047C04610B5014825
:1014B000FFF70CF8402E001070B5074D074EB542EF
:1014C00009D20024013E761BB60808CD98472300B8
:1014D0000134B342F9D170BDC82D0010042E0010A4
:1014E000054B064A06491A60064A074B1A60100067
:1014F0000B689843FBD1704700E00040BFCDFBFE76
:1015000008C00040FE7F3C0000F00040044BDB6C54
:10151000002B03D18022034BD2021A607047C046D1
:10152000000011504C201150044A054B1A60054A26
:101530001368DB018033FBD17047C046FFFFFF011A
:1015400000F0004008C000404022034B9A675A67F1
:101550001A67DA667047C04600F0014010B5FFF721
:1015600049F810BD70B5044D044CA968C022200094
:1015700001F082F8AC6070BD00ED00E000000020DA
:10158000002310B5294C82B0A367FFF779FF012231
:10159000274B1A60636C012BFCD10322254B1A6088
:1015A000224A936B012BFCD1013300930121224A83
:1015B00022480433FFF7DAFE052301210093204A75
:1015C0002048FFF7D3FE0022022104201E4BFFF724
:1015D00053FE0022012105201C4BFFF74DFE002287
:1015E000002107201A4BFFF747FE002200210820A8
:1015F000174BFFF741FE8023DB0000930022002100
:101600000920134BFFF7BEFD0022104B00210620DE
:10161000FFF732FE0420FFF7A3FE0E4900F024F886
:1016200001000020FFF7F2FE02B010BD0080004074
:101630003CB0004030B00040002F685900800240AC
:10164000008C864700C00240001BB700405973075A
:10165000006CDC0240420F0001480421014B184796
:10166000000200203D140010114A936F9B0813D212
:1016700010665166002905D0FFE7FFE7FFE7516FCD
:10168000106F704704B5002801D00020C04301F05E
:101690008BFB002104BDC046F0B5146E556E576F2C
:1016A000166FFFF7E5FF1466556657671667F0BDBE
:1016B000000000D044464D4656465F46F0B47047A1
:1016C000F0BCA046A946B246BB46704748404140E0
:1016D000484018B41B4B5B68FC46019308BD04DF0F
:1016E0004B1B001018B4174B1B68FC46019308BD38
:1016F00000DF551B00109446134A926F920809D2DE
:10170000624618B40F4BDB68FC46019308BD0CDF42
:101710000D1E00100C4AF0B5146E556E576F166F03
:101720006246FFF7EEFF084A14665566576716676C
:10173000F0BD18B4034B9B68FC46019308BD08DF5D
:10174000B11C0010C0030020000000D010B54C00F8
:10175000620D8023D218DB00D21A5B057E2A10DDD1
:101760009E3A13DACC170903490819435242D14073
:10177000640001341532202A05DAD0400843604362
:1017800010BD002010BD0846604310BDC80FC01832
:10179000013810BD18B4044B1B6EFC46019308BD04
:1017A00060DFE72000100000C0030020024A034B66
:1017B00000B500F0A9F900BD182D4454FB211940D3
:1017C0008A0002D3920D092A08DA18B4064B1B6C62
:1017D000FC46019308BD40DF1B22001000B5FFF757
:1017E000E5FF04BC9646F0E7C0030020132370B564
:1017F0001D78012D19D014DD1F48FFF717FE0600D4
:101800001E48FFF713FE1E4C80223100200000F01E
:1018100033FF022D2DD01B48FFF700FE1A4B186036
:1018200070BD1A4B164CA364F5E7184B144C23609B
:101830006360A360E36023616361A361E36123628A
:101840006362A362E36223636363A363E36323646A
:101850006364A364E36423656365A365E36523664A
:101860006366A366E36623676367A367E367A364AE
:10187000D1E7064BA364CEE7534400005346000073
:10188000C00300204C3300002C0C0020191B00105A
:10189000F0B54E464546DE4657461C001300E0B5FF
:1018A00089B004930594129B4D00640081469446D0
:1018B0006D0D640D002B02D01A00002313608F4EB3
:1018C000B5426ED0002C6CD0002D00D174E0020027
:1018D0000B00B44267D0661EB046AE4263DC802285
:1018E000CB0F9B460B0352031B0B13431F00059B9F
:1018F0004E461B031B0B9A466346029353461A43FC
:101900000392A84500D18BE05B46002B00D196E006
:1019100032003B002D1B002756429F41002D00DC6A
:101920009DE00120039B40421911FFF79DFE00231B
:101930009B461D3381469A46A846079418E032001C
:101940009A4001923300AB4020000093E117029AC5
:10195000039B00F0E3FD009E019F5B46A346AB4066
:101960009B4443465B1B361A8F419846002B26DD6D
:1019700045460C2D00DD0C254B46BC115C435346FF
:101980005B1B1C412B0001346410203BD7D5202366
:1019900032005B1BDA4013003A00AA401A4301925E
:1019A000D0E70022564B1000190009B0F0BCBB462E
:1019B000B246A946A046F0BD00220023F3E7079CEB
:1019C000029A039BBB4269DD002F4ADB0298039910
:1019D00032003B0092197B418B4219DC16D00299F0
:1019E0008A4254D0059B002B02DA5B465B429B4641
:1019F000129B002B01D05A461A60424A3000121B3B
:101A00003900FFF7C7FE02000B00CCE78242E6D99F
:101A1000029A039BB61A9F4101239C46E344E1E7E7
:101A200097422BDD5B46002B4BD1029A039B921809
:101A30005B41B61A9F41012344469B46D2E72D1BCA
:101A4000002D00DD6DE7029A039BBB42E0DC4CD029
:101A5000029A039BB61A9F4101239B46B6E70023D7
:101A60009B46029A039BB6185F41002F41DAB618D5
:101A70005F4102235B429C46E344A7E7029B039C31
:101A8000A74201D19E42CDD802000B008BE7039AFA
:101A90009342A7D15B46DB07A4D5B9E7BB4201D18E
:101AA000B24291D8029A039BB61A9F41BB4218DCFE
:101AB00014D0029A039BB61A9F4102239C46E3442A
:101AC00084E7029A039B92185B41921BBB411F0063
:101AD00001235B42160044469B4683E7029BB342C8
:101AE000E7D901239C46E34470E7029BB342AFD998
:101AF0008EE701235B429C46E34467E7FF07000053
:101B00000000F07F3304000010B5002482B0009480
:101B1000FFF7BEFE02B010BD07B5604601880A0A95
:101B20000230DF2AFAD1C9B2820804D30288408881
:101B30000004104300E00068014A5050039007BDC4
:101B4000C00300200FB403BC0CBCF0B50124E407B3
:101B5000634000E0F0B50C0DCF0F661E3605891B03
:101B6000640503D3C943404200D30131640D03D05F
:101B7000661CF60A07D0E41B00207F00791C890749
:101B80008912803C24031D0DDF0F6E1E36059B1B42
:101B90006D0503D3DB43524200D301336D0D03D0F7
:101BA0006E1CF60A07D0ED1B00227F007B1C9B07F2
:101BB0009B12803D2D032F1B661B58D4A446202E5C
:101BC00046DA20371400BC401D00BD40F2403341CE
:101BD0002A4380185941CB0F05D0C943C043002286
:101BE00064425041514162464D0D28D10D0D07D13F
:101BF00000281FD0241940414941013A0D0DF9D068
:101C0000640006D3013000D30131002C01D140081B
:101C10004000013A0BD4941CE40A04D1120511448B
:101C2000DB071944F0BDD907204B194300E0D90761
:101C30000020F0BD0029DDD1002CDBD1F0BD013248
:101C4000C6074008CD0728434908002EE1D0D9E750
:101C50003C2E29DA203E40371400BC4000D001243D
:101C6000F24014431A00BB401C43D317ACE7AC4608
:101C7000202F08DA20360400B4400D00B540F840AB
:101C800039412843A5E73C2F0CDA203F40360400B9
:101C9000B44000D00124F84004430800B1400C4394
:101CA000C117EAE710001900002494E70000F07F54
:101CB000F0B50C0D661E3605891BE60A6405640D39
:101CC00002D0651CED0A04D0002001210905803CEA
:101CD0002403A4461C0D671E3F05DB1BE70A6405B1
:101CE000640D02D0651CED0A04D0002201231B05FF
:101CF000803C24037740644497B484B296B2744322
:101D0000070C7E43150C6F4380B26843361802D32C
:101D1000012000043F183004350C00197D41844631
:101D200088B29AB250430C0C62431F0C7C438EB2B3
:101D30007E43921902D301263604A4191604170C07
:101D40003618674101BC81B29AB25143040C624318
:101D50001B0C5C4380B25843121802D301200004CC
:101D600024181004130C401863412D185E41002004
:101D7000474106BC88B293B258430C0C6343120C23
:101D8000544389B251435B1802D3012109046418FA
:101D900019041A0C091862416D1856410020474178
:101DA00018BCF902720D1143F0026A0D1043ED02E6
:101DB0000A0D03D16D1940414941013B124E9B1B55
:101DC0007600B3420ED26D0007D301300026714178
:101DD0006646354301D1400840001B05C918E40799
:101DE0002144F0BD0BDA013306D1013004D10131B9
:101DF0004F0D01D04908F2E7E1070020F0BD0136A0
:101E000031050020EBE70000FF030000F0B51C0DDA
:101E1000671E3F05DB1BE70A6405640D02D0661CE4
:101E2000F60A04D0002201231B05803C2403D025A0
:101E30002D060026F6432E661E096E66CE0FF61995
:101E4000B44649004F0D02D07E1CF60A03D0002094
:101E50000021403F3F033E1BB600B444013F7F05D5
:101E6000C91B49082E6F013676089C02950D254343
:101E70007543ED137543AD1301356D10F603761BF5
:101E80000CB4CC02450D2C43A2B2B3B25A43270C7A
:101E90007B43350C6F43A4B26C431B1902D301245E
:101EA00024043F191C041D0CA4187D4124196D4104
:101EB000009A91B2ACB26143170C7C432B0C5F4388
:101EC00092B25A43A41802D301221204BF1822046A
:101ED000230C52187B41019C6C431B19520ED901F3
:101EE0000A434401A01A81B2B2B2514303145A43C7
:101EF000360C734387B27743D617D21900277E4139
:101F000036049B191704160C7F185E417316ED18E2
:101F1000F301002680337541A90F06D16400690AD8
:101F2000E8055B0A184309D22FE004229444803369
:101F30007541A90AA8059B0A184326D34041494187
:101F40002404009A019B0D005543641B4343E41A8B
:101F500095B286B27543170C7E43030C5F4392B271
:101F60005A43B61802D301221204BF183204330CAC
:101F700052197B4152429C41002C02D40022013074
:101F800051414008CA071043490802B06246D707CA
:101F90009210084BD218084B9A4203D212058918A6
:101FA000C919F0BD0020002A01DC3900F0BD013361
:101FB0001905F5E7FD030000FE070000624618CA98
:101FC00094465A46002A20DB04E0624618CA94462A
:101FD00000291ADAC01861415B463B415C46B440B7
:101FE0005246FA40224344464D4662416B41904678
:101FF00099462B46B3403D41FC401C4352465B464C
:10200000A241AB4192469B467047C01AA1414B4644
:102010003B414C46B4404246FA40224354465D465A
:1020200062416B4192469B462B46B3403D41FC408A
:102030001C4342464B46A241AB41904699467047ED
:10204000002200B500F00DF8CA179A4200D100BD79
:10205000D8430121C907414000BD000000220B15F3
:102060000AD410B5944600F079F81414013400DA5B
:102070000021CB17144C20470020002170476244F8
:10208000343A0CD40C2A07DA0400914090405242B2
:102090002032D440214310BDD843D94310BD203253
:1020A00007D40C469440524220321141D040204384
:1020B00010BD0800C917203203D45242203210410B
:1020C00010BD1800190010BD7F20001000210A006B
:1020D000002104E000210A00C11704E000220023CF
:1020E00006E0C0460022CB1758405940C01A99411B
:1020F00030B5184CA21A002903D1010010D00020DD
:10210000203A4C1512D104D2013A001849414C0D25
:10211000FAD3114CA24204D212058918DB07C91860
:1021200030BDD243520D00200021F5E703D4013A1F
:1021300000184941FBD50B324405C00A4D05284320
:10214000C90A640003D0002460416141E1E7E0D3A3
:102150004408F8E732040000FE0700000A0DCC0F27
:10216000531E1B05C91A520503D3C943404200D36D
:102170000131520D03D0531CDB0A07D0121B002083
:102180006400611C89078912803A1203014BD21A3C
:1021900070470000FF030000023225D40C2A1CDA2D
:1021A0001125AD1A0B002B41083207350600EE4011
:1021B000904091403143F0CC63431A1500235A41BB
:1021C000554356435743BF02F412760576196741CB
:1021D000ED177F19801BB94170470C220020C917E9
:1021E000490001310905DBE70902030E194300022A
:1021F0005342203208D40C0019419440D840204367
:1022000000225041514170470800C917203B20323D
:10221000F1D50020002100227047F0B5FFF74AFAFF
:1022200000F006F800F046F8FFF74AFAF0BD0000AB
:1022300000B5FFF793FF30A4FFF7AEFF00242C4D4D
:102240002C4ED20702D3F6436D426641520004D2AF
:10225000A246A346A846B14603E0A046A146AA4628
:10226000B3466EA4A44601271F26FFF7AEFE013732
:10227000013E212FF9D100BD594684B28DB26C4385
:10228000061475430B145E4382B25A43AD18EA1725
:1022900000D7D2431204B6182A042B0C121973412A
:1022A000404649469D009B17920F2A439041994111
:1022B0003E2218E7494684B28DB26C43061475433A
:1022C0000B145E4382B25A43AD18EA1700D7D243CB
:1022D0001204B6182A042B0C1219734150465946A1
:1022E0009D009B17920F2A43504159413E22FAE626
:1022F000BB4DF09DC556F6367D5100001A611400A5
:1023000085880A00FB211900F0B5FFF7D3F9404D8D
:102310000C002C4001D0AC4202D1090D090500206F
:102320001C002C4001D0AC4202D11B0D1B05002229
:102330000026ED02002B04D502266B40694000D434
:1023400076424F1904D599420CDD0136694003E00D
:10235000BB4207DA013E6B40070010003A000F0055
:1023600019003B0040B4002A0FD1002B0AD05C00BA
:102370006415013409D14C006415013402D10139CE
:10238000013B02E0002000212EE0FFF73FFD3E224E
:10239000FFF757FE82468B4600200021804601222F
:1023A000920791461DA4A44601271F26FFF706FEAB
:1023B0000137013E212FF9D14A4653460C3A0124F8
:1023C0006407002752081B0005D493410019794186
:1023D0006408F7D104E05341001BB9416408F1D10E
:1023E000CE0749104008304340BC002E0AD0094CAB
:1023F000094D01D5E443ED43F60701D100196941C8
:10240000001969413D22FFF76EFEFFF759F9F0BD53
:102410000000F07F8D305A88A8F64332694FBB61C7
:102420000567AC1DB16E4096FCBAAD0F72DB0BAB0D
:10243000A66EF50739BD9FE576ABFE034B6297BAF2
:102440005BD5FF01D694DBDDAAFAFF005DEAEE560C
:1024500055FF7F006E77B7AAEAFF3F00BCBB55551A
:10246000FDFF1F00DEADAAAAFFFF0F006F5555F557
:10247000FFFF0700ABAAAAFEFFFF03005555D5FFDB
:10248000FFFF0100ABAAFAFFFFFF00005555FFFF59
:10249000FF7F0000ABEAFFFFFF3F000055FDFFFF9D
:1024A000FF1F0000ABFFFFFFFF0F0000F5FFFFFF66
:1024B000FF070000FFFFFFFFFF0300000000000018
:1024C0000002000000000000000100000000000009
:1024D000800000000000000040000000000000003C
:1024E00020000000000000001000000000000000BC
:1024F00008000000000000000400000000000000D0
:102500000200000000000000010000000000008048
:102510000000000000000040000000005143434361
:10252000C9188C46110C83B24B4310B4040C6143A0
:1025300092B280B2504362431C041B0C001910BCC1
:1025400059411304120CC0185141614470470000F6
:10255000C10FC90700D54042002817D0F44603B484
:102560000B4B1B68984706BC81409E384042803127
:1025700007D20B0607D04900490AC005104308439B
:1025800060470130F8E7490A8902F5E77047000023
:102590002C0C0020034BDB6FFC4618477CDF3926F0
:1025A00000100000C0040020132310B512481C784E
:1025B000FEF73CFF0100012C0AD003DD80220F480A
:1025C00000F05AF80E48FEF729FF0E4B186010BDB8
:1025D0000A4C5422200000F04FF80B4B6365A365B2
:1025E000E36523666366A366E36623676367A367A1
:1025F000E3672362E361E5E753460000C00400207F
:102600004C3300002C0C00200D26001007B560464E
:1026100001880A0A0230DF2AFAD1C9B2820804D33B
:10262000028840880004104300E00068014A5050CE
:10263000039007BDC0040020C30FDB0741000A0E52
:1026400007D0FF2A08D00909054A8918194340070D
:1026500070471900002070470249C918FAE70000C6
:10266000000000380000F07F01480421014B1847AA
:10267000100200203D140010014B5B681847000059
:102680001002002010B5002800D110BD00F03AF96A
:10269000FBE7C04610B5094A0300146884B0002C5B
:1026A00008D0012200910648524203A9A047012008
:1026B00004B010BD00F072F90020F9E718080020FE
:1026C0008526001000BEFDE710B5FFF7FBFFC046F2
:1026D00070B5FEF7F1FE074D074EB54209D2002452
:1026E000013E761BB60808CD984723000134B3425B
:1026F000F9D170BD042E0010082E0010030010B593
:10270000080011001B68984710BDC046F0B546464A
:102710004F46D646C0B5437D80460E001700002BBD
:102720004BD0002A32DD274B01259A464B1E002450
:102730000020994607E0335D0A2B2CD02B00013492
:102740000135BB4213DA002CF5D133780A2BF5D1D1
:1027500043461B7D002BF1D14346504602211B68A6
:10276000984728002B0001340135BB42EBDB874240
:1027700004DD4346391A1B6830189847F619013EA4
:1027800033780D3B5A42534142461375E0BCBA467A
:10279000B146A846F0BD4B461B5D0D2BCED0A042E6
:1027A000DADA4346211A1B683018984743465046E8
:1027B00002211B6898472800D4E703681100300005
:1027C0009847E3E7E42E0010F0B5DE4657464E4644
:1027D0004546E0B585B017001C0006000D00FEF769
:1027E00005FC0023314A12184B41802109068B4217
:1027F00002D301222E4B52422E4908008A4600F095
:10280000DBFA01906B1C03D1300000F093FA050055
:10281000002C26D0284B9846284B1C68002C15D03D
:10282000002F21D1264F02E02469002C0ED023680E
:10283000002BF9D03B68002B01D0A342F4D120003B
:102840002A003100C0472469002CF0D1019B002BE5
:1028500028D1280005B0F0BCBB46B246A946A04628
:10286000F0BD184B9846D7E7154B994602ABDF1DD4
:102870000A239B4602E02469002CE7D02368002B42
:10288000F9D04B461B68002B01D0A342F3D12A009C
:1028900031002000C0475B460122390020003B7018
:1028A000C047E8E7504600F077FAD2E740420F0011
:1028B000FFFFFF7F380200200D27001010080020C6
:1028C00014080020FD2600100A4A1368002B05D1C9
:1028D0000CE01A001B691032002B07D09842F8D187
:1028E000002902D103691360016170470029FCD0FF
:1028F0001060FAE71008002010B500F041F901203F
:1029000010BDC046F0B5CE46474680B583B06B4695
:102910000600DD1D2870FEF769FB00231A4A121815
:102920004B41802109068B4202D30122174B5242B0
:1029300017490800884600F03FFA164B81461C688C
:10294000002C14D0144F02E02469002C0FD023680F
:10295000002BF9D03B68002B01D0A342F4D120001A
:1029600001222900FFF7D2FE2469002CEFD14B464B
:10297000002B05D1300003B0C0BCB946B046F0BD55
:10298000404600F009FAF5E740420F00FFFFFF7FE5
:1029900038020020100800201408002070B5040040
:1029A00000F0C8F901230100050001222000FFF713
:1029B0000BFF084B1C68002C06D06368002B05D069
:1029C00098472469002CF8D1280070BD2469002C98
:1029D000F3D1F9E710080020F0B5002915DD0E4B02
:1029E0000D271A680D4B0E4CD3185D426B414518EC
:1029F00020215B001E5F0478A64207D0936919422C
:102A0000FCD101301460A842F5D1F0BD93691942A0
:102A1000FCD11760F2E7C046380C00200080FCBFF4
:102A2000340C002030B504000D1E2EDD00201021D6
:102A30001F4B013C1A689369194216D10130936902
:102A40001942FCD1136823548542F4D1194B1B68F9
:102A5000002B08D050239363516B183B0B40164951
:102A60008C466244136028000EE0124B1B68002B5A
:102A700008D050239363516B183B0B400E498C4692
:102A80006244136000280FD030BD0A4B1B68002B36
:102A90000AD05022064B1B689A63596B183A0A40B9
:102AA00005498C4663441A6003204042ECE7C04667
:102AB000380C0020DC07002034100000064B10B555
:102AC0001B68002B06D00021044A12689163044A57
:102AD0001068984710BDC046DC070020380C002065
:102AE000E00700200822034B19688B691A42FCD1C9
:102AF0007047C046380C002070B51B4E1B4B326827
:102B00000500D3185842434114331C00002D04D053
:102B1000174B1A68002A11D070BD154E3368002B70
:102B2000FAD0002120009563FDF784FD20001149B3
:102B3000FDF7BCFD104B35601D60EDE71D600E4BD1
:102B4000200019600B49FDF787FD01212000FDF7EA
:102B500071FD502233689A63596B183A0A4007494D
:102B60008C4663441A60D7E7380C00200080FCBF15
:102B7000DC070020BD2A0010E00700203410000010
:102B80000D4B10B51B780D4B0D4C1B780D4B0221D6
:102B90001B780D4B00202360FDF77EFC02210120F5
:102BA000FDF77AFCE12120684902FEF75DFA012178
:102BB0000648FFF789FE10BD742F0010702F00101B
:102BC000380C00206C2F0010004003402002002031
:102BD00010B5064B064C82B00100009300220B2377
:102BE0002000FDF7ADFC02B010BDC046302F001034
:102BF0003C0C0020494A0300944663445A42534126
:102C00008022F0B54E46DE4657464546920294462F
:102C1000E0B55B421B0C424A1B04634485B0029042
:102C20001360404A0E004049136018000A68904340
:102C3000FBD10620FEF794FB0223029904008C4688
:102C40004A6801901A4003920A1D9046374AF10DD6
:102C5000624491461360700200295AD1A04258D8AC
:102C6000802464000227A246B446B30DB20204E0F9
:102C7000019E96420AD322002B000237574505D009
:102C800004000D00A4185D41002BF1D06646019BA5
:102C900080259A46B3463C02E41B6D002E00013DA0
:102CA000002D38D021005046FEF7DEFCE41B8345A2
:102CB000F4D2310079432D02029C802627612368DB
:102CC000A4465D40FF231B021D408023039A76012A
:102CD0009B014344664435601A604D460222072733
:102CE00060682A60256810406F40CF253D40356000
:102CF00018600F48844603206444206001981A60DD
:102D0000FEF7B2FC05B0F0BCBB46B246A946A046F1
:102D1000F0BD0227BBE73900CEE7C0460040FCBF4C
:102D200000E0004000F0004008C000400430000017
:102D30002420000010B583070AD00300032102E01D
:102D400001330B4205D01A78002AF9D1181A10BDA8
:102D5000030019680C4A0D4C8A188A4322420FD18D
:102D60005968094A04338A188A43224208D15968AB
:102D7000054A04338A188A432242F1D000E0013325
:102D80001A78002AFBD1E1E7FFFEFEFE80808080FA
:102D9000F8B5C0460000000001B40248844601BCFA
:102DA000604700BF5D01002001B40248844601BCB9
:102DB000604700BF8501002001B40248844601BC81
:102DC000604700BFC1000020E11400100D15001085
:102DD0005916001069260010ED170010A9250010E3
:102DE0008115001029150010491500105D150010FF
:102DF0004509001065150010CD0C0010A914001035
:082E000011060010FD02001094
:102E08000A2A2A2A2050414E4943202A2A2A0A00FF
:102E18000A000000486172647761726520616C6124
:102E2800726D20256420616C726561647920636C21
:102E380061696D65640000004861726420617373A4
:102E48006572740052656C6561736500626F6F74BA
:102E5800325F77323571303830000000322E312E33
:102E6800310000007069636F0000000041756469FB
:102E78006F5F444D415F44656D6F00004D61722086
:102E8800313620323032350006005250D3F07542C8
:102E98004C2E001006005250E182887F542E0010FC
:102EA80006005250ABB36053642E00100600525017
:102EB800BBFF3CB66C2E001006005250861C030265
:102EC800742E0010060052505422A29D842E001029
:102ED80005005250DE65F468F83000100D0A000055
:102EE8005541525420737464696E00005541525420
:102EF800207374646F757400554152542073746460
:102F0800696E202F207374646F7574000600525028
:102F180053B4F4A1002F0010080052501200000012
:102F280008005250921000004E6F20444D4120631B
:102F380068616E6E656C7320617265206176616987
:082F48006C61626C6500000081
:102F5000902E00109C2E0010A82E0010B42E0010F1
:102F6000C02E0010CC2E0010D82E0010282F0010DC
:082F7000202F0010142F0010A7
:102F7800F0B5C646150000B504001E000268EFF360
:102F8800108172B61368002BFCD0BFF35F8F042347
:102F9800E356002B2DDB2268BFF35F8F0020106003
:102FA80081F31088D0221206127852B290469A42C3
:102FB80003D1002080BCB846F0BD00270BE0236891
:102FC800BFF35F8F1F6081F310882800310000F085
:102FD80033F80028EDD12268EFF3108172B6136838
:102FE800002BFCD0BFF35F8F23797F2BE7D94346B3
:102FF80002E0D0231B061B6823712368BFF35F8F91
:1030080000221A6081F310880120D3E70268EFF3E9
:10301800108172B61368002BFCD0BFF35F8FFF23BB
:1030280003710368BFF35F8F00221A6081F3108871
:1030380040BF70477047C04601B40248844601BC8F
:10304800604700BFCD0E0010DC0500201000000016
:103058000000000000000100000000000000000067
:103068000000020000000000000000000000030053
:1030780000000000000000000000FF000000000049
:1030880001B5486801318E46004770460938014944
:10309800884701BD81080010000000000000000002
:1030A80000000000000000000000000040020020B6
:1030B800503300004C3300005433000052330000FA
:1030C8004D5300004D4300005334000043340000CA
:1030D800D9290010E52A0010252A0010F92A001025
:1030E80000000000000100000000000000000000D7
:04000005100001E9FD
:00000001FF
